{
	"data": {
		"bytecode": {
			"linkReferences": {
				"poseidon-solidity/PoseidonT3.sol": {
					"PoseidonT3": [
						{
							"length": 20,
							"start": 9715
						},
						{
							"length": 20,
							"start": 10565
						},
						{
							"length": 20,
							"start": 11270
						},
						{
							"length": 20,
							"start": 11437
						},
						{
							"length": 20,
							"start": 11742
						},
						{
							"length": 20,
							"start": 11909
						}
					]
				}
			},
			"object": "60806040527f1aa76366126b963b95cf34f889bddfb84c20fe7d5ed998b75b02489b21ce283e600655606560075534801561003957600080fd5b50604051613fad380380613fad833981810160405281019061005b919061022b565b8080600360006101000a81548173ffffffffffffffffffffffffffffffffffffffff021916908373ffffffffffffffffffffffffffffffffffffffff160217905550506000600190505b606481116100d0576100bd81306100d760201b60201c565b80806100c890610291565b9150506100a5565b50506102d9565b806001600084815260200190815260200160002060006101000a81548173ffffffffffffffffffffffffffffffffffffffff021916908373ffffffffffffffffffffffffffffffffffffffff160217905550817ff0adfb94eab6daf835deb69c5738fe636150c3dfd08094a76f39b963dc8cb05a60405160405180910390a28073ffffffffffffffffffffffffffffffffffffffff16600073ffffffffffffffffffffffffffffffffffffffff16837f0ba83579a0e79193ef649b9f5a8759d35af086ba62a3e207b52e4a8ae30d49e360405160405180910390a45050565b600080fd5b600073ffffffffffffffffffffffffffffffffffffffff82169050919050565b60006101e6826101bb565b9050919050565b60006101f8826101db565b9050919050565b610208816101ed565b811461021357600080fd5b50565b600081519050610225816101ff565b92915050565b600060208284031215610241576102406101b6565b5b600061024f84828501610216565b91505092915050565b7f4e487b7100000000000000000000000000000000000000000000000000000000600052601160045260246000fd5b6000819050919050565b600061029c82610287565b91507fffffffffffffffffffffffffffffffffffffffffffffffffffffffffffffffff82036102ce576102cd610258565b5b600182019050919050565b613cc5806102e86000396000f3fe6080604052600436106101b75760003560e01c80637ee35a0c116100ec578063c43850e01161008a578063da3cda5211610064578063da3cda5214610666578063dabc4d511461068f578063e2bbb158146106cc578063fcf0b6ec146106e8576101b7565b8063c43850e0146105e9578063d0d898dd14610612578063d24924fe1461063b576101b7565b806396324bd4116100c657806396324bd414610507578063a9961c9414610544578063b69ef8a814610581578063c41a360a146105ac576101b7565b80637ee35a0c146104765780637fa767bc146104b357806390509d44146104ca576101b7565b8063441a3e7011610159578063575185ed11610133578063575185ed146103a85780635c3f3b60146103d35780636389e107146104105780636cdd32fe1461044d576101b7565b8063441a3e7014610319578063456f418814610342578063568ee8261461037f576101b7565b80631e010439116101955780631e0104391461024b5780632b7ac3f3146102885780632c880363146102b35780634178c4d5146102f0576101b7565b806304245371146101bc57806306dd8485146101e55780631783efc314610222575b600080fd5b3480156101c857600080fd5b506101e360048036038101906101de9190612df4565b610711565b005b3480156101f157600080fd5b5061020c60048036038101906102079190612e54565b610752565b6040516102199190612ea3565b60405180910390f35b34801561022e57600080fd5b5061024960048036038101906102449190612e54565b610780565b005b34801561025757600080fd5b50610272600480360381019061026d9190612ebe565b6107bf565b60405161027f9190612ea3565b60405180910390f35b34801561029457600080fd5b5061029d6107df565b6040516102aa9190612f6a565b60405180910390f35b3480156102bf57600080fd5b506102da60048036038101906102d59190612fc3565b610805565b6040516102e79190612ea3565b60405180910390f35b3480156102fc57600080fd5b5061031760048036038101906103129190613003565b61084b565b005b34801561032557600080fd5b50610340600480360381019061033b9190612e54565b610890565b005b34801561034e57600080fd5b50610369600480360381019061036491906130b0565b610a4c565b604051610376919061310c565b60405180910390f35b34801561038b57600080fd5b506103a660048036038101906103a19190613127565b610e97565b005b3480156103b457600080fd5b506103bd610ea5565b6040516103ca9190612ea3565b60405180910390f35b3480156103df57600080fd5b506103fa60048036038101906103f59190613167565b610eea565b6040516104079190612ea3565b60405180910390f35b34801561041c57600080fd5b5061043760048036038101906104329190612ebe565b610f31565b6040516104449190612ea3565b60405180910390f35b34801561045957600080fd5b50610474600480360381019061046f9190613194565b610f50565b005b34801561048257600080fd5b5061049d60048036038101906104989190612ebe565b610f93565b6040516104aa9190612ea3565b60405180910390f35b3480156104bf57600080fd5b506104c8610fb2565b005b3480156104d657600080fd5b506104f160048036038101906104ec9190612e54565b611023565b6040516104fe919061310c565b60405180910390f35b34801561051357600080fd5b5061052e60048036038101906105299190612ebe565b611051565b60405161053b9190612ea3565b60405180910390f35b34801561055057600080fd5b5061056b60048036038101906105669190612ebe565b61106f565b6040516105789190613217565b60405180910390f35b34801561058d57600080fd5b506105966110ac565b6040516105a39190612ea3565b60405180910390f35b3480156105b857600080fd5b506105d360048036038101906105ce9190612ebe565b6110b4565b6040516105e09190613217565b60405180910390f35b3480156105f557600080fd5b50610610600480360381019061060b9190613232565b6110f4565b005b34801561061e57600080fd5b50610639600480360381019061063491906130b0565b611262565b005b34801561064757600080fd5b506106506113b1565b60405161065d9190612ea3565b60405180910390f35b34801561067257600080fd5b5061068d60048036038101906106889190612ebe565b6113b7565b005b34801561069b57600080fd5b506106b660048036038101906106b19190612ebe565b6113c3565b6040516106c39190612ea3565b60405180910390f35b6106e660048036038101906106e19190612e54565b6113e6565b005b3480156106f457600080fd5b5061070f600480360381019061070a9190612e54565b6114c1565b005b600061071e8484846115d0565b9050426004600086815260200190815260200160002060010160008381526020019081526020016000208190555050505050565b6000610778826000808681526020019081526020016000206116e790919063ffffffff16565b905092915050565b600061078c8383611761565b90504260046000858152602001908152602001600020600101600083815260200190815260200160002081905550505050565b600060086000838152602001908152602001600020600001549050919050565b600360009054906101000a900473ffffffffffffffffffffffffffffffffffffffff1681565b60006005600081548092919061081a906132b7565b91905055905061082a8184611873565b81600460008381526020019081526020016000206000018190555092915050565b600061085a8686868686611952565b90504260046000888152602001908152602001600020600101600083815260200190815260200160002081905550505050505050565b3373ffffffffffffffffffffffffffffffffffffffff166008600084815260200190815260200160002060010160009054906101000a900473ffffffffffffffffffffffffffffffffffffffff1673ffffffffffffffffffffffffffffffffffffffff1614610934576040517f08c379a000000000000000000000000000000000000000000000000000000000815260040161092b9061335c565b60405180910390fd5b600060086000848152602001908152602001600020600001548211156109d2573373ffffffffffffffffffffffffffffffffffffffff166108fc60086000868152602001908152602001600020600001549081150290604051600060405180830381858888f193505050501580156109b0573d6000803e3d6000fd5b5060006008600085815260200190815260200160002060000181905550610a47565b3373ffffffffffffffffffffffffffffffffffffffff166108fc829081150290604051600060405180830381858888f19350505050158015610a18573d6000803e3d6000fd5b5080600860008581526020019081526020016000206000016000828254610a3f919061337c565b925050819055505b505050565b600082600073ffffffffffffffffffffffffffffffffffffffff166001600083815260200190815260200160002060009054906101000a900473ffffffffffffffffffffffffffffffffffffffff1673ffffffffffffffffffffffffffffffffffffffff1603610ae8576040517f029f057900000000000000000000000000000000000000000000000000000000815260040160405180910390fd5b600160ff1683600001351080610b055750600c60ff168360000135115b15610b3c576040517fecf64f1200000000000000000000000000000000000000000000000000000000815260040160405180910390fd5b6000610b4785610f93565b905060008103610b83576040517fc8b02e0100000000000000000000000000000000000000000000000000000000815260040160405180910390fd5b6000610b8e866113c3565b905080856020013514610c685760006004600088815260200190815260200160002060010160008760200135815260200190815260200160002054905060006004600089815260200190815260200160002060000154905060008203610c20576040517f4d32958600000000000000000000000000000000000000000000000000000000815260040160405180910390fd5b8082610c2c91906133b0565b421115610c65576040517f9581a99000000000000000000000000000000000000000000000000000000000815260040160405180910390fd5b50505b600360009054906101000a900473ffffffffffffffffffffffffffffffffffffffff1673ffffffffffffffffffffffffffffffffffffffff1663a23f019960405180604001604052808860a001600060088110610cc857610cc76133e4565b5b602002013581526020018860a001600160088110610ce957610ce86133e4565b5b6020020135815250604051806040016040528060405180604001604052808b60a001600260088110610d1e57610d1d6133e4565b5b602002013581526020018b60a001600360088110610d3f57610d3e6133e4565b5b6020020135815250815260200160405180604001604052808b60a001600460088110610d6e57610d6d6133e4565b5b602002013581526020018b60a001600560088110610d8f57610d8e6133e4565b5b602002013581525081525060405180604001604052808a60a001600660088110610dbc57610dbb6133e4565b5b602002013581526020018a60a001600760088110610ddd57610ddc6133e4565b5b602002013581525060405180608001604052808b6020013581526020018b604001358152602001610e118c60600135611a8a565b8152602001610e238c60800135611a8a565b8152508a600001356040518663ffffffff1660e01b8152600401610e4b959493929190613640565b602060405180830381865afa158015610e68573d6000803e3d6000fd5b505050506040513d601f19601f82011682018060405250810190610e8c91906136c2565b935050505092915050565b610ea18282611ac1565b5050565b600060056000815480929190610eba906132b7565b919050559050610eca8133611873565b610e10600460008381526020019081526020016000206000018190555090565b600060056000815480929190610eff906132b7565b919050559050610f0f8183611873565b610e106004600083815260200190815260200160002060000181905550919050565b6000806000838152602001908152602001600020600101549050919050565b6000610f5e85858585611c0c565b905042600460008781526020019081526020016000206001016000838152602001908152602001600020819055505050505050565b6000806000838152602001908152602001600020600001549050919050565b3360086000600754815260200190815260200160002060010160006101000a81548173ffffffffffffffffffffffffffffffffffffffff021916908373ffffffffffffffffffffffffffffffffffffffff1602179055506007600081548092919061101c906132b7565b9190505550565b600061104982600080868152602001908152602001600020611d3f90919063ffffffff16565b905092915050565b60046020528060005260406000206000915090508060000154905081565b60006001600083815260200190815260200160002060009054906101000a900473ffffffffffffffffffffffffffffffffffffffff169050919050565b600047905090565b60006008600083815260200190815260200160002060010160009054906101000a900473ffffffffffffffffffffffffffffffffffffffff169050919050565b82608001356006541461113c576040517f08c379a00000000000000000000000000000000000000000000000000000000081526004016111339061373b565b60405180910390fd5b6004600083815260200190815260200160002060020160008460400135815260200190815260200160002060009054906101000a900460ff16156111ac576040517f208b15e800000000000000000000000000000000000000000000000000000000815260040160405180910390fd5b6111b68284610a4c565b6111ec576040517f4aa6bc4000000000000000000000000000000000000000000000000000000000815260040160405180910390fd5b60016004600084815260200190815260200160002060020160008560400135815260200190815260200160002060006101000a81548160ff0219169083151502179055508160086000838152602001908152602001600020600001600082825461125691906133b0565b92505081905550505050565b6004600083815260200190815260200160002060020160008260400135815260200190815260200160002060009054906101000a900460ff16156112d2576040517f208b15e800000000000000000000000000000000000000000000000000000000815260040160405180910390fd5b6112dc8282610a4c565b611312576040517f4aa6bc4000000000000000000000000000000000000000000000000000000000815260040160405180910390fd5b60016004600084815260200190815260200160002060020160008360400135815260200190815260200160002060006101000a81548160ff02191690831515021790555080608001358160200135837f0c32e14cfe81a05d371c248d22de6b7ae849e981b76a1f8842e7b6da73fc405a8460000135856040013586606001358760a0016040516113a59493929190613775565b60405180910390a45050565b60055481565b6113c081611d62565b50565b60006113df600080848152602001908152602001600020611f19565b9050919050565b816001111580156113f8575060648211155b611437576040517f08c379a000000000000000000000000000000000000000000000000000000000815260040161142e90613807565b60405180910390fd5b600134611444919061337c565b82111561145057600080fd5b3073ffffffffffffffffffffffffffffffffffffffff16631783efc383836040518363ffffffff1660e01b815260040161148b929190613827565b600060405180830381600087803b1580156114a557600080fd5b505af11580156114b9573d6000803e3d6000fd5b505050505050565b813373ffffffffffffffffffffffffffffffffffffffff166001600083815260200190815260200160002060009054906101000a900473ffffffffffffffffffffffffffffffffffffffff1673ffffffffffffffffffffffffffffffffffffffff161461155a576040517fbb9bf27800000000000000000000000000000000000000000000000000000000815260040160405180910390fd5b600060046000858152602001908152602001600020600001549050826004600086815260200190815260200160002060000181905550837f264b2a8f6763c084235fe832ba903482b2ef1a521336881fc75b987c2dfd29c582856040516115c2929190613827565b60405180910390a250505050565b6000833373ffffffffffffffffffffffffffffffffffffffff166001600083815260200190815260200160002060009054906101000a900473ffffffffffffffffffffffffffffffffffffffff1673ffffffffffffffffffffffffffffffffffffffff161461166b576040517fbb9bf27800000000000000000000000000000000000000000000000000000000815260040160405180910390fd5b600061167686610f93565b905061169e85856000808a8152602001908152602001600020611f3c9092919063ffffffff16565b9250857f61e5e8054e3daf084a0c6c646c065e8bf5e7ca4d5567bda942309bd1652f349d828787876040516116d694939291906138c2565b60405180910390a250509392505050565b6000808360030160008481526020019081526020016000205403611737576040517f7204756c00000000000000000000000000000000000000000000000000000000815260040160405180910390fd5b600183600301600084815260200190815260200160002054611759919061337c565b905092915050565b6000823373ffffffffffffffffffffffffffffffffffffffff166001600083815260200190815260200160002060009054906101000a900473ffffffffffffffffffffffffffffffffffffffff1673ffffffffffffffffffffffffffffffffffffffff16146117fc576040517fbb9bf27800000000000000000000000000000000000000000000000000000000815260040160405180910390fd5b600061180785610f93565b905061182d8460008088815260200190815260200160002061252090919063ffffffff16565b9250847f19239b3f93cd10558aaf11423af70c77763bf54f52bcc75bfa74d4d13548cde982868660405161186393929190613902565b60405180910390a2505092915050565b806001600084815260200190815260200160002060006101000a81548173ffffffffffffffffffffffffffffffffffffffff021916908373ffffffffffffffffffffffffffffffffffffffff160217905550817ff0adfb94eab6daf835deb69c5738fe636150c3dfd08094a76f39b963dc8cb05a60405160405180910390a28073ffffffffffffffffffffffffffffffffffffffff16600073ffffffffffffffffffffffffffffffffffffffff16837f0ba83579a0e79193ef649b9f5a8759d35af086ba62a3e207b52e4a8ae30d49e360405160405180910390a45050565b6000853373ffffffffffffffffffffffffffffffffffffffff166001600083815260200190815260200160002060009054906101000a900473ffffffffffffffffffffffffffffffffffffffff1673ffffffffffffffffffffffffffffffffffffffff16146119ed576040517fbb9bf27800000000000000000000000000000000000000000000000000000000815260040160405180910390fd5b6000611a13876000808b81526020019081526020016000206116e790919063ffffffff16565b9050611a3f878787876000808e815260200190815260200160002061277f90949392919063ffffffff16565b9250877fea3588e4a2a0c93d6a0e69dfeaf7496f43ccccf02ad9ce0a5b7627cbca4b61b182898987604051611a779493929190613939565b60405180910390a2505095945050505050565b6000600882604051602001611a9f919061399f565b6040516020818303038152906040528051906020012060001c901c9050919050565b813373ffffffffffffffffffffffffffffffffffffffff166001600083815260200190815260200160002060009054906101000a900473ffffffffffffffffffffffffffffffffffffffff1673ffffffffffffffffffffffffffffffffffffffff1614611b5a576040517fbb9bf27800000000000000000000000000000000000000000000000000000000815260040160405180910390fd5b816002600085815260200190815260200160002060006101000a81548173ffffffffffffffffffffffffffffffffffffffff021916908373ffffffffffffffffffffffffffffffffffffffff1602179055508173ffffffffffffffffffffffffffffffffffffffff163373ffffffffffffffffffffffffffffffffffffffff16847f1018365553cce55d9cb02ef73e18cc9311894f3fe1d1eafd235ac2d26cd8ba5860405160405180910390a4505050565b6000843373ffffffffffffffffffffffffffffffffffffffff166001600083815260200190815260200160002060009054906101000a900473ffffffffffffffffffffffffffffffffffffffff1673ffffffffffffffffffffffffffffffffffffffff1614611ca7576040517fbb9bf27800000000000000000000000000000000000000000000000000000000815260040160405180910390fd5b6000611ccd866000808a81526020019081526020016000206116e790919063ffffffff16565b9050611cf78686866000808c8152602001908152602001600020612d35909392919063ffffffff16565b9250867f3108849c053c77b8073a11256dffb5ffd5b55e93e105a355e1c9061db890d871828886604051611d2d93929190613902565b60405180910390a25050949350505050565b600080836003016000848152602001908152602001600020541415905092915050565b3373ffffffffffffffffffffffffffffffffffffffff166002600083815260200190815260200160002060009054906101000a900473ffffffffffffffffffffffffffffffffffffffff1673ffffffffffffffffffffffffffffffffffffffff1614611dfa576040517f34c4245d00000000000000000000000000000000000000000000000000000000815260040160405180910390fd5b60006001600083815260200190815260200160002060009054906101000a900473ffffffffffffffffffffffffffffffffffffffff169050336001600084815260200190815260200160002060006101000a81548173ffffffffffffffffffffffffffffffffffffffff021916908373ffffffffffffffffffffffffffffffffffffffff1602179055506002600083815260200190815260200160002060006101000a81549073ffffffffffffffffffffffffffffffffffffffff02191690553373ffffffffffffffffffffffffffffffffffffffff168173ffffffffffffffffffffffffffffffffffffffff16837f0ba83579a0e79193ef649b9f5a8759d35af086ba62a3e207b52e4a8ae30d49e360405160405180910390a45050565b600081600201600083600101548152602001908152602001600020549050919050565b6000808460000154905060005b848490508110156120c8577f30644e72e131a029b85045b68181585d2833e84879b9709143e1f593f0000001858583818110611f8857611f876133e4565b5b9050602002013510611fc6576040517fc380a82e00000000000000000000000000000000000000000000000000000000815260040160405180910390fd5b6000858583818110611fdb57611fda6133e4565b5b9050602002013503612019576040517f29691be200000000000000000000000000000000000000000000000000000000815260040160405180910390fd5b61203c868686848181106120305761202f6133e4565b5b90506020020135611d3f565b15612073576040517f258a195a00000000000000000000000000000000000000000000000000000000815260040160405180910390fd5b8060018361208191906133b0565b61208b91906133b0565b8660030160008787858181106120a4576120a36133e4565b5b90506020020135815260200190815260200160002081905550806001019050611f49565b506060848480806020026020016040519081016040528093929190818152602001838360200280828437600081840152601f19601f8201169050808301925050505050505090506000866001015490505b858590508361212891906133b0565b8160026121359190613aed565b101561214c5780612145906132b7565b9050612119565b80876001018190555060008390506000878790508561216b91906133b0565b90506000600183901c90506000600180600185612188919061337c565b901c61219491906133b0565b905060005b858110156124a757600083836121af919061337c565b905060008167ffffffffffffffff8111156121cd576121cc613b38565b5b6040519080825280602002602001820160405280156121fb5781602001602082028036833780820191505090505b50905060005b828110156123ce576000886002888461221a91906133b0565b6122249190613b67565b1015612247578f6002016000868152602001908152602001600020549050612287565b8a896002898561225791906133b0565b6122619190613b67565b61226b919061337c565b8151811061227c5761227b6133e4565b5b602002602001015190505b600088600160028a8661229a91906133b0565b6122a49190613b67565b6122ae91906133b0565b1015612300578b8a600160028b876122c691906133b0565b6122d09190613b67565b6122da91906133b0565b6122e4919061337c565b815181106122f5576122f46133e4565b5b602002602001015190505b600080821461239c5773__$75f79a42d9bcbdbb69ad79ebd80f556f39$__63561558fe6040518060400160405280868152602001858152506040518263ffffffff1660e01b81526004016123549190613c32565b602060405180830381865af4158015612371573d6000803e3d6000fd5b505050506040513d601f19601f820116820180604052508101906123959190613c62565b90506123a0565b8290505b808585815181106123b4576123b36133e4565b5b602002602001018181525050836001019350505050612201565b5060018087160361241f578860018a516123e8919061337c565b815181106123f9576123f86133e4565b5b60200260200101518e60020160008581526020019081526020016000208190555061246c565b60018951111561246b578860028a51612438919061337c565b81518110612449576124486133e4565b5b60200260200101518e6002016000858152602001908152602001600020819055505b5b849650600185901c945080985083955060018060018661248c919061337c565b901c61249891906133b0565b93508260010192505050612199565b5089899050876124b791906133b0565b8b60000181905550856000815181106124d3576124d26133e4565b5b60200260200101518b60020160008781526020019081526020016000208190555085600081518110612508576125076133e4565b5b60200260200101519750505050505050509392505050565b60007f30644e72e131a029b85045b68181585d2833e84879b9709143e1f593f0000001821061257b576040517fc380a82e00000000000000000000000000000000000000000000000000000000815260040160405180910390fd5b600082036125b5576040517f29691be200000000000000000000000000000000000000000000000000000000815260040160405180910390fd5b6125bf8383611d3f565b156125f6576040517f258a195a00000000000000000000000000000000000000000000000000000000815260040160405180910390fd5b60008360000154905060008460010154905060018261261591906133b0565b8160026126229190613aed565b10156126355780612632906132b7565b90505b808560010181905550600084905060005b82811015612729576001808286901c16036127035773__$75f79a42d9bcbdbb69ad79ebd80f556f39$__63561558fe60405180604001604052808a6002016000868152602001908152602001600020548152602001858152506040518263ffffffff1660e01b81526004016126bb9190613c32565b602060405180830381865af41580156126d8573d6000803e3d6000fd5b505050506040513d601f19601f820116820180604052508101906126fc9190613c62565b915061271e565b81876002016000838152602001908152602001600020819055505b806001019050612646565b5082612734906132b7565b92508286600001819055508086600201600084815260200190815260200160002081905550828660030160008781526020019081526020016000208190555080935050505092915050565b60007f30644e72e131a029b85045b68181585d2833e84879b9709143e1f593f000000184106127da576040517fc380a82e00000000000000000000000000000000000000000000000000000000815260040160405180910390fd5b6127e48686611d3f565b61281a576040517f7204756c00000000000000000000000000000000000000000000000000000000815260040160405180910390fd5b6128248685611d3f565b1561285b576040517f258a195a00000000000000000000000000000000000000000000000000000000815260040160405180910390fd5b600061286787876116e7565b905060008590506000879050600060018a60000154612886919061337c565b90506000808b60010154905060005b81811015612c74576001808289901c1603612a75577f30644e72e131a029b85045b68181585d2833e84879b9709143e1f593f00000018a8a858181106128de576128dd6133e4565b5b905060200201351061291c576040517fc380a82e00000000000000000000000000000000000000000000000000000000815260040160405180910390fd5b73__$75f79a42d9bcbdbb69ad79ebd80f556f39$__63561558fe60405180604001604052808d8d88818110612954576129536133e4565b5b905060200201358152602001898152506040518263ffffffff1660e01b81526004016129809190613c32565b602060405180830381865af415801561299d573d6000803e3d6000fd5b505050506040513d601f19601f820116820180604052508101906129c19190613c62565b955073__$75f79a42d9bcbdbb69ad79ebd80f556f39$__63561558fe60405180604001604052808d8d888181106129fb576129fa6133e4565b5b905060200201358152602001888152506040518263ffffffff1660e01b8152600401612a279190613c32565b602060405180830381865af4158015612a44573d6000803e3d6000fd5b505050506040513d601f19601f82011682018060405250810190612a689190613c62565b9450826001019250612c69565b8084901c8188901c14612c4d577f30644e72e131a029b85045b68181585d2833e84879b9709143e1f593f00000018a8a85818110612ab657612ab56133e4565b5b9050602002013510612af4576040517fc380a82e00000000000000000000000000000000000000000000000000000000815260040160405180910390fd5b73__$75f79a42d9bcbdbb69ad79ebd80f556f39$__63561558fe60405180604001604052808981526020018d8d88818110612b3257612b316133e4565b5b905060200201358152506040518263ffffffff1660e01b8152600401612b589190613c32565b602060405180830381865af4158015612b75573d6000803e3d6000fd5b505050506040513d601f19601f82011682018060405250810190612b999190613c62565b955073__$75f79a42d9bcbdbb69ad79ebd80f556f39$__63561558fe60405180604001604052808881526020018d8d88818110612bd957612bd86133e4565b5b905060200201358152506040518263ffffffff1660e01b8152600401612bff9190613c32565b602060405180830381865af4158015612c1c573d6000803e3d6000fd5b505050506040513d601f19601f82011682018060405250810190612c409190613c62565b9450826001019250612c68565b858d6002016000858152602001908152602001600020819055505b5b806001019050612895565b50612c7e8c611f19565b8414612cb6576040517f3fa930c600000000000000000000000000000000000000000000000000000000815260040160405180910390fd5b848c60020160008381526020019081526020016000208190555060008a14612d08578b60030160008c8152602001908152602001600020548c60030160008c8152602001908152602001600020819055505b60008c60030160008d81526020019081526020016000208190555084965050505050505095945050505050565b6000612d4585856000868661277f565b9050949350505050565b600080fd5b600080fd5b6000819050919050565b612d6c81612d59565b8114612d7757600080fd5b50565b600081359050612d8981612d63565b92915050565b600080fd5b600080fd5b600080fd5b60008083601f840112612db457612db3612d8f565b5b8235905067ffffffffffffffff811115612dd157612dd0612d94565b5b602083019150836020820283011115612ded57612dec612d99565b5b9250929050565b600080600060408486031215612e0d57612e0c612d4f565b5b6000612e1b86828701612d7a565b935050602084013567ffffffffffffffff811115612e3c57612e3b612d54565b5b612e4886828701612d9e565b92509250509250925092565b60008060408385031215612e6b57612e6a612d4f565b5b6000612e7985828601612d7a565b9250506020612e8a85828601612d7a565b9150509250929050565b612e9d81612d59565b82525050565b6000602082019050612eb86000830184612e94565b92915050565b600060208284031215612ed457612ed3612d4f565b5b6000612ee284828501612d7a565b91505092915050565b600073ffffffffffffffffffffffffffffffffffffffff82169050919050565b6000819050919050565b6000612f30612f2b612f2684612eeb565b612f0b565b612eeb565b9050919050565b6000612f4282612f15565b9050919050565b6000612f5482612f37565b9050919050565b612f6481612f49565b82525050565b6000602082019050612f7f6000830184612f5b565b92915050565b6000612f9082612eeb565b9050919050565b612fa081612f85565b8114612fab57600080fd5b50565b600081359050612fbd81612f97565b92915050565b60008060408385031215612fda57612fd9612d4f565b5b6000612fe885828601612fae565b9250506020612ff985828601612d7a565b9150509250929050565b60008060008060006080868803121561301f5761301e612d4f565b5b600061302d88828901612d7a565b955050602061303e88828901612d7a565b945050604061304f88828901612d7a565b935050606086013567ffffffffffffffff8111156130705761306f612d54565b5b61307c88828901612d9e565b92509250509295509295909350565b600080fd5b60006101a082840312156130a7576130a661308b565b5b81905092915050565b6000806101c083850312156130c8576130c7612d4f565b5b60006130d685828601612d7a565b92505060206130e785828601613090565b9150509250929050565b60008115159050919050565b613106816130f1565b82525050565b600060208201905061312160008301846130fd565b92915050565b6000806040838503121561313e5761313d612d4f565b5b600061314c85828601612d7a565b925050602061315d85828601612fae565b9150509250929050565b60006020828403121561317d5761317c612d4f565b5b600061318b84828501612fae565b91505092915050565b600080600080606085870312156131ae576131ad612d4f565b5b60006131bc87828801612d7a565b94505060206131cd87828801612d7a565b935050604085013567ffffffffffffffff8111156131ee576131ed612d54565b5b6131fa87828801612d9e565b925092505092959194509250565b61321181612f85565b82525050565b600060208201905061322c6000830184613208565b92915050565b60008060006101e0848603121561324c5761324b612d4f565b5b600061325a86828701613090565b9350506101a061326c86828701612d7a565b9250506101c061327e86828701612d7a565b9150509250925092565b7f4e487b7100000000000000000000000000000000000000000000000000000000600052601160045260246000fd5b60006132c282612d59565b91507fffffffffffffffffffffffffffffffffffffffffffffffffffffffffffffffff82036132f4576132f3613288565b5b600182019050919050565b600082825260208201905092915050565b7f7572206e6f7420746865206f776e6572206f662074686520626f780000000000600082015250565b6000613346601b836132ff565b915061335182613310565b602082019050919050565b6000602082019050818103600083015261337581613339565b9050919050565b600061338782612d59565b915061339283612d59565b92508282039050818111156133aa576133a9613288565b5b92915050565b60006133bb82612d59565b91506133c683612d59565b92508282019050808211156133de576133dd613288565b5b92915050565b7f4e487b7100000000000000000000000000000000000000000000000000000000600052603260045260246000fd5b600060029050919050565b600081905092915050565b6000819050919050565b61343c81612d59565b82525050565b600061344e8383613433565b60208301905092915050565b6000602082019050919050565b61347081613413565b61347a818461341e565b925061348582613429565b8060005b838110156134b657815161349d8782613442565b96506134a88361345a565b925050600181019050613489565b505050505050565b600060029050919050565b600081905092915050565b6000819050919050565b600081905092915050565b6134f281613413565b6134fc81846134de565b925061350782613429565b8060005b8381101561353857815161351f8782613442565b965061352a8361345a565b92505060018101905061350b565b505050505050565b600061354c83836134e9565b60408301905092915050565b6000602082019050919050565b61356e816134be565b61357881846134c9565b9250613583826134d4565b8060005b838110156135b457815161359b8782613540565b96506135a683613558565b925050600181019050613587565b505050505050565b600060049050919050565b600081905092915050565b6000819050919050565b6000602082019050919050565b6135f2816135bc565b6135fc81846135c7565b9250613607826135d2565b8060005b8381101561363857815161361f8782613442565b965061362a836135dc565b92505060018101905061360b565b505050505050565b60006101a0820190506136566000830188613467565b6136636040830187613565565b61367060c0830186613467565b61367e6101008301856135e9565b61368c610180830184612e94565b9695505050505050565b61369f816130f1565b81146136aa57600080fd5b50565b6000815190506136bc81613696565b92915050565b6000602082840312156136d8576136d7612d4f565b5b60006136e6848285016136ad565b91505092915050565b7f73636f7065206e6f7420636f7272656374000000000000000000000000000000600082015250565b60006137256011836132ff565b9150613730826136ef565b602082019050919050565b6000602082019050818103600083015261375481613718565b9050919050565b82818337505050565b613771610100838361375b565b5050565b60006101608201905061378b6000830187612e94565b6137986020830186612e94565b6137a56040830185612e94565b6137b26060830184613764565b95945050505050565b7f416d6f756e74206973206e6f742076616c696400000000000000000000000000600082015250565b60006137f16013836132ff565b91506137fc826137bb565b602082019050919050565b60006020820190508181036000830152613820816137e4565b9050919050565b600060408201905061383c6000830185612e94565b6138496020830184612e94565b9392505050565b600082825260208201905092915050565b600080fd5b60006138728385613850565b93507f07ffffffffffffffffffffffffffffffffffffffffffffffffffffffffffffff8311156138a5576138a4613861565b5b6020830292506138b683858461375b565b82840190509392505050565b60006060820190506138d76000830187612e94565b81810360208301526138ea818587613866565b90506138f96040830184612e94565b95945050505050565b60006060820190506139176000830186612e94565b6139246020830185612e94565b6139316040830184612e94565b949350505050565b600060808201905061394e6000830187612e94565b61395b6020830186612e94565b6139686040830185612e94565b6139756060830184612e94565b95945050505050565b6000819050919050565b61399961399482612d59565b61397e565b82525050565b60006139ab8284613988565b60208201915081905092915050565b60008160011c9050919050565b6000808291508390505b6001851115613a11578086048111156139ed576139ec613288565b5b60018516156139fc5780820291505b8081029050613a0a856139ba565b94506139d1565b94509492505050565b600082613a2a5760019050613ae6565b81613a385760009050613ae6565b8160018114613a4e5760028114613a5857613a87565b6001915050613ae6565b60ff841115613a6a57613a69613288565b5b8360020a915084821115613a8157613a80613288565b5b50613ae6565b5060208310610133831016604e8410600b8410161715613abc5782820a905083811115613ab757613ab6613288565b5b613ae6565b613ac984848460016139c7565b92509050818404811115613ae057613adf613288565b5b81810290505b9392505050565b6000613af882612d59565b9150613b0383612d59565b9250613b307fffffffffffffffffffffffffffffffffffffffffffffffffffffffffffffffff8484613a1a565b905092915050565b7f4e487b7100000000000000000000000000000000000000000000000000000000600052604160045260246000fd5b6000613b7282612d59565b9150613b7d83612d59565b9250828202613b8b81612d59565b91508282048414831517613ba257613ba1613288565b5b5092915050565b600081905092915050565b613bbd81612d59565b82525050565b6000613bcf8383613bb4565b60208301905092915050565b613be481613413565b613bee8184613ba9565b9250613bf982613429565b8060005b83811015613c2a578151613c118782613bc3565b9650613c1c8361345a565b925050600181019050613bfd565b505050505050565b6000604082019050613c476000830184613bdb565b92915050565b600081519050613c5c81612d63565b92915050565b600060208284031215613c7857613c77612d4f565b5b6000613c8684828501613c4d565b9150509291505056fea2646970667358221220252dcbcc303025e645fc7205f43124632cbed0effb97d10c7b2a05fbc333e56964736f6c634300081a0033",
			"opcodes": "PUSH1 0x80 PUSH1 0x40 MSTORE PUSH32 0x1AA76366126B963B95CF34F889BDDFB84C20FE7D5ED998B75B02489B21CE283E PUSH1 0x6 SSTORE PUSH1 0x65 PUSH1 0x7 SSTORE CALLVALUE DUP1 ISZERO PUSH2 0x39 JUMPI PUSH1 0x0 DUP1 REVERT JUMPDEST POP PUSH1 0x40 MLOAD PUSH2 0x3FAD CODESIZE SUB DUP1 PUSH2 0x3FAD DUP4 CODECOPY DUP2 DUP2 ADD PUSH1 0x40 MSTORE DUP2 ADD SWAP1 PUSH2 0x5B SWAP2 SWAP1 PUSH2 0x22B JUMP JUMPDEST DUP1 DUP1 PUSH1 0x3 PUSH1 0x0 PUSH2 0x100 EXP DUP2 SLOAD DUP2 PUSH20 0xFFFFFFFFFFFFFFFFFFFFFFFFFFFFFFFFFFFFFFFF MUL NOT AND SWAP1 DUP4 PUSH20 0xFFFFFFFFFFFFFFFFFFFFFFFFFFFFFFFFFFFFFFFF AND MUL OR SWAP1 SSTORE POP POP PUSH1 0x0 PUSH1 0x1 SWAP1 POP JUMPDEST PUSH1 0x64 DUP2 GT PUSH2 0xD0 JUMPI PUSH2 0xBD DUP2 ADDRESS PUSH2 0xD7 PUSH1 0x20 SHL PUSH1 0x20 SHR JUMP JUMPDEST DUP1 DUP1 PUSH2 0xC8 SWAP1 PUSH2 0x291 JUMP JUMPDEST SWAP2 POP POP PUSH2 0xA5 JUMP JUMPDEST POP POP PUSH2 0x2D9 JUMP JUMPDEST DUP1 PUSH1 0x1 PUSH1 0x0 DUP5 DUP2 MSTORE PUSH1 0x20 ADD SWAP1 DUP2 MSTORE PUSH1 0x20 ADD PUSH1 0x0 KECCAK256 PUSH1 0x0 PUSH2 0x100 EXP DUP2 SLOAD DUP2 PUSH20 0xFFFFFFFFFFFFFFFFFFFFFFFFFFFFFFFFFFFFFFFF MUL NOT AND SWAP1 DUP4 PUSH20 0xFFFFFFFFFFFFFFFFFFFFFFFFFFFFFFFFFFFFFFFF AND MUL OR SWAP1 SSTORE POP DUP2 PUSH32 0xF0ADFB94EAB6DAF835DEB69C5738FE636150C3DFD08094A76F39B963DC8CB05A PUSH1 0x40 MLOAD PUSH1 0x40 MLOAD DUP1 SWAP2 SUB SWAP1 LOG2 DUP1 PUSH20 0xFFFFFFFFFFFFFFFFFFFFFFFFFFFFFFFFFFFFFFFF AND PUSH1 0x0 PUSH20 0xFFFFFFFFFFFFFFFFFFFFFFFFFFFFFFFFFFFFFFFF AND DUP4 PUSH32 0xBA83579A0E79193EF649B9F5A8759D35AF086BA62A3E207B52E4A8AE30D49E3 PUSH1 0x40 MLOAD PUSH1 0x40 MLOAD DUP1 SWAP2 SUB SWAP1 LOG4 POP POP JUMP JUMPDEST PUSH1 0x0 DUP1 REVERT JUMPDEST PUSH1 0x0 PUSH20 0xFFFFFFFFFFFFFFFFFFFFFFFFFFFFFFFFFFFFFFFF DUP3 AND SWAP1 POP SWAP2 SWAP1 POP JUMP JUMPDEST PUSH1 0x0 PUSH2 0x1E6 DUP3 PUSH2 0x1BB JUMP JUMPDEST SWAP1 POP SWAP2 SWAP1 POP JUMP JUMPDEST PUSH1 0x0 PUSH2 0x1F8 DUP3 PUSH2 0x1DB JUMP JUMPDEST SWAP1 POP SWAP2 SWAP1 POP JUMP JUMPDEST PUSH2 0x208 DUP2 PUSH2 0x1ED JUMP JUMPDEST DUP2 EQ PUSH2 0x213 JUMPI PUSH1 0x0 DUP1 REVERT JUMPDEST POP JUMP JUMPDEST PUSH1 0x0 DUP2 MLOAD SWAP1 POP PUSH2 0x225 DUP2 PUSH2 0x1FF JUMP JUMPDEST SWAP3 SWAP2 POP POP JUMP JUMPDEST PUSH1 0x0 PUSH1 0x20 DUP3 DUP5 SUB SLT ISZERO PUSH2 0x241 JUMPI PUSH2 0x240 PUSH2 0x1B6 JUMP JUMPDEST JUMPDEST PUSH1 0x0 PUSH2 0x24F DUP5 DUP3 DUP6 ADD PUSH2 0x216 JUMP JUMPDEST SWAP2 POP POP SWAP3 SWAP2 POP POP JUMP JUMPDEST PUSH32 0x4E487B7100000000000000000000000000000000000000000000000000000000 PUSH1 0x0 MSTORE PUSH1 0x11 PUSH1 0x4 MSTORE PUSH1 0x24 PUSH1 0x0 REVERT JUMPDEST PUSH1 0x0 DUP2 SWAP1 POP SWAP2 SWAP1 POP JUMP JUMPDEST PUSH1 0x0 PUSH2 0x29C DUP3 PUSH2 0x287 JUMP JUMPDEST SWAP2 POP PUSH32 0xFFFFFFFFFFFFFFFFFFFFFFFFFFFFFFFFFFFFFFFFFFFFFFFFFFFFFFFFFFFFFFFF DUP3 SUB PUSH2 0x2CE JUMPI PUSH2 0x2CD PUSH2 0x258 JUMP JUMPDEST JUMPDEST PUSH1 0x1 DUP3 ADD SWAP1 POP SWAP2 SWAP1 POP JUMP JUMPDEST PUSH2 0x3CC5 DUP1 PUSH2 0x2E8 PUSH1 0x0 CODECOPY PUSH1 0x0 RETURN INVALID PUSH1 0x80 PUSH1 0x40 MSTORE PUSH1 0x4 CALLDATASIZE LT PUSH2 0x1B7 JUMPI PUSH1 0x0 CALLDATALOAD PUSH1 0xE0 SHR DUP1 PUSH4 0x7EE35A0C GT PUSH2 0xEC JUMPI DUP1 PUSH4 0xC43850E0 GT PUSH2 0x8A JUMPI DUP1 PUSH4 0xDA3CDA52 GT PUSH2 0x64 JUMPI DUP1 PUSH4 0xDA3CDA52 EQ PUSH2 0x666 JUMPI DUP1 PUSH4 0xDABC4D51 EQ PUSH2 0x68F JUMPI DUP1 PUSH4 0xE2BBB158 EQ PUSH2 0x6CC JUMPI DUP1 PUSH4 0xFCF0B6EC EQ PUSH2 0x6E8 JUMPI PUSH2 0x1B7 JUMP JUMPDEST DUP1 PUSH4 0xC43850E0 EQ PUSH2 0x5E9 JUMPI DUP1 PUSH4 0xD0D898DD EQ PUSH2 0x612 JUMPI DUP1 PUSH4 0xD24924FE EQ PUSH2 0x63B JUMPI PUSH2 0x1B7 JUMP JUMPDEST DUP1 PUSH4 0x96324BD4 GT PUSH2 0xC6 JUMPI DUP1 PUSH4 0x96324BD4 EQ PUSH2 0x507 JUMPI DUP1 PUSH4 0xA9961C94 EQ PUSH2 0x544 JUMPI DUP1 PUSH4 0xB69EF8A8 EQ PUSH2 0x581 JUMPI DUP1 PUSH4 0xC41A360A EQ PUSH2 0x5AC JUMPI PUSH2 0x1B7 JUMP JUMPDEST DUP1 PUSH4 0x7EE35A0C EQ PUSH2 0x476 JUMPI DUP1 PUSH4 0x7FA767BC EQ PUSH2 0x4B3 JUMPI DUP1 PUSH4 0x90509D44 EQ PUSH2 0x4CA JUMPI PUSH2 0x1B7 JUMP JUMPDEST DUP1 PUSH4 0x441A3E70 GT PUSH2 0x159 JUMPI DUP1 PUSH4 0x575185ED GT PUSH2 0x133 JUMPI DUP1 PUSH4 0x575185ED EQ PUSH2 0x3A8 JUMPI DUP1 PUSH4 0x5C3F3B60 EQ PUSH2 0x3D3 JUMPI DUP1 PUSH4 0x6389E107 EQ PUSH2 0x410 JUMPI DUP1 PUSH4 0x6CDD32FE EQ PUSH2 0x44D JUMPI PUSH2 0x1B7 JUMP JUMPDEST DUP1 PUSH4 0x441A3E70 EQ PUSH2 0x319 JUMPI DUP1 PUSH4 0x456F4188 EQ PUSH2 0x342 JUMPI DUP1 PUSH4 0x568EE826 EQ PUSH2 0x37F JUMPI PUSH2 0x1B7 JUMP JUMPDEST DUP1 PUSH4 0x1E010439 GT PUSH2 0x195 JUMPI DUP1 PUSH4 0x1E010439 EQ PUSH2 0x24B JUMPI DUP1 PUSH4 0x2B7AC3F3 EQ PUSH2 0x288 JUMPI DUP1 PUSH4 0x2C880363 EQ PUSH2 0x2B3 JUMPI DUP1 PUSH4 0x4178C4D5 EQ PUSH2 0x2F0 JUMPI PUSH2 0x1B7 JUMP JUMPDEST DUP1 PUSH4 0x4245371 EQ PUSH2 0x1BC JUMPI DUP1 PUSH4 0x6DD8485 EQ PUSH2 0x1E5 JUMPI DUP1 PUSH4 0x1783EFC3 EQ PUSH2 0x222 JUMPI JUMPDEST PUSH1 0x0 DUP1 REVERT JUMPDEST CALLVALUE DUP1 ISZERO PUSH2 0x1C8 JUMPI PUSH1 0x0 DUP1 REVERT JUMPDEST POP PUSH2 0x1E3 PUSH1 0x4 DUP1 CALLDATASIZE SUB DUP2 ADD SWAP1 PUSH2 0x1DE SWAP2 SWAP1 PUSH2 0x2DF4 JUMP JUMPDEST PUSH2 0x711 JUMP JUMPDEST STOP JUMPDEST CALLVALUE DUP1 ISZERO PUSH2 0x1F1 JUMPI PUSH1 0x0 DUP1 REVERT JUMPDEST POP PUSH2 0x20C PUSH1 0x4 DUP1 CALLDATASIZE SUB DUP2 ADD SWAP1 PUSH2 0x207 SWAP2 SWAP1 PUSH2 0x2E54 JUMP JUMPDEST PUSH2 0x752 JUMP JUMPDEST PUSH1 0x40 MLOAD PUSH2 0x219 SWAP2 SWAP1 PUSH2 0x2EA3 JUMP JUMPDEST PUSH1 0x40 MLOAD DUP1 SWAP2 SUB SWAP1 RETURN JUMPDEST CALLVALUE DUP1 ISZERO PUSH2 0x22E JUMPI PUSH1 0x0 DUP1 REVERT JUMPDEST POP PUSH2 0x249 PUSH1 0x4 DUP1 CALLDATASIZE SUB DUP2 ADD SWAP1 PUSH2 0x244 SWAP2 SWAP1 PUSH2 0x2E54 JUMP JUMPDEST PUSH2 0x780 JUMP JUMPDEST STOP JUMPDEST CALLVALUE DUP1 ISZERO PUSH2 0x257 JUMPI PUSH1 0x0 DUP1 REVERT JUMPDEST POP PUSH2 0x272 PUSH1 0x4 DUP1 CALLDATASIZE SUB DUP2 ADD SWAP1 PUSH2 0x26D SWAP2 SWAP1 PUSH2 0x2EBE JUMP JUMPDEST PUSH2 0x7BF JUMP JUMPDEST PUSH1 0x40 MLOAD PUSH2 0x27F SWAP2 SWAP1 PUSH2 0x2EA3 JUMP JUMPDEST PUSH1 0x40 MLOAD DUP1 SWAP2 SUB SWAP1 RETURN JUMPDEST CALLVALUE DUP1 ISZERO PUSH2 0x294 JUMPI PUSH1 0x0 DUP1 REVERT JUMPDEST POP PUSH2 0x29D PUSH2 0x7DF JUMP JUMPDEST PUSH1 0x40 MLOAD PUSH2 0x2AA SWAP2 SWAP1 PUSH2 0x2F6A JUMP JUMPDEST PUSH1 0x40 MLOAD DUP1 SWAP2 SUB SWAP1 RETURN JUMPDEST CALLVALUE DUP1 ISZERO PUSH2 0x2BF JUMPI PUSH1 0x0 DUP1 REVERT JUMPDEST POP PUSH2 0x2DA PUSH1 0x4 DUP1 CALLDATASIZE SUB DUP2 ADD SWAP1 PUSH2 0x2D5 SWAP2 SWAP1 PUSH2 0x2FC3 JUMP JUMPDEST PUSH2 0x805 JUMP JUMPDEST PUSH1 0x40 MLOAD PUSH2 0x2E7 SWAP2 SWAP1 PUSH2 0x2EA3 JUMP JUMPDEST PUSH1 0x40 MLOAD DUP1 SWAP2 SUB SWAP1 RETURN JUMPDEST CALLVALUE DUP1 ISZERO PUSH2 0x2FC JUMPI PUSH1 0x0 DUP1 REVERT JUMPDEST POP PUSH2 0x317 PUSH1 0x4 DUP1 CALLDATASIZE SUB DUP2 ADD SWAP1 PUSH2 0x312 SWAP2 SWAP1 PUSH2 0x3003 JUMP JUMPDEST PUSH2 0x84B JUMP JUMPDEST STOP JUMPDEST CALLVALUE DUP1 ISZERO PUSH2 0x325 JUMPI PUSH1 0x0 DUP1 REVERT JUMPDEST POP PUSH2 0x340 PUSH1 0x4 DUP1 CALLDATASIZE SUB DUP2 ADD SWAP1 PUSH2 0x33B SWAP2 SWAP1 PUSH2 0x2E54 JUMP JUMPDEST PUSH2 0x890 JUMP JUMPDEST STOP JUMPDEST CALLVALUE DUP1 ISZERO PUSH2 0x34E JUMPI PUSH1 0x0 DUP1 REVERT JUMPDEST POP PUSH2 0x369 PUSH1 0x4 DUP1 CALLDATASIZE SUB DUP2 ADD SWAP1 PUSH2 0x364 SWAP2 SWAP1 PUSH2 0x30B0 JUMP JUMPDEST PUSH2 0xA4C JUMP JUMPDEST PUSH1 0x40 MLOAD PUSH2 0x376 SWAP2 SWAP1 PUSH2 0x310C JUMP JUMPDEST PUSH1 0x40 MLOAD DUP1 SWAP2 SUB SWAP1 RETURN JUMPDEST CALLVALUE DUP1 ISZERO PUSH2 0x38B JUMPI PUSH1 0x0 DUP1 REVERT JUMPDEST POP PUSH2 0x3A6 PUSH1 0x4 DUP1 CALLDATASIZE SUB DUP2 ADD SWAP1 PUSH2 0x3A1 SWAP2 SWAP1 PUSH2 0x3127 JUMP JUMPDEST PUSH2 0xE97 JUMP JUMPDEST STOP JUMPDEST CALLVALUE DUP1 ISZERO PUSH2 0x3B4 JUMPI PUSH1 0x0 DUP1 REVERT JUMPDEST POP PUSH2 0x3BD PUSH2 0xEA5 JUMP JUMPDEST PUSH1 0x40 MLOAD PUSH2 0x3CA SWAP2 SWAP1 PUSH2 0x2EA3 JUMP JUMPDEST PUSH1 0x40 MLOAD DUP1 SWAP2 SUB SWAP1 RETURN JUMPDEST CALLVALUE DUP1 ISZERO PUSH2 0x3DF JUMPI PUSH1 0x0 DUP1 REVERT JUMPDEST POP PUSH2 0x3FA PUSH1 0x4 DUP1 CALLDATASIZE SUB DUP2 ADD SWAP1 PUSH2 0x3F5 SWAP2 SWAP1 PUSH2 0x3167 JUMP JUMPDEST PUSH2 0xEEA JUMP JUMPDEST PUSH1 0x40 MLOAD PUSH2 0x407 SWAP2 SWAP1 PUSH2 0x2EA3 JUMP JUMPDEST PUSH1 0x40 MLOAD DUP1 SWAP2 SUB SWAP1 RETURN JUMPDEST CALLVALUE DUP1 ISZERO PUSH2 0x41C JUMPI PUSH1 0x0 DUP1 REVERT JUMPDEST POP PUSH2 0x437 PUSH1 0x4 DUP1 CALLDATASIZE SUB DUP2 ADD SWAP1 PUSH2 0x432 SWAP2 SWAP1 PUSH2 0x2EBE JUMP JUMPDEST PUSH2 0xF31 JUMP JUMPDEST PUSH1 0x40 MLOAD PUSH2 0x444 SWAP2 SWAP1 PUSH2 0x2EA3 JUMP JUMPDEST PUSH1 0x40 MLOAD DUP1 SWAP2 SUB SWAP1 RETURN JUMPDEST CALLVALUE DUP1 ISZERO PUSH2 0x459 JUMPI PUSH1 0x0 DUP1 REVERT JUMPDEST POP PUSH2 0x474 PUSH1 0x4 DUP1 CALLDATASIZE SUB DUP2 ADD SWAP1 PUSH2 0x46F SWAP2 SWAP1 PUSH2 0x3194 JUMP JUMPDEST PUSH2 0xF50 JUMP JUMPDEST STOP JUMPDEST CALLVALUE DUP1 ISZERO PUSH2 0x482 JUMPI PUSH1 0x0 DUP1 REVERT JUMPDEST POP PUSH2 0x49D PUSH1 0x4 DUP1 CALLDATASIZE SUB DUP2 ADD SWAP1 PUSH2 0x498 SWAP2 SWAP1 PUSH2 0x2EBE JUMP JUMPDEST PUSH2 0xF93 JUMP JUMPDEST PUSH1 0x40 MLOAD PUSH2 0x4AA SWAP2 SWAP1 PUSH2 0x2EA3 JUMP JUMPDEST PUSH1 0x40 MLOAD DUP1 SWAP2 SUB SWAP1 RETURN JUMPDEST CALLVALUE DUP1 ISZERO PUSH2 0x4BF JUMPI PUSH1 0x0 DUP1 REVERT JUMPDEST POP PUSH2 0x4C8 PUSH2 0xFB2 JUMP JUMPDEST STOP JUMPDEST CALLVALUE DUP1 ISZERO PUSH2 0x4D6 JUMPI PUSH1 0x0 DUP1 REVERT JUMPDEST POP PUSH2 0x4F1 PUSH1 0x4 DUP1 CALLDATASIZE SUB DUP2 ADD SWAP1 PUSH2 0x4EC SWAP2 SWAP1 PUSH2 0x2E54 JUMP JUMPDEST PUSH2 0x1023 JUMP JUMPDEST PUSH1 0x40 MLOAD PUSH2 0x4FE SWAP2 SWAP1 PUSH2 0x310C JUMP JUMPDEST PUSH1 0x40 MLOAD DUP1 SWAP2 SUB SWAP1 RETURN JUMPDEST CALLVALUE DUP1 ISZERO PUSH2 0x513 JUMPI PUSH1 0x0 DUP1 REVERT JUMPDEST POP PUSH2 0x52E PUSH1 0x4 DUP1 CALLDATASIZE SUB DUP2 ADD SWAP1 PUSH2 0x529 SWAP2 SWAP1 PUSH2 0x2EBE JUMP JUMPDEST PUSH2 0x1051 JUMP JUMPDEST PUSH1 0x40 MLOAD PUSH2 0x53B SWAP2 SWAP1 PUSH2 0x2EA3 JUMP JUMPDEST PUSH1 0x40 MLOAD DUP1 SWAP2 SUB SWAP1 RETURN JUMPDEST CALLVALUE DUP1 ISZERO PUSH2 0x550 JUMPI PUSH1 0x0 DUP1 REVERT JUMPDEST POP PUSH2 0x56B PUSH1 0x4 DUP1 CALLDATASIZE SUB DUP2 ADD SWAP1 PUSH2 0x566 SWAP2 SWAP1 PUSH2 0x2EBE JUMP JUMPDEST PUSH2 0x106F JUMP JUMPDEST PUSH1 0x40 MLOAD PUSH2 0x578 SWAP2 SWAP1 PUSH2 0x3217 JUMP JUMPDEST PUSH1 0x40 MLOAD DUP1 SWAP2 SUB SWAP1 RETURN JUMPDEST CALLVALUE DUP1 ISZERO PUSH2 0x58D JUMPI PUSH1 0x0 DUP1 REVERT JUMPDEST POP PUSH2 0x596 PUSH2 0x10AC JUMP JUMPDEST PUSH1 0x40 MLOAD PUSH2 0x5A3 SWAP2 SWAP1 PUSH2 0x2EA3 JUMP JUMPDEST PUSH1 0x40 MLOAD DUP1 SWAP2 SUB SWAP1 RETURN JUMPDEST CALLVALUE DUP1 ISZERO PUSH2 0x5B8 JUMPI PUSH1 0x0 DUP1 REVERT JUMPDEST POP PUSH2 0x5D3 PUSH1 0x4 DUP1 CALLDATASIZE SUB DUP2 ADD SWAP1 PUSH2 0x5CE SWAP2 SWAP1 PUSH2 0x2EBE JUMP JUMPDEST PUSH2 0x10B4 JUMP JUMPDEST PUSH1 0x40 MLOAD PUSH2 0x5E0 SWAP2 SWAP1 PUSH2 0x3217 JUMP JUMPDEST PUSH1 0x40 MLOAD DUP1 SWAP2 SUB SWAP1 RETURN JUMPDEST CALLVALUE DUP1 ISZERO PUSH2 0x5F5 JUMPI PUSH1 0x0 DUP1 REVERT JUMPDEST POP PUSH2 0x610 PUSH1 0x4 DUP1 CALLDATASIZE SUB DUP2 ADD SWAP1 PUSH2 0x60B SWAP2 SWAP1 PUSH2 0x3232 JUMP JUMPDEST PUSH2 0x10F4 JUMP JUMPDEST STOP JUMPDEST CALLVALUE DUP1 ISZERO PUSH2 0x61E JUMPI PUSH1 0x0 DUP1 REVERT JUMPDEST POP PUSH2 0x639 PUSH1 0x4 DUP1 CALLDATASIZE SUB DUP2 ADD SWAP1 PUSH2 0x634 SWAP2 SWAP1 PUSH2 0x30B0 JUMP JUMPDEST PUSH2 0x1262 JUMP JUMPDEST STOP JUMPDEST CALLVALUE DUP1 ISZERO PUSH2 0x647 JUMPI PUSH1 0x0 DUP1 REVERT JUMPDEST POP PUSH2 0x650 PUSH2 0x13B1 JUMP JUMPDEST PUSH1 0x40 MLOAD PUSH2 0x65D SWAP2 SWAP1 PUSH2 0x2EA3 JUMP JUMPDEST PUSH1 0x40 MLOAD DUP1 SWAP2 SUB SWAP1 RETURN JUMPDEST CALLVALUE DUP1 ISZERO PUSH2 0x672 JUMPI PUSH1 0x0 DUP1 REVERT JUMPDEST POP PUSH2 0x68D PUSH1 0x4 DUP1 CALLDATASIZE SUB DUP2 ADD SWAP1 PUSH2 0x688 SWAP2 SWAP1 PUSH2 0x2EBE JUMP JUMPDEST PUSH2 0x13B7 JUMP JUMPDEST STOP JUMPDEST CALLVALUE DUP1 ISZERO PUSH2 0x69B JUMPI PUSH1 0x0 DUP1 REVERT JUMPDEST POP PUSH2 0x6B6 PUSH1 0x4 DUP1 CALLDATASIZE SUB DUP2 ADD SWAP1 PUSH2 0x6B1 SWAP2 SWAP1 PUSH2 0x2EBE JUMP JUMPDEST PUSH2 0x13C3 JUMP JUMPDEST PUSH1 0x40 MLOAD PUSH2 0x6C3 SWAP2 SWAP1 PUSH2 0x2EA3 JUMP JUMPDEST PUSH1 0x40 MLOAD DUP1 SWAP2 SUB SWAP1 RETURN JUMPDEST PUSH2 0x6E6 PUSH1 0x4 DUP1 CALLDATASIZE SUB DUP2 ADD SWAP1 PUSH2 0x6E1 SWAP2 SWAP1 PUSH2 0x2E54 JUMP JUMPDEST PUSH2 0x13E6 JUMP JUMPDEST STOP JUMPDEST CALLVALUE DUP1 ISZERO PUSH2 0x6F4 JUMPI PUSH1 0x0 DUP1 REVERT JUMPDEST POP PUSH2 0x70F PUSH1 0x4 DUP1 CALLDATASIZE SUB DUP2 ADD SWAP1 PUSH2 0x70A SWAP2 SWAP1 PUSH2 0x2E54 JUMP JUMPDEST PUSH2 0x14C1 JUMP JUMPDEST STOP JUMPDEST PUSH1 0x0 PUSH2 0x71E DUP5 DUP5 DUP5 PUSH2 0x15D0 JUMP JUMPDEST SWAP1 POP TIMESTAMP PUSH1 0x4 PUSH1 0x0 DUP7 DUP2 MSTORE PUSH1 0x20 ADD SWAP1 DUP2 MSTORE PUSH1 0x20 ADD PUSH1 0x0 KECCAK256 PUSH1 0x1 ADD PUSH1 0x0 DUP4 DUP2 MSTORE PUSH1 0x20 ADD SWAP1 DUP2 MSTORE PUSH1 0x20 ADD PUSH1 0x0 KECCAK256 DUP2 SWAP1 SSTORE POP POP POP POP POP JUMP JUMPDEST PUSH1 0x0 PUSH2 0x778 DUP3 PUSH1 0x0 DUP1 DUP7 DUP2 MSTORE PUSH1 0x20 ADD SWAP1 DUP2 MSTORE PUSH1 0x20 ADD PUSH1 0x0 KECCAK256 PUSH2 0x16E7 SWAP1 SWAP2 SWAP1 PUSH4 0xFFFFFFFF AND JUMP JUMPDEST SWAP1 POP SWAP3 SWAP2 POP POP JUMP JUMPDEST PUSH1 0x0 PUSH2 0x78C DUP4 DUP4 PUSH2 0x1761 JUMP JUMPDEST SWAP1 POP TIMESTAMP PUSH1 0x4 PUSH1 0x0 DUP6 DUP2 MSTORE PUSH1 0x20 ADD SWAP1 DUP2 MSTORE PUSH1 0x20 ADD PUSH1 0x0 KECCAK256 PUSH1 0x1 ADD PUSH1 0x0 DUP4 DUP2 MSTORE PUSH1 0x20 ADD SWAP1 DUP2 MSTORE PUSH1 0x20 ADD PUSH1 0x0 KECCAK256 DUP2 SWAP1 SSTORE POP POP POP POP JUMP JUMPDEST PUSH1 0x0 PUSH1 0x8 PUSH1 0x0 DUP4 DUP2 MSTORE PUSH1 0x20 ADD SWAP1 DUP2 MSTORE PUSH1 0x20 ADD PUSH1 0x0 KECCAK256 PUSH1 0x0 ADD SLOAD SWAP1 POP SWAP2 SWAP1 POP JUMP JUMPDEST PUSH1 0x3 PUSH1 0x0 SWAP1 SLOAD SWAP1 PUSH2 0x100 EXP SWAP1 DIV PUSH20 0xFFFFFFFFFFFFFFFFFFFFFFFFFFFFFFFFFFFFFFFF AND DUP2 JUMP JUMPDEST PUSH1 0x0 PUSH1 0x5 PUSH1 0x0 DUP2 SLOAD DUP1 SWAP3 SWAP2 SWAP1 PUSH2 0x81A SWAP1 PUSH2 0x32B7 JUMP JUMPDEST SWAP2 SWAP1 POP SSTORE SWAP1 POP PUSH2 0x82A DUP2 DUP5 PUSH2 0x1873 JUMP JUMPDEST DUP2 PUSH1 0x4 PUSH1 0x0 DUP4 DUP2 MSTORE PUSH1 0x20 ADD SWAP1 DUP2 MSTORE PUSH1 0x20 ADD PUSH1 0x0 KECCAK256 PUSH1 0x0 ADD DUP2 SWAP1 SSTORE POP SWAP3 SWAP2 POP POP JUMP JUMPDEST PUSH1 0x0 PUSH2 0x85A DUP7 DUP7 DUP7 DUP7 DUP7 PUSH2 0x1952 JUMP JUMPDEST SWAP1 POP TIMESTAMP PUSH1 0x4 PUSH1 0x0 DUP9 DUP2 MSTORE PUSH1 0x20 ADD SWAP1 DUP2 MSTORE PUSH1 0x20 ADD PUSH1 0x0 KECCAK256 PUSH1 0x1 ADD PUSH1 0x0 DUP4 DUP2 MSTORE PUSH1 0x20 ADD SWAP1 DUP2 MSTORE PUSH1 0x20 ADD PUSH1 0x0 KECCAK256 DUP2 SWAP1 SSTORE POP POP POP POP POP POP POP JUMP JUMPDEST CALLER PUSH20 0xFFFFFFFFFFFFFFFFFFFFFFFFFFFFFFFFFFFFFFFF AND PUSH1 0x8 PUSH1 0x0 DUP5 DUP2 MSTORE PUSH1 0x20 ADD SWAP1 DUP2 MSTORE PUSH1 0x20 ADD PUSH1 0x0 KECCAK256 PUSH1 0x1 ADD PUSH1 0x0 SWAP1 SLOAD SWAP1 PUSH2 0x100 EXP SWAP1 DIV PUSH20 0xFFFFFFFFFFFFFFFFFFFFFFFFFFFFFFFFFFFFFFFF AND PUSH20 0xFFFFFFFFFFFFFFFFFFFFFFFFFFFFFFFFFFFFFFFF AND EQ PUSH2 0x934 JUMPI PUSH1 0x40 MLOAD PUSH32 0x8C379A000000000000000000000000000000000000000000000000000000000 DUP2 MSTORE PUSH1 0x4 ADD PUSH2 0x92B SWAP1 PUSH2 0x335C JUMP JUMPDEST PUSH1 0x40 MLOAD DUP1 SWAP2 SUB SWAP1 REVERT JUMPDEST PUSH1 0x0 PUSH1 0x8 PUSH1 0x0 DUP5 DUP2 MSTORE PUSH1 0x20 ADD SWAP1 DUP2 MSTORE PUSH1 0x20 ADD PUSH1 0x0 KECCAK256 PUSH1 0x0 ADD SLOAD DUP3 GT ISZERO PUSH2 0x9D2 JUMPI CALLER PUSH20 0xFFFFFFFFFFFFFFFFFFFFFFFFFFFFFFFFFFFFFFFF AND PUSH2 0x8FC PUSH1 0x8 PUSH1 0x0 DUP7 DUP2 MSTORE PUSH1 0x20 ADD SWAP1 DUP2 MSTORE PUSH1 0x20 ADD PUSH1 0x0 KECCAK256 PUSH1 0x0 ADD SLOAD SWAP1 DUP2 ISZERO MUL SWAP1 PUSH1 0x40 MLOAD PUSH1 0x0 PUSH1 0x40 MLOAD DUP1 DUP4 SUB DUP2 DUP6 DUP9 DUP9 CALL SWAP4 POP POP POP POP ISZERO DUP1 ISZERO PUSH2 0x9B0 JUMPI RETURNDATASIZE PUSH1 0x0 DUP1 RETURNDATACOPY RETURNDATASIZE PUSH1 0x0 REVERT JUMPDEST POP PUSH1 0x0 PUSH1 0x8 PUSH1 0x0 DUP6 DUP2 MSTORE PUSH1 0x20 ADD SWAP1 DUP2 MSTORE PUSH1 0x20 ADD PUSH1 0x0 KECCAK256 PUSH1 0x0 ADD DUP2 SWAP1 SSTORE POP PUSH2 0xA47 JUMP JUMPDEST CALLER PUSH20 0xFFFFFFFFFFFFFFFFFFFFFFFFFFFFFFFFFFFFFFFF AND PUSH2 0x8FC DUP3 SWAP1 DUP2 ISZERO MUL SWAP1 PUSH1 0x40 MLOAD PUSH1 0x0 PUSH1 0x40 MLOAD DUP1 DUP4 SUB DUP2 DUP6 DUP9 DUP9 CALL SWAP4 POP POP POP POP ISZERO DUP1 ISZERO PUSH2 0xA18 JUMPI RETURNDATASIZE PUSH1 0x0 DUP1 RETURNDATACOPY RETURNDATASIZE PUSH1 0x0 REVERT JUMPDEST POP DUP1 PUSH1 0x8 PUSH1 0x0 DUP6 DUP2 MSTORE PUSH1 0x20 ADD SWAP1 DUP2 MSTORE PUSH1 0x20 ADD PUSH1 0x0 KECCAK256 PUSH1 0x0 ADD PUSH1 0x0 DUP3 DUP3 SLOAD PUSH2 0xA3F SWAP2 SWAP1 PUSH2 0x337C JUMP JUMPDEST SWAP3 POP POP DUP2 SWAP1 SSTORE POP JUMPDEST POP POP POP JUMP JUMPDEST PUSH1 0x0 DUP3 PUSH1 0x0 PUSH20 0xFFFFFFFFFFFFFFFFFFFFFFFFFFFFFFFFFFFFFFFF AND PUSH1 0x1 PUSH1 0x0 DUP4 DUP2 MSTORE PUSH1 0x20 ADD SWAP1 DUP2 MSTORE PUSH1 0x20 ADD PUSH1 0x0 KECCAK256 PUSH1 0x0 SWAP1 SLOAD SWAP1 PUSH2 0x100 EXP SWAP1 DIV PUSH20 0xFFFFFFFFFFFFFFFFFFFFFFFFFFFFFFFFFFFFFFFF AND PUSH20 0xFFFFFFFFFFFFFFFFFFFFFFFFFFFFFFFFFFFFFFFF AND SUB PUSH2 0xAE8 JUMPI PUSH1 0x40 MLOAD PUSH32 0x29F057900000000000000000000000000000000000000000000000000000000 DUP2 MSTORE PUSH1 0x4 ADD PUSH1 0x40 MLOAD DUP1 SWAP2 SUB SWAP1 REVERT JUMPDEST PUSH1 0x1 PUSH1 0xFF AND DUP4 PUSH1 0x0 ADD CALLDATALOAD LT DUP1 PUSH2 0xB05 JUMPI POP PUSH1 0xC PUSH1 0xFF AND DUP4 PUSH1 0x0 ADD CALLDATALOAD GT JUMPDEST ISZERO PUSH2 0xB3C JUMPI PUSH1 0x40 MLOAD PUSH32 0xECF64F1200000000000000000000000000000000000000000000000000000000 DUP2 MSTORE PUSH1 0x4 ADD PUSH1 0x40 MLOAD DUP1 SWAP2 SUB SWAP1 REVERT JUMPDEST PUSH1 0x0 PUSH2 0xB47 DUP6 PUSH2 0xF93 JUMP JUMPDEST SWAP1 POP PUSH1 0x0 DUP2 SUB PUSH2 0xB83 JUMPI PUSH1 0x40 MLOAD PUSH32 0xC8B02E0100000000000000000000000000000000000000000000000000000000 DUP2 MSTORE PUSH1 0x4 ADD PUSH1 0x40 MLOAD DUP1 SWAP2 SUB SWAP1 REVERT JUMPDEST PUSH1 0x0 PUSH2 0xB8E DUP7 PUSH2 0x13C3 JUMP JUMPDEST SWAP1 POP DUP1 DUP6 PUSH1 0x20 ADD CALLDATALOAD EQ PUSH2 0xC68 JUMPI PUSH1 0x0 PUSH1 0x4 PUSH1 0x0 DUP9 DUP2 MSTORE PUSH1 0x20 ADD SWAP1 DUP2 MSTORE PUSH1 0x20 ADD PUSH1 0x0 KECCAK256 PUSH1 0x1 ADD PUSH1 0x0 DUP8 PUSH1 0x20 ADD CALLDATALOAD DUP2 MSTORE PUSH1 0x20 ADD SWAP1 DUP2 MSTORE PUSH1 0x20 ADD PUSH1 0x0 KECCAK256 SLOAD SWAP1 POP PUSH1 0x0 PUSH1 0x4 PUSH1 0x0 DUP10 DUP2 MSTORE PUSH1 0x20 ADD SWAP1 DUP2 MSTORE PUSH1 0x20 ADD PUSH1 0x0 KECCAK256 PUSH1 0x0 ADD SLOAD SWAP1 POP PUSH1 0x0 DUP3 SUB PUSH2 0xC20 JUMPI PUSH1 0x40 MLOAD PUSH32 0x4D32958600000000000000000000000000000000000000000000000000000000 DUP2 MSTORE PUSH1 0x4 ADD PUSH1 0x40 MLOAD DUP1 SWAP2 SUB SWAP1 REVERT JUMPDEST DUP1 DUP3 PUSH2 0xC2C SWAP2 SWAP1 PUSH2 0x33B0 JUMP JUMPDEST TIMESTAMP GT ISZERO PUSH2 0xC65 JUMPI PUSH1 0x40 MLOAD PUSH32 0x9581A99000000000000000000000000000000000000000000000000000000000 DUP2 MSTORE PUSH1 0x4 ADD PUSH1 0x40 MLOAD DUP1 SWAP2 SUB SWAP1 REVERT JUMPDEST POP POP JUMPDEST PUSH1 0x3 PUSH1 0x0 SWAP1 SLOAD SWAP1 PUSH2 0x100 EXP SWAP1 DIV PUSH20 0xFFFFFFFFFFFFFFFFFFFFFFFFFFFFFFFFFFFFFFFF AND PUSH20 0xFFFFFFFFFFFFFFFFFFFFFFFFFFFFFFFFFFFFFFFF AND PUSH4 0xA23F0199 PUSH1 0x40 MLOAD DUP1 PUSH1 0x40 ADD PUSH1 0x40 MSTORE DUP1 DUP9 PUSH1 0xA0 ADD PUSH1 0x0 PUSH1 0x8 DUP2 LT PUSH2 0xCC8 JUMPI PUSH2 0xCC7 PUSH2 0x33E4 JUMP JUMPDEST JUMPDEST PUSH1 0x20 MUL ADD CALLDATALOAD DUP2 MSTORE PUSH1 0x20 ADD DUP9 PUSH1 0xA0 ADD PUSH1 0x1 PUSH1 0x8 DUP2 LT PUSH2 0xCE9 JUMPI PUSH2 0xCE8 PUSH2 0x33E4 JUMP JUMPDEST JUMPDEST PUSH1 0x20 MUL ADD CALLDATALOAD DUP2 MSTORE POP PUSH1 0x40 MLOAD DUP1 PUSH1 0x40 ADD PUSH1 0x40 MSTORE DUP1 PUSH1 0x40 MLOAD DUP1 PUSH1 0x40 ADD PUSH1 0x40 MSTORE DUP1 DUP12 PUSH1 0xA0 ADD PUSH1 0x2 PUSH1 0x8 DUP2 LT PUSH2 0xD1E JUMPI PUSH2 0xD1D PUSH2 0x33E4 JUMP JUMPDEST JUMPDEST PUSH1 0x20 MUL ADD CALLDATALOAD DUP2 MSTORE PUSH1 0x20 ADD DUP12 PUSH1 0xA0 ADD PUSH1 0x3 PUSH1 0x8 DUP2 LT PUSH2 0xD3F JUMPI PUSH2 0xD3E PUSH2 0x33E4 JUMP JUMPDEST JUMPDEST PUSH1 0x20 MUL ADD CALLDATALOAD DUP2 MSTORE POP DUP2 MSTORE PUSH1 0x20 ADD PUSH1 0x40 MLOAD DUP1 PUSH1 0x40 ADD PUSH1 0x40 MSTORE DUP1 DUP12 PUSH1 0xA0 ADD PUSH1 0x4 PUSH1 0x8 DUP2 LT PUSH2 0xD6E JUMPI PUSH2 0xD6D PUSH2 0x33E4 JUMP JUMPDEST JUMPDEST PUSH1 0x20 MUL ADD CALLDATALOAD DUP2 MSTORE PUSH1 0x20 ADD DUP12 PUSH1 0xA0 ADD PUSH1 0x5 PUSH1 0x8 DUP2 LT PUSH2 0xD8F JUMPI PUSH2 0xD8E PUSH2 0x33E4 JUMP JUMPDEST JUMPDEST PUSH1 0x20 MUL ADD CALLDATALOAD DUP2 MSTORE POP DUP2 MSTORE POP PUSH1 0x40 MLOAD DUP1 PUSH1 0x40 ADD PUSH1 0x40 MSTORE DUP1 DUP11 PUSH1 0xA0 ADD PUSH1 0x6 PUSH1 0x8 DUP2 LT PUSH2 0xDBC JUMPI PUSH2 0xDBB PUSH2 0x33E4 JUMP JUMPDEST JUMPDEST PUSH1 0x20 MUL ADD CALLDATALOAD DUP2 MSTORE PUSH1 0x20 ADD DUP11 PUSH1 0xA0 ADD PUSH1 0x7 PUSH1 0x8 DUP2 LT PUSH2 0xDDD JUMPI PUSH2 0xDDC PUSH2 0x33E4 JUMP JUMPDEST JUMPDEST PUSH1 0x20 MUL ADD CALLDATALOAD DUP2 MSTORE POP PUSH1 0x40 MLOAD DUP1 PUSH1 0x80 ADD PUSH1 0x40 MSTORE DUP1 DUP12 PUSH1 0x20 ADD CALLDATALOAD DUP2 MSTORE PUSH1 0x20 ADD DUP12 PUSH1 0x40 ADD CALLDATALOAD DUP2 MSTORE PUSH1 0x20 ADD PUSH2 0xE11 DUP13 PUSH1 0x60 ADD CALLDATALOAD PUSH2 0x1A8A JUMP JUMPDEST DUP2 MSTORE PUSH1 0x20 ADD PUSH2 0xE23 DUP13 PUSH1 0x80 ADD CALLDATALOAD PUSH2 0x1A8A JUMP JUMPDEST DUP2 MSTORE POP DUP11 PUSH1 0x0 ADD CALLDATALOAD PUSH1 0x40 MLOAD DUP7 PUSH4 0xFFFFFFFF AND PUSH1 0xE0 SHL DUP2 MSTORE PUSH1 0x4 ADD PUSH2 0xE4B SWAP6 SWAP5 SWAP4 SWAP3 SWAP2 SWAP1 PUSH2 0x3640 JUMP JUMPDEST PUSH1 0x20 PUSH1 0x40 MLOAD DUP1 DUP4 SUB DUP2 DUP7 GAS STATICCALL ISZERO DUP1 ISZERO PUSH2 0xE68 JUMPI RETURNDATASIZE PUSH1 0x0 DUP1 RETURNDATACOPY RETURNDATASIZE PUSH1 0x0 REVERT JUMPDEST POP POP POP POP PUSH1 0x40 MLOAD RETURNDATASIZE PUSH1 0x1F NOT PUSH1 0x1F DUP3 ADD AND DUP3 ADD DUP1 PUSH1 0x40 MSTORE POP DUP2 ADD SWAP1 PUSH2 0xE8C SWAP2 SWAP1 PUSH2 0x36C2 JUMP JUMPDEST SWAP4 POP POP POP POP SWAP3 SWAP2 POP POP JUMP JUMPDEST PUSH2 0xEA1 DUP3 DUP3 PUSH2 0x1AC1 JUMP JUMPDEST POP POP JUMP JUMPDEST PUSH1 0x0 PUSH1 0x5 PUSH1 0x0 DUP2 SLOAD DUP1 SWAP3 SWAP2 SWAP1 PUSH2 0xEBA SWAP1 PUSH2 0x32B7 JUMP JUMPDEST SWAP2 SWAP1 POP SSTORE SWAP1 POP PUSH2 0xECA DUP2 CALLER PUSH2 0x1873 JUMP JUMPDEST PUSH2 0xE10 PUSH1 0x4 PUSH1 0x0 DUP4 DUP2 MSTORE PUSH1 0x20 ADD SWAP1 DUP2 MSTORE PUSH1 0x20 ADD PUSH1 0x0 KECCAK256 PUSH1 0x0 ADD DUP2 SWAP1 SSTORE POP SWAP1 JUMP JUMPDEST PUSH1 0x0 PUSH1 0x5 PUSH1 0x0 DUP2 SLOAD DUP1 SWAP3 SWAP2 SWAP1 PUSH2 0xEFF SWAP1 PUSH2 0x32B7 JUMP JUMPDEST SWAP2 SWAP1 POP SSTORE SWAP1 POP PUSH2 0xF0F DUP2 DUP4 PUSH2 0x1873 JUMP JUMPDEST PUSH2 0xE10 PUSH1 0x4 PUSH1 0x0 DUP4 DUP2 MSTORE PUSH1 0x20 ADD SWAP1 DUP2 MSTORE PUSH1 0x20 ADD PUSH1 0x0 KECCAK256 PUSH1 0x0 ADD DUP2 SWAP1 SSTORE POP SWAP2 SWAP1 POP JUMP JUMPDEST PUSH1 0x0 DUP1 PUSH1 0x0 DUP4 DUP2 MSTORE PUSH1 0x20 ADD SWAP1 DUP2 MSTORE PUSH1 0x20 ADD PUSH1 0x0 KECCAK256 PUSH1 0x1 ADD SLOAD SWAP1 POP SWAP2 SWAP1 POP JUMP JUMPDEST PUSH1 0x0 PUSH2 0xF5E DUP6 DUP6 DUP6 DUP6 PUSH2 0x1C0C JUMP JUMPDEST SWAP1 POP TIMESTAMP PUSH1 0x4 PUSH1 0x0 DUP8 DUP2 MSTORE PUSH1 0x20 ADD SWAP1 DUP2 MSTORE PUSH1 0x20 ADD PUSH1 0x0 KECCAK256 PUSH1 0x1 ADD PUSH1 0x0 DUP4 DUP2 MSTORE PUSH1 0x20 ADD SWAP1 DUP2 MSTORE PUSH1 0x20 ADD PUSH1 0x0 KECCAK256 DUP2 SWAP1 SSTORE POP POP POP POP POP POP JUMP JUMPDEST PUSH1 0x0 DUP1 PUSH1 0x0 DUP4 DUP2 MSTORE PUSH1 0x20 ADD SWAP1 DUP2 MSTORE PUSH1 0x20 ADD PUSH1 0x0 KECCAK256 PUSH1 0x0 ADD SLOAD SWAP1 POP SWAP2 SWAP1 POP JUMP JUMPDEST CALLER PUSH1 0x8 PUSH1 0x0 PUSH1 0x7 SLOAD DUP2 MSTORE PUSH1 0x20 ADD SWAP1 DUP2 MSTORE PUSH1 0x20 ADD PUSH1 0x0 KECCAK256 PUSH1 0x1 ADD PUSH1 0x0 PUSH2 0x100 EXP DUP2 SLOAD DUP2 PUSH20 0xFFFFFFFFFFFFFFFFFFFFFFFFFFFFFFFFFFFFFFFF MUL NOT AND SWAP1 DUP4 PUSH20 0xFFFFFFFFFFFFFFFFFFFFFFFFFFFFFFFFFFFFFFFF AND MUL OR SWAP1 SSTORE POP PUSH1 0x7 PUSH1 0x0 DUP2 SLOAD DUP1 SWAP3 SWAP2 SWAP1 PUSH2 0x101C SWAP1 PUSH2 0x32B7 JUMP JUMPDEST SWAP2 SWAP1 POP SSTORE POP JUMP JUMPDEST PUSH1 0x0 PUSH2 0x1049 DUP3 PUSH1 0x0 DUP1 DUP7 DUP2 MSTORE PUSH1 0x20 ADD SWAP1 DUP2 MSTORE PUSH1 0x20 ADD PUSH1 0x0 KECCAK256 PUSH2 0x1D3F SWAP1 SWAP2 SWAP1 PUSH4 0xFFFFFFFF AND JUMP JUMPDEST SWAP1 POP SWAP3 SWAP2 POP POP JUMP JUMPDEST PUSH1 0x4 PUSH1 0x20 MSTORE DUP1 PUSH1 0x0 MSTORE PUSH1 0x40 PUSH1 0x0 KECCAK256 PUSH1 0x0 SWAP2 POP SWAP1 POP DUP1 PUSH1 0x0 ADD SLOAD SWAP1 POP DUP2 JUMP JUMPDEST PUSH1 0x0 PUSH1 0x1 PUSH1 0x0 DUP4 DUP2 MSTORE PUSH1 0x20 ADD SWAP1 DUP2 MSTORE PUSH1 0x20 ADD PUSH1 0x0 KECCAK256 PUSH1 0x0 SWAP1 SLOAD SWAP1 PUSH2 0x100 EXP SWAP1 DIV PUSH20 0xFFFFFFFFFFFFFFFFFFFFFFFFFFFFFFFFFFFFFFFF AND SWAP1 POP SWAP2 SWAP1 POP JUMP JUMPDEST PUSH1 0x0 SELFBALANCE SWAP1 POP SWAP1 JUMP JUMPDEST PUSH1 0x0 PUSH1 0x8 PUSH1 0x0 DUP4 DUP2 MSTORE PUSH1 0x20 ADD SWAP1 DUP2 MSTORE PUSH1 0x20 ADD PUSH1 0x0 KECCAK256 PUSH1 0x1 ADD PUSH1 0x0 SWAP1 SLOAD SWAP1 PUSH2 0x100 EXP SWAP1 DIV PUSH20 0xFFFFFFFFFFFFFFFFFFFFFFFFFFFFFFFFFFFFFFFF AND SWAP1 POP SWAP2 SWAP1 POP JUMP JUMPDEST DUP3 PUSH1 0x80 ADD CALLDATALOAD PUSH1 0x6 SLOAD EQ PUSH2 0x113C JUMPI PUSH1 0x40 MLOAD PUSH32 0x8C379A000000000000000000000000000000000000000000000000000000000 DUP2 MSTORE PUSH1 0x4 ADD PUSH2 0x1133 SWAP1 PUSH2 0x373B JUMP JUMPDEST PUSH1 0x40 MLOAD DUP1 SWAP2 SUB SWAP1 REVERT JUMPDEST PUSH1 0x4 PUSH1 0x0 DUP4 DUP2 MSTORE PUSH1 0x20 ADD SWAP1 DUP2 MSTORE PUSH1 0x20 ADD PUSH1 0x0 KECCAK256 PUSH1 0x2 ADD PUSH1 0x0 DUP5 PUSH1 0x40 ADD CALLDATALOAD DUP2 MSTORE PUSH1 0x20 ADD SWAP1 DUP2 MSTORE PUSH1 0x20 ADD PUSH1 0x0 KECCAK256 PUSH1 0x0 SWAP1 SLOAD SWAP1 PUSH2 0x100 EXP SWAP1 DIV PUSH1 0xFF AND ISZERO PUSH2 0x11AC JUMPI PUSH1 0x40 MLOAD PUSH32 0x208B15E800000000000000000000000000000000000000000000000000000000 DUP2 MSTORE PUSH1 0x4 ADD PUSH1 0x40 MLOAD DUP1 SWAP2 SUB SWAP1 REVERT JUMPDEST PUSH2 0x11B6 DUP3 DUP5 PUSH2 0xA4C JUMP JUMPDEST PUSH2 0x11EC JUMPI PUSH1 0x40 MLOAD PUSH32 0x4AA6BC4000000000000000000000000000000000000000000000000000000000 DUP2 MSTORE PUSH1 0x4 ADD PUSH1 0x40 MLOAD DUP1 SWAP2 SUB SWAP1 REVERT JUMPDEST PUSH1 0x1 PUSH1 0x4 PUSH1 0x0 DUP5 DUP2 MSTORE PUSH1 0x20 ADD SWAP1 DUP2 MSTORE PUSH1 0x20 ADD PUSH1 0x0 KECCAK256 PUSH1 0x2 ADD PUSH1 0x0 DUP6 PUSH1 0x40 ADD CALLDATALOAD DUP2 MSTORE PUSH1 0x20 ADD SWAP1 DUP2 MSTORE PUSH1 0x20 ADD PUSH1 0x0 KECCAK256 PUSH1 0x0 PUSH2 0x100 EXP DUP2 SLOAD DUP2 PUSH1 0xFF MUL NOT AND SWAP1 DUP4 ISZERO ISZERO MUL OR SWAP1 SSTORE POP DUP2 PUSH1 0x8 PUSH1 0x0 DUP4 DUP2 MSTORE PUSH1 0x20 ADD SWAP1 DUP2 MSTORE PUSH1 0x20 ADD PUSH1 0x0 KECCAK256 PUSH1 0x0 ADD PUSH1 0x0 DUP3 DUP3 SLOAD PUSH2 0x1256 SWAP2 SWAP1 PUSH2 0x33B0 JUMP JUMPDEST SWAP3 POP POP DUP2 SWAP1 SSTORE POP POP POP POP JUMP JUMPDEST PUSH1 0x4 PUSH1 0x0 DUP4 DUP2 MSTORE PUSH1 0x20 ADD SWAP1 DUP2 MSTORE PUSH1 0x20 ADD PUSH1 0x0 KECCAK256 PUSH1 0x2 ADD PUSH1 0x0 DUP3 PUSH1 0x40 ADD CALLDATALOAD DUP2 MSTORE PUSH1 0x20 ADD SWAP1 DUP2 MSTORE PUSH1 0x20 ADD PUSH1 0x0 KECCAK256 PUSH1 0x0 SWAP1 SLOAD SWAP1 PUSH2 0x100 EXP SWAP1 DIV PUSH1 0xFF AND ISZERO PUSH2 0x12D2 JUMPI PUSH1 0x40 MLOAD PUSH32 0x208B15E800000000000000000000000000000000000000000000000000000000 DUP2 MSTORE PUSH1 0x4 ADD PUSH1 0x40 MLOAD DUP1 SWAP2 SUB SWAP1 REVERT JUMPDEST PUSH2 0x12DC DUP3 DUP3 PUSH2 0xA4C JUMP JUMPDEST PUSH2 0x1312 JUMPI PUSH1 0x40 MLOAD PUSH32 0x4AA6BC4000000000000000000000000000000000000000000000000000000000 DUP2 MSTORE PUSH1 0x4 ADD PUSH1 0x40 MLOAD DUP1 SWAP2 SUB SWAP1 REVERT JUMPDEST PUSH1 0x1 PUSH1 0x4 PUSH1 0x0 DUP5 DUP2 MSTORE PUSH1 0x20 ADD SWAP1 DUP2 MSTORE PUSH1 0x20 ADD PUSH1 0x0 KECCAK256 PUSH1 0x2 ADD PUSH1 0x0 DUP4 PUSH1 0x40 ADD CALLDATALOAD DUP2 MSTORE PUSH1 0x20 ADD SWAP1 DUP2 MSTORE PUSH1 0x20 ADD PUSH1 0x0 KECCAK256 PUSH1 0x0 PUSH2 0x100 EXP DUP2 SLOAD DUP2 PUSH1 0xFF MUL NOT AND SWAP1 DUP4 ISZERO ISZERO MUL OR SWAP1 SSTORE POP DUP1 PUSH1 0x80 ADD CALLDATALOAD DUP2 PUSH1 0x20 ADD CALLDATALOAD DUP4 PUSH32 0xC32E14CFE81A05D371C248D22DE6B7AE849E981B76A1F8842E7B6DA73FC405A DUP5 PUSH1 0x0 ADD CALLDATALOAD DUP6 PUSH1 0x40 ADD CALLDATALOAD DUP7 PUSH1 0x60 ADD CALLDATALOAD DUP8 PUSH1 0xA0 ADD PUSH1 0x40 MLOAD PUSH2 0x13A5 SWAP5 SWAP4 SWAP3 SWAP2 SWAP1 PUSH2 0x3775 JUMP JUMPDEST PUSH1 0x40 MLOAD DUP1 SWAP2 SUB SWAP1 LOG4 POP POP JUMP JUMPDEST PUSH1 0x5 SLOAD DUP2 JUMP JUMPDEST PUSH2 0x13C0 DUP2 PUSH2 0x1D62 JUMP JUMPDEST POP JUMP JUMPDEST PUSH1 0x0 PUSH2 0x13DF PUSH1 0x0 DUP1 DUP5 DUP2 MSTORE PUSH1 0x20 ADD SWAP1 DUP2 MSTORE PUSH1 0x20 ADD PUSH1 0x0 KECCAK256 PUSH2 0x1F19 JUMP JUMPDEST SWAP1 POP SWAP2 SWAP1 POP JUMP JUMPDEST DUP2 PUSH1 0x1 GT ISZERO DUP1 ISZERO PUSH2 0x13F8 JUMPI POP PUSH1 0x64 DUP3 GT ISZERO JUMPDEST PUSH2 0x1437 JUMPI PUSH1 0x40 MLOAD PUSH32 0x8C379A000000000000000000000000000000000000000000000000000000000 DUP2 MSTORE PUSH1 0x4 ADD PUSH2 0x142E SWAP1 PUSH2 0x3807 JUMP JUMPDEST PUSH1 0x40 MLOAD DUP1 SWAP2 SUB SWAP1 REVERT JUMPDEST PUSH1 0x1 CALLVALUE PUSH2 0x1444 SWAP2 SWAP1 PUSH2 0x337C JUMP JUMPDEST DUP3 GT ISZERO PUSH2 0x1450 JUMPI PUSH1 0x0 DUP1 REVERT JUMPDEST ADDRESS PUSH20 0xFFFFFFFFFFFFFFFFFFFFFFFFFFFFFFFFFFFFFFFF AND PUSH4 0x1783EFC3 DUP4 DUP4 PUSH1 0x40 MLOAD DUP4 PUSH4 0xFFFFFFFF AND PUSH1 0xE0 SHL DUP2 MSTORE PUSH1 0x4 ADD PUSH2 0x148B SWAP3 SWAP2 SWAP1 PUSH2 0x3827 JUMP JUMPDEST PUSH1 0x0 PUSH1 0x40 MLOAD DUP1 DUP4 SUB DUP2 PUSH1 0x0 DUP8 DUP1 EXTCODESIZE ISZERO DUP1 ISZERO PUSH2 0x14A5 JUMPI PUSH1 0x0 DUP1 REVERT JUMPDEST POP GAS CALL ISZERO DUP1 ISZERO PUSH2 0x14B9 JUMPI RETURNDATASIZE PUSH1 0x0 DUP1 RETURNDATACOPY RETURNDATASIZE PUSH1 0x0 REVERT JUMPDEST POP POP POP POP POP POP JUMP JUMPDEST DUP2 CALLER PUSH20 0xFFFFFFFFFFFFFFFFFFFFFFFFFFFFFFFFFFFFFFFF AND PUSH1 0x1 PUSH1 0x0 DUP4 DUP2 MSTORE PUSH1 0x20 ADD SWAP1 DUP2 MSTORE PUSH1 0x20 ADD PUSH1 0x0 KECCAK256 PUSH1 0x0 SWAP1 SLOAD SWAP1 PUSH2 0x100 EXP SWAP1 DIV PUSH20 0xFFFFFFFFFFFFFFFFFFFFFFFFFFFFFFFFFFFFFFFF AND PUSH20 0xFFFFFFFFFFFFFFFFFFFFFFFFFFFFFFFFFFFFFFFF AND EQ PUSH2 0x155A JUMPI PUSH1 0x40 MLOAD PUSH32 0xBB9BF27800000000000000000000000000000000000000000000000000000000 DUP2 MSTORE PUSH1 0x4 ADD PUSH1 0x40 MLOAD DUP1 SWAP2 SUB SWAP1 REVERT JUMPDEST PUSH1 0x0 PUSH1 0x4 PUSH1 0x0 DUP6 DUP2 MSTORE PUSH1 0x20 ADD SWAP1 DUP2 MSTORE PUSH1 0x20 ADD PUSH1 0x0 KECCAK256 PUSH1 0x0 ADD SLOAD SWAP1 POP DUP3 PUSH1 0x4 PUSH1 0x0 DUP7 DUP2 MSTORE PUSH1 0x20 ADD SWAP1 DUP2 MSTORE PUSH1 0x20 ADD PUSH1 0x0 KECCAK256 PUSH1 0x0 ADD DUP2 SWAP1 SSTORE POP DUP4 PUSH32 0x264B2A8F6763C084235FE832BA903482B2EF1A521336881FC75B987C2DFD29C5 DUP3 DUP6 PUSH1 0x40 MLOAD PUSH2 0x15C2 SWAP3 SWAP2 SWAP1 PUSH2 0x3827 JUMP JUMPDEST PUSH1 0x40 MLOAD DUP1 SWAP2 SUB SWAP1 LOG2 POP POP POP POP JUMP JUMPDEST PUSH1 0x0 DUP4 CALLER PUSH20 0xFFFFFFFFFFFFFFFFFFFFFFFFFFFFFFFFFFFFFFFF AND PUSH1 0x1 PUSH1 0x0 DUP4 DUP2 MSTORE PUSH1 0x20 ADD SWAP1 DUP2 MSTORE PUSH1 0x20 ADD PUSH1 0x0 KECCAK256 PUSH1 0x0 SWAP1 SLOAD SWAP1 PUSH2 0x100 EXP SWAP1 DIV PUSH20 0xFFFFFFFFFFFFFFFFFFFFFFFFFFFFFFFFFFFFFFFF AND PUSH20 0xFFFFFFFFFFFFFFFFFFFFFFFFFFFFFFFFFFFFFFFF AND EQ PUSH2 0x166B JUMPI PUSH1 0x40 MLOAD PUSH32 0xBB9BF27800000000000000000000000000000000000000000000000000000000 DUP2 MSTORE PUSH1 0x4 ADD PUSH1 0x40 MLOAD DUP1 SWAP2 SUB SWAP1 REVERT JUMPDEST PUSH1 0x0 PUSH2 0x1676 DUP7 PUSH2 0xF93 JUMP JUMPDEST SWAP1 POP PUSH2 0x169E DUP6 DUP6 PUSH1 0x0 DUP1 DUP11 DUP2 MSTORE PUSH1 0x20 ADD SWAP1 DUP2 MSTORE PUSH1 0x20 ADD PUSH1 0x0 KECCAK256 PUSH2 0x1F3C SWAP1 SWAP3 SWAP2 SWAP1 PUSH4 0xFFFFFFFF AND JUMP JUMPDEST SWAP3 POP DUP6 PUSH32 0x61E5E8054E3DAF084A0C6C646C065E8BF5E7CA4D5567BDA942309BD1652F349D DUP3 DUP8 DUP8 DUP8 PUSH1 0x40 MLOAD PUSH2 0x16D6 SWAP5 SWAP4 SWAP3 SWAP2 SWAP1 PUSH2 0x38C2 JUMP JUMPDEST PUSH1 0x40 MLOAD DUP1 SWAP2 SUB SWAP1 LOG2 POP POP SWAP4 SWAP3 POP POP POP JUMP JUMPDEST PUSH1 0x0 DUP1 DUP4 PUSH1 0x3 ADD PUSH1 0x0 DUP5 DUP2 MSTORE PUSH1 0x20 ADD SWAP1 DUP2 MSTORE PUSH1 0x20 ADD PUSH1 0x0 KECCAK256 SLOAD SUB PUSH2 0x1737 JUMPI PUSH1 0x40 MLOAD PUSH32 0x7204756C00000000000000000000000000000000000000000000000000000000 DUP2 MSTORE PUSH1 0x4 ADD PUSH1 0x40 MLOAD DUP1 SWAP2 SUB SWAP1 REVERT JUMPDEST PUSH1 0x1 DUP4 PUSH1 0x3 ADD PUSH1 0x0 DUP5 DUP2 MSTORE PUSH1 0x20 ADD SWAP1 DUP2 MSTORE PUSH1 0x20 ADD PUSH1 0x0 KECCAK256 SLOAD PUSH2 0x1759 SWAP2 SWAP1 PUSH2 0x337C JUMP JUMPDEST SWAP1 POP SWAP3 SWAP2 POP POP JUMP JUMPDEST PUSH1 0x0 DUP3 CALLER PUSH20 0xFFFFFFFFFFFFFFFFFFFFFFFFFFFFFFFFFFFFFFFF AND PUSH1 0x1 PUSH1 0x0 DUP4 DUP2 MSTORE PUSH1 0x20 ADD SWAP1 DUP2 MSTORE PUSH1 0x20 ADD PUSH1 0x0 KECCAK256 PUSH1 0x0 SWAP1 SLOAD SWAP1 PUSH2 0x100 EXP SWAP1 DIV PUSH20 0xFFFFFFFFFFFFFFFFFFFFFFFFFFFFFFFFFFFFFFFF AND PUSH20 0xFFFFFFFFFFFFFFFFFFFFFFFFFFFFFFFFFFFFFFFF AND EQ PUSH2 0x17FC JUMPI PUSH1 0x40 MLOAD PUSH32 0xBB9BF27800000000000000000000000000000000000000000000000000000000 DUP2 MSTORE PUSH1 0x4 ADD PUSH1 0x40 MLOAD DUP1 SWAP2 SUB SWAP1 REVERT JUMPDEST PUSH1 0x0 PUSH2 0x1807 DUP6 PUSH2 0xF93 JUMP JUMPDEST SWAP1 POP PUSH2 0x182D DUP5 PUSH1 0x0 DUP1 DUP9 DUP2 MSTORE PUSH1 0x20 ADD SWAP1 DUP2 MSTORE PUSH1 0x20 ADD PUSH1 0x0 KECCAK256 PUSH2 0x2520 SWAP1 SWAP2 SWAP1 PUSH4 0xFFFFFFFF AND JUMP JUMPDEST SWAP3 POP DUP5 PUSH32 0x19239B3F93CD10558AAF11423AF70C77763BF54F52BCC75BFA74D4D13548CDE9 DUP3 DUP7 DUP7 PUSH1 0x40 MLOAD PUSH2 0x1863 SWAP4 SWAP3 SWAP2 SWAP1 PUSH2 0x3902 JUMP JUMPDEST PUSH1 0x40 MLOAD DUP1 SWAP2 SUB SWAP1 LOG2 POP POP SWAP3 SWAP2 POP POP JUMP JUMPDEST DUP1 PUSH1 0x1 PUSH1 0x0 DUP5 DUP2 MSTORE PUSH1 0x20 ADD SWAP1 DUP2 MSTORE PUSH1 0x20 ADD PUSH1 0x0 KECCAK256 PUSH1 0x0 PUSH2 0x100 EXP DUP2 SLOAD DUP2 PUSH20 0xFFFFFFFFFFFFFFFFFFFFFFFFFFFFFFFFFFFFFFFF MUL NOT AND SWAP1 DUP4 PUSH20 0xFFFFFFFFFFFFFFFFFFFFFFFFFFFFFFFFFFFFFFFF AND MUL OR SWAP1 SSTORE POP DUP2 PUSH32 0xF0ADFB94EAB6DAF835DEB69C5738FE636150C3DFD08094A76F39B963DC8CB05A PUSH1 0x40 MLOAD PUSH1 0x40 MLOAD DUP1 SWAP2 SUB SWAP1 LOG2 DUP1 PUSH20 0xFFFFFFFFFFFFFFFFFFFFFFFFFFFFFFFFFFFFFFFF AND PUSH1 0x0 PUSH20 0xFFFFFFFFFFFFFFFFFFFFFFFFFFFFFFFFFFFFFFFF AND DUP4 PUSH32 0xBA83579A0E79193EF649B9F5A8759D35AF086BA62A3E207B52E4A8AE30D49E3 PUSH1 0x40 MLOAD PUSH1 0x40 MLOAD DUP1 SWAP2 SUB SWAP1 LOG4 POP POP JUMP JUMPDEST PUSH1 0x0 DUP6 CALLER PUSH20 0xFFFFFFFFFFFFFFFFFFFFFFFFFFFFFFFFFFFFFFFF AND PUSH1 0x1 PUSH1 0x0 DUP4 DUP2 MSTORE PUSH1 0x20 ADD SWAP1 DUP2 MSTORE PUSH1 0x20 ADD PUSH1 0x0 KECCAK256 PUSH1 0x0 SWAP1 SLOAD SWAP1 PUSH2 0x100 EXP SWAP1 DIV PUSH20 0xFFFFFFFFFFFFFFFFFFFFFFFFFFFFFFFFFFFFFFFF AND PUSH20 0xFFFFFFFFFFFFFFFFFFFFFFFFFFFFFFFFFFFFFFFF AND EQ PUSH2 0x19ED JUMPI PUSH1 0x40 MLOAD PUSH32 0xBB9BF27800000000000000000000000000000000000000000000000000000000 DUP2 MSTORE PUSH1 0x4 ADD PUSH1 0x40 MLOAD DUP1 SWAP2 SUB SWAP1 REVERT JUMPDEST PUSH1 0x0 PUSH2 0x1A13 DUP8 PUSH1 0x0 DUP1 DUP12 DUP2 MSTORE PUSH1 0x20 ADD SWAP1 DUP2 MSTORE PUSH1 0x20 ADD PUSH1 0x0 KECCAK256 PUSH2 0x16E7 SWAP1 SWAP2 SWAP1 PUSH4 0xFFFFFFFF AND JUMP JUMPDEST SWAP1 POP PUSH2 0x1A3F DUP8 DUP8 DUP8 DUP8 PUSH1 0x0 DUP1 DUP15 DUP2 MSTORE PUSH1 0x20 ADD SWAP1 DUP2 MSTORE PUSH1 0x20 ADD PUSH1 0x0 KECCAK256 PUSH2 0x277F SWAP1 SWAP5 SWAP4 SWAP3 SWAP2 SWAP1 PUSH4 0xFFFFFFFF AND JUMP JUMPDEST SWAP3 POP DUP8 PUSH32 0xEA3588E4A2A0C93D6A0E69DFEAF7496F43CCCCF02AD9CE0A5B7627CBCA4B61B1 DUP3 DUP10 DUP10 DUP8 PUSH1 0x40 MLOAD PUSH2 0x1A77 SWAP5 SWAP4 SWAP3 SWAP2 SWAP1 PUSH2 0x3939 JUMP JUMPDEST PUSH1 0x40 MLOAD DUP1 SWAP2 SUB SWAP1 LOG2 POP POP SWAP6 SWAP5 POP POP POP POP POP JUMP JUMPDEST PUSH1 0x0 PUSH1 0x8 DUP3 PUSH1 0x40 MLOAD PUSH1 0x20 ADD PUSH2 0x1A9F SWAP2 SWAP1 PUSH2 0x399F JUMP JUMPDEST PUSH1 0x40 MLOAD PUSH1 0x20 DUP2 DUP4 SUB SUB DUP2 MSTORE SWAP1 PUSH1 0x40 MSTORE DUP1 MLOAD SWAP1 PUSH1 0x20 ADD KECCAK256 PUSH1 0x0 SHR SWAP1 SHR SWAP1 POP SWAP2 SWAP1 POP JUMP JUMPDEST DUP2 CALLER PUSH20 0xFFFFFFFFFFFFFFFFFFFFFFFFFFFFFFFFFFFFFFFF AND PUSH1 0x1 PUSH1 0x0 DUP4 DUP2 MSTORE PUSH1 0x20 ADD SWAP1 DUP2 MSTORE PUSH1 0x20 ADD PUSH1 0x0 KECCAK256 PUSH1 0x0 SWAP1 SLOAD SWAP1 PUSH2 0x100 EXP SWAP1 DIV PUSH20 0xFFFFFFFFFFFFFFFFFFFFFFFFFFFFFFFFFFFFFFFF AND PUSH20 0xFFFFFFFFFFFFFFFFFFFFFFFFFFFFFFFFFFFFFFFF AND EQ PUSH2 0x1B5A JUMPI PUSH1 0x40 MLOAD PUSH32 0xBB9BF27800000000000000000000000000000000000000000000000000000000 DUP2 MSTORE PUSH1 0x4 ADD PUSH1 0x40 MLOAD DUP1 SWAP2 SUB SWAP1 REVERT JUMPDEST DUP2 PUSH1 0x2 PUSH1 0x0 DUP6 DUP2 MSTORE PUSH1 0x20 ADD SWAP1 DUP2 MSTORE PUSH1 0x20 ADD PUSH1 0x0 KECCAK256 PUSH1 0x0 PUSH2 0x100 EXP DUP2 SLOAD DUP2 PUSH20 0xFFFFFFFFFFFFFFFFFFFFFFFFFFFFFFFFFFFFFFFF MUL NOT AND SWAP1 DUP4 PUSH20 0xFFFFFFFFFFFFFFFFFFFFFFFFFFFFFFFFFFFFFFFF AND MUL OR SWAP1 SSTORE POP DUP2 PUSH20 0xFFFFFFFFFFFFFFFFFFFFFFFFFFFFFFFFFFFFFFFF AND CALLER PUSH20 0xFFFFFFFFFFFFFFFFFFFFFFFFFFFFFFFFFFFFFFFF AND DUP5 PUSH32 0x1018365553CCE55D9CB02EF73E18CC9311894F3FE1D1EAFD235AC2D26CD8BA58 PUSH1 0x40 MLOAD PUSH1 0x40 MLOAD DUP1 SWAP2 SUB SWAP1 LOG4 POP POP POP JUMP JUMPDEST PUSH1 0x0 DUP5 CALLER PUSH20 0xFFFFFFFFFFFFFFFFFFFFFFFFFFFFFFFFFFFFFFFF AND PUSH1 0x1 PUSH1 0x0 DUP4 DUP2 MSTORE PUSH1 0x20 ADD SWAP1 DUP2 MSTORE PUSH1 0x20 ADD PUSH1 0x0 KECCAK256 PUSH1 0x0 SWAP1 SLOAD SWAP1 PUSH2 0x100 EXP SWAP1 DIV PUSH20 0xFFFFFFFFFFFFFFFFFFFFFFFFFFFFFFFFFFFFFFFF AND PUSH20 0xFFFFFFFFFFFFFFFFFFFFFFFFFFFFFFFFFFFFFFFF AND EQ PUSH2 0x1CA7 JUMPI PUSH1 0x40 MLOAD PUSH32 0xBB9BF27800000000000000000000000000000000000000000000000000000000 DUP2 MSTORE PUSH1 0x4 ADD PUSH1 0x40 MLOAD DUP1 SWAP2 SUB SWAP1 REVERT JUMPDEST PUSH1 0x0 PUSH2 0x1CCD DUP7 PUSH1 0x0 DUP1 DUP11 DUP2 MSTORE PUSH1 0x20 ADD SWAP1 DUP2 MSTORE PUSH1 0x20 ADD PUSH1 0x0 KECCAK256 PUSH2 0x16E7 SWAP1 SWAP2 SWAP1 PUSH4 0xFFFFFFFF AND JUMP JUMPDEST SWAP1 POP PUSH2 0x1CF7 DUP7 DUP7 DUP7 PUSH1 0x0 DUP1 DUP13 DUP2 MSTORE PUSH1 0x20 ADD SWAP1 DUP2 MSTORE PUSH1 0x20 ADD PUSH1 0x0 KECCAK256 PUSH2 0x2D35 SWAP1 SWAP4 SWAP3 SWAP2 SWAP1 PUSH4 0xFFFFFFFF AND JUMP JUMPDEST SWAP3 POP DUP7 PUSH32 0x3108849C053C77B8073A11256DFFB5FFD5B55E93E105A355E1C9061DB890D871 DUP3 DUP9 DUP7 PUSH1 0x40 MLOAD PUSH2 0x1D2D SWAP4 SWAP3 SWAP2 SWAP1 PUSH2 0x3902 JUMP JUMPDEST PUSH1 0x40 MLOAD DUP1 SWAP2 SUB SWAP1 LOG2 POP POP SWAP5 SWAP4 POP POP POP POP JUMP JUMPDEST PUSH1 0x0 DUP1 DUP4 PUSH1 0x3 ADD PUSH1 0x0 DUP5 DUP2 MSTORE PUSH1 0x20 ADD SWAP1 DUP2 MSTORE PUSH1 0x20 ADD PUSH1 0x0 KECCAK256 SLOAD EQ ISZERO SWAP1 POP SWAP3 SWAP2 POP POP JUMP JUMPDEST CALLER PUSH20 0xFFFFFFFFFFFFFFFFFFFFFFFFFFFFFFFFFFFFFFFF AND PUSH1 0x2 PUSH1 0x0 DUP4 DUP2 MSTORE PUSH1 0x20 ADD SWAP1 DUP2 MSTORE PUSH1 0x20 ADD PUSH1 0x0 KECCAK256 PUSH1 0x0 SWAP1 SLOAD SWAP1 PUSH2 0x100 EXP SWAP1 DIV PUSH20 0xFFFFFFFFFFFFFFFFFFFFFFFFFFFFFFFFFFFFFFFF AND PUSH20 0xFFFFFFFFFFFFFFFFFFFFFFFFFFFFFFFFFFFFFFFF AND EQ PUSH2 0x1DFA JUMPI PUSH1 0x40 MLOAD PUSH32 0x34C4245D00000000000000000000000000000000000000000000000000000000 DUP2 MSTORE PUSH1 0x4 ADD PUSH1 0x40 MLOAD DUP1 SWAP2 SUB SWAP1 REVERT JUMPDEST PUSH1 0x0 PUSH1 0x1 PUSH1 0x0 DUP4 DUP2 MSTORE PUSH1 0x20 ADD SWAP1 DUP2 MSTORE PUSH1 0x20 ADD PUSH1 0x0 KECCAK256 PUSH1 0x0 SWAP1 SLOAD SWAP1 PUSH2 0x100 EXP SWAP1 DIV PUSH20 0xFFFFFFFFFFFFFFFFFFFFFFFFFFFFFFFFFFFFFFFF AND SWAP1 POP CALLER PUSH1 0x1 PUSH1 0x0 DUP5 DUP2 MSTORE PUSH1 0x20 ADD SWAP1 DUP2 MSTORE PUSH1 0x20 ADD PUSH1 0x0 KECCAK256 PUSH1 0x0 PUSH2 0x100 EXP DUP2 SLOAD DUP2 PUSH20 0xFFFFFFFFFFFFFFFFFFFFFFFFFFFFFFFFFFFFFFFF MUL NOT AND SWAP1 DUP4 PUSH20 0xFFFFFFFFFFFFFFFFFFFFFFFFFFFFFFFFFFFFFFFF AND MUL OR SWAP1 SSTORE POP PUSH1 0x2 PUSH1 0x0 DUP4 DUP2 MSTORE PUSH1 0x20 ADD SWAP1 DUP2 MSTORE PUSH1 0x20 ADD PUSH1 0x0 KECCAK256 PUSH1 0x0 PUSH2 0x100 EXP DUP2 SLOAD SWAP1 PUSH20 0xFFFFFFFFFFFFFFFFFFFFFFFFFFFFFFFFFFFFFFFF MUL NOT AND SWAP1 SSTORE CALLER PUSH20 0xFFFFFFFFFFFFFFFFFFFFFFFFFFFFFFFFFFFFFFFF AND DUP2 PUSH20 0xFFFFFFFFFFFFFFFFFFFFFFFFFFFFFFFFFFFFFFFF AND DUP4 PUSH32 0xBA83579A0E79193EF649B9F5A8759D35AF086BA62A3E207B52E4A8AE30D49E3 PUSH1 0x40 MLOAD PUSH1 0x40 MLOAD DUP1 SWAP2 SUB SWAP1 LOG4 POP POP JUMP JUMPDEST PUSH1 0x0 DUP2 PUSH1 0x2 ADD PUSH1 0x0 DUP4 PUSH1 0x1 ADD SLOAD DUP2 MSTORE PUSH1 0x20 ADD SWAP1 DUP2 MSTORE PUSH1 0x20 ADD PUSH1 0x0 KECCAK256 SLOAD SWAP1 POP SWAP2 SWAP1 POP JUMP JUMPDEST PUSH1 0x0 DUP1 DUP5 PUSH1 0x0 ADD SLOAD SWAP1 POP PUSH1 0x0 JUMPDEST DUP5 DUP5 SWAP1 POP DUP2 LT ISZERO PUSH2 0x20C8 JUMPI PUSH32 0x30644E72E131A029B85045B68181585D2833E84879B9709143E1F593F0000001 DUP6 DUP6 DUP4 DUP2 DUP2 LT PUSH2 0x1F88 JUMPI PUSH2 0x1F87 PUSH2 0x33E4 JUMP JUMPDEST JUMPDEST SWAP1 POP PUSH1 0x20 MUL ADD CALLDATALOAD LT PUSH2 0x1FC6 JUMPI PUSH1 0x40 MLOAD PUSH32 0xC380A82E00000000000000000000000000000000000000000000000000000000 DUP2 MSTORE PUSH1 0x4 ADD PUSH1 0x40 MLOAD DUP1 SWAP2 SUB SWAP1 REVERT JUMPDEST PUSH1 0x0 DUP6 DUP6 DUP4 DUP2 DUP2 LT PUSH2 0x1FDB JUMPI PUSH2 0x1FDA PUSH2 0x33E4 JUMP JUMPDEST JUMPDEST SWAP1 POP PUSH1 0x20 MUL ADD CALLDATALOAD SUB PUSH2 0x2019 JUMPI PUSH1 0x40 MLOAD PUSH32 0x29691BE200000000000000000000000000000000000000000000000000000000 DUP2 MSTORE PUSH1 0x4 ADD PUSH1 0x40 MLOAD DUP1 SWAP2 SUB SWAP1 REVERT JUMPDEST PUSH2 0x203C DUP7 DUP7 DUP7 DUP5 DUP2 DUP2 LT PUSH2 0x2030 JUMPI PUSH2 0x202F PUSH2 0x33E4 JUMP JUMPDEST JUMPDEST SWAP1 POP PUSH1 0x20 MUL ADD CALLDATALOAD PUSH2 0x1D3F JUMP JUMPDEST ISZERO PUSH2 0x2073 JUMPI PUSH1 0x40 MLOAD PUSH32 0x258A195A00000000000000000000000000000000000000000000000000000000 DUP2 MSTORE PUSH1 0x4 ADD PUSH1 0x40 MLOAD DUP1 SWAP2 SUB SWAP1 REVERT JUMPDEST DUP1 PUSH1 0x1 DUP4 PUSH2 0x2081 SWAP2 SWAP1 PUSH2 0x33B0 JUMP JUMPDEST PUSH2 0x208B SWAP2 SWAP1 PUSH2 0x33B0 JUMP JUMPDEST DUP7 PUSH1 0x3 ADD PUSH1 0x0 DUP8 DUP8 DUP6 DUP2 DUP2 LT PUSH2 0x20A4 JUMPI PUSH2 0x20A3 PUSH2 0x33E4 JUMP JUMPDEST JUMPDEST SWAP1 POP PUSH1 0x20 MUL ADD CALLDATALOAD DUP2 MSTORE PUSH1 0x20 ADD SWAP1 DUP2 MSTORE PUSH1 0x20 ADD PUSH1 0x0 KECCAK256 DUP2 SWAP1 SSTORE POP DUP1 PUSH1 0x1 ADD SWAP1 POP PUSH2 0x1F49 JUMP JUMPDEST POP PUSH1 0x60 DUP5 DUP5 DUP1 DUP1 PUSH1 0x20 MUL PUSH1 0x20 ADD PUSH1 0x40 MLOAD SWAP1 DUP2 ADD PUSH1 0x40 MSTORE DUP1 SWAP4 SWAP3 SWAP2 SWAP1 DUP2 DUP2 MSTORE PUSH1 0x20 ADD DUP4 DUP4 PUSH1 0x20 MUL DUP1 DUP3 DUP5 CALLDATACOPY PUSH1 0x0 DUP2 DUP5 ADD MSTORE PUSH1 0x1F NOT PUSH1 0x1F DUP3 ADD AND SWAP1 POP DUP1 DUP4 ADD SWAP3 POP POP POP POP POP POP POP SWAP1 POP PUSH1 0x0 DUP7 PUSH1 0x1 ADD SLOAD SWAP1 POP JUMPDEST DUP6 DUP6 SWAP1 POP DUP4 PUSH2 0x2128 SWAP2 SWAP1 PUSH2 0x33B0 JUMP JUMPDEST DUP2 PUSH1 0x2 PUSH2 0x2135 SWAP2 SWAP1 PUSH2 0x3AED JUMP JUMPDEST LT ISZERO PUSH2 0x214C JUMPI DUP1 PUSH2 0x2145 SWAP1 PUSH2 0x32B7 JUMP JUMPDEST SWAP1 POP PUSH2 0x2119 JUMP JUMPDEST DUP1 DUP8 PUSH1 0x1 ADD DUP2 SWAP1 SSTORE POP PUSH1 0x0 DUP4 SWAP1 POP PUSH1 0x0 DUP8 DUP8 SWAP1 POP DUP6 PUSH2 0x216B SWAP2 SWAP1 PUSH2 0x33B0 JUMP JUMPDEST SWAP1 POP PUSH1 0x0 PUSH1 0x1 DUP4 SWAP1 SHR SWAP1 POP PUSH1 0x0 PUSH1 0x1 DUP1 PUSH1 0x1 DUP6 PUSH2 0x2188 SWAP2 SWAP1 PUSH2 0x337C JUMP JUMPDEST SWAP1 SHR PUSH2 0x2194 SWAP2 SWAP1 PUSH2 0x33B0 JUMP JUMPDEST SWAP1 POP PUSH1 0x0 JUMPDEST DUP6 DUP2 LT ISZERO PUSH2 0x24A7 JUMPI PUSH1 0x0 DUP4 DUP4 PUSH2 0x21AF SWAP2 SWAP1 PUSH2 0x337C JUMP JUMPDEST SWAP1 POP PUSH1 0x0 DUP2 PUSH8 0xFFFFFFFFFFFFFFFF DUP2 GT ISZERO PUSH2 0x21CD JUMPI PUSH2 0x21CC PUSH2 0x3B38 JUMP JUMPDEST JUMPDEST PUSH1 0x40 MLOAD SWAP1 DUP1 DUP3 MSTORE DUP1 PUSH1 0x20 MUL PUSH1 0x20 ADD DUP3 ADD PUSH1 0x40 MSTORE DUP1 ISZERO PUSH2 0x21FB JUMPI DUP2 PUSH1 0x20 ADD PUSH1 0x20 DUP3 MUL DUP1 CALLDATASIZE DUP4 CALLDATACOPY DUP1 DUP3 ADD SWAP2 POP POP SWAP1 POP JUMPDEST POP SWAP1 POP PUSH1 0x0 JUMPDEST DUP3 DUP2 LT ISZERO PUSH2 0x23CE JUMPI PUSH1 0x0 DUP9 PUSH1 0x2 DUP9 DUP5 PUSH2 0x221A SWAP2 SWAP1 PUSH2 0x33B0 JUMP JUMPDEST PUSH2 0x2224 SWAP2 SWAP1 PUSH2 0x3B67 JUMP JUMPDEST LT ISZERO PUSH2 0x2247 JUMPI DUP16 PUSH1 0x2 ADD PUSH1 0x0 DUP7 DUP2 MSTORE PUSH1 0x20 ADD SWAP1 DUP2 MSTORE PUSH1 0x20 ADD PUSH1 0x0 KECCAK256 SLOAD SWAP1 POP PUSH2 0x2287 JUMP JUMPDEST DUP11 DUP10 PUSH1 0x2 DUP10 DUP6 PUSH2 0x2257 SWAP2 SWAP1 PUSH2 0x33B0 JUMP JUMPDEST PUSH2 0x2261 SWAP2 SWAP1 PUSH2 0x3B67 JUMP JUMPDEST PUSH2 0x226B SWAP2 SWAP1 PUSH2 0x337C JUMP JUMPDEST DUP2 MLOAD DUP2 LT PUSH2 0x227C JUMPI PUSH2 0x227B PUSH2 0x33E4 JUMP JUMPDEST JUMPDEST PUSH1 0x20 MUL PUSH1 0x20 ADD ADD MLOAD SWAP1 POP JUMPDEST PUSH1 0x0 DUP9 PUSH1 0x1 PUSH1 0x2 DUP11 DUP7 PUSH2 0x229A SWAP2 SWAP1 PUSH2 0x33B0 JUMP JUMPDEST PUSH2 0x22A4 SWAP2 SWAP1 PUSH2 0x3B67 JUMP JUMPDEST PUSH2 0x22AE SWAP2 SWAP1 PUSH2 0x33B0 JUMP JUMPDEST LT ISZERO PUSH2 0x2300 JUMPI DUP12 DUP11 PUSH1 0x1 PUSH1 0x2 DUP12 DUP8 PUSH2 0x22C6 SWAP2 SWAP1 PUSH2 0x33B0 JUMP JUMPDEST PUSH2 0x22D0 SWAP2 SWAP1 PUSH2 0x3B67 JUMP JUMPDEST PUSH2 0x22DA SWAP2 SWAP1 PUSH2 0x33B0 JUMP JUMPDEST PUSH2 0x22E4 SWAP2 SWAP1 PUSH2 0x337C JUMP JUMPDEST DUP2 MLOAD DUP2 LT PUSH2 0x22F5 JUMPI PUSH2 0x22F4 PUSH2 0x33E4 JUMP JUMPDEST JUMPDEST PUSH1 0x20 MUL PUSH1 0x20 ADD ADD MLOAD SWAP1 POP JUMPDEST PUSH1 0x0 DUP1 DUP3 EQ PUSH2 0x239C JUMPI PUSH20 0x0 PUSH4 0x561558FE PUSH1 0x40 MLOAD DUP1 PUSH1 0x40 ADD PUSH1 0x40 MSTORE DUP1 DUP7 DUP2 MSTORE PUSH1 0x20 ADD DUP6 DUP2 MSTORE POP PUSH1 0x40 MLOAD DUP3 PUSH4 0xFFFFFFFF AND PUSH1 0xE0 SHL DUP2 MSTORE PUSH1 0x4 ADD PUSH2 0x2354 SWAP2 SWAP1 PUSH2 0x3C32 JUMP JUMPDEST PUSH1 0x20 PUSH1 0x40 MLOAD DUP1 DUP4 SUB DUP2 DUP7 GAS DELEGATECALL ISZERO DUP1 ISZERO PUSH2 0x2371 JUMPI RETURNDATASIZE PUSH1 0x0 DUP1 RETURNDATACOPY RETURNDATASIZE PUSH1 0x0 REVERT JUMPDEST POP POP POP POP PUSH1 0x40 MLOAD RETURNDATASIZE PUSH1 0x1F NOT PUSH1 0x1F DUP3 ADD AND DUP3 ADD DUP1 PUSH1 0x40 MSTORE POP DUP2 ADD SWAP1 PUSH2 0x2395 SWAP2 SWAP1 PUSH2 0x3C62 JUMP JUMPDEST SWAP1 POP PUSH2 0x23A0 JUMP JUMPDEST DUP3 SWAP1 POP JUMPDEST DUP1 DUP6 DUP6 DUP2 MLOAD DUP2 LT PUSH2 0x23B4 JUMPI PUSH2 0x23B3 PUSH2 0x33E4 JUMP JUMPDEST JUMPDEST PUSH1 0x20 MUL PUSH1 0x20 ADD ADD DUP2 DUP2 MSTORE POP POP DUP4 PUSH1 0x1 ADD SWAP4 POP POP POP POP PUSH2 0x2201 JUMP JUMPDEST POP PUSH1 0x1 DUP1 DUP8 AND SUB PUSH2 0x241F JUMPI DUP9 PUSH1 0x1 DUP11 MLOAD PUSH2 0x23E8 SWAP2 SWAP1 PUSH2 0x337C JUMP JUMPDEST DUP2 MLOAD DUP2 LT PUSH2 0x23F9 JUMPI PUSH2 0x23F8 PUSH2 0x33E4 JUMP JUMPDEST JUMPDEST PUSH1 0x20 MUL PUSH1 0x20 ADD ADD MLOAD DUP15 PUSH1 0x2 ADD PUSH1 0x0 DUP6 DUP2 MSTORE PUSH1 0x20 ADD SWAP1 DUP2 MSTORE PUSH1 0x20 ADD PUSH1 0x0 KECCAK256 DUP2 SWAP1 SSTORE POP PUSH2 0x246C JUMP JUMPDEST PUSH1 0x1 DUP10 MLOAD GT ISZERO PUSH2 0x246B JUMPI DUP9 PUSH1 0x2 DUP11 MLOAD PUSH2 0x2438 SWAP2 SWAP1 PUSH2 0x337C JUMP JUMPDEST DUP2 MLOAD DUP2 LT PUSH2 0x2449 JUMPI PUSH2 0x2448 PUSH2 0x33E4 JUMP JUMPDEST JUMPDEST PUSH1 0x20 MUL PUSH1 0x20 ADD ADD MLOAD DUP15 PUSH1 0x2 ADD PUSH1 0x0 DUP6 DUP2 MSTORE PUSH1 0x20 ADD SWAP1 DUP2 MSTORE PUSH1 0x20 ADD PUSH1 0x0 KECCAK256 DUP2 SWAP1 SSTORE POP JUMPDEST JUMPDEST DUP5 SWAP7 POP PUSH1 0x1 DUP6 SWAP1 SHR SWAP5 POP DUP1 SWAP9 POP DUP4 SWAP6 POP PUSH1 0x1 DUP1 PUSH1 0x1 DUP7 PUSH2 0x248C SWAP2 SWAP1 PUSH2 0x337C JUMP JUMPDEST SWAP1 SHR PUSH2 0x2498 SWAP2 SWAP1 PUSH2 0x33B0 JUMP JUMPDEST SWAP4 POP DUP3 PUSH1 0x1 ADD SWAP3 POP POP POP PUSH2 0x2199 JUMP JUMPDEST POP DUP10 DUP10 SWAP1 POP DUP8 PUSH2 0x24B7 SWAP2 SWAP1 PUSH2 0x33B0 JUMP JUMPDEST DUP12 PUSH1 0x0 ADD DUP2 SWAP1 SSTORE POP DUP6 PUSH1 0x0 DUP2 MLOAD DUP2 LT PUSH2 0x24D3 JUMPI PUSH2 0x24D2 PUSH2 0x33E4 JUMP JUMPDEST JUMPDEST PUSH1 0x20 MUL PUSH1 0x20 ADD ADD MLOAD DUP12 PUSH1 0x2 ADD PUSH1 0x0 DUP8 DUP2 MSTORE PUSH1 0x20 ADD SWAP1 DUP2 MSTORE PUSH1 0x20 ADD PUSH1 0x0 KECCAK256 DUP2 SWAP1 SSTORE POP DUP6 PUSH1 0x0 DUP2 MLOAD DUP2 LT PUSH2 0x2508 JUMPI PUSH2 0x2507 PUSH2 0x33E4 JUMP JUMPDEST JUMPDEST PUSH1 0x20 MUL PUSH1 0x20 ADD ADD MLOAD SWAP8 POP POP POP POP POP POP POP POP SWAP4 SWAP3 POP POP POP JUMP JUMPDEST PUSH1 0x0 PUSH32 0x30644E72E131A029B85045B68181585D2833E84879B9709143E1F593F0000001 DUP3 LT PUSH2 0x257B JUMPI PUSH1 0x40 MLOAD PUSH32 0xC380A82E00000000000000000000000000000000000000000000000000000000 DUP2 MSTORE PUSH1 0x4 ADD PUSH1 0x40 MLOAD DUP1 SWAP2 SUB SWAP1 REVERT JUMPDEST PUSH1 0x0 DUP3 SUB PUSH2 0x25B5 JUMPI PUSH1 0x40 MLOAD PUSH32 0x29691BE200000000000000000000000000000000000000000000000000000000 DUP2 MSTORE PUSH1 0x4 ADD PUSH1 0x40 MLOAD DUP1 SWAP2 SUB SWAP1 REVERT JUMPDEST PUSH2 0x25BF DUP4 DUP4 PUSH2 0x1D3F JUMP JUMPDEST ISZERO PUSH2 0x25F6 JUMPI PUSH1 0x40 MLOAD PUSH32 0x258A195A00000000000000000000000000000000000000000000000000000000 DUP2 MSTORE PUSH1 0x4 ADD PUSH1 0x40 MLOAD DUP1 SWAP2 SUB SWAP1 REVERT JUMPDEST PUSH1 0x0 DUP4 PUSH1 0x0 ADD SLOAD SWAP1 POP PUSH1 0x0 DUP5 PUSH1 0x1 ADD SLOAD SWAP1 POP PUSH1 0x1 DUP3 PUSH2 0x2615 SWAP2 SWAP1 PUSH2 0x33B0 JUMP JUMPDEST DUP2 PUSH1 0x2 PUSH2 0x2622 SWAP2 SWAP1 PUSH2 0x3AED JUMP JUMPDEST LT ISZERO PUSH2 0x2635 JUMPI DUP1 PUSH2 0x2632 SWAP1 PUSH2 0x32B7 JUMP JUMPDEST SWAP1 POP JUMPDEST DUP1 DUP6 PUSH1 0x1 ADD DUP2 SWAP1 SSTORE POP PUSH1 0x0 DUP5 SWAP1 POP PUSH1 0x0 JUMPDEST DUP3 DUP2 LT ISZERO PUSH2 0x2729 JUMPI PUSH1 0x1 DUP1 DUP3 DUP7 SWAP1 SHR AND SUB PUSH2 0x2703 JUMPI PUSH20 0x0 PUSH4 0x561558FE PUSH1 0x40 MLOAD DUP1 PUSH1 0x40 ADD PUSH1 0x40 MSTORE DUP1 DUP11 PUSH1 0x2 ADD PUSH1 0x0 DUP7 DUP2 MSTORE PUSH1 0x20 ADD SWAP1 DUP2 MSTORE PUSH1 0x20 ADD PUSH1 0x0 KECCAK256 SLOAD DUP2 MSTORE PUSH1 0x20 ADD DUP6 DUP2 MSTORE POP PUSH1 0x40 MLOAD DUP3 PUSH4 0xFFFFFFFF AND PUSH1 0xE0 SHL DUP2 MSTORE PUSH1 0x4 ADD PUSH2 0x26BB SWAP2 SWAP1 PUSH2 0x3C32 JUMP JUMPDEST PUSH1 0x20 PUSH1 0x40 MLOAD DUP1 DUP4 SUB DUP2 DUP7 GAS DELEGATECALL ISZERO DUP1 ISZERO PUSH2 0x26D8 JUMPI RETURNDATASIZE PUSH1 0x0 DUP1 RETURNDATACOPY RETURNDATASIZE PUSH1 0x0 REVERT JUMPDEST POP POP POP POP PUSH1 0x40 MLOAD RETURNDATASIZE PUSH1 0x1F NOT PUSH1 0x1F DUP3 ADD AND DUP3 ADD DUP1 PUSH1 0x40 MSTORE POP DUP2 ADD SWAP1 PUSH2 0x26FC SWAP2 SWAP1 PUSH2 0x3C62 JUMP JUMPDEST SWAP2 POP PUSH2 0x271E JUMP JUMPDEST DUP2 DUP8 PUSH1 0x2 ADD PUSH1 0x0 DUP4 DUP2 MSTORE PUSH1 0x20 ADD SWAP1 DUP2 MSTORE PUSH1 0x20 ADD PUSH1 0x0 KECCAK256 DUP2 SWAP1 SSTORE POP JUMPDEST DUP1 PUSH1 0x1 ADD SWAP1 POP PUSH2 0x2646 JUMP JUMPDEST POP DUP3 PUSH2 0x2734 SWAP1 PUSH2 0x32B7 JUMP JUMPDEST SWAP3 POP DUP3 DUP7 PUSH1 0x0 ADD DUP2 SWAP1 SSTORE POP DUP1 DUP7 PUSH1 0x2 ADD PUSH1 0x0 DUP5 DUP2 MSTORE PUSH1 0x20 ADD SWAP1 DUP2 MSTORE PUSH1 0x20 ADD PUSH1 0x0 KECCAK256 DUP2 SWAP1 SSTORE POP DUP3 DUP7 PUSH1 0x3 ADD PUSH1 0x0 DUP8 DUP2 MSTORE PUSH1 0x20 ADD SWAP1 DUP2 MSTORE PUSH1 0x20 ADD PUSH1 0x0 KECCAK256 DUP2 SWAP1 SSTORE POP DUP1 SWAP4 POP POP POP POP SWAP3 SWAP2 POP POP JUMP JUMPDEST PUSH1 0x0 PUSH32 0x30644E72E131A029B85045B68181585D2833E84879B9709143E1F593F0000001 DUP5 LT PUSH2 0x27DA JUMPI PUSH1 0x40 MLOAD PUSH32 0xC380A82E00000000000000000000000000000000000000000000000000000000 DUP2 MSTORE PUSH1 0x4 ADD PUSH1 0x40 MLOAD DUP1 SWAP2 SUB SWAP1 REVERT JUMPDEST PUSH2 0x27E4 DUP7 DUP7 PUSH2 0x1D3F JUMP JUMPDEST PUSH2 0x281A JUMPI PUSH1 0x40 MLOAD PUSH32 0x7204756C00000000000000000000000000000000000000000000000000000000 DUP2 MSTORE PUSH1 0x4 ADD PUSH1 0x40 MLOAD DUP1 SWAP2 SUB SWAP1 REVERT JUMPDEST PUSH2 0x2824 DUP7 DUP6 PUSH2 0x1D3F JUMP JUMPDEST ISZERO PUSH2 0x285B JUMPI PUSH1 0x40 MLOAD PUSH32 0x258A195A00000000000000000000000000000000000000000000000000000000 DUP2 MSTORE PUSH1 0x4 ADD PUSH1 0x40 MLOAD DUP1 SWAP2 SUB SWAP1 REVERT JUMPDEST PUSH1 0x0 PUSH2 0x2867 DUP8 DUP8 PUSH2 0x16E7 JUMP JUMPDEST SWAP1 POP PUSH1 0x0 DUP6 SWAP1 POP PUSH1 0x0 DUP8 SWAP1 POP PUSH1 0x0 PUSH1 0x1 DUP11 PUSH1 0x0 ADD SLOAD PUSH2 0x2886 SWAP2 SWAP1 PUSH2 0x337C JUMP JUMPDEST SWAP1 POP PUSH1 0x0 DUP1 DUP12 PUSH1 0x1 ADD SLOAD SWAP1 POP PUSH1 0x0 JUMPDEST DUP2 DUP2 LT ISZERO PUSH2 0x2C74 JUMPI PUSH1 0x1 DUP1 DUP3 DUP10 SWAP1 SHR AND SUB PUSH2 0x2A75 JUMPI PUSH32 0x30644E72E131A029B85045B68181585D2833E84879B9709143E1F593F0000001 DUP11 DUP11 DUP6 DUP2 DUP2 LT PUSH2 0x28DE JUMPI PUSH2 0x28DD PUSH2 0x33E4 JUMP JUMPDEST JUMPDEST SWAP1 POP PUSH1 0x20 MUL ADD CALLDATALOAD LT PUSH2 0x291C JUMPI PUSH1 0x40 MLOAD PUSH32 0xC380A82E00000000000000000000000000000000000000000000000000000000 DUP2 MSTORE PUSH1 0x4 ADD PUSH1 0x40 MLOAD DUP1 SWAP2 SUB SWAP1 REVERT JUMPDEST PUSH20 0x0 PUSH4 0x561558FE PUSH1 0x40 MLOAD DUP1 PUSH1 0x40 ADD PUSH1 0x40 MSTORE DUP1 DUP14 DUP14 DUP9 DUP2 DUP2 LT PUSH2 0x2954 JUMPI PUSH2 0x2953 PUSH2 0x33E4 JUMP JUMPDEST JUMPDEST SWAP1 POP PUSH1 0x20 MUL ADD CALLDATALOAD DUP2 MSTORE PUSH1 0x20 ADD DUP10 DUP2 MSTORE POP PUSH1 0x40 MLOAD DUP3 PUSH4 0xFFFFFFFF AND PUSH1 0xE0 SHL DUP2 MSTORE PUSH1 0x4 ADD PUSH2 0x2980 SWAP2 SWAP1 PUSH2 0x3C32 JUMP JUMPDEST PUSH1 0x20 PUSH1 0x40 MLOAD DUP1 DUP4 SUB DUP2 DUP7 GAS DELEGATECALL ISZERO DUP1 ISZERO PUSH2 0x299D JUMPI RETURNDATASIZE PUSH1 0x0 DUP1 RETURNDATACOPY RETURNDATASIZE PUSH1 0x0 REVERT JUMPDEST POP POP POP POP PUSH1 0x40 MLOAD RETURNDATASIZE PUSH1 0x1F NOT PUSH1 0x1F DUP3 ADD AND DUP3 ADD DUP1 PUSH1 0x40 MSTORE POP DUP2 ADD SWAP1 PUSH2 0x29C1 SWAP2 SWAP1 PUSH2 0x3C62 JUMP JUMPDEST SWAP6 POP PUSH20 0x0 PUSH4 0x561558FE PUSH1 0x40 MLOAD DUP1 PUSH1 0x40 ADD PUSH1 0x40 MSTORE DUP1 DUP14 DUP14 DUP9 DUP2 DUP2 LT PUSH2 0x29FB JUMPI PUSH2 0x29FA PUSH2 0x33E4 JUMP JUMPDEST JUMPDEST SWAP1 POP PUSH1 0x20 MUL ADD CALLDATALOAD DUP2 MSTORE PUSH1 0x20 ADD DUP9 DUP2 MSTORE POP PUSH1 0x40 MLOAD DUP3 PUSH4 0xFFFFFFFF AND PUSH1 0xE0 SHL DUP2 MSTORE PUSH1 0x4 ADD PUSH2 0x2A27 SWAP2 SWAP1 PUSH2 0x3C32 JUMP JUMPDEST PUSH1 0x20 PUSH1 0x40 MLOAD DUP1 DUP4 SUB DUP2 DUP7 GAS DELEGATECALL ISZERO DUP1 ISZERO PUSH2 0x2A44 JUMPI RETURNDATASIZE PUSH1 0x0 DUP1 RETURNDATACOPY RETURNDATASIZE PUSH1 0x0 REVERT JUMPDEST POP POP POP POP PUSH1 0x40 MLOAD RETURNDATASIZE PUSH1 0x1F NOT PUSH1 0x1F DUP3 ADD AND DUP3 ADD DUP1 PUSH1 0x40 MSTORE POP DUP2 ADD SWAP1 PUSH2 0x2A68 SWAP2 SWAP1 PUSH2 0x3C62 JUMP JUMPDEST SWAP5 POP DUP3 PUSH1 0x1 ADD SWAP3 POP PUSH2 0x2C69 JUMP JUMPDEST DUP1 DUP5 SWAP1 SHR DUP2 DUP9 SWAP1 SHR EQ PUSH2 0x2C4D JUMPI PUSH32 0x30644E72E131A029B85045B68181585D2833E84879B9709143E1F593F0000001 DUP11 DUP11 DUP6 DUP2 DUP2 LT PUSH2 0x2AB6 JUMPI PUSH2 0x2AB5 PUSH2 0x33E4 JUMP JUMPDEST JUMPDEST SWAP1 POP PUSH1 0x20 MUL ADD CALLDATALOAD LT PUSH2 0x2AF4 JUMPI PUSH1 0x40 MLOAD PUSH32 0xC380A82E00000000000000000000000000000000000000000000000000000000 DUP2 MSTORE PUSH1 0x4 ADD PUSH1 0x40 MLOAD DUP1 SWAP2 SUB SWAP1 REVERT JUMPDEST PUSH20 0x0 PUSH4 0x561558FE PUSH1 0x40 MLOAD DUP1 PUSH1 0x40 ADD PUSH1 0x40 MSTORE DUP1 DUP10 DUP2 MSTORE PUSH1 0x20 ADD DUP14 DUP14 DUP9 DUP2 DUP2 LT PUSH2 0x2B32 JUMPI PUSH2 0x2B31 PUSH2 0x33E4 JUMP JUMPDEST JUMPDEST SWAP1 POP PUSH1 0x20 MUL ADD CALLDATALOAD DUP2 MSTORE POP PUSH1 0x40 MLOAD DUP3 PUSH4 0xFFFFFFFF AND PUSH1 0xE0 SHL DUP2 MSTORE PUSH1 0x4 ADD PUSH2 0x2B58 SWAP2 SWAP1 PUSH2 0x3C32 JUMP JUMPDEST PUSH1 0x20 PUSH1 0x40 MLOAD DUP1 DUP4 SUB DUP2 DUP7 GAS DELEGATECALL ISZERO DUP1 ISZERO PUSH2 0x2B75 JUMPI RETURNDATASIZE PUSH1 0x0 DUP1 RETURNDATACOPY RETURNDATASIZE PUSH1 0x0 REVERT JUMPDEST POP POP POP POP PUSH1 0x40 MLOAD RETURNDATASIZE PUSH1 0x1F NOT PUSH1 0x1F DUP3 ADD AND DUP3 ADD DUP1 PUSH1 0x40 MSTORE POP DUP2 ADD SWAP1 PUSH2 0x2B99 SWAP2 SWAP1 PUSH2 0x3C62 JUMP JUMPDEST SWAP6 POP PUSH20 0x0 PUSH4 0x561558FE PUSH1 0x40 MLOAD DUP1 PUSH1 0x40 ADD PUSH1 0x40 MSTORE DUP1 DUP9 DUP2 MSTORE PUSH1 0x20 ADD DUP14 DUP14 DUP9 DUP2 DUP2 LT PUSH2 0x2BD9 JUMPI PUSH2 0x2BD8 PUSH2 0x33E4 JUMP JUMPDEST JUMPDEST SWAP1 POP PUSH1 0x20 MUL ADD CALLDATALOAD DUP2 MSTORE POP PUSH1 0x40 MLOAD DUP3 PUSH4 0xFFFFFFFF AND PUSH1 0xE0 SHL DUP2 MSTORE PUSH1 0x4 ADD PUSH2 0x2BFF SWAP2 SWAP1 PUSH2 0x3C32 JUMP JUMPDEST PUSH1 0x20 PUSH1 0x40 MLOAD DUP1 DUP4 SUB DUP2 DUP7 GAS DELEGATECALL ISZERO DUP1 ISZERO PUSH2 0x2C1C JUMPI RETURNDATASIZE PUSH1 0x0 DUP1 RETURNDATACOPY RETURNDATASIZE PUSH1 0x0 REVERT JUMPDEST POP POP POP POP PUSH1 0x40 MLOAD RETURNDATASIZE PUSH1 0x1F NOT PUSH1 0x1F DUP3 ADD AND DUP3 ADD DUP1 PUSH1 0x40 MSTORE POP DUP2 ADD SWAP1 PUSH2 0x2C40 SWAP2 SWAP1 PUSH2 0x3C62 JUMP JUMPDEST SWAP5 POP DUP3 PUSH1 0x1 ADD SWAP3 POP PUSH2 0x2C68 JUMP JUMPDEST DUP6 DUP14 PUSH1 0x2 ADD PUSH1 0x0 DUP6 DUP2 MSTORE PUSH1 0x20 ADD SWAP1 DUP2 MSTORE PUSH1 0x20 ADD PUSH1 0x0 KECCAK256 DUP2 SWAP1 SSTORE POP JUMPDEST JUMPDEST DUP1 PUSH1 0x1 ADD SWAP1 POP PUSH2 0x2895 JUMP JUMPDEST POP PUSH2 0x2C7E DUP13 PUSH2 0x1F19 JUMP JUMPDEST DUP5 EQ PUSH2 0x2CB6 JUMPI PUSH1 0x40 MLOAD PUSH32 0x3FA930C600000000000000000000000000000000000000000000000000000000 DUP2 MSTORE PUSH1 0x4 ADD PUSH1 0x40 MLOAD DUP1 SWAP2 SUB SWAP1 REVERT JUMPDEST DUP5 DUP13 PUSH1 0x2 ADD PUSH1 0x0 DUP4 DUP2 MSTORE PUSH1 0x20 ADD SWAP1 DUP2 MSTORE PUSH1 0x20 ADD PUSH1 0x0 KECCAK256 DUP2 SWAP1 SSTORE POP PUSH1 0x0 DUP11 EQ PUSH2 0x2D08 JUMPI DUP12 PUSH1 0x3 ADD PUSH1 0x0 DUP13 DUP2 MSTORE PUSH1 0x20 ADD SWAP1 DUP2 MSTORE PUSH1 0x20 ADD PUSH1 0x0 KECCAK256 SLOAD DUP13 PUSH1 0x3 ADD PUSH1 0x0 DUP13 DUP2 MSTORE PUSH1 0x20 ADD SWAP1 DUP2 MSTORE PUSH1 0x20 ADD PUSH1 0x0 KECCAK256 DUP2 SWAP1 SSTORE POP JUMPDEST PUSH1 0x0 DUP13 PUSH1 0x3 ADD PUSH1 0x0 DUP14 DUP2 MSTORE PUSH1 0x20 ADD SWAP1 DUP2 MSTORE PUSH1 0x20 ADD PUSH1 0x0 KECCAK256 DUP2 SWAP1 SSTORE POP DUP5 SWAP7 POP POP POP POP POP POP POP SWAP6 SWAP5 POP POP POP POP POP JUMP JUMPDEST PUSH1 0x0 PUSH2 0x2D45 DUP6 DUP6 PUSH1 0x0 DUP7 DUP7 PUSH2 0x277F JUMP JUMPDEST SWAP1 POP SWAP5 SWAP4 POP POP POP POP JUMP JUMPDEST PUSH1 0x0 DUP1 REVERT JUMPDEST PUSH1 0x0 DUP1 REVERT JUMPDEST PUSH1 0x0 DUP2 SWAP1 POP SWAP2 SWAP1 POP JUMP JUMPDEST PUSH2 0x2D6C DUP2 PUSH2 0x2D59 JUMP JUMPDEST DUP2 EQ PUSH2 0x2D77 JUMPI PUSH1 0x0 DUP1 REVERT JUMPDEST POP JUMP JUMPDEST PUSH1 0x0 DUP2 CALLDATALOAD SWAP1 POP PUSH2 0x2D89 DUP2 PUSH2 0x2D63 JUMP JUMPDEST SWAP3 SWAP2 POP POP JUMP JUMPDEST PUSH1 0x0 DUP1 REVERT JUMPDEST PUSH1 0x0 DUP1 REVERT JUMPDEST PUSH1 0x0 DUP1 REVERT JUMPDEST PUSH1 0x0 DUP1 DUP4 PUSH1 0x1F DUP5 ADD SLT PUSH2 0x2DB4 JUMPI PUSH2 0x2DB3 PUSH2 0x2D8F JUMP JUMPDEST JUMPDEST DUP3 CALLDATALOAD SWAP1 POP PUSH8 0xFFFFFFFFFFFFFFFF DUP2 GT ISZERO PUSH2 0x2DD1 JUMPI PUSH2 0x2DD0 PUSH2 0x2D94 JUMP JUMPDEST JUMPDEST PUSH1 0x20 DUP4 ADD SWAP2 POP DUP4 PUSH1 0x20 DUP3 MUL DUP4 ADD GT ISZERO PUSH2 0x2DED JUMPI PUSH2 0x2DEC PUSH2 0x2D99 JUMP JUMPDEST JUMPDEST SWAP3 POP SWAP3 SWAP1 POP JUMP JUMPDEST PUSH1 0x0 DUP1 PUSH1 0x0 PUSH1 0x40 DUP5 DUP7 SUB SLT ISZERO PUSH2 0x2E0D JUMPI PUSH2 0x2E0C PUSH2 0x2D4F JUMP JUMPDEST JUMPDEST PUSH1 0x0 PUSH2 0x2E1B DUP7 DUP3 DUP8 ADD PUSH2 0x2D7A JUMP JUMPDEST SWAP4 POP POP PUSH1 0x20 DUP5 ADD CALLDATALOAD PUSH8 0xFFFFFFFFFFFFFFFF DUP2 GT ISZERO PUSH2 0x2E3C JUMPI PUSH2 0x2E3B PUSH2 0x2D54 JUMP JUMPDEST JUMPDEST PUSH2 0x2E48 DUP7 DUP3 DUP8 ADD PUSH2 0x2D9E JUMP JUMPDEST SWAP3 POP SWAP3 POP POP SWAP3 POP SWAP3 POP SWAP3 JUMP JUMPDEST PUSH1 0x0 DUP1 PUSH1 0x40 DUP4 DUP6 SUB SLT ISZERO PUSH2 0x2E6B JUMPI PUSH2 0x2E6A PUSH2 0x2D4F JUMP JUMPDEST JUMPDEST PUSH1 0x0 PUSH2 0x2E79 DUP6 DUP3 DUP7 ADD PUSH2 0x2D7A JUMP JUMPDEST SWAP3 POP POP PUSH1 0x20 PUSH2 0x2E8A DUP6 DUP3 DUP7 ADD PUSH2 0x2D7A JUMP JUMPDEST SWAP2 POP POP SWAP3 POP SWAP3 SWAP1 POP JUMP JUMPDEST PUSH2 0x2E9D DUP2 PUSH2 0x2D59 JUMP JUMPDEST DUP3 MSTORE POP POP JUMP JUMPDEST PUSH1 0x0 PUSH1 0x20 DUP3 ADD SWAP1 POP PUSH2 0x2EB8 PUSH1 0x0 DUP4 ADD DUP5 PUSH2 0x2E94 JUMP JUMPDEST SWAP3 SWAP2 POP POP JUMP JUMPDEST PUSH1 0x0 PUSH1 0x20 DUP3 DUP5 SUB SLT ISZERO PUSH2 0x2ED4 JUMPI PUSH2 0x2ED3 PUSH2 0x2D4F JUMP JUMPDEST JUMPDEST PUSH1 0x0 PUSH2 0x2EE2 DUP5 DUP3 DUP6 ADD PUSH2 0x2D7A JUMP JUMPDEST SWAP2 POP POP SWAP3 SWAP2 POP POP JUMP JUMPDEST PUSH1 0x0 PUSH20 0xFFFFFFFFFFFFFFFFFFFFFFFFFFFFFFFFFFFFFFFF DUP3 AND SWAP1 POP SWAP2 SWAP1 POP JUMP JUMPDEST PUSH1 0x0 DUP2 SWAP1 POP SWAP2 SWAP1 POP JUMP JUMPDEST PUSH1 0x0 PUSH2 0x2F30 PUSH2 0x2F2B PUSH2 0x2F26 DUP5 PUSH2 0x2EEB JUMP JUMPDEST PUSH2 0x2F0B JUMP JUMPDEST PUSH2 0x2EEB JUMP JUMPDEST SWAP1 POP SWAP2 SWAP1 POP JUMP JUMPDEST PUSH1 0x0 PUSH2 0x2F42 DUP3 PUSH2 0x2F15 JUMP JUMPDEST SWAP1 POP SWAP2 SWAP1 POP JUMP JUMPDEST PUSH1 0x0 PUSH2 0x2F54 DUP3 PUSH2 0x2F37 JUMP JUMPDEST SWAP1 POP SWAP2 SWAP1 POP JUMP JUMPDEST PUSH2 0x2F64 DUP2 PUSH2 0x2F49 JUMP JUMPDEST DUP3 MSTORE POP POP JUMP JUMPDEST PUSH1 0x0 PUSH1 0x20 DUP3 ADD SWAP1 POP PUSH2 0x2F7F PUSH1 0x0 DUP4 ADD DUP5 PUSH2 0x2F5B JUMP JUMPDEST SWAP3 SWAP2 POP POP JUMP JUMPDEST PUSH1 0x0 PUSH2 0x2F90 DUP3 PUSH2 0x2EEB JUMP JUMPDEST SWAP1 POP SWAP2 SWAP1 POP JUMP JUMPDEST PUSH2 0x2FA0 DUP2 PUSH2 0x2F85 JUMP JUMPDEST DUP2 EQ PUSH2 0x2FAB JUMPI PUSH1 0x0 DUP1 REVERT JUMPDEST POP JUMP JUMPDEST PUSH1 0x0 DUP2 CALLDATALOAD SWAP1 POP PUSH2 0x2FBD DUP2 PUSH2 0x2F97 JUMP JUMPDEST SWAP3 SWAP2 POP POP JUMP JUMPDEST PUSH1 0x0 DUP1 PUSH1 0x40 DUP4 DUP6 SUB SLT ISZERO PUSH2 0x2FDA JUMPI PUSH2 0x2FD9 PUSH2 0x2D4F JUMP JUMPDEST JUMPDEST PUSH1 0x0 PUSH2 0x2FE8 DUP6 DUP3 DUP7 ADD PUSH2 0x2FAE JUMP JUMPDEST SWAP3 POP POP PUSH1 0x20 PUSH2 0x2FF9 DUP6 DUP3 DUP7 ADD PUSH2 0x2D7A JUMP JUMPDEST SWAP2 POP POP SWAP3 POP SWAP3 SWAP1 POP JUMP JUMPDEST PUSH1 0x0 DUP1 PUSH1 0x0 DUP1 PUSH1 0x0 PUSH1 0x80 DUP7 DUP9 SUB SLT ISZERO PUSH2 0x301F JUMPI PUSH2 0x301E PUSH2 0x2D4F JUMP JUMPDEST JUMPDEST PUSH1 0x0 PUSH2 0x302D DUP9 DUP3 DUP10 ADD PUSH2 0x2D7A JUMP JUMPDEST SWAP6 POP POP PUSH1 0x20 PUSH2 0x303E DUP9 DUP3 DUP10 ADD PUSH2 0x2D7A JUMP JUMPDEST SWAP5 POP POP PUSH1 0x40 PUSH2 0x304F DUP9 DUP3 DUP10 ADD PUSH2 0x2D7A JUMP JUMPDEST SWAP4 POP POP PUSH1 0x60 DUP7 ADD CALLDATALOAD PUSH8 0xFFFFFFFFFFFFFFFF DUP2 GT ISZERO PUSH2 0x3070 JUMPI PUSH2 0x306F PUSH2 0x2D54 JUMP JUMPDEST JUMPDEST PUSH2 0x307C DUP9 DUP3 DUP10 ADD PUSH2 0x2D9E JUMP JUMPDEST SWAP3 POP SWAP3 POP POP SWAP3 SWAP6 POP SWAP3 SWAP6 SWAP1 SWAP4 POP JUMP JUMPDEST PUSH1 0x0 DUP1 REVERT JUMPDEST PUSH1 0x0 PUSH2 0x1A0 DUP3 DUP5 SUB SLT ISZERO PUSH2 0x30A7 JUMPI PUSH2 0x30A6 PUSH2 0x308B JUMP JUMPDEST JUMPDEST DUP2 SWAP1 POP SWAP3 SWAP2 POP POP JUMP JUMPDEST PUSH1 0x0 DUP1 PUSH2 0x1C0 DUP4 DUP6 SUB SLT ISZERO PUSH2 0x30C8 JUMPI PUSH2 0x30C7 PUSH2 0x2D4F JUMP JUMPDEST JUMPDEST PUSH1 0x0 PUSH2 0x30D6 DUP6 DUP3 DUP7 ADD PUSH2 0x2D7A JUMP JUMPDEST SWAP3 POP POP PUSH1 0x20 PUSH2 0x30E7 DUP6 DUP3 DUP7 ADD PUSH2 0x3090 JUMP JUMPDEST SWAP2 POP POP SWAP3 POP SWAP3 SWAP1 POP JUMP JUMPDEST PUSH1 0x0 DUP2 ISZERO ISZERO SWAP1 POP SWAP2 SWAP1 POP JUMP JUMPDEST PUSH2 0x3106 DUP2 PUSH2 0x30F1 JUMP JUMPDEST DUP3 MSTORE POP POP JUMP JUMPDEST PUSH1 0x0 PUSH1 0x20 DUP3 ADD SWAP1 POP PUSH2 0x3121 PUSH1 0x0 DUP4 ADD DUP5 PUSH2 0x30FD JUMP JUMPDEST SWAP3 SWAP2 POP POP JUMP JUMPDEST PUSH1 0x0 DUP1 PUSH1 0x40 DUP4 DUP6 SUB SLT ISZERO PUSH2 0x313E JUMPI PUSH2 0x313D PUSH2 0x2D4F JUMP JUMPDEST JUMPDEST PUSH1 0x0 PUSH2 0x314C DUP6 DUP3 DUP7 ADD PUSH2 0x2D7A JUMP JUMPDEST SWAP3 POP POP PUSH1 0x20 PUSH2 0x315D DUP6 DUP3 DUP7 ADD PUSH2 0x2FAE JUMP JUMPDEST SWAP2 POP POP SWAP3 POP SWAP3 SWAP1 POP JUMP JUMPDEST PUSH1 0x0 PUSH1 0x20 DUP3 DUP5 SUB SLT ISZERO PUSH2 0x317D JUMPI PUSH2 0x317C PUSH2 0x2D4F JUMP JUMPDEST JUMPDEST PUSH1 0x0 PUSH2 0x318B DUP5 DUP3 DUP6 ADD PUSH2 0x2FAE JUMP JUMPDEST SWAP2 POP POP SWAP3 SWAP2 POP POP JUMP JUMPDEST PUSH1 0x0 DUP1 PUSH1 0x0 DUP1 PUSH1 0x60 DUP6 DUP8 SUB SLT ISZERO PUSH2 0x31AE JUMPI PUSH2 0x31AD PUSH2 0x2D4F JUMP JUMPDEST JUMPDEST PUSH1 0x0 PUSH2 0x31BC DUP8 DUP3 DUP9 ADD PUSH2 0x2D7A JUMP JUMPDEST SWAP5 POP POP PUSH1 0x20 PUSH2 0x31CD DUP8 DUP3 DUP9 ADD PUSH2 0x2D7A JUMP JUMPDEST SWAP4 POP POP PUSH1 0x40 DUP6 ADD CALLDATALOAD PUSH8 0xFFFFFFFFFFFFFFFF DUP2 GT ISZERO PUSH2 0x31EE JUMPI PUSH2 0x31ED PUSH2 0x2D54 JUMP JUMPDEST JUMPDEST PUSH2 0x31FA DUP8 DUP3 DUP9 ADD PUSH2 0x2D9E JUMP JUMPDEST SWAP3 POP SWAP3 POP POP SWAP3 SWAP6 SWAP2 SWAP5 POP SWAP3 POP JUMP JUMPDEST PUSH2 0x3211 DUP2 PUSH2 0x2F85 JUMP JUMPDEST DUP3 MSTORE POP POP JUMP JUMPDEST PUSH1 0x0 PUSH1 0x20 DUP3 ADD SWAP1 POP PUSH2 0x322C PUSH1 0x0 DUP4 ADD DUP5 PUSH2 0x3208 JUMP JUMPDEST SWAP3 SWAP2 POP POP JUMP JUMPDEST PUSH1 0x0 DUP1 PUSH1 0x0 PUSH2 0x1E0 DUP5 DUP7 SUB SLT ISZERO PUSH2 0x324C JUMPI PUSH2 0x324B PUSH2 0x2D4F JUMP JUMPDEST JUMPDEST PUSH1 0x0 PUSH2 0x325A DUP7 DUP3 DUP8 ADD PUSH2 0x3090 JUMP JUMPDEST SWAP4 POP POP PUSH2 0x1A0 PUSH2 0x326C DUP7 DUP3 DUP8 ADD PUSH2 0x2D7A JUMP JUMPDEST SWAP3 POP POP PUSH2 0x1C0 PUSH2 0x327E DUP7 DUP3 DUP8 ADD PUSH2 0x2D7A JUMP JUMPDEST SWAP2 POP POP SWAP3 POP SWAP3 POP SWAP3 JUMP JUMPDEST PUSH32 0x4E487B7100000000000000000000000000000000000000000000000000000000 PUSH1 0x0 MSTORE PUSH1 0x11 PUSH1 0x4 MSTORE PUSH1 0x24 PUSH1 0x0 REVERT JUMPDEST PUSH1 0x0 PUSH2 0x32C2 DUP3 PUSH2 0x2D59 JUMP JUMPDEST SWAP2 POP PUSH32 0xFFFFFFFFFFFFFFFFFFFFFFFFFFFFFFFFFFFFFFFFFFFFFFFFFFFFFFFFFFFFFFFF DUP3 SUB PUSH2 0x32F4 JUMPI PUSH2 0x32F3 PUSH2 0x3288 JUMP JUMPDEST JUMPDEST PUSH1 0x1 DUP3 ADD SWAP1 POP SWAP2 SWAP1 POP JUMP JUMPDEST PUSH1 0x0 DUP3 DUP3 MSTORE PUSH1 0x20 DUP3 ADD SWAP1 POP SWAP3 SWAP2 POP POP JUMP JUMPDEST PUSH32 0x7572206E6F7420746865206F776E6572206F662074686520626F780000000000 PUSH1 0x0 DUP3 ADD MSTORE POP JUMP JUMPDEST PUSH1 0x0 PUSH2 0x3346 PUSH1 0x1B DUP4 PUSH2 0x32FF JUMP JUMPDEST SWAP2 POP PUSH2 0x3351 DUP3 PUSH2 0x3310 JUMP JUMPDEST PUSH1 0x20 DUP3 ADD SWAP1 POP SWAP2 SWAP1 POP JUMP JUMPDEST PUSH1 0x0 PUSH1 0x20 DUP3 ADD SWAP1 POP DUP2 DUP2 SUB PUSH1 0x0 DUP4 ADD MSTORE PUSH2 0x3375 DUP2 PUSH2 0x3339 JUMP JUMPDEST SWAP1 POP SWAP2 SWAP1 POP JUMP JUMPDEST PUSH1 0x0 PUSH2 0x3387 DUP3 PUSH2 0x2D59 JUMP JUMPDEST SWAP2 POP PUSH2 0x3392 DUP4 PUSH2 0x2D59 JUMP JUMPDEST SWAP3 POP DUP3 DUP3 SUB SWAP1 POP DUP2 DUP2 GT ISZERO PUSH2 0x33AA JUMPI PUSH2 0x33A9 PUSH2 0x3288 JUMP JUMPDEST JUMPDEST SWAP3 SWAP2 POP POP JUMP JUMPDEST PUSH1 0x0 PUSH2 0x33BB DUP3 PUSH2 0x2D59 JUMP JUMPDEST SWAP2 POP PUSH2 0x33C6 DUP4 PUSH2 0x2D59 JUMP JUMPDEST SWAP3 POP DUP3 DUP3 ADD SWAP1 POP DUP1 DUP3 GT ISZERO PUSH2 0x33DE JUMPI PUSH2 0x33DD PUSH2 0x3288 JUMP JUMPDEST JUMPDEST SWAP3 SWAP2 POP POP JUMP JUMPDEST PUSH32 0x4E487B7100000000000000000000000000000000000000000000000000000000 PUSH1 0x0 MSTORE PUSH1 0x32 PUSH1 0x4 MSTORE PUSH1 0x24 PUSH1 0x0 REVERT JUMPDEST PUSH1 0x0 PUSH1 0x2 SWAP1 POP SWAP2 SWAP1 POP JUMP JUMPDEST PUSH1 0x0 DUP2 SWAP1 POP SWAP3 SWAP2 POP POP JUMP JUMPDEST PUSH1 0x0 DUP2 SWAP1 POP SWAP2 SWAP1 POP JUMP JUMPDEST PUSH2 0x343C DUP2 PUSH2 0x2D59 JUMP JUMPDEST DUP3 MSTORE POP POP JUMP JUMPDEST PUSH1 0x0 PUSH2 0x344E DUP4 DUP4 PUSH2 0x3433 JUMP JUMPDEST PUSH1 0x20 DUP4 ADD SWAP1 POP SWAP3 SWAP2 POP POP JUMP JUMPDEST PUSH1 0x0 PUSH1 0x20 DUP3 ADD SWAP1 POP SWAP2 SWAP1 POP JUMP JUMPDEST PUSH2 0x3470 DUP2 PUSH2 0x3413 JUMP JUMPDEST PUSH2 0x347A DUP2 DUP5 PUSH2 0x341E JUMP JUMPDEST SWAP3 POP PUSH2 0x3485 DUP3 PUSH2 0x3429 JUMP JUMPDEST DUP1 PUSH1 0x0 JUMPDEST DUP4 DUP2 LT ISZERO PUSH2 0x34B6 JUMPI DUP2 MLOAD PUSH2 0x349D DUP8 DUP3 PUSH2 0x3442 JUMP JUMPDEST SWAP7 POP PUSH2 0x34A8 DUP4 PUSH2 0x345A JUMP JUMPDEST SWAP3 POP POP PUSH1 0x1 DUP2 ADD SWAP1 POP PUSH2 0x3489 JUMP JUMPDEST POP POP POP POP POP POP JUMP JUMPDEST PUSH1 0x0 PUSH1 0x2 SWAP1 POP SWAP2 SWAP1 POP JUMP JUMPDEST PUSH1 0x0 DUP2 SWAP1 POP SWAP3 SWAP2 POP POP JUMP JUMPDEST PUSH1 0x0 DUP2 SWAP1 POP SWAP2 SWAP1 POP JUMP JUMPDEST PUSH1 0x0 DUP2 SWAP1 POP SWAP3 SWAP2 POP POP JUMP JUMPDEST PUSH2 0x34F2 DUP2 PUSH2 0x3413 JUMP JUMPDEST PUSH2 0x34FC DUP2 DUP5 PUSH2 0x34DE JUMP JUMPDEST SWAP3 POP PUSH2 0x3507 DUP3 PUSH2 0x3429 JUMP JUMPDEST DUP1 PUSH1 0x0 JUMPDEST DUP4 DUP2 LT ISZERO PUSH2 0x3538 JUMPI DUP2 MLOAD PUSH2 0x351F DUP8 DUP3 PUSH2 0x3442 JUMP JUMPDEST SWAP7 POP PUSH2 0x352A DUP4 PUSH2 0x345A JUMP JUMPDEST SWAP3 POP POP PUSH1 0x1 DUP2 ADD SWAP1 POP PUSH2 0x350B JUMP JUMPDEST POP POP POP POP POP POP JUMP JUMPDEST PUSH1 0x0 PUSH2 0x354C DUP4 DUP4 PUSH2 0x34E9 JUMP JUMPDEST PUSH1 0x40 DUP4 ADD SWAP1 POP SWAP3 SWAP2 POP POP JUMP JUMPDEST PUSH1 0x0 PUSH1 0x20 DUP3 ADD SWAP1 POP SWAP2 SWAP1 POP JUMP JUMPDEST PUSH2 0x356E DUP2 PUSH2 0x34BE JUMP JUMPDEST PUSH2 0x3578 DUP2 DUP5 PUSH2 0x34C9 JUMP JUMPDEST SWAP3 POP PUSH2 0x3583 DUP3 PUSH2 0x34D4 JUMP JUMPDEST DUP1 PUSH1 0x0 JUMPDEST DUP4 DUP2 LT ISZERO PUSH2 0x35B4 JUMPI DUP2 MLOAD PUSH2 0x359B DUP8 DUP3 PUSH2 0x3540 JUMP JUMPDEST SWAP7 POP PUSH2 0x35A6 DUP4 PUSH2 0x3558 JUMP JUMPDEST SWAP3 POP POP PUSH1 0x1 DUP2 ADD SWAP1 POP PUSH2 0x3587 JUMP JUMPDEST POP POP POP POP POP POP JUMP JUMPDEST PUSH1 0x0 PUSH1 0x4 SWAP1 POP SWAP2 SWAP1 POP JUMP JUMPDEST PUSH1 0x0 DUP2 SWAP1 POP SWAP3 SWAP2 POP POP JUMP JUMPDEST PUSH1 0x0 DUP2 SWAP1 POP SWAP2 SWAP1 POP JUMP JUMPDEST PUSH1 0x0 PUSH1 0x20 DUP3 ADD SWAP1 POP SWAP2 SWAP1 POP JUMP JUMPDEST PUSH2 0x35F2 DUP2 PUSH2 0x35BC JUMP JUMPDEST PUSH2 0x35FC DUP2 DUP5 PUSH2 0x35C7 JUMP JUMPDEST SWAP3 POP PUSH2 0x3607 DUP3 PUSH2 0x35D2 JUMP JUMPDEST DUP1 PUSH1 0x0 JUMPDEST DUP4 DUP2 LT ISZERO PUSH2 0x3638 JUMPI DUP2 MLOAD PUSH2 0x361F DUP8 DUP3 PUSH2 0x3442 JUMP JUMPDEST SWAP7 POP PUSH2 0x362A DUP4 PUSH2 0x35DC JUMP JUMPDEST SWAP3 POP POP PUSH1 0x1 DUP2 ADD SWAP1 POP PUSH2 0x360B JUMP JUMPDEST POP POP POP POP POP POP JUMP JUMPDEST PUSH1 0x0 PUSH2 0x1A0 DUP3 ADD SWAP1 POP PUSH2 0x3656 PUSH1 0x0 DUP4 ADD DUP9 PUSH2 0x3467 JUMP JUMPDEST PUSH2 0x3663 PUSH1 0x40 DUP4 ADD DUP8 PUSH2 0x3565 JUMP JUMPDEST PUSH2 0x3670 PUSH1 0xC0 DUP4 ADD DUP7 PUSH2 0x3467 JUMP JUMPDEST PUSH2 0x367E PUSH2 0x100 DUP4 ADD DUP6 PUSH2 0x35E9 JUMP JUMPDEST PUSH2 0x368C PUSH2 0x180 DUP4 ADD DUP5 PUSH2 0x2E94 JUMP JUMPDEST SWAP7 SWAP6 POP POP POP POP POP POP JUMP JUMPDEST PUSH2 0x369F DUP2 PUSH2 0x30F1 JUMP JUMPDEST DUP2 EQ PUSH2 0x36AA JUMPI PUSH1 0x0 DUP1 REVERT JUMPDEST POP JUMP JUMPDEST PUSH1 0x0 DUP2 MLOAD SWAP1 POP PUSH2 0x36BC DUP2 PUSH2 0x3696 JUMP JUMPDEST SWAP3 SWAP2 POP POP JUMP JUMPDEST PUSH1 0x0 PUSH1 0x20 DUP3 DUP5 SUB SLT ISZERO PUSH2 0x36D8 JUMPI PUSH2 0x36D7 PUSH2 0x2D4F JUMP JUMPDEST JUMPDEST PUSH1 0x0 PUSH2 0x36E6 DUP5 DUP3 DUP6 ADD PUSH2 0x36AD JUMP JUMPDEST SWAP2 POP POP SWAP3 SWAP2 POP POP JUMP JUMPDEST PUSH32 0x73636F7065206E6F7420636F7272656374000000000000000000000000000000 PUSH1 0x0 DUP3 ADD MSTORE POP JUMP JUMPDEST PUSH1 0x0 PUSH2 0x3725 PUSH1 0x11 DUP4 PUSH2 0x32FF JUMP JUMPDEST SWAP2 POP PUSH2 0x3730 DUP3 PUSH2 0x36EF JUMP JUMPDEST PUSH1 0x20 DUP3 ADD SWAP1 POP SWAP2 SWAP1 POP JUMP JUMPDEST PUSH1 0x0 PUSH1 0x20 DUP3 ADD SWAP1 POP DUP2 DUP2 SUB PUSH1 0x0 DUP4 ADD MSTORE PUSH2 0x3754 DUP2 PUSH2 0x3718 JUMP JUMPDEST SWAP1 POP SWAP2 SWAP1 POP JUMP JUMPDEST DUP3 DUP2 DUP4 CALLDATACOPY POP POP POP JUMP JUMPDEST PUSH2 0x3771 PUSH2 0x100 DUP4 DUP4 PUSH2 0x375B JUMP JUMPDEST POP POP JUMP JUMPDEST PUSH1 0x0 PUSH2 0x160 DUP3 ADD SWAP1 POP PUSH2 0x378B PUSH1 0x0 DUP4 ADD DUP8 PUSH2 0x2E94 JUMP JUMPDEST PUSH2 0x3798 PUSH1 0x20 DUP4 ADD DUP7 PUSH2 0x2E94 JUMP JUMPDEST PUSH2 0x37A5 PUSH1 0x40 DUP4 ADD DUP6 PUSH2 0x2E94 JUMP JUMPDEST PUSH2 0x37B2 PUSH1 0x60 DUP4 ADD DUP5 PUSH2 0x3764 JUMP JUMPDEST SWAP6 SWAP5 POP POP POP POP POP JUMP JUMPDEST PUSH32 0x416D6F756E74206973206E6F742076616C696400000000000000000000000000 PUSH1 0x0 DUP3 ADD MSTORE POP JUMP JUMPDEST PUSH1 0x0 PUSH2 0x37F1 PUSH1 0x13 DUP4 PUSH2 0x32FF JUMP JUMPDEST SWAP2 POP PUSH2 0x37FC DUP3 PUSH2 0x37BB JUMP JUMPDEST PUSH1 0x20 DUP3 ADD SWAP1 POP SWAP2 SWAP1 POP JUMP JUMPDEST PUSH1 0x0 PUSH1 0x20 DUP3 ADD SWAP1 POP DUP2 DUP2 SUB PUSH1 0x0 DUP4 ADD MSTORE PUSH2 0x3820 DUP2 PUSH2 0x37E4 JUMP JUMPDEST SWAP1 POP SWAP2 SWAP1 POP JUMP JUMPDEST PUSH1 0x0 PUSH1 0x40 DUP3 ADD SWAP1 POP PUSH2 0x383C PUSH1 0x0 DUP4 ADD DUP6 PUSH2 0x2E94 JUMP JUMPDEST PUSH2 0x3849 PUSH1 0x20 DUP4 ADD DUP5 PUSH2 0x2E94 JUMP JUMPDEST SWAP4 SWAP3 POP POP POP JUMP JUMPDEST PUSH1 0x0 DUP3 DUP3 MSTORE PUSH1 0x20 DUP3 ADD SWAP1 POP SWAP3 SWAP2 POP POP JUMP JUMPDEST PUSH1 0x0 DUP1 REVERT JUMPDEST PUSH1 0x0 PUSH2 0x3872 DUP4 DUP6 PUSH2 0x3850 JUMP JUMPDEST SWAP4 POP PUSH32 0x7FFFFFFFFFFFFFFFFFFFFFFFFFFFFFFFFFFFFFFFFFFFFFFFFFFFFFFFFFFFFFF DUP4 GT ISZERO PUSH2 0x38A5 JUMPI PUSH2 0x38A4 PUSH2 0x3861 JUMP JUMPDEST JUMPDEST PUSH1 0x20 DUP4 MUL SWAP3 POP PUSH2 0x38B6 DUP4 DUP6 DUP5 PUSH2 0x375B JUMP JUMPDEST DUP3 DUP5 ADD SWAP1 POP SWAP4 SWAP3 POP POP POP JUMP JUMPDEST PUSH1 0x0 PUSH1 0x60 DUP3 ADD SWAP1 POP PUSH2 0x38D7 PUSH1 0x0 DUP4 ADD DUP8 PUSH2 0x2E94 JUMP JUMPDEST DUP2 DUP2 SUB PUSH1 0x20 DUP4 ADD MSTORE PUSH2 0x38EA DUP2 DUP6 DUP8 PUSH2 0x3866 JUMP JUMPDEST SWAP1 POP PUSH2 0x38F9 PUSH1 0x40 DUP4 ADD DUP5 PUSH2 0x2E94 JUMP JUMPDEST SWAP6 SWAP5 POP POP POP POP POP JUMP JUMPDEST PUSH1 0x0 PUSH1 0x60 DUP3 ADD SWAP1 POP PUSH2 0x3917 PUSH1 0x0 DUP4 ADD DUP7 PUSH2 0x2E94 JUMP JUMPDEST PUSH2 0x3924 PUSH1 0x20 DUP4 ADD DUP6 PUSH2 0x2E94 JUMP JUMPDEST PUSH2 0x3931 PUSH1 0x40 DUP4 ADD DUP5 PUSH2 0x2E94 JUMP JUMPDEST SWAP5 SWAP4 POP POP POP POP JUMP JUMPDEST PUSH1 0x0 PUSH1 0x80 DUP3 ADD SWAP1 POP PUSH2 0x394E PUSH1 0x0 DUP4 ADD DUP8 PUSH2 0x2E94 JUMP JUMPDEST PUSH2 0x395B PUSH1 0x20 DUP4 ADD DUP7 PUSH2 0x2E94 JUMP JUMPDEST PUSH2 0x3968 PUSH1 0x40 DUP4 ADD DUP6 PUSH2 0x2E94 JUMP JUMPDEST PUSH2 0x3975 PUSH1 0x60 DUP4 ADD DUP5 PUSH2 0x2E94 JUMP JUMPDEST SWAP6 SWAP5 POP POP POP POP POP JUMP JUMPDEST PUSH1 0x0 DUP2 SWAP1 POP SWAP2 SWAP1 POP JUMP JUMPDEST PUSH2 0x3999 PUSH2 0x3994 DUP3 PUSH2 0x2D59 JUMP JUMPDEST PUSH2 0x397E JUMP JUMPDEST DUP3 MSTORE POP POP JUMP JUMPDEST PUSH1 0x0 PUSH2 0x39AB DUP3 DUP5 PUSH2 0x3988 JUMP JUMPDEST PUSH1 0x20 DUP3 ADD SWAP2 POP DUP2 SWAP1 POP SWAP3 SWAP2 POP POP JUMP JUMPDEST PUSH1 0x0 DUP2 PUSH1 0x1 SHR SWAP1 POP SWAP2 SWAP1 POP JUMP JUMPDEST PUSH1 0x0 DUP1 DUP3 SWAP2 POP DUP4 SWAP1 POP JUMPDEST PUSH1 0x1 DUP6 GT ISZERO PUSH2 0x3A11 JUMPI DUP1 DUP7 DIV DUP2 GT ISZERO PUSH2 0x39ED JUMPI PUSH2 0x39EC PUSH2 0x3288 JUMP JUMPDEST JUMPDEST PUSH1 0x1 DUP6 AND ISZERO PUSH2 0x39FC JUMPI DUP1 DUP3 MUL SWAP2 POP JUMPDEST DUP1 DUP2 MUL SWAP1 POP PUSH2 0x3A0A DUP6 PUSH2 0x39BA JUMP JUMPDEST SWAP5 POP PUSH2 0x39D1 JUMP JUMPDEST SWAP5 POP SWAP5 SWAP3 POP POP POP JUMP JUMPDEST PUSH1 0x0 DUP3 PUSH2 0x3A2A JUMPI PUSH1 0x1 SWAP1 POP PUSH2 0x3AE6 JUMP JUMPDEST DUP2 PUSH2 0x3A38 JUMPI PUSH1 0x0 SWAP1 POP PUSH2 0x3AE6 JUMP JUMPDEST DUP2 PUSH1 0x1 DUP2 EQ PUSH2 0x3A4E JUMPI PUSH1 0x2 DUP2 EQ PUSH2 0x3A58 JUMPI PUSH2 0x3A87 JUMP JUMPDEST PUSH1 0x1 SWAP2 POP POP PUSH2 0x3AE6 JUMP JUMPDEST PUSH1 0xFF DUP5 GT ISZERO PUSH2 0x3A6A JUMPI PUSH2 0x3A69 PUSH2 0x3288 JUMP JUMPDEST JUMPDEST DUP4 PUSH1 0x2 EXP SWAP2 POP DUP5 DUP3 GT ISZERO PUSH2 0x3A81 JUMPI PUSH2 0x3A80 PUSH2 0x3288 JUMP JUMPDEST JUMPDEST POP PUSH2 0x3AE6 JUMP JUMPDEST POP PUSH1 0x20 DUP4 LT PUSH2 0x133 DUP4 LT AND PUSH1 0x4E DUP5 LT PUSH1 0xB DUP5 LT AND OR ISZERO PUSH2 0x3ABC JUMPI DUP3 DUP3 EXP SWAP1 POP DUP4 DUP2 GT ISZERO PUSH2 0x3AB7 JUMPI PUSH2 0x3AB6 PUSH2 0x3288 JUMP JUMPDEST JUMPDEST PUSH2 0x3AE6 JUMP JUMPDEST PUSH2 0x3AC9 DUP5 DUP5 DUP5 PUSH1 0x1 PUSH2 0x39C7 JUMP JUMPDEST SWAP3 POP SWAP1 POP DUP2 DUP5 DIV DUP2 GT ISZERO PUSH2 0x3AE0 JUMPI PUSH2 0x3ADF PUSH2 0x3288 JUMP JUMPDEST JUMPDEST DUP2 DUP2 MUL SWAP1 POP JUMPDEST SWAP4 SWAP3 POP POP POP JUMP JUMPDEST PUSH1 0x0 PUSH2 0x3AF8 DUP3 PUSH2 0x2D59 JUMP JUMPDEST SWAP2 POP PUSH2 0x3B03 DUP4 PUSH2 0x2D59 JUMP JUMPDEST SWAP3 POP PUSH2 0x3B30 PUSH32 0xFFFFFFFFFFFFFFFFFFFFFFFFFFFFFFFFFFFFFFFFFFFFFFFFFFFFFFFFFFFFFFFF DUP5 DUP5 PUSH2 0x3A1A JUMP JUMPDEST SWAP1 POP SWAP3 SWAP2 POP POP JUMP JUMPDEST PUSH32 0x4E487B7100000000000000000000000000000000000000000000000000000000 PUSH1 0x0 MSTORE PUSH1 0x41 PUSH1 0x4 MSTORE PUSH1 0x24 PUSH1 0x0 REVERT JUMPDEST PUSH1 0x0 PUSH2 0x3B72 DUP3 PUSH2 0x2D59 JUMP JUMPDEST SWAP2 POP PUSH2 0x3B7D DUP4 PUSH2 0x2D59 JUMP JUMPDEST SWAP3 POP DUP3 DUP3 MUL PUSH2 0x3B8B DUP2 PUSH2 0x2D59 JUMP JUMPDEST SWAP2 POP DUP3 DUP3 DIV DUP5 EQ DUP4 ISZERO OR PUSH2 0x3BA2 JUMPI PUSH2 0x3BA1 PUSH2 0x3288 JUMP JUMPDEST JUMPDEST POP SWAP3 SWAP2 POP POP JUMP JUMPDEST PUSH1 0x0 DUP2 SWAP1 POP SWAP3 SWAP2 POP POP JUMP JUMPDEST PUSH2 0x3BBD DUP2 PUSH2 0x2D59 JUMP JUMPDEST DUP3 MSTORE POP POP JUMP JUMPDEST PUSH1 0x0 PUSH2 0x3BCF DUP4 DUP4 PUSH2 0x3BB4 JUMP JUMPDEST PUSH1 0x20 DUP4 ADD SWAP1 POP SWAP3 SWAP2 POP POP JUMP JUMPDEST PUSH2 0x3BE4 DUP2 PUSH2 0x3413 JUMP JUMPDEST PUSH2 0x3BEE DUP2 DUP5 PUSH2 0x3BA9 JUMP JUMPDEST SWAP3 POP PUSH2 0x3BF9 DUP3 PUSH2 0x3429 JUMP JUMPDEST DUP1 PUSH1 0x0 JUMPDEST DUP4 DUP2 LT ISZERO PUSH2 0x3C2A JUMPI DUP2 MLOAD PUSH2 0x3C11 DUP8 DUP3 PUSH2 0x3BC3 JUMP JUMPDEST SWAP7 POP PUSH2 0x3C1C DUP4 PUSH2 0x345A JUMP JUMPDEST SWAP3 POP POP PUSH1 0x1 DUP2 ADD SWAP1 POP PUSH2 0x3BFD JUMP JUMPDEST POP POP POP POP POP POP JUMP JUMPDEST PUSH1 0x0 PUSH1 0x40 DUP3 ADD SWAP1 POP PUSH2 0x3C47 PUSH1 0x0 DUP4 ADD DUP5 PUSH2 0x3BDB JUMP JUMPDEST SWAP3 SWAP2 POP POP JUMP JUMPDEST PUSH1 0x0 DUP2 MLOAD SWAP1 POP PUSH2 0x3C5C DUP2 PUSH2 0x2D63 JUMP JUMPDEST SWAP3 SWAP2 POP POP JUMP JUMPDEST PUSH1 0x0 PUSH1 0x20 DUP3 DUP5 SUB SLT ISZERO PUSH2 0x3C78 JUMPI PUSH2 0x3C77 PUSH2 0x2D4F JUMP JUMPDEST JUMPDEST PUSH1 0x0 PUSH2 0x3C86 DUP5 DUP3 DUP6 ADD PUSH2 0x3C4D JUMP JUMPDEST SWAP2 POP POP SWAP3 SWAP2 POP POP JUMP INVALID LOG2 PUSH5 0x6970667358 0x22 SLT KECCAK256 0x25 0x2D 0xCB 0xCC ADDRESS ADDRESS 0x25 0xE6 GASLIMIT 0xFC PUSH19 0x5F43124632CBED0EFFB97D10C7B2A05FBC333 0xE5 PUSH10 0x64736F6C634300081A00 CALLER "
		},
		"gasEstimates": {
			"creation": {
				"codeDepositCost": "3111400",
				"executionCost": "infinite",
				"totalCost": "infinite"
			},
			"external": {
				"acceptGroupAdmin(uint256)": "55540",
				"addAmountToBox((uint256,uint256,uint256,uint256,uint256,uint256[8]),uint256,uint256)": "infinite",
				"addMember(uint256,uint256)": "infinite",
				"addMembers(uint256,uint256[])": "infinite",
				"balance()": "428",
				"createBox()": "51019",
				"createGroup()": "infinite",
				"createGroup(address)": "infinite",
				"createGroup(address,uint256)": "infinite",
				"deposit(uint256,uint256)": "infinite",
				"getBalance(uint256)": "infinite",
				"getGroupAdmin(uint256)": "2932",
				"getMerkleTreeDepth(uint256)": "infinite",
				"getMerkleTreeRoot(uint256)": "infinite",
				"getMerkleTreeSize(uint256)": "infinite",
				"getOwner(uint256)": "2982",
				"groupCounter()": "2518",
				"groups(uint256)": "infinite",
				"hasMember(uint256,uint256)": "infinite",
				"indexOf(uint256,uint256)": "infinite",
				"removeMember(uint256,uint256,uint256[])": "infinite",
				"updateGroupAdmin(uint256,address)": "29272",
				"updateGroupMerkleTreeDuration(uint256,uint256)": "infinite",
				"updateMember(uint256,uint256,uint256,uint256[])": "infinite",
				"validateProof(uint256,(uint256,uint256,uint256,uint256,uint256,uint256[8]))": "infinite",
				"verifier()": "infinite",
				"verifyProof(uint256,(uint256,uint256,uint256,uint256,uint256,uint256[8]))": "infinite",
				"withdraw(uint256,uint256)": "infinite"
			}
		},
		"methodIdentifiers": {
			"acceptGroupAdmin(uint256)": "da3cda52",
			"addAmountToBox((uint256,uint256,uint256,uint256,uint256,uint256[8]),uint256,uint256)": "c43850e0",
			"addMember(uint256,uint256)": "1783efc3",
			"addMembers(uint256,uint256[])": "04245371",
			"balance()": "b69ef8a8",
			"createBox()": "7fa767bc",
			"createGroup()": "575185ed",
			"createGroup(address)": "5c3f3b60",
			"createGroup(address,uint256)": "2c880363",
			"deposit(uint256,uint256)": "e2bbb158",
			"getBalance(uint256)": "1e010439",
			"getGroupAdmin(uint256)": "a9961c94",
			"getMerkleTreeDepth(uint256)": "6389e107",
			"getMerkleTreeRoot(uint256)": "dabc4d51",
			"getMerkleTreeSize(uint256)": "7ee35a0c",
			"getOwner(uint256)": "c41a360a",
			"groupCounter()": "d24924fe",
			"groups(uint256)": "96324bd4",
			"hasMember(uint256,uint256)": "90509d44",
			"indexOf(uint256,uint256)": "06dd8485",
			"removeMember(uint256,uint256,uint256[])": "6cdd32fe",
			"updateGroupAdmin(uint256,address)": "568ee826",
			"updateGroupMerkleTreeDuration(uint256,uint256)": "fcf0b6ec",
			"updateMember(uint256,uint256,uint256,uint256[])": "4178c4d5",
			"validateProof(uint256,(uint256,uint256,uint256,uint256,uint256,uint256[8]))": "d0d898dd",
			"verifier()": "2b7ac3f3",
			"verifyProof(uint256,(uint256,uint256,uint256,uint256,uint256,uint256[8]))": "456f4188",
			"withdraw(uint256,uint256)": "441a3e70"
		}
	},
	"abi": [
		{
			"inputs": [
				{
					"internalType": "contract ISemaphoreVerifier",
					"name": "_verifier",
					"type": "address"
				}
			],
			"stateMutability": "nonpayable",
			"type": "constructor"
		},
		{
			"inputs": [],
			"name": "LeafAlreadyExists",
			"type": "error"
		},
		{
			"inputs": [],
			"name": "LeafCannotBeZero",
			"type": "error"
		},
		{
			"inputs": [],
			"name": "LeafDoesNotExist",
			"type": "error"
		},
		{
			"inputs": [],
			"name": "LeafGreaterThanSnarkScalarField",
			"type": "error"
		},
		{
			"inputs": [],
			"name": "Semaphore__CallerIsNotTheGroupAdmin",
			"type": "error"
		},
		{
			"inputs": [],
			"name": "Semaphore__CallerIsNotThePendingGroupAdmin",
			"type": "error"
		},
		{
			"inputs": [],
			"name": "Semaphore__GroupDoesNotExist",
			"type": "error"
		},
		{
			"inputs": [],
			"name": "Semaphore__GroupHasNoMembers",
			"type": "error"
		},
		{
			"inputs": [],
			"name": "Semaphore__InvalidProof",
			"type": "error"
		},
		{
			"inputs": [],
			"name": "Semaphore__MerkleTreeDepthIsNotSupported",
			"type": "error"
		},
		{
			"inputs": [],
			"name": "Semaphore__MerkleTreeRootIsExpired",
			"type": "error"
		},
		{
			"inputs": [],
			"name": "Semaphore__MerkleTreeRootIsNotPartOfTheGroup",
			"type": "error"
		},
		{
			"inputs": [],
			"name": "Semaphore__YouAreUsingTheSameNullifierTwice",
			"type": "error"
		},
		{
			"inputs": [],
			"name": "WrongSiblingNodes",
			"type": "error"
		},
		{
			"anonymous": false,
			"inputs": [
				{
					"indexed": true,
					"internalType": "uint256",
					"name": "groupId",
					"type": "uint256"
				},
				{
					"indexed": true,
					"internalType": "address",
					"name": "oldAdmin",
					"type": "address"
				},
				{
					"indexed": true,
					"internalType": "address",
					"name": "newAdmin",
					"type": "address"
				}
			],
			"name": "GroupAdminPending",
			"type": "event"
		},
		{
			"anonymous": false,
			"inputs": [
				{
					"indexed": true,
					"internalType": "uint256",
					"name": "groupId",
					"type": "uint256"
				},
				{
					"indexed": true,
					"internalType": "address",
					"name": "oldAdmin",
					"type": "address"
				},
				{
					"indexed": true,
					"internalType": "address",
					"name": "newAdmin",
					"type": "address"
				}
			],
			"name": "GroupAdminUpdated",
			"type": "event"
		},
		{
			"anonymous": false,
			"inputs": [
				{
					"indexed": true,
					"internalType": "uint256",
					"name": "groupId",
					"type": "uint256"
				}
			],
			"name": "GroupCreated",
			"type": "event"
		},
		{
			"anonymous": false,
			"inputs": [
				{
					"indexed": true,
					"internalType": "uint256",
					"name": "groupId",
					"type": "uint256"
				},
				{
					"indexed": false,
					"internalType": "uint256",
					"name": "oldMerkleTreeDuration",
					"type": "uint256"
				},
				{
					"indexed": false,
					"internalType": "uint256",
					"name": "newMerkleTreeDuration",
					"type": "uint256"
				}
			],
			"name": "GroupMerkleTreeDurationUpdated",
			"type": "event"
		},
		{
			"anonymous": false,
			"inputs": [
				{
					"indexed": true,
					"internalType": "uint256",
					"name": "groupId",
					"type": "uint256"
				},
				{
					"indexed": false,
					"internalType": "uint256",
					"name": "index",
					"type": "uint256"
				},
				{
					"indexed": false,
					"internalType": "uint256",
					"name": "identityCommitment",
					"type": "uint256"
				},
				{
					"indexed": false,
					"internalType": "uint256",
					"name": "merkleTreeRoot",
					"type": "uint256"
				}
			],
			"name": "MemberAdded",
			"type": "event"
		},
		{
			"anonymous": false,
			"inputs": [
				{
					"indexed": true,
					"internalType": "uint256",
					"name": "groupId",
					"type": "uint256"
				},
				{
					"indexed": false,
					"internalType": "uint256",
					"name": "index",
					"type": "uint256"
				},
				{
					"indexed": false,
					"internalType": "uint256",
					"name": "identityCommitment",
					"type": "uint256"
				},
				{
					"indexed": false,
					"internalType": "uint256",
					"name": "merkleTreeRoot",
					"type": "uint256"
				}
			],
			"name": "MemberRemoved",
			"type": "event"
		},
		{
			"anonymous": false,
			"inputs": [
				{
					"indexed": true,
					"internalType": "uint256",
					"name": "groupId",
					"type": "uint256"
				},
				{
					"indexed": false,
					"internalType": "uint256",
					"name": "index",
					"type": "uint256"
				},
				{
					"indexed": false,
					"internalType": "uint256",
					"name": "identityCommitment",
					"type": "uint256"
				},
				{
					"indexed": false,
					"internalType": "uint256",
					"name": "newIdentityCommitment",
					"type": "uint256"
				},
				{
					"indexed": false,
					"internalType": "uint256",
					"name": "merkleTreeRoot",
					"type": "uint256"
				}
			],
			"name": "MemberUpdated",
			"type": "event"
		},
		{
			"anonymous": false,
			"inputs": [
				{
					"indexed": true,
					"internalType": "uint256",
					"name": "groupId",
					"type": "uint256"
				},
				{
					"indexed": false,
					"internalType": "uint256",
					"name": "startIndex",
					"type": "uint256"
				},
				{
					"indexed": false,
					"internalType": "uint256[]",
					"name": "identityCommitments",
					"type": "uint256[]"
				},
				{
					"indexed": false,
					"internalType": "uint256",
					"name": "merkleTreeRoot",
					"type": "uint256"
				}
			],
			"name": "MembersAdded",
			"type": "event"
		},
		{
			"anonymous": false,
			"inputs": [
				{
					"indexed": true,
					"internalType": "uint256",
					"name": "groupId",
					"type": "uint256"
				},
				{
					"indexed": false,
					"internalType": "uint256",
					"name": "merkleTreeDepth",
					"type": "uint256"
				},
				{
					"indexed": true,
					"internalType": "uint256",
					"name": "merkleTreeRoot",
					"type": "uint256"
				},
				{
					"indexed": false,
					"internalType": "uint256",
					"name": "nullifier",
					"type": "uint256"
				},
				{
					"indexed": false,
					"internalType": "uint256",
					"name": "message",
					"type": "uint256"
				},
				{
					"indexed": true,
					"internalType": "uint256",
					"name": "scope",
					"type": "uint256"
				},
				{
					"indexed": false,
					"internalType": "uint256[8]",
					"name": "points",
					"type": "uint256[8]"
				}
			],
			"name": "ProofValidated",
			"type": "event"
		},
		{
			"inputs": [
				{
					"internalType": "uint256",
					"name": "groupId",
					"type": "uint256"
				}
			],
			"name": "acceptGroupAdmin",
			"outputs": [],
			"stateMutability": "nonpayable",
			"type": "function"
		},
		{
			"inputs": [
				{
					"components": [
						{
							"internalType": "uint256",
							"name": "merkleTreeDepth",
							"type": "uint256"
						},
						{
							"internalType": "uint256",
							"name": "merkleTreeRoot",
							"type": "uint256"
						},
						{
							"internalType": "uint256",
							"name": "nullifier",
							"type": "uint256"
						},
						{
							"internalType": "uint256",
							"name": "message",
							"type": "uint256"
						},
						{
							"internalType": "uint256",
							"name": "scope",
							"type": "uint256"
						},
						{
							"internalType": "uint256[8]",
							"name": "points",
							"type": "uint256[8]"
						}
					],
					"internalType": "struct ISemaphore.SemaphoreProof",
					"name": "proof",
					"type": "tuple"
				},
				{
					"internalType": "uint256",
					"name": "groupId",
					"type": "uint256"
				},
				{
					"internalType": "uint256",
					"name": "boxId",
					"type": "uint256"
				}
			],
			"name": "addAmountToBox",
			"outputs": [],
			"stateMutability": "nonpayable",
			"type": "function"
		},
		{
			"inputs": [
				{
					"internalType": "uint256",
					"name": "groupId",
					"type": "uint256"
				},
				{
					"internalType": "uint256",
					"name": "identityCommitment",
					"type": "uint256"
				}
			],
			"name": "addMember",
			"outputs": [],
			"stateMutability": "nonpayable",
			"type": "function"
		},
		{
			"inputs": [
				{
					"internalType": "uint256",
					"name": "groupId",
					"type": "uint256"
				},
				{
					"internalType": "uint256[]",
					"name": "identityCommitments",
					"type": "uint256[]"
				}
			],
			"name": "addMembers",
			"outputs": [],
			"stateMutability": "nonpayable",
			"type": "function"
		},
		{
			"inputs": [],
			"name": "balance",
			"outputs": [
				{
					"internalType": "uint256",
					"name": "",
					"type": "uint256"
				}
			],
			"stateMutability": "view",
			"type": "function"
		},
		{
			"inputs": [],
			"name": "createBox",
			"outputs": [],
			"stateMutability": "nonpayable",
			"type": "function"
		},
		{
			"inputs": [
				{
					"internalType": "address",
					"name": "admin",
					"type": "address"
				},
				{
					"internalType": "uint256",
					"name": "merkleTreeDuration",
					"type": "uint256"
				}
			],
			"name": "createGroup",
			"outputs": [
				{
					"internalType": "uint256",
					"name": "groupId",
					"type": "uint256"
				}
			],
			"stateMutability": "nonpayable",
			"type": "function"
		},
		{
			"inputs": [],
			"name": "createGroup",
			"outputs": [
				{
					"internalType": "uint256",
					"name": "groupId",
					"type": "uint256"
				}
			],
			"stateMutability": "nonpayable",
			"type": "function"
		},
		{
			"inputs": [
				{
					"internalType": "address",
					"name": "admin",
					"type": "address"
				}
			],
			"name": "createGroup",
			"outputs": [
				{
					"internalType": "uint256",
					"name": "groupId",
					"type": "uint256"
				}
			],
			"stateMutability": "nonpayable",
			"type": "function"
		},
		{
			"inputs": [
				{
					"internalType": "uint256",
					"name": "amount",
					"type": "uint256"
				},
				{
					"internalType": "uint256",
					"name": "commitment",
					"type": "uint256"
				}
			],
			"name": "deposit",
			"outputs": [],
			"stateMutability": "payable",
			"type": "function"
		},
		{
			"inputs": [
				{
					"internalType": "uint256",
					"name": "groupId",
					"type": "uint256"
				}
			],
			"name": "getBalance",
			"outputs": [
				{
					"internalType": "uint256",
					"name": "",
					"type": "uint256"
				}
			],
			"stateMutability": "view",
			"type": "function"
		},
		{
			"inputs": [
				{
					"internalType": "uint256",
					"name": "groupId",
					"type": "uint256"
				}
			],
			"name": "getGroupAdmin",
			"outputs": [
				{
					"internalType": "address",
					"name": "",
					"type": "address"
				}
			],
			"stateMutability": "view",
			"type": "function"
		},
		{
			"inputs": [
				{
					"internalType": "uint256",
					"name": "groupId",
					"type": "uint256"
				}
			],
			"name": "getMerkleTreeDepth",
			"outputs": [
				{
					"internalType": "uint256",
					"name": "",
					"type": "uint256"
				}
			],
			"stateMutability": "view",
			"type": "function"
		},
		{
			"inputs": [
				{
					"internalType": "uint256",
					"name": "groupId",
					"type": "uint256"
				}
			],
			"name": "getMerkleTreeRoot",
			"outputs": [
				{
					"internalType": "uint256",
					"name": "",
					"type": "uint256"
				}
			],
			"stateMutability": "view",
			"type": "function"
		},
		{
			"inputs": [
				{
					"internalType": "uint256",
					"name": "groupId",
					"type": "uint256"
				}
			],
			"name": "getMerkleTreeSize",
			"outputs": [
				{
					"internalType": "uint256",
					"name": "",
					"type": "uint256"
				}
			],
			"stateMutability": "view",
			"type": "function"
		},
		{
			"inputs": [
				{
					"internalType": "uint256",
					"name": "groupId",
					"type": "uint256"
				}
			],
			"name": "getOwner",
			"outputs": [
				{
					"internalType": "address",
					"name": "",
					"type": "address"
				}
			],
			"stateMutability": "view",
			"type": "function"
		},
		{
			"inputs": [],
			"name": "groupCounter",
			"outputs": [
				{
					"internalType": "uint256",
					"name": "",
					"type": "uint256"
				}
			],
			"stateMutability": "view",
			"type": "function"
		},
		{
			"inputs": [
				{
					"internalType": "uint256",
					"name": "",
					"type": "uint256"
				}
			],
			"name": "groups",
			"outputs": [
				{
					"internalType": "uint256",
					"name": "merkleTreeDuration",
					"type": "uint256"
				}
			],
			"stateMutability": "view",
			"type": "function"
		},
		{
			"inputs": [
				{
					"internalType": "uint256",
					"name": "groupId",
					"type": "uint256"
				},
				{
					"internalType": "uint256",
					"name": "identityCommitment",
					"type": "uint256"
				}
			],
			"name": "hasMember",
			"outputs": [
				{
					"internalType": "bool",
					"name": "",
					"type": "bool"
				}
			],
			"stateMutability": "view",
			"type": "function"
		},
		{
			"inputs": [
				{
					"internalType": "uint256",
					"name": "groupId",
					"type": "uint256"
				},
				{
					"internalType": "uint256",
					"name": "identityCommitment",
					"type": "uint256"
				}
			],
			"name": "indexOf",
			"outputs": [
				{
					"internalType": "uint256",
					"name": "",
					"type": "uint256"
				}
			],
			"stateMutability": "view",
			"type": "function"
		},
		{
			"inputs": [
				{
					"internalType": "uint256",
					"name": "groupId",
					"type": "uint256"
				},
				{
					"internalType": "uint256",
					"name": "identityCommitment",
					"type": "uint256"
				},
				{
					"internalType": "uint256[]",
					"name": "merkleProofSiblings",
					"type": "uint256[]"
				}
			],
			"name": "removeMember",
			"outputs": [],
			"stateMutability": "nonpayable",
			"type": "function"
		},
		{
			"inputs": [
				{
					"internalType": "uint256",
					"name": "groupId",
					"type": "uint256"
				},
				{
					"internalType": "address",
					"name": "newAdmin",
					"type": "address"
				}
			],
			"name": "updateGroupAdmin",
			"outputs": [],
			"stateMutability": "nonpayable",
			"type": "function"
		},
		{
			"inputs": [
				{
					"internalType": "uint256",
					"name": "groupId",
					"type": "uint256"
				},
				{
					"internalType": "uint256",
					"name": "newMerkleTreeDuration",
					"type": "uint256"
				}
			],
			"name": "updateGroupMerkleTreeDuration",
			"outputs": [],
			"stateMutability": "nonpayable",
			"type": "function"
		},
		{
			"inputs": [
				{
					"internalType": "uint256",
					"name": "groupId",
					"type": "uint256"
				},
				{
					"internalType": "uint256",
					"name": "identityCommitment",
					"type": "uint256"
				},
				{
					"internalType": "uint256",
					"name": "newIdentityCommitment",
					"type": "uint256"
				},
				{
					"internalType": "uint256[]",
					"name": "merkleProofSiblings",
					"type": "uint256[]"
				}
			],
			"name": "updateMember",
			"outputs": [],
			"stateMutability": "nonpayable",
			"type": "function"
		},
		{
			"inputs": [
				{
					"internalType": "uint256",
					"name": "groupId",
					"type": "uint256"
				},
				{
					"components": [
						{
							"internalType": "uint256",
							"name": "merkleTreeDepth",
							"type": "uint256"
						},
						{
							"internalType": "uint256",
							"name": "merkleTreeRoot",
							"type": "uint256"
						},
						{
							"internalType": "uint256",
							"name": "nullifier",
							"type": "uint256"
						},
						{
							"internalType": "uint256",
							"name": "message",
							"type": "uint256"
						},
						{
							"internalType": "uint256",
							"name": "scope",
							"type": "uint256"
						},
						{
							"internalType": "uint256[8]",
							"name": "points",
							"type": "uint256[8]"
						}
					],
					"internalType": "struct ISemaphore.SemaphoreProof",
					"name": "proof",
					"type": "tuple"
				}
			],
			"name": "validateProof",
			"outputs": [],
			"stateMutability": "nonpayable",
			"type": "function"
		},
		{
			"inputs": [],
			"name": "verifier",
			"outputs": [
				{
					"internalType": "contract ISemaphoreVerifier",
					"name": "",
					"type": "address"
				}
			],
			"stateMutability": "view",
			"type": "function"
		},
		{
			"inputs": [
				{
					"internalType": "uint256",
					"name": "groupId",
					"type": "uint256"
				},
				{
					"components": [
						{
							"internalType": "uint256",
							"name": "merkleTreeDepth",
							"type": "uint256"
						},
						{
							"internalType": "uint256",
							"name": "merkleTreeRoot",
							"type": "uint256"
						},
						{
							"internalType": "uint256",
							"name": "nullifier",
							"type": "uint256"
						},
						{
							"internalType": "uint256",
							"name": "message",
							"type": "uint256"
						},
						{
							"internalType": "uint256",
							"name": "scope",
							"type": "uint256"
						},
						{
							"internalType": "uint256[8]",
							"name": "points",
							"type": "uint256[8]"
						}
					],
					"internalType": "struct ISemaphore.SemaphoreProof",
					"name": "proof",
					"type": "tuple"
				}
			],
			"name": "verifyProof",
			"outputs": [
				{
					"internalType": "bool",
					"name": "",
					"type": "bool"
				}
			],
			"stateMutability": "view",
			"type": "function"
		},
		{
			"inputs": [
				{
					"internalType": "uint256",
					"name": "boxId",
					"type": "uint256"
				},
				{
					"internalType": "uint256",
					"name": "amountToWithdraw",
					"type": "uint256"
				}
			],
			"name": "withdraw",
			"outputs": [],
			"stateMutability": "nonpayable",
			"type": "function"
		}
	]
}