{
	"data": {
		"bytecode": {
			"linkReferences": {
				"poseidon-solidity/PoseidonT3.sol": {
					"PoseidonT3": [
						{
							"length": 20,
							"start": 9273
						},
						{
							"length": 20,
							"start": 10123
						},
						{
							"length": 20,
							"start": 10828
						},
						{
							"length": 20,
							"start": 10995
						},
						{
							"length": 20,
							"start": 11300
						},
						{
							"length": 20,
							"start": 11467
						}
					]
				}
			},
			"object": "60806040527f1aa76366126b963b95cf34f889bddfb84c20fe7d5ed998b75b02489b21ce283e60065534801561003457600080fd5b50604051613d73380380613d7383398181016040528101906100569190610204565b8080600360006101000a81548173ffffffffffffffffffffffffffffffffffffffff021916908373ffffffffffffffffffffffffffffffffffffffff160217905550506100aa6001306100b060201b60201c565b50610231565b806001600084815260200190815260200160002060006101000a81548173ffffffffffffffffffffffffffffffffffffffff021916908373ffffffffffffffffffffffffffffffffffffffff160217905550817ff0adfb94eab6daf835deb69c5738fe636150c3dfd08094a76f39b963dc8cb05a60405160405180910390a28073ffffffffffffffffffffffffffffffffffffffff16600073ffffffffffffffffffffffffffffffffffffffff16837f0ba83579a0e79193ef649b9f5a8759d35af086ba62a3e207b52e4a8ae30d49e360405160405180910390a45050565b600080fd5b600073ffffffffffffffffffffffffffffffffffffffff82169050919050565b60006101bf82610194565b9050919050565b60006101d1826101b4565b9050919050565b6101e1816101c6565b81146101ec57600080fd5b50565b6000815190506101fe816101d8565b92915050565b60006020828403121561021a5761021961018f565b5b6000610228848285016101ef565b91505092915050565b613b33806102406000396000f3fe6080604052600436106101815760003560e01c80636cdd32fe116100d1578063b69ef8a81161008a578063da3cda5211610064578063da3cda52146105c8578063dabc4d51146105f1578063e2bbb1581461062e578063fcf0b6ec1461064a57610181565b8063b69ef8a814610549578063d0d898dd14610574578063d24924fe1461059d57610181565b80636cdd32fe146104035780637ee35a0c1461042c57806390509d441461046957806391d3755d146104a657806396324bd4146104cf578063a9961c941461050c57610181565b8063456f41881161013e578063575185ed11610118578063575185ed146103355780635c3f3b6014610360578063625791601461039d5780636389e107146103c657610181565b8063456f4188146102a657806353b62866146102e3578063568ee8261461030c57610181565b8063042453711461018657806306dd8485146101af5780631783efc3146101ec5780632b7ac3f3146102155780632c880363146102405780634178c4d51461027d575b600080fd5b34801561019257600080fd5b506101ad60048036038101906101a89190612ce2565b610673565b005b3480156101bb57600080fd5b506101d660048036038101906101d19190612d42565b6106b4565b6040516101e39190612d91565b60405180910390f35b3480156101f857600080fd5b50610213600480360381019061020e9190612d42565b6106e2565b005b34801561022157600080fd5b5061022a610721565b6040516102379190612e2b565b60405180910390f35b34801561024c57600080fd5b5061026760048036038101906102629190612e84565b610747565b6040516102749190612d91565b60405180910390f35b34801561028957600080fd5b506102a4600480360381019061029f9190612ec4565b61078d565b005b3480156102b257600080fd5b506102cd60048036038101906102c89190612f71565b6107d2565b6040516102da9190612fcd565b60405180910390f35b3480156102ef57600080fd5b5061030a60048036038101906103059190612d42565b610c1d565b005b34801561031857600080fd5b50610333600480360381019061032e9190612fe8565b610c8e565b005b34801561034157600080fd5b5061034a610c9c565b6040516103579190612d91565b60405180910390f35b34801561036c57600080fd5b5061038760048036038101906103829190613028565b610ce1565b6040516103949190612d91565b60405180910390f35b3480156103a957600080fd5b506103c460048036038101906103bf9190613055565b610d28565b005b3480156103d257600080fd5b506103ed60048036038101906103e89190613097565b610eaf565b6040516103fa9190612d91565b60405180910390f35b34801561040f57600080fd5b5061042a600480360381019061042591906130c4565b610ece565b005b34801561043857600080fd5b50610453600480360381019061044e9190613097565b610f11565b6040516104609190612d91565b60405180910390f35b34801561047557600080fd5b50610490600480360381019061048b9190612d42565b610f30565b60405161049d9190612fcd565b60405180910390f35b3480156104b257600080fd5b506104cd60048036038101906104c89190613055565b610f5e565b005b3480156104db57600080fd5b506104f660048036038101906104f19190613097565b6110e5565b6040516105039190612d91565b60405180910390f35b34801561051857600080fd5b50610533600480360381019061052e9190613097565b611103565b6040516105409190613147565b60405180910390f35b34801561055557600080fd5b5061055e611140565b60405161056b9190612d91565b60405180910390f35b34801561058057600080fd5b5061059b60048036038101906105969190612f71565b611148565b005b3480156105a957600080fd5b506105b2611297565b6040516105bf9190612d91565b60405180910390f35b3480156105d457600080fd5b506105ef60048036038101906105ea9190613097565b61129d565b005b3480156105fd57600080fd5b5061061860048036038101906106139190613097565b6112a9565b6040516106259190612d91565b60405180910390f35b61064860048036038101906106439190612d42565b6112cc565b005b34801561065657600080fd5b50610671600480360381019061066c9190612d42565b6113af565b005b60006106808484846114be565b9050426004600086815260200190815260200160002060010160008381526020019081526020016000208190555050505050565b60006106da826000808681526020019081526020016000206115d590919063ffffffff16565b905092915050565b60006106ee838361164f565b90504260046000858152602001908152602001600020600101600083815260200190815260200160002081905550505050565b600360009054906101000a900473ffffffffffffffffffffffffffffffffffffffff1681565b60006005600081548092919061075c90613191565b91905055905061076c8184611761565b81600460008381526020019081526020016000206000018190555092915050565b600061079c8686868686611840565b90504260046000888152602001908152602001600020600101600083815260200190815260200160002081905550505050505050565b600082600073ffffffffffffffffffffffffffffffffffffffff166001600083815260200190815260200160002060009054906101000a900473ffffffffffffffffffffffffffffffffffffffff1673ffffffffffffffffffffffffffffffffffffffff160361086e576040517f029f057900000000000000000000000000000000000000000000000000000000815260040160405180910390fd5b600160ff168360000135108061088b5750600c60ff168360000135115b156108c2576040517fecf64f1200000000000000000000000000000000000000000000000000000000815260040160405180910390fd5b60006108cd85610f11565b905060008103610909576040517fc8b02e0100000000000000000000000000000000000000000000000000000000815260040160405180910390fd5b6000610914866112a9565b9050808560200135146109ee57600060046000888152602001908152602001600020600101600087602001358152602001908152602001600020549050600060046000898152602001908152602001600020600001549050600082036109a6576040517f4d32958600000000000000000000000000000000000000000000000000000000815260040160405180910390fd5b80826109b291906131d9565b4211156109eb576040517f9581a99000000000000000000000000000000000000000000000000000000000815260040160405180910390fd5b50505b600360009054906101000a900473ffffffffffffffffffffffffffffffffffffffff1673ffffffffffffffffffffffffffffffffffffffff1663a23f019960405180604001604052808860a001600060088110610a4e57610a4d61320d565b5b602002013581526020018860a001600160088110610a6f57610a6e61320d565b5b6020020135815250604051806040016040528060405180604001604052808b60a001600260088110610aa457610aa361320d565b5b602002013581526020018b60a001600360088110610ac557610ac461320d565b5b6020020135815250815260200160405180604001604052808b60a001600460088110610af457610af361320d565b5b602002013581526020018b60a001600560088110610b1557610b1461320d565b5b602002013581525081525060405180604001604052808a60a001600660088110610b4257610b4161320d565b5b602002013581526020018a60a001600760088110610b6357610b6261320d565b5b602002013581525060405180608001604052808b6020013581526020018b604001358152602001610b978c60600135611978565b8152602001610ba98c60800135611978565b8152508a600001356040518663ffffffff1660e01b8152600401610bd1959493929190613469565b602060405180830381865afa158015610bee573d6000803e3d6000fd5b505050506040513d601f19601f82011682018060405250810190610c1291906134eb565b935050505092915050565b3073ffffffffffffffffffffffffffffffffffffffff16631783efc383836040518363ffffffff1660e01b8152600401610c58929190613518565b600060405180830381600087803b158015610c7257600080fd5b505af1158015610c86573d6000803e3d6000fd5b505050505050565b610c9882826119af565b5050565b600060056000815480929190610cb190613191565b919050559050610cc18133611761565b610e10600460008381526020019081526020016000206000018190555090565b600060056000815480929190610cf690613191565b919050559050610d068183611761565b610e106004600083815260200190815260200160002060000181905550919050565b816080013560065414610d70576040517f08c379a0000000000000000000000000000000000000000000000000000000008152600401610d679061359e565b60405180910390fd5b6004600082815260200190815260200160002060020160008360400135815260200190815260200160002060009054906101000a900460ff1615610de0576040517f208b15e800000000000000000000000000000000000000000000000000000000815260040160405180910390fd5b610dea81836107d2565b610e20576040517f4aa6bc4000000000000000000000000000000000000000000000000000000000815260040160405180910390fd5b60016004600083815260200190815260200160002060020160008460400135815260200190815260200160002060006101000a81548160ff0219169083151502179055503373ffffffffffffffffffffffffffffffffffffffff166108fc829081150290604051600060405180830381858888f19350505050158015610eaa573d6000803e3d6000fd5b505050565b6000806000838152602001908152602001600020600101549050919050565b6000610edc85858585611afa565b905042600460008781526020019081526020016000206001016000838152602001908152602001600020819055505050505050565b6000806000838152602001908152602001600020600001549050919050565b6000610f5682600080868152602001908152602001600020611c2d90919063ffffffff16565b905092915050565b816080013560065414610fa6576040517f08c379a0000000000000000000000000000000000000000000000000000000008152600401610f9d9061359e565b60405180910390fd5b6004600082815260200190815260200160002060020160008360400135815260200190815260200160002060009054906101000a900460ff1615611016576040517f208b15e800000000000000000000000000000000000000000000000000000000815260040160405180910390fd5b61102081836107d2565b611056576040517f4aa6bc4000000000000000000000000000000000000000000000000000000000815260040160405180910390fd5b60016004600083815260200190815260200160002060020160008460400135815260200190815260200160002060006101000a81548160ff0219169083151502179055503373ffffffffffffffffffffffffffffffffffffffff166108fc829081150290604051600060405180830381858888f193505050501580156110e0573d6000803e3d6000fd5b505050565b60046020528060005260406000206000915090508060000154905081565b60006001600083815260200190815260200160002060009054906101000a900473ffffffffffffffffffffffffffffffffffffffff169050919050565b600047905090565b6004600083815260200190815260200160002060020160008260400135815260200190815260200160002060009054906101000a900460ff16156111b8576040517f208b15e800000000000000000000000000000000000000000000000000000000815260040160405180910390fd5b6111c282826107d2565b6111f8576040517f4aa6bc4000000000000000000000000000000000000000000000000000000000815260040160405180910390fd5b60016004600084815260200190815260200160002060020160008360400135815260200190815260200160002060006101000a81548160ff02191690831515021790555080608001358160200135837f0c32e14cfe81a05d371c248d22de6b7ae849e981b76a1f8842e7b6da73fc405a8460000135856040013586606001358760a00160405161128b94939291906135d8565b60405180910390a45050565b60055481565b6112a681611c50565b50565b60006112c5600080848152602001908152602001600020611e07565b9050919050565b60018214806112db5750600a82145b806112e65750606482145b611325576040517f08c379a000000000000000000000000000000000000000000000000000000000815260040161131c9061366a565b60405180910390fd5b600134611332919061368a565b82111561133e57600080fd5b3073ffffffffffffffffffffffffffffffffffffffff16631783efc383836040518363ffffffff1660e01b8152600401611379929190613518565b600060405180830381600087803b15801561139357600080fd5b505af11580156113a7573d6000803e3d6000fd5b505050505050565b813373ffffffffffffffffffffffffffffffffffffffff166001600083815260200190815260200160002060009054906101000a900473ffffffffffffffffffffffffffffffffffffffff1673ffffffffffffffffffffffffffffffffffffffff1614611448576040517fbb9bf27800000000000000000000000000000000000000000000000000000000815260040160405180910390fd5b600060046000858152602001908152602001600020600001549050826004600086815260200190815260200160002060000181905550837f264b2a8f6763c084235fe832ba903482b2ef1a521336881fc75b987c2dfd29c582856040516114b0929190613518565b60405180910390a250505050565b6000833373ffffffffffffffffffffffffffffffffffffffff166001600083815260200190815260200160002060009054906101000a900473ffffffffffffffffffffffffffffffffffffffff1673ffffffffffffffffffffffffffffffffffffffff1614611559576040517fbb9bf27800000000000000000000000000000000000000000000000000000000815260040160405180910390fd5b600061156486610f11565b905061158c85856000808a8152602001908152602001600020611e2a9092919063ffffffff16565b9250857f61e5e8054e3daf084a0c6c646c065e8bf5e7ca4d5567bda942309bd1652f349d828787876040516115c49493929190613730565b60405180910390a250509392505050565b6000808360030160008481526020019081526020016000205403611625576040517f7204756c00000000000000000000000000000000000000000000000000000000815260040160405180910390fd5b600183600301600084815260200190815260200160002054611647919061368a565b905092915050565b6000823373ffffffffffffffffffffffffffffffffffffffff166001600083815260200190815260200160002060009054906101000a900473ffffffffffffffffffffffffffffffffffffffff1673ffffffffffffffffffffffffffffffffffffffff16146116ea576040517fbb9bf27800000000000000000000000000000000000000000000000000000000815260040160405180910390fd5b60006116f585610f11565b905061171b8460008088815260200190815260200160002061240e90919063ffffffff16565b9250847f19239b3f93cd10558aaf11423af70c77763bf54f52bcc75bfa74d4d13548cde982868660405161175193929190613770565b60405180910390a2505092915050565b806001600084815260200190815260200160002060006101000a81548173ffffffffffffffffffffffffffffffffffffffff021916908373ffffffffffffffffffffffffffffffffffffffff160217905550817ff0adfb94eab6daf835deb69c5738fe636150c3dfd08094a76f39b963dc8cb05a60405160405180910390a28073ffffffffffffffffffffffffffffffffffffffff16600073ffffffffffffffffffffffffffffffffffffffff16837f0ba83579a0e79193ef649b9f5a8759d35af086ba62a3e207b52e4a8ae30d49e360405160405180910390a45050565b6000853373ffffffffffffffffffffffffffffffffffffffff166001600083815260200190815260200160002060009054906101000a900473ffffffffffffffffffffffffffffffffffffffff1673ffffffffffffffffffffffffffffffffffffffff16146118db576040517fbb9bf27800000000000000000000000000000000000000000000000000000000815260040160405180910390fd5b6000611901876000808b81526020019081526020016000206115d590919063ffffffff16565b905061192d878787876000808e815260200190815260200160002061266d90949392919063ffffffff16565b9250877fea3588e4a2a0c93d6a0e69dfeaf7496f43ccccf02ad9ce0a5b7627cbca4b61b18289898760405161196594939291906137a7565b60405180910390a2505095945050505050565b600060088260405160200161198d919061380d565b6040516020818303038152906040528051906020012060001c901c9050919050565b813373ffffffffffffffffffffffffffffffffffffffff166001600083815260200190815260200160002060009054906101000a900473ffffffffffffffffffffffffffffffffffffffff1673ffffffffffffffffffffffffffffffffffffffff1614611a48576040517fbb9bf27800000000000000000000000000000000000000000000000000000000815260040160405180910390fd5b816002600085815260200190815260200160002060006101000a81548173ffffffffffffffffffffffffffffffffffffffff021916908373ffffffffffffffffffffffffffffffffffffffff1602179055508173ffffffffffffffffffffffffffffffffffffffff163373ffffffffffffffffffffffffffffffffffffffff16847f1018365553cce55d9cb02ef73e18cc9311894f3fe1d1eafd235ac2d26cd8ba5860405160405180910390a4505050565b6000843373ffffffffffffffffffffffffffffffffffffffff166001600083815260200190815260200160002060009054906101000a900473ffffffffffffffffffffffffffffffffffffffff1673ffffffffffffffffffffffffffffffffffffffff1614611b95576040517fbb9bf27800000000000000000000000000000000000000000000000000000000815260040160405180910390fd5b6000611bbb866000808a81526020019081526020016000206115d590919063ffffffff16565b9050611be58686866000808c8152602001908152602001600020612c23909392919063ffffffff16565b9250867f3108849c053c77b8073a11256dffb5ffd5b55e93e105a355e1c9061db890d871828886604051611c1b93929190613770565b60405180910390a25050949350505050565b600080836003016000848152602001908152602001600020541415905092915050565b3373ffffffffffffffffffffffffffffffffffffffff166002600083815260200190815260200160002060009054906101000a900473ffffffffffffffffffffffffffffffffffffffff1673ffffffffffffffffffffffffffffffffffffffff1614611ce8576040517f34c4245d00000000000000000000000000000000000000000000000000000000815260040160405180910390fd5b60006001600083815260200190815260200160002060009054906101000a900473ffffffffffffffffffffffffffffffffffffffff169050336001600084815260200190815260200160002060006101000a81548173ffffffffffffffffffffffffffffffffffffffff021916908373ffffffffffffffffffffffffffffffffffffffff1602179055506002600083815260200190815260200160002060006101000a81549073ffffffffffffffffffffffffffffffffffffffff02191690553373ffffffffffffffffffffffffffffffffffffffff168173ffffffffffffffffffffffffffffffffffffffff16837f0ba83579a0e79193ef649b9f5a8759d35af086ba62a3e207b52e4a8ae30d49e360405160405180910390a45050565b600081600201600083600101548152602001908152602001600020549050919050565b6000808460000154905060005b84849050811015611fb6577f30644e72e131a029b85045b68181585d2833e84879b9709143e1f593f0000001858583818110611e7657611e7561320d565b5b9050602002013510611eb4576040517fc380a82e00000000000000000000000000000000000000000000000000000000815260040160405180910390fd5b6000858583818110611ec957611ec861320d565b5b9050602002013503611f07576040517f29691be200000000000000000000000000000000000000000000000000000000815260040160405180910390fd5b611f2a86868684818110611f1e57611f1d61320d565b5b90506020020135611c2d565b15611f61576040517f258a195a00000000000000000000000000000000000000000000000000000000815260040160405180910390fd5b80600183611f6f91906131d9565b611f7991906131d9565b866003016000878785818110611f9257611f9161320d565b5b90506020020135815260200190815260200160002081905550806001019050611e37565b506060848480806020026020016040519081016040528093929190818152602001838360200280828437600081840152601f19601f8201169050808301925050505050505090506000866001015490505b858590508361201691906131d9565b816002612023919061395b565b101561203a578061203390613191565b9050612007565b80876001018190555060008390506000878790508561205991906131d9565b90506000600183901c90506000600180600185612076919061368a565b901c61208291906131d9565b905060005b85811015612395576000838361209d919061368a565b905060008167ffffffffffffffff8111156120bb576120ba6139a6565b5b6040519080825280602002602001820160405280156120e95781602001602082028036833780820191505090505b50905060005b828110156122bc576000886002888461210891906131d9565b61211291906139d5565b1015612135578f6002016000868152602001908152602001600020549050612175565b8a896002898561214591906131d9565b61214f91906139d5565b612159919061368a565b8151811061216a5761216961320d565b5b602002602001015190505b600088600160028a8661218891906131d9565b61219291906139d5565b61219c91906131d9565b10156121ee578b8a600160028b876121b491906131d9565b6121be91906139d5565b6121c891906131d9565b6121d2919061368a565b815181106121e3576121e261320d565b5b602002602001015190505b600080821461228a5773__$75f79a42d9bcbdbb69ad79ebd80f556f39$__63561558fe6040518060400160405280868152602001858152506040518263ffffffff1660e01b81526004016122429190613aa0565b602060405180830381865af415801561225f573d6000803e3d6000fd5b505050506040513d601f19601f820116820180604052508101906122839190613ad0565b905061228e565b8290505b808585815181106122a2576122a161320d565b5b6020026020010181815250508360010193505050506120ef565b5060018087160361230d578860018a516122d6919061368a565b815181106122e7576122e661320d565b5b60200260200101518e60020160008581526020019081526020016000208190555061235a565b600189511115612359578860028a51612326919061368a565b815181106123375761233661320d565b5b60200260200101518e6002016000858152602001908152602001600020819055505b5b849650600185901c945080985083955060018060018661237a919061368a565b901c61238691906131d9565b93508260010192505050612087565b5089899050876123a591906131d9565b8b60000181905550856000815181106123c1576123c061320d565b5b60200260200101518b600201600087815260200190815260200160002081905550856000815181106123f6576123f561320d565b5b60200260200101519750505050505050509392505050565b60007f30644e72e131a029b85045b68181585d2833e84879b9709143e1f593f00000018210612469576040517fc380a82e00000000000000000000000000000000000000000000000000000000815260040160405180910390fd5b600082036124a3576040517f29691be200000000000000000000000000000000000000000000000000000000815260040160405180910390fd5b6124ad8383611c2d565b156124e4576040517f258a195a00000000000000000000000000000000000000000000000000000000815260040160405180910390fd5b60008360000154905060008460010154905060018261250391906131d9565b816002612510919061395b565b1015612523578061252090613191565b90505b808560010181905550600084905060005b82811015612617576001808286901c16036125f15773__$75f79a42d9bcbdbb69ad79ebd80f556f39$__63561558fe60405180604001604052808a6002016000868152602001908152602001600020548152602001858152506040518263ffffffff1660e01b81526004016125a99190613aa0565b602060405180830381865af41580156125c6573d6000803e3d6000fd5b505050506040513d601f19601f820116820180604052508101906125ea9190613ad0565b915061260c565b81876002016000838152602001908152602001600020819055505b806001019050612534565b508261262290613191565b92508286600001819055508086600201600084815260200190815260200160002081905550828660030160008781526020019081526020016000208190555080935050505092915050565b60007f30644e72e131a029b85045b68181585d2833e84879b9709143e1f593f000000184106126c8576040517fc380a82e00000000000000000000000000000000000000000000000000000000815260040160405180910390fd5b6126d28686611c2d565b612708576040517f7204756c00000000000000000000000000000000000000000000000000000000815260040160405180910390fd5b6127128685611c2d565b15612749576040517f258a195a00000000000000000000000000000000000000000000000000000000815260040160405180910390fd5b600061275587876115d5565b905060008590506000879050600060018a60000154612774919061368a565b90506000808b60010154905060005b81811015612b62576001808289901c1603612963577f30644e72e131a029b85045b68181585d2833e84879b9709143e1f593f00000018a8a858181106127cc576127cb61320d565b5b905060200201351061280a576040517fc380a82e00000000000000000000000000000000000000000000000000000000815260040160405180910390fd5b73__$75f79a42d9bcbdbb69ad79ebd80f556f39$__63561558fe60405180604001604052808d8d888181106128425761284161320d565b5b905060200201358152602001898152506040518263ffffffff1660e01b815260040161286e9190613aa0565b602060405180830381865af415801561288b573d6000803e3d6000fd5b505050506040513d601f19601f820116820180604052508101906128af9190613ad0565b955073__$75f79a42d9bcbdbb69ad79ebd80f556f39$__63561558fe60405180604001604052808d8d888181106128e9576128e861320d565b5b905060200201358152602001888152506040518263ffffffff1660e01b81526004016129159190613aa0565b602060405180830381865af4158015612932573d6000803e3d6000fd5b505050506040513d601f19601f820116820180604052508101906129569190613ad0565b9450826001019250612b57565b8084901c8188901c14612b3b577f30644e72e131a029b85045b68181585d2833e84879b9709143e1f593f00000018a8a858181106129a4576129a361320d565b5b90506020020135106129e2576040517fc380a82e00000000000000000000000000000000000000000000000000000000815260040160405180910390fd5b73__$75f79a42d9bcbdbb69ad79ebd80f556f39$__63561558fe60405180604001604052808981526020018d8d88818110612a2057612a1f61320d565b5b905060200201358152506040518263ffffffff1660e01b8152600401612a469190613aa0565b602060405180830381865af4158015612a63573d6000803e3d6000fd5b505050506040513d601f19601f82011682018060405250810190612a879190613ad0565b955073__$75f79a42d9bcbdbb69ad79ebd80f556f39$__63561558fe60405180604001604052808881526020018d8d88818110612ac757612ac661320d565b5b905060200201358152506040518263ffffffff1660e01b8152600401612aed9190613aa0565b602060405180830381865af4158015612b0a573d6000803e3d6000fd5b505050506040513d601f19601f82011682018060405250810190612b2e9190613ad0565b9450826001019250612b56565b858d6002016000858152602001908152602001600020819055505b5b806001019050612783565b50612b6c8c611e07565b8414612ba4576040517f3fa930c600000000000000000000000000000000000000000000000000000000815260040160405180910390fd5b848c60020160008381526020019081526020016000208190555060008a14612bf6578b60030160008c8152602001908152602001600020548c60030160008c8152602001908152602001600020819055505b60008c60030160008d81526020019081526020016000208190555084965050505050505095945050505050565b6000612c3385856000868661266d565b9050949350505050565b600080fd5b600080fd5b6000819050919050565b612c5a81612c47565b8114612c6557600080fd5b50565b600081359050612c7781612c51565b92915050565b600080fd5b600080fd5b600080fd5b60008083601f840112612ca257612ca1612c7d565b5b8235905067ffffffffffffffff811115612cbf57612cbe612c82565b5b602083019150836020820283011115612cdb57612cda612c87565b5b9250929050565b600080600060408486031215612cfb57612cfa612c3d565b5b6000612d0986828701612c68565b935050602084013567ffffffffffffffff811115612d2a57612d29612c42565b5b612d3686828701612c8c565b92509250509250925092565b60008060408385031215612d5957612d58612c3d565b5b6000612d6785828601612c68565b9250506020612d7885828601612c68565b9150509250929050565b612d8b81612c47565b82525050565b6000602082019050612da66000830184612d82565b92915050565b600073ffffffffffffffffffffffffffffffffffffffff82169050919050565b6000819050919050565b6000612df1612dec612de784612dac565b612dcc565b612dac565b9050919050565b6000612e0382612dd6565b9050919050565b6000612e1582612df8565b9050919050565b612e2581612e0a565b82525050565b6000602082019050612e406000830184612e1c565b92915050565b6000612e5182612dac565b9050919050565b612e6181612e46565b8114612e6c57600080fd5b50565b600081359050612e7e81612e58565b92915050565b60008060408385031215612e9b57612e9a612c3d565b5b6000612ea985828601612e6f565b9250506020612eba85828601612c68565b9150509250929050565b600080600080600060808688031215612ee057612edf612c3d565b5b6000612eee88828901612c68565b9550506020612eff88828901612c68565b9450506040612f1088828901612c68565b935050606086013567ffffffffffffffff811115612f3157612f30612c42565b5b612f3d88828901612c8c565b92509250509295509295909350565b600080fd5b60006101a08284031215612f6857612f67612f4c565b5b81905092915050565b6000806101c08385031215612f8957612f88612c3d565b5b6000612f9785828601612c68565b9250506020612fa885828601612f51565b9150509250929050565b60008115159050919050565b612fc781612fb2565b82525050565b6000602082019050612fe26000830184612fbe565b92915050565b60008060408385031215612fff57612ffe612c3d565b5b600061300d85828601612c68565b925050602061301e85828601612e6f565b9150509250929050565b60006020828403121561303e5761303d612c3d565b5b600061304c84828501612e6f565b91505092915050565b6000806101c0838503121561306d5761306c612c3d565b5b600061307b85828601612f51565b9250506101a061308d85828601612c68565b9150509250929050565b6000602082840312156130ad576130ac612c3d565b5b60006130bb84828501612c68565b91505092915050565b600080600080606085870312156130de576130dd612c3d565b5b60006130ec87828801612c68565b94505060206130fd87828801612c68565b935050604085013567ffffffffffffffff81111561311e5761311d612c42565b5b61312a87828801612c8c565b925092505092959194509250565b61314181612e46565b82525050565b600060208201905061315c6000830184613138565b92915050565b7f4e487b7100000000000000000000000000000000000000000000000000000000600052601160045260246000fd5b600061319c82612c47565b91507fffffffffffffffffffffffffffffffffffffffffffffffffffffffffffffffff82036131ce576131cd613162565b5b600182019050919050565b60006131e482612c47565b91506131ef83612c47565b925082820190508082111561320757613206613162565b5b92915050565b7f4e487b7100000000000000000000000000000000000000000000000000000000600052603260045260246000fd5b600060029050919050565b600081905092915050565b6000819050919050565b61326581612c47565b82525050565b6000613277838361325c565b60208301905092915050565b6000602082019050919050565b6132998161323c565b6132a38184613247565b92506132ae82613252565b8060005b838110156132df5781516132c6878261326b565b96506132d183613283565b9250506001810190506132b2565b505050505050565b600060029050919050565b600081905092915050565b6000819050919050565b600081905092915050565b61331b8161323c565b6133258184613307565b925061333082613252565b8060005b83811015613361578151613348878261326b565b965061335383613283565b925050600181019050613334565b505050505050565b60006133758383613312565b60408301905092915050565b6000602082019050919050565b613397816132e7565b6133a181846132f2565b92506133ac826132fd565b8060005b838110156133dd5781516133c48782613369565b96506133cf83613381565b9250506001810190506133b0565b505050505050565b600060049050919050565b600081905092915050565b6000819050919050565b6000602082019050919050565b61341b816133e5565b61342581846133f0565b9250613430826133fb565b8060005b83811015613461578151613448878261326b565b965061345383613405565b925050600181019050613434565b505050505050565b60006101a08201905061347f6000830188613290565b61348c604083018761338e565b61349960c0830186613290565b6134a7610100830185613412565b6134b5610180830184612d82565b9695505050505050565b6134c881612fb2565b81146134d357600080fd5b50565b6000815190506134e5816134bf565b92915050565b60006020828403121561350157613500612c3d565b5b600061350f848285016134d6565b91505092915050565b600060408201905061352d6000830185612d82565b61353a6020830184612d82565b9392505050565b600082825260208201905092915050565b7f73636f7065206e6f7420636f7272656374000000000000000000000000000000600082015250565b6000613588601183613541565b915061359382613552565b602082019050919050565b600060208201905081810360008301526135b78161357b565b9050919050565b82818337505050565b6135d461010083836135be565b5050565b6000610160820190506135ee6000830187612d82565b6135fb6020830186612d82565b6136086040830185612d82565b61361560608301846135c7565b95945050505050565b7f416d6f756e74206973276e742076616c69640000000000000000000000000000600082015250565b6000613654601283613541565b915061365f8261361e565b602082019050919050565b6000602082019050818103600083015261368381613647565b9050919050565b600061369582612c47565b91506136a083612c47565b92508282039050818111156136b8576136b7613162565b5b92915050565b600082825260208201905092915050565b600080fd5b60006136e083856136be565b93507f07ffffffffffffffffffffffffffffffffffffffffffffffffffffffffffffff831115613713576137126136cf565b5b6020830292506137248385846135be565b82840190509392505050565b60006060820190506137456000830187612d82565b81810360208301526137588185876136d4565b90506137676040830184612d82565b95945050505050565b60006060820190506137856000830186612d82565b6137926020830185612d82565b61379f6040830184612d82565b949350505050565b60006080820190506137bc6000830187612d82565b6137c96020830186612d82565b6137d66040830185612d82565b6137e36060830184612d82565b95945050505050565b6000819050919050565b61380761380282612c47565b6137ec565b82525050565b600061381982846137f6565b60208201915081905092915050565b60008160011c9050919050565b6000808291508390505b600185111561387f5780860481111561385b5761385a613162565b5b600185161561386a5780820291505b808102905061387885613828565b945061383f565b94509492505050565b6000826138985760019050613954565b816138a65760009050613954565b81600181146138bc57600281146138c6576138f5565b6001915050613954565b60ff8411156138d8576138d7613162565b5b8360020a9150848211156138ef576138ee613162565b5b50613954565b5060208310610133831016604e8410600b841016171561392a5782820a90508381111561392557613924613162565b5b613954565b6139378484846001613835565b9250905081840481111561394e5761394d613162565b5b81810290505b9392505050565b600061396682612c47565b915061397183612c47565b925061399e7fffffffffffffffffffffffffffffffffffffffffffffffffffffffffffffffff8484613888565b905092915050565b7f4e487b7100000000000000000000000000000000000000000000000000000000600052604160045260246000fd5b60006139e082612c47565b91506139eb83612c47565b92508282026139f981612c47565b91508282048414831517613a1057613a0f613162565b5b5092915050565b600081905092915050565b613a2b81612c47565b82525050565b6000613a3d8383613a22565b60208301905092915050565b613a528161323c565b613a5c8184613a17565b9250613a6782613252565b8060005b83811015613a98578151613a7f8782613a31565b9650613a8a83613283565b925050600181019050613a6b565b505050505050565b6000604082019050613ab56000830184613a49565b92915050565b600081519050613aca81612c51565b92915050565b600060208284031215613ae657613ae5612c3d565b5b6000613af484828501613abb565b9150509291505056fea264697066735822122085760f31b043087542e269860a755c1c812829c41361321ed06167c28c05228864736f6c634300081a0033",
			"opcodes": "PUSH1 0x80 PUSH1 0x40 MSTORE PUSH32 0x1AA76366126B963B95CF34F889BDDFB84C20FE7D5ED998B75B02489B21CE283E PUSH1 0x6 SSTORE CALLVALUE DUP1 ISZERO PUSH2 0x34 JUMPI PUSH1 0x0 DUP1 REVERT JUMPDEST POP PUSH1 0x40 MLOAD PUSH2 0x3D73 CODESIZE SUB DUP1 PUSH2 0x3D73 DUP4 CODECOPY DUP2 DUP2 ADD PUSH1 0x40 MSTORE DUP2 ADD SWAP1 PUSH2 0x56 SWAP2 SWAP1 PUSH2 0x204 JUMP JUMPDEST DUP1 DUP1 PUSH1 0x3 PUSH1 0x0 PUSH2 0x100 EXP DUP2 SLOAD DUP2 PUSH20 0xFFFFFFFFFFFFFFFFFFFFFFFFFFFFFFFFFFFFFFFF MUL NOT AND SWAP1 DUP4 PUSH20 0xFFFFFFFFFFFFFFFFFFFFFFFFFFFFFFFFFFFFFFFF AND MUL OR SWAP1 SSTORE POP POP PUSH2 0xAA PUSH1 0x1 ADDRESS PUSH2 0xB0 PUSH1 0x20 SHL PUSH1 0x20 SHR JUMP JUMPDEST POP PUSH2 0x231 JUMP JUMPDEST DUP1 PUSH1 0x1 PUSH1 0x0 DUP5 DUP2 MSTORE PUSH1 0x20 ADD SWAP1 DUP2 MSTORE PUSH1 0x20 ADD PUSH1 0x0 KECCAK256 PUSH1 0x0 PUSH2 0x100 EXP DUP2 SLOAD DUP2 PUSH20 0xFFFFFFFFFFFFFFFFFFFFFFFFFFFFFFFFFFFFFFFF MUL NOT AND SWAP1 DUP4 PUSH20 0xFFFFFFFFFFFFFFFFFFFFFFFFFFFFFFFFFFFFFFFF AND MUL OR SWAP1 SSTORE POP DUP2 PUSH32 0xF0ADFB94EAB6DAF835DEB69C5738FE636150C3DFD08094A76F39B963DC8CB05A PUSH1 0x40 MLOAD PUSH1 0x40 MLOAD DUP1 SWAP2 SUB SWAP1 LOG2 DUP1 PUSH20 0xFFFFFFFFFFFFFFFFFFFFFFFFFFFFFFFFFFFFFFFF AND PUSH1 0x0 PUSH20 0xFFFFFFFFFFFFFFFFFFFFFFFFFFFFFFFFFFFFFFFF AND DUP4 PUSH32 0xBA83579A0E79193EF649B9F5A8759D35AF086BA62A3E207B52E4A8AE30D49E3 PUSH1 0x40 MLOAD PUSH1 0x40 MLOAD DUP1 SWAP2 SUB SWAP1 LOG4 POP POP JUMP JUMPDEST PUSH1 0x0 DUP1 REVERT JUMPDEST PUSH1 0x0 PUSH20 0xFFFFFFFFFFFFFFFFFFFFFFFFFFFFFFFFFFFFFFFF DUP3 AND SWAP1 POP SWAP2 SWAP1 POP JUMP JUMPDEST PUSH1 0x0 PUSH2 0x1BF DUP3 PUSH2 0x194 JUMP JUMPDEST SWAP1 POP SWAP2 SWAP1 POP JUMP JUMPDEST PUSH1 0x0 PUSH2 0x1D1 DUP3 PUSH2 0x1B4 JUMP JUMPDEST SWAP1 POP SWAP2 SWAP1 POP JUMP JUMPDEST PUSH2 0x1E1 DUP2 PUSH2 0x1C6 JUMP JUMPDEST DUP2 EQ PUSH2 0x1EC JUMPI PUSH1 0x0 DUP1 REVERT JUMPDEST POP JUMP JUMPDEST PUSH1 0x0 DUP2 MLOAD SWAP1 POP PUSH2 0x1FE DUP2 PUSH2 0x1D8 JUMP JUMPDEST SWAP3 SWAP2 POP POP JUMP JUMPDEST PUSH1 0x0 PUSH1 0x20 DUP3 DUP5 SUB SLT ISZERO PUSH2 0x21A JUMPI PUSH2 0x219 PUSH2 0x18F JUMP JUMPDEST JUMPDEST PUSH1 0x0 PUSH2 0x228 DUP5 DUP3 DUP6 ADD PUSH2 0x1EF JUMP JUMPDEST SWAP2 POP POP SWAP3 SWAP2 POP POP JUMP JUMPDEST PUSH2 0x3B33 DUP1 PUSH2 0x240 PUSH1 0x0 CODECOPY PUSH1 0x0 RETURN INVALID PUSH1 0x80 PUSH1 0x40 MSTORE PUSH1 0x4 CALLDATASIZE LT PUSH2 0x181 JUMPI PUSH1 0x0 CALLDATALOAD PUSH1 0xE0 SHR DUP1 PUSH4 0x6CDD32FE GT PUSH2 0xD1 JUMPI DUP1 PUSH4 0xB69EF8A8 GT PUSH2 0x8A JUMPI DUP1 PUSH4 0xDA3CDA52 GT PUSH2 0x64 JUMPI DUP1 PUSH4 0xDA3CDA52 EQ PUSH2 0x5C8 JUMPI DUP1 PUSH4 0xDABC4D51 EQ PUSH2 0x5F1 JUMPI DUP1 PUSH4 0xE2BBB158 EQ PUSH2 0x62E JUMPI DUP1 PUSH4 0xFCF0B6EC EQ PUSH2 0x64A JUMPI PUSH2 0x181 JUMP JUMPDEST DUP1 PUSH4 0xB69EF8A8 EQ PUSH2 0x549 JUMPI DUP1 PUSH4 0xD0D898DD EQ PUSH2 0x574 JUMPI DUP1 PUSH4 0xD24924FE EQ PUSH2 0x59D JUMPI PUSH2 0x181 JUMP JUMPDEST DUP1 PUSH4 0x6CDD32FE EQ PUSH2 0x403 JUMPI DUP1 PUSH4 0x7EE35A0C EQ PUSH2 0x42C JUMPI DUP1 PUSH4 0x90509D44 EQ PUSH2 0x469 JUMPI DUP1 PUSH4 0x91D3755D EQ PUSH2 0x4A6 JUMPI DUP1 PUSH4 0x96324BD4 EQ PUSH2 0x4CF JUMPI DUP1 PUSH4 0xA9961C94 EQ PUSH2 0x50C JUMPI PUSH2 0x181 JUMP JUMPDEST DUP1 PUSH4 0x456F4188 GT PUSH2 0x13E JUMPI DUP1 PUSH4 0x575185ED GT PUSH2 0x118 JUMPI DUP1 PUSH4 0x575185ED EQ PUSH2 0x335 JUMPI DUP1 PUSH4 0x5C3F3B60 EQ PUSH2 0x360 JUMPI DUP1 PUSH4 0x62579160 EQ PUSH2 0x39D JUMPI DUP1 PUSH4 0x6389E107 EQ PUSH2 0x3C6 JUMPI PUSH2 0x181 JUMP JUMPDEST DUP1 PUSH4 0x456F4188 EQ PUSH2 0x2A6 JUMPI DUP1 PUSH4 0x53B62866 EQ PUSH2 0x2E3 JUMPI DUP1 PUSH4 0x568EE826 EQ PUSH2 0x30C JUMPI PUSH2 0x181 JUMP JUMPDEST DUP1 PUSH4 0x4245371 EQ PUSH2 0x186 JUMPI DUP1 PUSH4 0x6DD8485 EQ PUSH2 0x1AF JUMPI DUP1 PUSH4 0x1783EFC3 EQ PUSH2 0x1EC JUMPI DUP1 PUSH4 0x2B7AC3F3 EQ PUSH2 0x215 JUMPI DUP1 PUSH4 0x2C880363 EQ PUSH2 0x240 JUMPI DUP1 PUSH4 0x4178C4D5 EQ PUSH2 0x27D JUMPI JUMPDEST PUSH1 0x0 DUP1 REVERT JUMPDEST CALLVALUE DUP1 ISZERO PUSH2 0x192 JUMPI PUSH1 0x0 DUP1 REVERT JUMPDEST POP PUSH2 0x1AD PUSH1 0x4 DUP1 CALLDATASIZE SUB DUP2 ADD SWAP1 PUSH2 0x1A8 SWAP2 SWAP1 PUSH2 0x2CE2 JUMP JUMPDEST PUSH2 0x673 JUMP JUMPDEST STOP JUMPDEST CALLVALUE DUP1 ISZERO PUSH2 0x1BB JUMPI PUSH1 0x0 DUP1 REVERT JUMPDEST POP PUSH2 0x1D6 PUSH1 0x4 DUP1 CALLDATASIZE SUB DUP2 ADD SWAP1 PUSH2 0x1D1 SWAP2 SWAP1 PUSH2 0x2D42 JUMP JUMPDEST PUSH2 0x6B4 JUMP JUMPDEST PUSH1 0x40 MLOAD PUSH2 0x1E3 SWAP2 SWAP1 PUSH2 0x2D91 JUMP JUMPDEST PUSH1 0x40 MLOAD DUP1 SWAP2 SUB SWAP1 RETURN JUMPDEST CALLVALUE DUP1 ISZERO PUSH2 0x1F8 JUMPI PUSH1 0x0 DUP1 REVERT JUMPDEST POP PUSH2 0x213 PUSH1 0x4 DUP1 CALLDATASIZE SUB DUP2 ADD SWAP1 PUSH2 0x20E SWAP2 SWAP1 PUSH2 0x2D42 JUMP JUMPDEST PUSH2 0x6E2 JUMP JUMPDEST STOP JUMPDEST CALLVALUE DUP1 ISZERO PUSH2 0x221 JUMPI PUSH1 0x0 DUP1 REVERT JUMPDEST POP PUSH2 0x22A PUSH2 0x721 JUMP JUMPDEST PUSH1 0x40 MLOAD PUSH2 0x237 SWAP2 SWAP1 PUSH2 0x2E2B JUMP JUMPDEST PUSH1 0x40 MLOAD DUP1 SWAP2 SUB SWAP1 RETURN JUMPDEST CALLVALUE DUP1 ISZERO PUSH2 0x24C JUMPI PUSH1 0x0 DUP1 REVERT JUMPDEST POP PUSH2 0x267 PUSH1 0x4 DUP1 CALLDATASIZE SUB DUP2 ADD SWAP1 PUSH2 0x262 SWAP2 SWAP1 PUSH2 0x2E84 JUMP JUMPDEST PUSH2 0x747 JUMP JUMPDEST PUSH1 0x40 MLOAD PUSH2 0x274 SWAP2 SWAP1 PUSH2 0x2D91 JUMP JUMPDEST PUSH1 0x40 MLOAD DUP1 SWAP2 SUB SWAP1 RETURN JUMPDEST CALLVALUE DUP1 ISZERO PUSH2 0x289 JUMPI PUSH1 0x0 DUP1 REVERT JUMPDEST POP PUSH2 0x2A4 PUSH1 0x4 DUP1 CALLDATASIZE SUB DUP2 ADD SWAP1 PUSH2 0x29F SWAP2 SWAP1 PUSH2 0x2EC4 JUMP JUMPDEST PUSH2 0x78D JUMP JUMPDEST STOP JUMPDEST CALLVALUE DUP1 ISZERO PUSH2 0x2B2 JUMPI PUSH1 0x0 DUP1 REVERT JUMPDEST POP PUSH2 0x2CD PUSH1 0x4 DUP1 CALLDATASIZE SUB DUP2 ADD SWAP1 PUSH2 0x2C8 SWAP2 SWAP1 PUSH2 0x2F71 JUMP JUMPDEST PUSH2 0x7D2 JUMP JUMPDEST PUSH1 0x40 MLOAD PUSH2 0x2DA SWAP2 SWAP1 PUSH2 0x2FCD JUMP JUMPDEST PUSH1 0x40 MLOAD DUP1 SWAP2 SUB SWAP1 RETURN JUMPDEST CALLVALUE DUP1 ISZERO PUSH2 0x2EF JUMPI PUSH1 0x0 DUP1 REVERT JUMPDEST POP PUSH2 0x30A PUSH1 0x4 DUP1 CALLDATASIZE SUB DUP2 ADD SWAP1 PUSH2 0x305 SWAP2 SWAP1 PUSH2 0x2D42 JUMP JUMPDEST PUSH2 0xC1D JUMP JUMPDEST STOP JUMPDEST CALLVALUE DUP1 ISZERO PUSH2 0x318 JUMPI PUSH1 0x0 DUP1 REVERT JUMPDEST POP PUSH2 0x333 PUSH1 0x4 DUP1 CALLDATASIZE SUB DUP2 ADD SWAP1 PUSH2 0x32E SWAP2 SWAP1 PUSH2 0x2FE8 JUMP JUMPDEST PUSH2 0xC8E JUMP JUMPDEST STOP JUMPDEST CALLVALUE DUP1 ISZERO PUSH2 0x341 JUMPI PUSH1 0x0 DUP1 REVERT JUMPDEST POP PUSH2 0x34A PUSH2 0xC9C JUMP JUMPDEST PUSH1 0x40 MLOAD PUSH2 0x357 SWAP2 SWAP1 PUSH2 0x2D91 JUMP JUMPDEST PUSH1 0x40 MLOAD DUP1 SWAP2 SUB SWAP1 RETURN JUMPDEST CALLVALUE DUP1 ISZERO PUSH2 0x36C JUMPI PUSH1 0x0 DUP1 REVERT JUMPDEST POP PUSH2 0x387 PUSH1 0x4 DUP1 CALLDATASIZE SUB DUP2 ADD SWAP1 PUSH2 0x382 SWAP2 SWAP1 PUSH2 0x3028 JUMP JUMPDEST PUSH2 0xCE1 JUMP JUMPDEST PUSH1 0x40 MLOAD PUSH2 0x394 SWAP2 SWAP1 PUSH2 0x2D91 JUMP JUMPDEST PUSH1 0x40 MLOAD DUP1 SWAP2 SUB SWAP1 RETURN JUMPDEST CALLVALUE DUP1 ISZERO PUSH2 0x3A9 JUMPI PUSH1 0x0 DUP1 REVERT JUMPDEST POP PUSH2 0x3C4 PUSH1 0x4 DUP1 CALLDATASIZE SUB DUP2 ADD SWAP1 PUSH2 0x3BF SWAP2 SWAP1 PUSH2 0x3055 JUMP JUMPDEST PUSH2 0xD28 JUMP JUMPDEST STOP JUMPDEST CALLVALUE DUP1 ISZERO PUSH2 0x3D2 JUMPI PUSH1 0x0 DUP1 REVERT JUMPDEST POP PUSH2 0x3ED PUSH1 0x4 DUP1 CALLDATASIZE SUB DUP2 ADD SWAP1 PUSH2 0x3E8 SWAP2 SWAP1 PUSH2 0x3097 JUMP JUMPDEST PUSH2 0xEAF JUMP JUMPDEST PUSH1 0x40 MLOAD PUSH2 0x3FA SWAP2 SWAP1 PUSH2 0x2D91 JUMP JUMPDEST PUSH1 0x40 MLOAD DUP1 SWAP2 SUB SWAP1 RETURN JUMPDEST CALLVALUE DUP1 ISZERO PUSH2 0x40F JUMPI PUSH1 0x0 DUP1 REVERT JUMPDEST POP PUSH2 0x42A PUSH1 0x4 DUP1 CALLDATASIZE SUB DUP2 ADD SWAP1 PUSH2 0x425 SWAP2 SWAP1 PUSH2 0x30C4 JUMP JUMPDEST PUSH2 0xECE JUMP JUMPDEST STOP JUMPDEST CALLVALUE DUP1 ISZERO PUSH2 0x438 JUMPI PUSH1 0x0 DUP1 REVERT JUMPDEST POP PUSH2 0x453 PUSH1 0x4 DUP1 CALLDATASIZE SUB DUP2 ADD SWAP1 PUSH2 0x44E SWAP2 SWAP1 PUSH2 0x3097 JUMP JUMPDEST PUSH2 0xF11 JUMP JUMPDEST PUSH1 0x40 MLOAD PUSH2 0x460 SWAP2 SWAP1 PUSH2 0x2D91 JUMP JUMPDEST PUSH1 0x40 MLOAD DUP1 SWAP2 SUB SWAP1 RETURN JUMPDEST CALLVALUE DUP1 ISZERO PUSH2 0x475 JUMPI PUSH1 0x0 DUP1 REVERT JUMPDEST POP PUSH2 0x490 PUSH1 0x4 DUP1 CALLDATASIZE SUB DUP2 ADD SWAP1 PUSH2 0x48B SWAP2 SWAP1 PUSH2 0x2D42 JUMP JUMPDEST PUSH2 0xF30 JUMP JUMPDEST PUSH1 0x40 MLOAD PUSH2 0x49D SWAP2 SWAP1 PUSH2 0x2FCD JUMP JUMPDEST PUSH1 0x40 MLOAD DUP1 SWAP2 SUB SWAP1 RETURN JUMPDEST CALLVALUE DUP1 ISZERO PUSH2 0x4B2 JUMPI PUSH1 0x0 DUP1 REVERT JUMPDEST POP PUSH2 0x4CD PUSH1 0x4 DUP1 CALLDATASIZE SUB DUP2 ADD SWAP1 PUSH2 0x4C8 SWAP2 SWAP1 PUSH2 0x3055 JUMP JUMPDEST PUSH2 0xF5E JUMP JUMPDEST STOP JUMPDEST CALLVALUE DUP1 ISZERO PUSH2 0x4DB JUMPI PUSH1 0x0 DUP1 REVERT JUMPDEST POP PUSH2 0x4F6 PUSH1 0x4 DUP1 CALLDATASIZE SUB DUP2 ADD SWAP1 PUSH2 0x4F1 SWAP2 SWAP1 PUSH2 0x3097 JUMP JUMPDEST PUSH2 0x10E5 JUMP JUMPDEST PUSH1 0x40 MLOAD PUSH2 0x503 SWAP2 SWAP1 PUSH2 0x2D91 JUMP JUMPDEST PUSH1 0x40 MLOAD DUP1 SWAP2 SUB SWAP1 RETURN JUMPDEST CALLVALUE DUP1 ISZERO PUSH2 0x518 JUMPI PUSH1 0x0 DUP1 REVERT JUMPDEST POP PUSH2 0x533 PUSH1 0x4 DUP1 CALLDATASIZE SUB DUP2 ADD SWAP1 PUSH2 0x52E SWAP2 SWAP1 PUSH2 0x3097 JUMP JUMPDEST PUSH2 0x1103 JUMP JUMPDEST PUSH1 0x40 MLOAD PUSH2 0x540 SWAP2 SWAP1 PUSH2 0x3147 JUMP JUMPDEST PUSH1 0x40 MLOAD DUP1 SWAP2 SUB SWAP1 RETURN JUMPDEST CALLVALUE DUP1 ISZERO PUSH2 0x555 JUMPI PUSH1 0x0 DUP1 REVERT JUMPDEST POP PUSH2 0x55E PUSH2 0x1140 JUMP JUMPDEST PUSH1 0x40 MLOAD PUSH2 0x56B SWAP2 SWAP1 PUSH2 0x2D91 JUMP JUMPDEST PUSH1 0x40 MLOAD DUP1 SWAP2 SUB SWAP1 RETURN JUMPDEST CALLVALUE DUP1 ISZERO PUSH2 0x580 JUMPI PUSH1 0x0 DUP1 REVERT JUMPDEST POP PUSH2 0x59B PUSH1 0x4 DUP1 CALLDATASIZE SUB DUP2 ADD SWAP1 PUSH2 0x596 SWAP2 SWAP1 PUSH2 0x2F71 JUMP JUMPDEST PUSH2 0x1148 JUMP JUMPDEST STOP JUMPDEST CALLVALUE DUP1 ISZERO PUSH2 0x5A9 JUMPI PUSH1 0x0 DUP1 REVERT JUMPDEST POP PUSH2 0x5B2 PUSH2 0x1297 JUMP JUMPDEST PUSH1 0x40 MLOAD PUSH2 0x5BF SWAP2 SWAP1 PUSH2 0x2D91 JUMP JUMPDEST PUSH1 0x40 MLOAD DUP1 SWAP2 SUB SWAP1 RETURN JUMPDEST CALLVALUE DUP1 ISZERO PUSH2 0x5D4 JUMPI PUSH1 0x0 DUP1 REVERT JUMPDEST POP PUSH2 0x5EF PUSH1 0x4 DUP1 CALLDATASIZE SUB DUP2 ADD SWAP1 PUSH2 0x5EA SWAP2 SWAP1 PUSH2 0x3097 JUMP JUMPDEST PUSH2 0x129D JUMP JUMPDEST STOP JUMPDEST CALLVALUE DUP1 ISZERO PUSH2 0x5FD JUMPI PUSH1 0x0 DUP1 REVERT JUMPDEST POP PUSH2 0x618 PUSH1 0x4 DUP1 CALLDATASIZE SUB DUP2 ADD SWAP1 PUSH2 0x613 SWAP2 SWAP1 PUSH2 0x3097 JUMP JUMPDEST PUSH2 0x12A9 JUMP JUMPDEST PUSH1 0x40 MLOAD PUSH2 0x625 SWAP2 SWAP1 PUSH2 0x2D91 JUMP JUMPDEST PUSH1 0x40 MLOAD DUP1 SWAP2 SUB SWAP1 RETURN JUMPDEST PUSH2 0x648 PUSH1 0x4 DUP1 CALLDATASIZE SUB DUP2 ADD SWAP1 PUSH2 0x643 SWAP2 SWAP1 PUSH2 0x2D42 JUMP JUMPDEST PUSH2 0x12CC JUMP JUMPDEST STOP JUMPDEST CALLVALUE DUP1 ISZERO PUSH2 0x656 JUMPI PUSH1 0x0 DUP1 REVERT JUMPDEST POP PUSH2 0x671 PUSH1 0x4 DUP1 CALLDATASIZE SUB DUP2 ADD SWAP1 PUSH2 0x66C SWAP2 SWAP1 PUSH2 0x2D42 JUMP JUMPDEST PUSH2 0x13AF JUMP JUMPDEST STOP JUMPDEST PUSH1 0x0 PUSH2 0x680 DUP5 DUP5 DUP5 PUSH2 0x14BE JUMP JUMPDEST SWAP1 POP TIMESTAMP PUSH1 0x4 PUSH1 0x0 DUP7 DUP2 MSTORE PUSH1 0x20 ADD SWAP1 DUP2 MSTORE PUSH1 0x20 ADD PUSH1 0x0 KECCAK256 PUSH1 0x1 ADD PUSH1 0x0 DUP4 DUP2 MSTORE PUSH1 0x20 ADD SWAP1 DUP2 MSTORE PUSH1 0x20 ADD PUSH1 0x0 KECCAK256 DUP2 SWAP1 SSTORE POP POP POP POP POP JUMP JUMPDEST PUSH1 0x0 PUSH2 0x6DA DUP3 PUSH1 0x0 DUP1 DUP7 DUP2 MSTORE PUSH1 0x20 ADD SWAP1 DUP2 MSTORE PUSH1 0x20 ADD PUSH1 0x0 KECCAK256 PUSH2 0x15D5 SWAP1 SWAP2 SWAP1 PUSH4 0xFFFFFFFF AND JUMP JUMPDEST SWAP1 POP SWAP3 SWAP2 POP POP JUMP JUMPDEST PUSH1 0x0 PUSH2 0x6EE DUP4 DUP4 PUSH2 0x164F JUMP JUMPDEST SWAP1 POP TIMESTAMP PUSH1 0x4 PUSH1 0x0 DUP6 DUP2 MSTORE PUSH1 0x20 ADD SWAP1 DUP2 MSTORE PUSH1 0x20 ADD PUSH1 0x0 KECCAK256 PUSH1 0x1 ADD PUSH1 0x0 DUP4 DUP2 MSTORE PUSH1 0x20 ADD SWAP1 DUP2 MSTORE PUSH1 0x20 ADD PUSH1 0x0 KECCAK256 DUP2 SWAP1 SSTORE POP POP POP POP JUMP JUMPDEST PUSH1 0x3 PUSH1 0x0 SWAP1 SLOAD SWAP1 PUSH2 0x100 EXP SWAP1 DIV PUSH20 0xFFFFFFFFFFFFFFFFFFFFFFFFFFFFFFFFFFFFFFFF AND DUP2 JUMP JUMPDEST PUSH1 0x0 PUSH1 0x5 PUSH1 0x0 DUP2 SLOAD DUP1 SWAP3 SWAP2 SWAP1 PUSH2 0x75C SWAP1 PUSH2 0x3191 JUMP JUMPDEST SWAP2 SWAP1 POP SSTORE SWAP1 POP PUSH2 0x76C DUP2 DUP5 PUSH2 0x1761 JUMP JUMPDEST DUP2 PUSH1 0x4 PUSH1 0x0 DUP4 DUP2 MSTORE PUSH1 0x20 ADD SWAP1 DUP2 MSTORE PUSH1 0x20 ADD PUSH1 0x0 KECCAK256 PUSH1 0x0 ADD DUP2 SWAP1 SSTORE POP SWAP3 SWAP2 POP POP JUMP JUMPDEST PUSH1 0x0 PUSH2 0x79C DUP7 DUP7 DUP7 DUP7 DUP7 PUSH2 0x1840 JUMP JUMPDEST SWAP1 POP TIMESTAMP PUSH1 0x4 PUSH1 0x0 DUP9 DUP2 MSTORE PUSH1 0x20 ADD SWAP1 DUP2 MSTORE PUSH1 0x20 ADD PUSH1 0x0 KECCAK256 PUSH1 0x1 ADD PUSH1 0x0 DUP4 DUP2 MSTORE PUSH1 0x20 ADD SWAP1 DUP2 MSTORE PUSH1 0x20 ADD PUSH1 0x0 KECCAK256 DUP2 SWAP1 SSTORE POP POP POP POP POP POP POP JUMP JUMPDEST PUSH1 0x0 DUP3 PUSH1 0x0 PUSH20 0xFFFFFFFFFFFFFFFFFFFFFFFFFFFFFFFFFFFFFFFF AND PUSH1 0x1 PUSH1 0x0 DUP4 DUP2 MSTORE PUSH1 0x20 ADD SWAP1 DUP2 MSTORE PUSH1 0x20 ADD PUSH1 0x0 KECCAK256 PUSH1 0x0 SWAP1 SLOAD SWAP1 PUSH2 0x100 EXP SWAP1 DIV PUSH20 0xFFFFFFFFFFFFFFFFFFFFFFFFFFFFFFFFFFFFFFFF AND PUSH20 0xFFFFFFFFFFFFFFFFFFFFFFFFFFFFFFFFFFFFFFFF AND SUB PUSH2 0x86E JUMPI PUSH1 0x40 MLOAD PUSH32 0x29F057900000000000000000000000000000000000000000000000000000000 DUP2 MSTORE PUSH1 0x4 ADD PUSH1 0x40 MLOAD DUP1 SWAP2 SUB SWAP1 REVERT JUMPDEST PUSH1 0x1 PUSH1 0xFF AND DUP4 PUSH1 0x0 ADD CALLDATALOAD LT DUP1 PUSH2 0x88B JUMPI POP PUSH1 0xC PUSH1 0xFF AND DUP4 PUSH1 0x0 ADD CALLDATALOAD GT JUMPDEST ISZERO PUSH2 0x8C2 JUMPI PUSH1 0x40 MLOAD PUSH32 0xECF64F1200000000000000000000000000000000000000000000000000000000 DUP2 MSTORE PUSH1 0x4 ADD PUSH1 0x40 MLOAD DUP1 SWAP2 SUB SWAP1 REVERT JUMPDEST PUSH1 0x0 PUSH2 0x8CD DUP6 PUSH2 0xF11 JUMP JUMPDEST SWAP1 POP PUSH1 0x0 DUP2 SUB PUSH2 0x909 JUMPI PUSH1 0x40 MLOAD PUSH32 0xC8B02E0100000000000000000000000000000000000000000000000000000000 DUP2 MSTORE PUSH1 0x4 ADD PUSH1 0x40 MLOAD DUP1 SWAP2 SUB SWAP1 REVERT JUMPDEST PUSH1 0x0 PUSH2 0x914 DUP7 PUSH2 0x12A9 JUMP JUMPDEST SWAP1 POP DUP1 DUP6 PUSH1 0x20 ADD CALLDATALOAD EQ PUSH2 0x9EE JUMPI PUSH1 0x0 PUSH1 0x4 PUSH1 0x0 DUP9 DUP2 MSTORE PUSH1 0x20 ADD SWAP1 DUP2 MSTORE PUSH1 0x20 ADD PUSH1 0x0 KECCAK256 PUSH1 0x1 ADD PUSH1 0x0 DUP8 PUSH1 0x20 ADD CALLDATALOAD DUP2 MSTORE PUSH1 0x20 ADD SWAP1 DUP2 MSTORE PUSH1 0x20 ADD PUSH1 0x0 KECCAK256 SLOAD SWAP1 POP PUSH1 0x0 PUSH1 0x4 PUSH1 0x0 DUP10 DUP2 MSTORE PUSH1 0x20 ADD SWAP1 DUP2 MSTORE PUSH1 0x20 ADD PUSH1 0x0 KECCAK256 PUSH1 0x0 ADD SLOAD SWAP1 POP PUSH1 0x0 DUP3 SUB PUSH2 0x9A6 JUMPI PUSH1 0x40 MLOAD PUSH32 0x4D32958600000000000000000000000000000000000000000000000000000000 DUP2 MSTORE PUSH1 0x4 ADD PUSH1 0x40 MLOAD DUP1 SWAP2 SUB SWAP1 REVERT JUMPDEST DUP1 DUP3 PUSH2 0x9B2 SWAP2 SWAP1 PUSH2 0x31D9 JUMP JUMPDEST TIMESTAMP GT ISZERO PUSH2 0x9EB JUMPI PUSH1 0x40 MLOAD PUSH32 0x9581A99000000000000000000000000000000000000000000000000000000000 DUP2 MSTORE PUSH1 0x4 ADD PUSH1 0x40 MLOAD DUP1 SWAP2 SUB SWAP1 REVERT JUMPDEST POP POP JUMPDEST PUSH1 0x3 PUSH1 0x0 SWAP1 SLOAD SWAP1 PUSH2 0x100 EXP SWAP1 DIV PUSH20 0xFFFFFFFFFFFFFFFFFFFFFFFFFFFFFFFFFFFFFFFF AND PUSH20 0xFFFFFFFFFFFFFFFFFFFFFFFFFFFFFFFFFFFFFFFF AND PUSH4 0xA23F0199 PUSH1 0x40 MLOAD DUP1 PUSH1 0x40 ADD PUSH1 0x40 MSTORE DUP1 DUP9 PUSH1 0xA0 ADD PUSH1 0x0 PUSH1 0x8 DUP2 LT PUSH2 0xA4E JUMPI PUSH2 0xA4D PUSH2 0x320D JUMP JUMPDEST JUMPDEST PUSH1 0x20 MUL ADD CALLDATALOAD DUP2 MSTORE PUSH1 0x20 ADD DUP9 PUSH1 0xA0 ADD PUSH1 0x1 PUSH1 0x8 DUP2 LT PUSH2 0xA6F JUMPI PUSH2 0xA6E PUSH2 0x320D JUMP JUMPDEST JUMPDEST PUSH1 0x20 MUL ADD CALLDATALOAD DUP2 MSTORE POP PUSH1 0x40 MLOAD DUP1 PUSH1 0x40 ADD PUSH1 0x40 MSTORE DUP1 PUSH1 0x40 MLOAD DUP1 PUSH1 0x40 ADD PUSH1 0x40 MSTORE DUP1 DUP12 PUSH1 0xA0 ADD PUSH1 0x2 PUSH1 0x8 DUP2 LT PUSH2 0xAA4 JUMPI PUSH2 0xAA3 PUSH2 0x320D JUMP JUMPDEST JUMPDEST PUSH1 0x20 MUL ADD CALLDATALOAD DUP2 MSTORE PUSH1 0x20 ADD DUP12 PUSH1 0xA0 ADD PUSH1 0x3 PUSH1 0x8 DUP2 LT PUSH2 0xAC5 JUMPI PUSH2 0xAC4 PUSH2 0x320D JUMP JUMPDEST JUMPDEST PUSH1 0x20 MUL ADD CALLDATALOAD DUP2 MSTORE POP DUP2 MSTORE PUSH1 0x20 ADD PUSH1 0x40 MLOAD DUP1 PUSH1 0x40 ADD PUSH1 0x40 MSTORE DUP1 DUP12 PUSH1 0xA0 ADD PUSH1 0x4 PUSH1 0x8 DUP2 LT PUSH2 0xAF4 JUMPI PUSH2 0xAF3 PUSH2 0x320D JUMP JUMPDEST JUMPDEST PUSH1 0x20 MUL ADD CALLDATALOAD DUP2 MSTORE PUSH1 0x20 ADD DUP12 PUSH1 0xA0 ADD PUSH1 0x5 PUSH1 0x8 DUP2 LT PUSH2 0xB15 JUMPI PUSH2 0xB14 PUSH2 0x320D JUMP JUMPDEST JUMPDEST PUSH1 0x20 MUL ADD CALLDATALOAD DUP2 MSTORE POP DUP2 MSTORE POP PUSH1 0x40 MLOAD DUP1 PUSH1 0x40 ADD PUSH1 0x40 MSTORE DUP1 DUP11 PUSH1 0xA0 ADD PUSH1 0x6 PUSH1 0x8 DUP2 LT PUSH2 0xB42 JUMPI PUSH2 0xB41 PUSH2 0x320D JUMP JUMPDEST JUMPDEST PUSH1 0x20 MUL ADD CALLDATALOAD DUP2 MSTORE PUSH1 0x20 ADD DUP11 PUSH1 0xA0 ADD PUSH1 0x7 PUSH1 0x8 DUP2 LT PUSH2 0xB63 JUMPI PUSH2 0xB62 PUSH2 0x320D JUMP JUMPDEST JUMPDEST PUSH1 0x20 MUL ADD CALLDATALOAD DUP2 MSTORE POP PUSH1 0x40 MLOAD DUP1 PUSH1 0x80 ADD PUSH1 0x40 MSTORE DUP1 DUP12 PUSH1 0x20 ADD CALLDATALOAD DUP2 MSTORE PUSH1 0x20 ADD DUP12 PUSH1 0x40 ADD CALLDATALOAD DUP2 MSTORE PUSH1 0x20 ADD PUSH2 0xB97 DUP13 PUSH1 0x60 ADD CALLDATALOAD PUSH2 0x1978 JUMP JUMPDEST DUP2 MSTORE PUSH1 0x20 ADD PUSH2 0xBA9 DUP13 PUSH1 0x80 ADD CALLDATALOAD PUSH2 0x1978 JUMP JUMPDEST DUP2 MSTORE POP DUP11 PUSH1 0x0 ADD CALLDATALOAD PUSH1 0x40 MLOAD DUP7 PUSH4 0xFFFFFFFF AND PUSH1 0xE0 SHL DUP2 MSTORE PUSH1 0x4 ADD PUSH2 0xBD1 SWAP6 SWAP5 SWAP4 SWAP3 SWAP2 SWAP1 PUSH2 0x3469 JUMP JUMPDEST PUSH1 0x20 PUSH1 0x40 MLOAD DUP1 DUP4 SUB DUP2 DUP7 GAS STATICCALL ISZERO DUP1 ISZERO PUSH2 0xBEE JUMPI RETURNDATASIZE PUSH1 0x0 DUP1 RETURNDATACOPY RETURNDATASIZE PUSH1 0x0 REVERT JUMPDEST POP POP POP POP PUSH1 0x40 MLOAD RETURNDATASIZE PUSH1 0x1F NOT PUSH1 0x1F DUP3 ADD AND DUP3 ADD DUP1 PUSH1 0x40 MSTORE POP DUP2 ADD SWAP1 PUSH2 0xC12 SWAP2 SWAP1 PUSH2 0x34EB JUMP JUMPDEST SWAP4 POP POP POP POP SWAP3 SWAP2 POP POP JUMP JUMPDEST ADDRESS PUSH20 0xFFFFFFFFFFFFFFFFFFFFFFFFFFFFFFFFFFFFFFFF AND PUSH4 0x1783EFC3 DUP4 DUP4 PUSH1 0x40 MLOAD DUP4 PUSH4 0xFFFFFFFF AND PUSH1 0xE0 SHL DUP2 MSTORE PUSH1 0x4 ADD PUSH2 0xC58 SWAP3 SWAP2 SWAP1 PUSH2 0x3518 JUMP JUMPDEST PUSH1 0x0 PUSH1 0x40 MLOAD DUP1 DUP4 SUB DUP2 PUSH1 0x0 DUP8 DUP1 EXTCODESIZE ISZERO DUP1 ISZERO PUSH2 0xC72 JUMPI PUSH1 0x0 DUP1 REVERT JUMPDEST POP GAS CALL ISZERO DUP1 ISZERO PUSH2 0xC86 JUMPI RETURNDATASIZE PUSH1 0x0 DUP1 RETURNDATACOPY RETURNDATASIZE PUSH1 0x0 REVERT JUMPDEST POP POP POP POP POP POP JUMP JUMPDEST PUSH2 0xC98 DUP3 DUP3 PUSH2 0x19AF JUMP JUMPDEST POP POP JUMP JUMPDEST PUSH1 0x0 PUSH1 0x5 PUSH1 0x0 DUP2 SLOAD DUP1 SWAP3 SWAP2 SWAP1 PUSH2 0xCB1 SWAP1 PUSH2 0x3191 JUMP JUMPDEST SWAP2 SWAP1 POP SSTORE SWAP1 POP PUSH2 0xCC1 DUP2 CALLER PUSH2 0x1761 JUMP JUMPDEST PUSH2 0xE10 PUSH1 0x4 PUSH1 0x0 DUP4 DUP2 MSTORE PUSH1 0x20 ADD SWAP1 DUP2 MSTORE PUSH1 0x20 ADD PUSH1 0x0 KECCAK256 PUSH1 0x0 ADD DUP2 SWAP1 SSTORE POP SWAP1 JUMP JUMPDEST PUSH1 0x0 PUSH1 0x5 PUSH1 0x0 DUP2 SLOAD DUP1 SWAP3 SWAP2 SWAP1 PUSH2 0xCF6 SWAP1 PUSH2 0x3191 JUMP JUMPDEST SWAP2 SWAP1 POP SSTORE SWAP1 POP PUSH2 0xD06 DUP2 DUP4 PUSH2 0x1761 JUMP JUMPDEST PUSH2 0xE10 PUSH1 0x4 PUSH1 0x0 DUP4 DUP2 MSTORE PUSH1 0x20 ADD SWAP1 DUP2 MSTORE PUSH1 0x20 ADD PUSH1 0x0 KECCAK256 PUSH1 0x0 ADD DUP2 SWAP1 SSTORE POP SWAP2 SWAP1 POP JUMP JUMPDEST DUP2 PUSH1 0x80 ADD CALLDATALOAD PUSH1 0x6 SLOAD EQ PUSH2 0xD70 JUMPI PUSH1 0x40 MLOAD PUSH32 0x8C379A000000000000000000000000000000000000000000000000000000000 DUP2 MSTORE PUSH1 0x4 ADD PUSH2 0xD67 SWAP1 PUSH2 0x359E JUMP JUMPDEST PUSH1 0x40 MLOAD DUP1 SWAP2 SUB SWAP1 REVERT JUMPDEST PUSH1 0x4 PUSH1 0x0 DUP3 DUP2 MSTORE PUSH1 0x20 ADD SWAP1 DUP2 MSTORE PUSH1 0x20 ADD PUSH1 0x0 KECCAK256 PUSH1 0x2 ADD PUSH1 0x0 DUP4 PUSH1 0x40 ADD CALLDATALOAD DUP2 MSTORE PUSH1 0x20 ADD SWAP1 DUP2 MSTORE PUSH1 0x20 ADD PUSH1 0x0 KECCAK256 PUSH1 0x0 SWAP1 SLOAD SWAP1 PUSH2 0x100 EXP SWAP1 DIV PUSH1 0xFF AND ISZERO PUSH2 0xDE0 JUMPI PUSH1 0x40 MLOAD PUSH32 0x208B15E800000000000000000000000000000000000000000000000000000000 DUP2 MSTORE PUSH1 0x4 ADD PUSH1 0x40 MLOAD DUP1 SWAP2 SUB SWAP1 REVERT JUMPDEST PUSH2 0xDEA DUP2 DUP4 PUSH2 0x7D2 JUMP JUMPDEST PUSH2 0xE20 JUMPI PUSH1 0x40 MLOAD PUSH32 0x4AA6BC4000000000000000000000000000000000000000000000000000000000 DUP2 MSTORE PUSH1 0x4 ADD PUSH1 0x40 MLOAD DUP1 SWAP2 SUB SWAP1 REVERT JUMPDEST PUSH1 0x1 PUSH1 0x4 PUSH1 0x0 DUP4 DUP2 MSTORE PUSH1 0x20 ADD SWAP1 DUP2 MSTORE PUSH1 0x20 ADD PUSH1 0x0 KECCAK256 PUSH1 0x2 ADD PUSH1 0x0 DUP5 PUSH1 0x40 ADD CALLDATALOAD DUP2 MSTORE PUSH1 0x20 ADD SWAP1 DUP2 MSTORE PUSH1 0x20 ADD PUSH1 0x0 KECCAK256 PUSH1 0x0 PUSH2 0x100 EXP DUP2 SLOAD DUP2 PUSH1 0xFF MUL NOT AND SWAP1 DUP4 ISZERO ISZERO MUL OR SWAP1 SSTORE POP CALLER PUSH20 0xFFFFFFFFFFFFFFFFFFFFFFFFFFFFFFFFFFFFFFFF AND PUSH2 0x8FC DUP3 SWAP1 DUP2 ISZERO MUL SWAP1 PUSH1 0x40 MLOAD PUSH1 0x0 PUSH1 0x40 MLOAD DUP1 DUP4 SUB DUP2 DUP6 DUP9 DUP9 CALL SWAP4 POP POP POP POP ISZERO DUP1 ISZERO PUSH2 0xEAA JUMPI RETURNDATASIZE PUSH1 0x0 DUP1 RETURNDATACOPY RETURNDATASIZE PUSH1 0x0 REVERT JUMPDEST POP POP POP JUMP JUMPDEST PUSH1 0x0 DUP1 PUSH1 0x0 DUP4 DUP2 MSTORE PUSH1 0x20 ADD SWAP1 DUP2 MSTORE PUSH1 0x20 ADD PUSH1 0x0 KECCAK256 PUSH1 0x1 ADD SLOAD SWAP1 POP SWAP2 SWAP1 POP JUMP JUMPDEST PUSH1 0x0 PUSH2 0xEDC DUP6 DUP6 DUP6 DUP6 PUSH2 0x1AFA JUMP JUMPDEST SWAP1 POP TIMESTAMP PUSH1 0x4 PUSH1 0x0 DUP8 DUP2 MSTORE PUSH1 0x20 ADD SWAP1 DUP2 MSTORE PUSH1 0x20 ADD PUSH1 0x0 KECCAK256 PUSH1 0x1 ADD PUSH1 0x0 DUP4 DUP2 MSTORE PUSH1 0x20 ADD SWAP1 DUP2 MSTORE PUSH1 0x20 ADD PUSH1 0x0 KECCAK256 DUP2 SWAP1 SSTORE POP POP POP POP POP POP JUMP JUMPDEST PUSH1 0x0 DUP1 PUSH1 0x0 DUP4 DUP2 MSTORE PUSH1 0x20 ADD SWAP1 DUP2 MSTORE PUSH1 0x20 ADD PUSH1 0x0 KECCAK256 PUSH1 0x0 ADD SLOAD SWAP1 POP SWAP2 SWAP1 POP JUMP JUMPDEST PUSH1 0x0 PUSH2 0xF56 DUP3 PUSH1 0x0 DUP1 DUP7 DUP2 MSTORE PUSH1 0x20 ADD SWAP1 DUP2 MSTORE PUSH1 0x20 ADD PUSH1 0x0 KECCAK256 PUSH2 0x1C2D SWAP1 SWAP2 SWAP1 PUSH4 0xFFFFFFFF AND JUMP JUMPDEST SWAP1 POP SWAP3 SWAP2 POP POP JUMP JUMPDEST DUP2 PUSH1 0x80 ADD CALLDATALOAD PUSH1 0x6 SLOAD EQ PUSH2 0xFA6 JUMPI PUSH1 0x40 MLOAD PUSH32 0x8C379A000000000000000000000000000000000000000000000000000000000 DUP2 MSTORE PUSH1 0x4 ADD PUSH2 0xF9D SWAP1 PUSH2 0x359E JUMP JUMPDEST PUSH1 0x40 MLOAD DUP1 SWAP2 SUB SWAP1 REVERT JUMPDEST PUSH1 0x4 PUSH1 0x0 DUP3 DUP2 MSTORE PUSH1 0x20 ADD SWAP1 DUP2 MSTORE PUSH1 0x20 ADD PUSH1 0x0 KECCAK256 PUSH1 0x2 ADD PUSH1 0x0 DUP4 PUSH1 0x40 ADD CALLDATALOAD DUP2 MSTORE PUSH1 0x20 ADD SWAP1 DUP2 MSTORE PUSH1 0x20 ADD PUSH1 0x0 KECCAK256 PUSH1 0x0 SWAP1 SLOAD SWAP1 PUSH2 0x100 EXP SWAP1 DIV PUSH1 0xFF AND ISZERO PUSH2 0x1016 JUMPI PUSH1 0x40 MLOAD PUSH32 0x208B15E800000000000000000000000000000000000000000000000000000000 DUP2 MSTORE PUSH1 0x4 ADD PUSH1 0x40 MLOAD DUP1 SWAP2 SUB SWAP1 REVERT JUMPDEST PUSH2 0x1020 DUP2 DUP4 PUSH2 0x7D2 JUMP JUMPDEST PUSH2 0x1056 JUMPI PUSH1 0x40 MLOAD PUSH32 0x4AA6BC4000000000000000000000000000000000000000000000000000000000 DUP2 MSTORE PUSH1 0x4 ADD PUSH1 0x40 MLOAD DUP1 SWAP2 SUB SWAP1 REVERT JUMPDEST PUSH1 0x1 PUSH1 0x4 PUSH1 0x0 DUP4 DUP2 MSTORE PUSH1 0x20 ADD SWAP1 DUP2 MSTORE PUSH1 0x20 ADD PUSH1 0x0 KECCAK256 PUSH1 0x2 ADD PUSH1 0x0 DUP5 PUSH1 0x40 ADD CALLDATALOAD DUP2 MSTORE PUSH1 0x20 ADD SWAP1 DUP2 MSTORE PUSH1 0x20 ADD PUSH1 0x0 KECCAK256 PUSH1 0x0 PUSH2 0x100 EXP DUP2 SLOAD DUP2 PUSH1 0xFF MUL NOT AND SWAP1 DUP4 ISZERO ISZERO MUL OR SWAP1 SSTORE POP CALLER PUSH20 0xFFFFFFFFFFFFFFFFFFFFFFFFFFFFFFFFFFFFFFFF AND PUSH2 0x8FC DUP3 SWAP1 DUP2 ISZERO MUL SWAP1 PUSH1 0x40 MLOAD PUSH1 0x0 PUSH1 0x40 MLOAD DUP1 DUP4 SUB DUP2 DUP6 DUP9 DUP9 CALL SWAP4 POP POP POP POP ISZERO DUP1 ISZERO PUSH2 0x10E0 JUMPI RETURNDATASIZE PUSH1 0x0 DUP1 RETURNDATACOPY RETURNDATASIZE PUSH1 0x0 REVERT JUMPDEST POP POP POP JUMP JUMPDEST PUSH1 0x4 PUSH1 0x20 MSTORE DUP1 PUSH1 0x0 MSTORE PUSH1 0x40 PUSH1 0x0 KECCAK256 PUSH1 0x0 SWAP2 POP SWAP1 POP DUP1 PUSH1 0x0 ADD SLOAD SWAP1 POP DUP2 JUMP JUMPDEST PUSH1 0x0 PUSH1 0x1 PUSH1 0x0 DUP4 DUP2 MSTORE PUSH1 0x20 ADD SWAP1 DUP2 MSTORE PUSH1 0x20 ADD PUSH1 0x0 KECCAK256 PUSH1 0x0 SWAP1 SLOAD SWAP1 PUSH2 0x100 EXP SWAP1 DIV PUSH20 0xFFFFFFFFFFFFFFFFFFFFFFFFFFFFFFFFFFFFFFFF AND SWAP1 POP SWAP2 SWAP1 POP JUMP JUMPDEST PUSH1 0x0 SELFBALANCE SWAP1 POP SWAP1 JUMP JUMPDEST PUSH1 0x4 PUSH1 0x0 DUP4 DUP2 MSTORE PUSH1 0x20 ADD SWAP1 DUP2 MSTORE PUSH1 0x20 ADD PUSH1 0x0 KECCAK256 PUSH1 0x2 ADD PUSH1 0x0 DUP3 PUSH1 0x40 ADD CALLDATALOAD DUP2 MSTORE PUSH1 0x20 ADD SWAP1 DUP2 MSTORE PUSH1 0x20 ADD PUSH1 0x0 KECCAK256 PUSH1 0x0 SWAP1 SLOAD SWAP1 PUSH2 0x100 EXP SWAP1 DIV PUSH1 0xFF AND ISZERO PUSH2 0x11B8 JUMPI PUSH1 0x40 MLOAD PUSH32 0x208B15E800000000000000000000000000000000000000000000000000000000 DUP2 MSTORE PUSH1 0x4 ADD PUSH1 0x40 MLOAD DUP1 SWAP2 SUB SWAP1 REVERT JUMPDEST PUSH2 0x11C2 DUP3 DUP3 PUSH2 0x7D2 JUMP JUMPDEST PUSH2 0x11F8 JUMPI PUSH1 0x40 MLOAD PUSH32 0x4AA6BC4000000000000000000000000000000000000000000000000000000000 DUP2 MSTORE PUSH1 0x4 ADD PUSH1 0x40 MLOAD DUP1 SWAP2 SUB SWAP1 REVERT JUMPDEST PUSH1 0x1 PUSH1 0x4 PUSH1 0x0 DUP5 DUP2 MSTORE PUSH1 0x20 ADD SWAP1 DUP2 MSTORE PUSH1 0x20 ADD PUSH1 0x0 KECCAK256 PUSH1 0x2 ADD PUSH1 0x0 DUP4 PUSH1 0x40 ADD CALLDATALOAD DUP2 MSTORE PUSH1 0x20 ADD SWAP1 DUP2 MSTORE PUSH1 0x20 ADD PUSH1 0x0 KECCAK256 PUSH1 0x0 PUSH2 0x100 EXP DUP2 SLOAD DUP2 PUSH1 0xFF MUL NOT AND SWAP1 DUP4 ISZERO ISZERO MUL OR SWAP1 SSTORE POP DUP1 PUSH1 0x80 ADD CALLDATALOAD DUP2 PUSH1 0x20 ADD CALLDATALOAD DUP4 PUSH32 0xC32E14CFE81A05D371C248D22DE6B7AE849E981B76A1F8842E7B6DA73FC405A DUP5 PUSH1 0x0 ADD CALLDATALOAD DUP6 PUSH1 0x40 ADD CALLDATALOAD DUP7 PUSH1 0x60 ADD CALLDATALOAD DUP8 PUSH1 0xA0 ADD PUSH1 0x40 MLOAD PUSH2 0x128B SWAP5 SWAP4 SWAP3 SWAP2 SWAP1 PUSH2 0x35D8 JUMP JUMPDEST PUSH1 0x40 MLOAD DUP1 SWAP2 SUB SWAP1 LOG4 POP POP JUMP JUMPDEST PUSH1 0x5 SLOAD DUP2 JUMP JUMPDEST PUSH2 0x12A6 DUP2 PUSH2 0x1C50 JUMP JUMPDEST POP JUMP JUMPDEST PUSH1 0x0 PUSH2 0x12C5 PUSH1 0x0 DUP1 DUP5 DUP2 MSTORE PUSH1 0x20 ADD SWAP1 DUP2 MSTORE PUSH1 0x20 ADD PUSH1 0x0 KECCAK256 PUSH2 0x1E07 JUMP JUMPDEST SWAP1 POP SWAP2 SWAP1 POP JUMP JUMPDEST PUSH1 0x1 DUP3 EQ DUP1 PUSH2 0x12DB JUMPI POP PUSH1 0xA DUP3 EQ JUMPDEST DUP1 PUSH2 0x12E6 JUMPI POP PUSH1 0x64 DUP3 EQ JUMPDEST PUSH2 0x1325 JUMPI PUSH1 0x40 MLOAD PUSH32 0x8C379A000000000000000000000000000000000000000000000000000000000 DUP2 MSTORE PUSH1 0x4 ADD PUSH2 0x131C SWAP1 PUSH2 0x366A JUMP JUMPDEST PUSH1 0x40 MLOAD DUP1 SWAP2 SUB SWAP1 REVERT JUMPDEST PUSH1 0x1 CALLVALUE PUSH2 0x1332 SWAP2 SWAP1 PUSH2 0x368A JUMP JUMPDEST DUP3 GT ISZERO PUSH2 0x133E JUMPI PUSH1 0x0 DUP1 REVERT JUMPDEST ADDRESS PUSH20 0xFFFFFFFFFFFFFFFFFFFFFFFFFFFFFFFFFFFFFFFF AND PUSH4 0x1783EFC3 DUP4 DUP4 PUSH1 0x40 MLOAD DUP4 PUSH4 0xFFFFFFFF AND PUSH1 0xE0 SHL DUP2 MSTORE PUSH1 0x4 ADD PUSH2 0x1379 SWAP3 SWAP2 SWAP1 PUSH2 0x3518 JUMP JUMPDEST PUSH1 0x0 PUSH1 0x40 MLOAD DUP1 DUP4 SUB DUP2 PUSH1 0x0 DUP8 DUP1 EXTCODESIZE ISZERO DUP1 ISZERO PUSH2 0x1393 JUMPI PUSH1 0x0 DUP1 REVERT JUMPDEST POP GAS CALL ISZERO DUP1 ISZERO PUSH2 0x13A7 JUMPI RETURNDATASIZE PUSH1 0x0 DUP1 RETURNDATACOPY RETURNDATASIZE PUSH1 0x0 REVERT JUMPDEST POP POP POP POP POP POP JUMP JUMPDEST DUP2 CALLER PUSH20 0xFFFFFFFFFFFFFFFFFFFFFFFFFFFFFFFFFFFFFFFF AND PUSH1 0x1 PUSH1 0x0 DUP4 DUP2 MSTORE PUSH1 0x20 ADD SWAP1 DUP2 MSTORE PUSH1 0x20 ADD PUSH1 0x0 KECCAK256 PUSH1 0x0 SWAP1 SLOAD SWAP1 PUSH2 0x100 EXP SWAP1 DIV PUSH20 0xFFFFFFFFFFFFFFFFFFFFFFFFFFFFFFFFFFFFFFFF AND PUSH20 0xFFFFFFFFFFFFFFFFFFFFFFFFFFFFFFFFFFFFFFFF AND EQ PUSH2 0x1448 JUMPI PUSH1 0x40 MLOAD PUSH32 0xBB9BF27800000000000000000000000000000000000000000000000000000000 DUP2 MSTORE PUSH1 0x4 ADD PUSH1 0x40 MLOAD DUP1 SWAP2 SUB SWAP1 REVERT JUMPDEST PUSH1 0x0 PUSH1 0x4 PUSH1 0x0 DUP6 DUP2 MSTORE PUSH1 0x20 ADD SWAP1 DUP2 MSTORE PUSH1 0x20 ADD PUSH1 0x0 KECCAK256 PUSH1 0x0 ADD SLOAD SWAP1 POP DUP3 PUSH1 0x4 PUSH1 0x0 DUP7 DUP2 MSTORE PUSH1 0x20 ADD SWAP1 DUP2 MSTORE PUSH1 0x20 ADD PUSH1 0x0 KECCAK256 PUSH1 0x0 ADD DUP2 SWAP1 SSTORE POP DUP4 PUSH32 0x264B2A8F6763C084235FE832BA903482B2EF1A521336881FC75B987C2DFD29C5 DUP3 DUP6 PUSH1 0x40 MLOAD PUSH2 0x14B0 SWAP3 SWAP2 SWAP1 PUSH2 0x3518 JUMP JUMPDEST PUSH1 0x40 MLOAD DUP1 SWAP2 SUB SWAP1 LOG2 POP POP POP POP JUMP JUMPDEST PUSH1 0x0 DUP4 CALLER PUSH20 0xFFFFFFFFFFFFFFFFFFFFFFFFFFFFFFFFFFFFFFFF AND PUSH1 0x1 PUSH1 0x0 DUP4 DUP2 MSTORE PUSH1 0x20 ADD SWAP1 DUP2 MSTORE PUSH1 0x20 ADD PUSH1 0x0 KECCAK256 PUSH1 0x0 SWAP1 SLOAD SWAP1 PUSH2 0x100 EXP SWAP1 DIV PUSH20 0xFFFFFFFFFFFFFFFFFFFFFFFFFFFFFFFFFFFFFFFF AND PUSH20 0xFFFFFFFFFFFFFFFFFFFFFFFFFFFFFFFFFFFFFFFF AND EQ PUSH2 0x1559 JUMPI PUSH1 0x40 MLOAD PUSH32 0xBB9BF27800000000000000000000000000000000000000000000000000000000 DUP2 MSTORE PUSH1 0x4 ADD PUSH1 0x40 MLOAD DUP1 SWAP2 SUB SWAP1 REVERT JUMPDEST PUSH1 0x0 PUSH2 0x1564 DUP7 PUSH2 0xF11 JUMP JUMPDEST SWAP1 POP PUSH2 0x158C DUP6 DUP6 PUSH1 0x0 DUP1 DUP11 DUP2 MSTORE PUSH1 0x20 ADD SWAP1 DUP2 MSTORE PUSH1 0x20 ADD PUSH1 0x0 KECCAK256 PUSH2 0x1E2A SWAP1 SWAP3 SWAP2 SWAP1 PUSH4 0xFFFFFFFF AND JUMP JUMPDEST SWAP3 POP DUP6 PUSH32 0x61E5E8054E3DAF084A0C6C646C065E8BF5E7CA4D5567BDA942309BD1652F349D DUP3 DUP8 DUP8 DUP8 PUSH1 0x40 MLOAD PUSH2 0x15C4 SWAP5 SWAP4 SWAP3 SWAP2 SWAP1 PUSH2 0x3730 JUMP JUMPDEST PUSH1 0x40 MLOAD DUP1 SWAP2 SUB SWAP1 LOG2 POP POP SWAP4 SWAP3 POP POP POP JUMP JUMPDEST PUSH1 0x0 DUP1 DUP4 PUSH1 0x3 ADD PUSH1 0x0 DUP5 DUP2 MSTORE PUSH1 0x20 ADD SWAP1 DUP2 MSTORE PUSH1 0x20 ADD PUSH1 0x0 KECCAK256 SLOAD SUB PUSH2 0x1625 JUMPI PUSH1 0x40 MLOAD PUSH32 0x7204756C00000000000000000000000000000000000000000000000000000000 DUP2 MSTORE PUSH1 0x4 ADD PUSH1 0x40 MLOAD DUP1 SWAP2 SUB SWAP1 REVERT JUMPDEST PUSH1 0x1 DUP4 PUSH1 0x3 ADD PUSH1 0x0 DUP5 DUP2 MSTORE PUSH1 0x20 ADD SWAP1 DUP2 MSTORE PUSH1 0x20 ADD PUSH1 0x0 KECCAK256 SLOAD PUSH2 0x1647 SWAP2 SWAP1 PUSH2 0x368A JUMP JUMPDEST SWAP1 POP SWAP3 SWAP2 POP POP JUMP JUMPDEST PUSH1 0x0 DUP3 CALLER PUSH20 0xFFFFFFFFFFFFFFFFFFFFFFFFFFFFFFFFFFFFFFFF AND PUSH1 0x1 PUSH1 0x0 DUP4 DUP2 MSTORE PUSH1 0x20 ADD SWAP1 DUP2 MSTORE PUSH1 0x20 ADD PUSH1 0x0 KECCAK256 PUSH1 0x0 SWAP1 SLOAD SWAP1 PUSH2 0x100 EXP SWAP1 DIV PUSH20 0xFFFFFFFFFFFFFFFFFFFFFFFFFFFFFFFFFFFFFFFF AND PUSH20 0xFFFFFFFFFFFFFFFFFFFFFFFFFFFFFFFFFFFFFFFF AND EQ PUSH2 0x16EA JUMPI PUSH1 0x40 MLOAD PUSH32 0xBB9BF27800000000000000000000000000000000000000000000000000000000 DUP2 MSTORE PUSH1 0x4 ADD PUSH1 0x40 MLOAD DUP1 SWAP2 SUB SWAP1 REVERT JUMPDEST PUSH1 0x0 PUSH2 0x16F5 DUP6 PUSH2 0xF11 JUMP JUMPDEST SWAP1 POP PUSH2 0x171B DUP5 PUSH1 0x0 DUP1 DUP9 DUP2 MSTORE PUSH1 0x20 ADD SWAP1 DUP2 MSTORE PUSH1 0x20 ADD PUSH1 0x0 KECCAK256 PUSH2 0x240E SWAP1 SWAP2 SWAP1 PUSH4 0xFFFFFFFF AND JUMP JUMPDEST SWAP3 POP DUP5 PUSH32 0x19239B3F93CD10558AAF11423AF70C77763BF54F52BCC75BFA74D4D13548CDE9 DUP3 DUP7 DUP7 PUSH1 0x40 MLOAD PUSH2 0x1751 SWAP4 SWAP3 SWAP2 SWAP1 PUSH2 0x3770 JUMP JUMPDEST PUSH1 0x40 MLOAD DUP1 SWAP2 SUB SWAP1 LOG2 POP POP SWAP3 SWAP2 POP POP JUMP JUMPDEST DUP1 PUSH1 0x1 PUSH1 0x0 DUP5 DUP2 MSTORE PUSH1 0x20 ADD SWAP1 DUP2 MSTORE PUSH1 0x20 ADD PUSH1 0x0 KECCAK256 PUSH1 0x0 PUSH2 0x100 EXP DUP2 SLOAD DUP2 PUSH20 0xFFFFFFFFFFFFFFFFFFFFFFFFFFFFFFFFFFFFFFFF MUL NOT AND SWAP1 DUP4 PUSH20 0xFFFFFFFFFFFFFFFFFFFFFFFFFFFFFFFFFFFFFFFF AND MUL OR SWAP1 SSTORE POP DUP2 PUSH32 0xF0ADFB94EAB6DAF835DEB69C5738FE636150C3DFD08094A76F39B963DC8CB05A PUSH1 0x40 MLOAD PUSH1 0x40 MLOAD DUP1 SWAP2 SUB SWAP1 LOG2 DUP1 PUSH20 0xFFFFFFFFFFFFFFFFFFFFFFFFFFFFFFFFFFFFFFFF AND PUSH1 0x0 PUSH20 0xFFFFFFFFFFFFFFFFFFFFFFFFFFFFFFFFFFFFFFFF AND DUP4 PUSH32 0xBA83579A0E79193EF649B9F5A8759D35AF086BA62A3E207B52E4A8AE30D49E3 PUSH1 0x40 MLOAD PUSH1 0x40 MLOAD DUP1 SWAP2 SUB SWAP1 LOG4 POP POP JUMP JUMPDEST PUSH1 0x0 DUP6 CALLER PUSH20 0xFFFFFFFFFFFFFFFFFFFFFFFFFFFFFFFFFFFFFFFF AND PUSH1 0x1 PUSH1 0x0 DUP4 DUP2 MSTORE PUSH1 0x20 ADD SWAP1 DUP2 MSTORE PUSH1 0x20 ADD PUSH1 0x0 KECCAK256 PUSH1 0x0 SWAP1 SLOAD SWAP1 PUSH2 0x100 EXP SWAP1 DIV PUSH20 0xFFFFFFFFFFFFFFFFFFFFFFFFFFFFFFFFFFFFFFFF AND PUSH20 0xFFFFFFFFFFFFFFFFFFFFFFFFFFFFFFFFFFFFFFFF AND EQ PUSH2 0x18DB JUMPI PUSH1 0x40 MLOAD PUSH32 0xBB9BF27800000000000000000000000000000000000000000000000000000000 DUP2 MSTORE PUSH1 0x4 ADD PUSH1 0x40 MLOAD DUP1 SWAP2 SUB SWAP1 REVERT JUMPDEST PUSH1 0x0 PUSH2 0x1901 DUP8 PUSH1 0x0 DUP1 DUP12 DUP2 MSTORE PUSH1 0x20 ADD SWAP1 DUP2 MSTORE PUSH1 0x20 ADD PUSH1 0x0 KECCAK256 PUSH2 0x15D5 SWAP1 SWAP2 SWAP1 PUSH4 0xFFFFFFFF AND JUMP JUMPDEST SWAP1 POP PUSH2 0x192D DUP8 DUP8 DUP8 DUP8 PUSH1 0x0 DUP1 DUP15 DUP2 MSTORE PUSH1 0x20 ADD SWAP1 DUP2 MSTORE PUSH1 0x20 ADD PUSH1 0x0 KECCAK256 PUSH2 0x266D SWAP1 SWAP5 SWAP4 SWAP3 SWAP2 SWAP1 PUSH4 0xFFFFFFFF AND JUMP JUMPDEST SWAP3 POP DUP8 PUSH32 0xEA3588E4A2A0C93D6A0E69DFEAF7496F43CCCCF02AD9CE0A5B7627CBCA4B61B1 DUP3 DUP10 DUP10 DUP8 PUSH1 0x40 MLOAD PUSH2 0x1965 SWAP5 SWAP4 SWAP3 SWAP2 SWAP1 PUSH2 0x37A7 JUMP JUMPDEST PUSH1 0x40 MLOAD DUP1 SWAP2 SUB SWAP1 LOG2 POP POP SWAP6 SWAP5 POP POP POP POP POP JUMP JUMPDEST PUSH1 0x0 PUSH1 0x8 DUP3 PUSH1 0x40 MLOAD PUSH1 0x20 ADD PUSH2 0x198D SWAP2 SWAP1 PUSH2 0x380D JUMP JUMPDEST PUSH1 0x40 MLOAD PUSH1 0x20 DUP2 DUP4 SUB SUB DUP2 MSTORE SWAP1 PUSH1 0x40 MSTORE DUP1 MLOAD SWAP1 PUSH1 0x20 ADD KECCAK256 PUSH1 0x0 SHR SWAP1 SHR SWAP1 POP SWAP2 SWAP1 POP JUMP JUMPDEST DUP2 CALLER PUSH20 0xFFFFFFFFFFFFFFFFFFFFFFFFFFFFFFFFFFFFFFFF AND PUSH1 0x1 PUSH1 0x0 DUP4 DUP2 MSTORE PUSH1 0x20 ADD SWAP1 DUP2 MSTORE PUSH1 0x20 ADD PUSH1 0x0 KECCAK256 PUSH1 0x0 SWAP1 SLOAD SWAP1 PUSH2 0x100 EXP SWAP1 DIV PUSH20 0xFFFFFFFFFFFFFFFFFFFFFFFFFFFFFFFFFFFFFFFF AND PUSH20 0xFFFFFFFFFFFFFFFFFFFFFFFFFFFFFFFFFFFFFFFF AND EQ PUSH2 0x1A48 JUMPI PUSH1 0x40 MLOAD PUSH32 0xBB9BF27800000000000000000000000000000000000000000000000000000000 DUP2 MSTORE PUSH1 0x4 ADD PUSH1 0x40 MLOAD DUP1 SWAP2 SUB SWAP1 REVERT JUMPDEST DUP2 PUSH1 0x2 PUSH1 0x0 DUP6 DUP2 MSTORE PUSH1 0x20 ADD SWAP1 DUP2 MSTORE PUSH1 0x20 ADD PUSH1 0x0 KECCAK256 PUSH1 0x0 PUSH2 0x100 EXP DUP2 SLOAD DUP2 PUSH20 0xFFFFFFFFFFFFFFFFFFFFFFFFFFFFFFFFFFFFFFFF MUL NOT AND SWAP1 DUP4 PUSH20 0xFFFFFFFFFFFFFFFFFFFFFFFFFFFFFFFFFFFFFFFF AND MUL OR SWAP1 SSTORE POP DUP2 PUSH20 0xFFFFFFFFFFFFFFFFFFFFFFFFFFFFFFFFFFFFFFFF AND CALLER PUSH20 0xFFFFFFFFFFFFFFFFFFFFFFFFFFFFFFFFFFFFFFFF AND DUP5 PUSH32 0x1018365553CCE55D9CB02EF73E18CC9311894F3FE1D1EAFD235AC2D26CD8BA58 PUSH1 0x40 MLOAD PUSH1 0x40 MLOAD DUP1 SWAP2 SUB SWAP1 LOG4 POP POP POP JUMP JUMPDEST PUSH1 0x0 DUP5 CALLER PUSH20 0xFFFFFFFFFFFFFFFFFFFFFFFFFFFFFFFFFFFFFFFF AND PUSH1 0x1 PUSH1 0x0 DUP4 DUP2 MSTORE PUSH1 0x20 ADD SWAP1 DUP2 MSTORE PUSH1 0x20 ADD PUSH1 0x0 KECCAK256 PUSH1 0x0 SWAP1 SLOAD SWAP1 PUSH2 0x100 EXP SWAP1 DIV PUSH20 0xFFFFFFFFFFFFFFFFFFFFFFFFFFFFFFFFFFFFFFFF AND PUSH20 0xFFFFFFFFFFFFFFFFFFFFFFFFFFFFFFFFFFFFFFFF AND EQ PUSH2 0x1B95 JUMPI PUSH1 0x40 MLOAD PUSH32 0xBB9BF27800000000000000000000000000000000000000000000000000000000 DUP2 MSTORE PUSH1 0x4 ADD PUSH1 0x40 MLOAD DUP1 SWAP2 SUB SWAP1 REVERT JUMPDEST PUSH1 0x0 PUSH2 0x1BBB DUP7 PUSH1 0x0 DUP1 DUP11 DUP2 MSTORE PUSH1 0x20 ADD SWAP1 DUP2 MSTORE PUSH1 0x20 ADD PUSH1 0x0 KECCAK256 PUSH2 0x15D5 SWAP1 SWAP2 SWAP1 PUSH4 0xFFFFFFFF AND JUMP JUMPDEST SWAP1 POP PUSH2 0x1BE5 DUP7 DUP7 DUP7 PUSH1 0x0 DUP1 DUP13 DUP2 MSTORE PUSH1 0x20 ADD SWAP1 DUP2 MSTORE PUSH1 0x20 ADD PUSH1 0x0 KECCAK256 PUSH2 0x2C23 SWAP1 SWAP4 SWAP3 SWAP2 SWAP1 PUSH4 0xFFFFFFFF AND JUMP JUMPDEST SWAP3 POP DUP7 PUSH32 0x3108849C053C77B8073A11256DFFB5FFD5B55E93E105A355E1C9061DB890D871 DUP3 DUP9 DUP7 PUSH1 0x40 MLOAD PUSH2 0x1C1B SWAP4 SWAP3 SWAP2 SWAP1 PUSH2 0x3770 JUMP JUMPDEST PUSH1 0x40 MLOAD DUP1 SWAP2 SUB SWAP1 LOG2 POP POP SWAP5 SWAP4 POP POP POP POP JUMP JUMPDEST PUSH1 0x0 DUP1 DUP4 PUSH1 0x3 ADD PUSH1 0x0 DUP5 DUP2 MSTORE PUSH1 0x20 ADD SWAP1 DUP2 MSTORE PUSH1 0x20 ADD PUSH1 0x0 KECCAK256 SLOAD EQ ISZERO SWAP1 POP SWAP3 SWAP2 POP POP JUMP JUMPDEST CALLER PUSH20 0xFFFFFFFFFFFFFFFFFFFFFFFFFFFFFFFFFFFFFFFF AND PUSH1 0x2 PUSH1 0x0 DUP4 DUP2 MSTORE PUSH1 0x20 ADD SWAP1 DUP2 MSTORE PUSH1 0x20 ADD PUSH1 0x0 KECCAK256 PUSH1 0x0 SWAP1 SLOAD SWAP1 PUSH2 0x100 EXP SWAP1 DIV PUSH20 0xFFFFFFFFFFFFFFFFFFFFFFFFFFFFFFFFFFFFFFFF AND PUSH20 0xFFFFFFFFFFFFFFFFFFFFFFFFFFFFFFFFFFFFFFFF AND EQ PUSH2 0x1CE8 JUMPI PUSH1 0x40 MLOAD PUSH32 0x34C4245D00000000000000000000000000000000000000000000000000000000 DUP2 MSTORE PUSH1 0x4 ADD PUSH1 0x40 MLOAD DUP1 SWAP2 SUB SWAP1 REVERT JUMPDEST PUSH1 0x0 PUSH1 0x1 PUSH1 0x0 DUP4 DUP2 MSTORE PUSH1 0x20 ADD SWAP1 DUP2 MSTORE PUSH1 0x20 ADD PUSH1 0x0 KECCAK256 PUSH1 0x0 SWAP1 SLOAD SWAP1 PUSH2 0x100 EXP SWAP1 DIV PUSH20 0xFFFFFFFFFFFFFFFFFFFFFFFFFFFFFFFFFFFFFFFF AND SWAP1 POP CALLER PUSH1 0x1 PUSH1 0x0 DUP5 DUP2 MSTORE PUSH1 0x20 ADD SWAP1 DUP2 MSTORE PUSH1 0x20 ADD PUSH1 0x0 KECCAK256 PUSH1 0x0 PUSH2 0x100 EXP DUP2 SLOAD DUP2 PUSH20 0xFFFFFFFFFFFFFFFFFFFFFFFFFFFFFFFFFFFFFFFF MUL NOT AND SWAP1 DUP4 PUSH20 0xFFFFFFFFFFFFFFFFFFFFFFFFFFFFFFFFFFFFFFFF AND MUL OR SWAP1 SSTORE POP PUSH1 0x2 PUSH1 0x0 DUP4 DUP2 MSTORE PUSH1 0x20 ADD SWAP1 DUP2 MSTORE PUSH1 0x20 ADD PUSH1 0x0 KECCAK256 PUSH1 0x0 PUSH2 0x100 EXP DUP2 SLOAD SWAP1 PUSH20 0xFFFFFFFFFFFFFFFFFFFFFFFFFFFFFFFFFFFFFFFF MUL NOT AND SWAP1 SSTORE CALLER PUSH20 0xFFFFFFFFFFFFFFFFFFFFFFFFFFFFFFFFFFFFFFFF AND DUP2 PUSH20 0xFFFFFFFFFFFFFFFFFFFFFFFFFFFFFFFFFFFFFFFF AND DUP4 PUSH32 0xBA83579A0E79193EF649B9F5A8759D35AF086BA62A3E207B52E4A8AE30D49E3 PUSH1 0x40 MLOAD PUSH1 0x40 MLOAD DUP1 SWAP2 SUB SWAP1 LOG4 POP POP JUMP JUMPDEST PUSH1 0x0 DUP2 PUSH1 0x2 ADD PUSH1 0x0 DUP4 PUSH1 0x1 ADD SLOAD DUP2 MSTORE PUSH1 0x20 ADD SWAP1 DUP2 MSTORE PUSH1 0x20 ADD PUSH1 0x0 KECCAK256 SLOAD SWAP1 POP SWAP2 SWAP1 POP JUMP JUMPDEST PUSH1 0x0 DUP1 DUP5 PUSH1 0x0 ADD SLOAD SWAP1 POP PUSH1 0x0 JUMPDEST DUP5 DUP5 SWAP1 POP DUP2 LT ISZERO PUSH2 0x1FB6 JUMPI PUSH32 0x30644E72E131A029B85045B68181585D2833E84879B9709143E1F593F0000001 DUP6 DUP6 DUP4 DUP2 DUP2 LT PUSH2 0x1E76 JUMPI PUSH2 0x1E75 PUSH2 0x320D JUMP JUMPDEST JUMPDEST SWAP1 POP PUSH1 0x20 MUL ADD CALLDATALOAD LT PUSH2 0x1EB4 JUMPI PUSH1 0x40 MLOAD PUSH32 0xC380A82E00000000000000000000000000000000000000000000000000000000 DUP2 MSTORE PUSH1 0x4 ADD PUSH1 0x40 MLOAD DUP1 SWAP2 SUB SWAP1 REVERT JUMPDEST PUSH1 0x0 DUP6 DUP6 DUP4 DUP2 DUP2 LT PUSH2 0x1EC9 JUMPI PUSH2 0x1EC8 PUSH2 0x320D JUMP JUMPDEST JUMPDEST SWAP1 POP PUSH1 0x20 MUL ADD CALLDATALOAD SUB PUSH2 0x1F07 JUMPI PUSH1 0x40 MLOAD PUSH32 0x29691BE200000000000000000000000000000000000000000000000000000000 DUP2 MSTORE PUSH1 0x4 ADD PUSH1 0x40 MLOAD DUP1 SWAP2 SUB SWAP1 REVERT JUMPDEST PUSH2 0x1F2A DUP7 DUP7 DUP7 DUP5 DUP2 DUP2 LT PUSH2 0x1F1E JUMPI PUSH2 0x1F1D PUSH2 0x320D JUMP JUMPDEST JUMPDEST SWAP1 POP PUSH1 0x20 MUL ADD CALLDATALOAD PUSH2 0x1C2D JUMP JUMPDEST ISZERO PUSH2 0x1F61 JUMPI PUSH1 0x40 MLOAD PUSH32 0x258A195A00000000000000000000000000000000000000000000000000000000 DUP2 MSTORE PUSH1 0x4 ADD PUSH1 0x40 MLOAD DUP1 SWAP2 SUB SWAP1 REVERT JUMPDEST DUP1 PUSH1 0x1 DUP4 PUSH2 0x1F6F SWAP2 SWAP1 PUSH2 0x31D9 JUMP JUMPDEST PUSH2 0x1F79 SWAP2 SWAP1 PUSH2 0x31D9 JUMP JUMPDEST DUP7 PUSH1 0x3 ADD PUSH1 0x0 DUP8 DUP8 DUP6 DUP2 DUP2 LT PUSH2 0x1F92 JUMPI PUSH2 0x1F91 PUSH2 0x320D JUMP JUMPDEST JUMPDEST SWAP1 POP PUSH1 0x20 MUL ADD CALLDATALOAD DUP2 MSTORE PUSH1 0x20 ADD SWAP1 DUP2 MSTORE PUSH1 0x20 ADD PUSH1 0x0 KECCAK256 DUP2 SWAP1 SSTORE POP DUP1 PUSH1 0x1 ADD SWAP1 POP PUSH2 0x1E37 JUMP JUMPDEST POP PUSH1 0x60 DUP5 DUP5 DUP1 DUP1 PUSH1 0x20 MUL PUSH1 0x20 ADD PUSH1 0x40 MLOAD SWAP1 DUP2 ADD PUSH1 0x40 MSTORE DUP1 SWAP4 SWAP3 SWAP2 SWAP1 DUP2 DUP2 MSTORE PUSH1 0x20 ADD DUP4 DUP4 PUSH1 0x20 MUL DUP1 DUP3 DUP5 CALLDATACOPY PUSH1 0x0 DUP2 DUP5 ADD MSTORE PUSH1 0x1F NOT PUSH1 0x1F DUP3 ADD AND SWAP1 POP DUP1 DUP4 ADD SWAP3 POP POP POP POP POP POP POP SWAP1 POP PUSH1 0x0 DUP7 PUSH1 0x1 ADD SLOAD SWAP1 POP JUMPDEST DUP6 DUP6 SWAP1 POP DUP4 PUSH2 0x2016 SWAP2 SWAP1 PUSH2 0x31D9 JUMP JUMPDEST DUP2 PUSH1 0x2 PUSH2 0x2023 SWAP2 SWAP1 PUSH2 0x395B JUMP JUMPDEST LT ISZERO PUSH2 0x203A JUMPI DUP1 PUSH2 0x2033 SWAP1 PUSH2 0x3191 JUMP JUMPDEST SWAP1 POP PUSH2 0x2007 JUMP JUMPDEST DUP1 DUP8 PUSH1 0x1 ADD DUP2 SWAP1 SSTORE POP PUSH1 0x0 DUP4 SWAP1 POP PUSH1 0x0 DUP8 DUP8 SWAP1 POP DUP6 PUSH2 0x2059 SWAP2 SWAP1 PUSH2 0x31D9 JUMP JUMPDEST SWAP1 POP PUSH1 0x0 PUSH1 0x1 DUP4 SWAP1 SHR SWAP1 POP PUSH1 0x0 PUSH1 0x1 DUP1 PUSH1 0x1 DUP6 PUSH2 0x2076 SWAP2 SWAP1 PUSH2 0x368A JUMP JUMPDEST SWAP1 SHR PUSH2 0x2082 SWAP2 SWAP1 PUSH2 0x31D9 JUMP JUMPDEST SWAP1 POP PUSH1 0x0 JUMPDEST DUP6 DUP2 LT ISZERO PUSH2 0x2395 JUMPI PUSH1 0x0 DUP4 DUP4 PUSH2 0x209D SWAP2 SWAP1 PUSH2 0x368A JUMP JUMPDEST SWAP1 POP PUSH1 0x0 DUP2 PUSH8 0xFFFFFFFFFFFFFFFF DUP2 GT ISZERO PUSH2 0x20BB JUMPI PUSH2 0x20BA PUSH2 0x39A6 JUMP JUMPDEST JUMPDEST PUSH1 0x40 MLOAD SWAP1 DUP1 DUP3 MSTORE DUP1 PUSH1 0x20 MUL PUSH1 0x20 ADD DUP3 ADD PUSH1 0x40 MSTORE DUP1 ISZERO PUSH2 0x20E9 JUMPI DUP2 PUSH1 0x20 ADD PUSH1 0x20 DUP3 MUL DUP1 CALLDATASIZE DUP4 CALLDATACOPY DUP1 DUP3 ADD SWAP2 POP POP SWAP1 POP JUMPDEST POP SWAP1 POP PUSH1 0x0 JUMPDEST DUP3 DUP2 LT ISZERO PUSH2 0x22BC JUMPI PUSH1 0x0 DUP9 PUSH1 0x2 DUP9 DUP5 PUSH2 0x2108 SWAP2 SWAP1 PUSH2 0x31D9 JUMP JUMPDEST PUSH2 0x2112 SWAP2 SWAP1 PUSH2 0x39D5 JUMP JUMPDEST LT ISZERO PUSH2 0x2135 JUMPI DUP16 PUSH1 0x2 ADD PUSH1 0x0 DUP7 DUP2 MSTORE PUSH1 0x20 ADD SWAP1 DUP2 MSTORE PUSH1 0x20 ADD PUSH1 0x0 KECCAK256 SLOAD SWAP1 POP PUSH2 0x2175 JUMP JUMPDEST DUP11 DUP10 PUSH1 0x2 DUP10 DUP6 PUSH2 0x2145 SWAP2 SWAP1 PUSH2 0x31D9 JUMP JUMPDEST PUSH2 0x214F SWAP2 SWAP1 PUSH2 0x39D5 JUMP JUMPDEST PUSH2 0x2159 SWAP2 SWAP1 PUSH2 0x368A JUMP JUMPDEST DUP2 MLOAD DUP2 LT PUSH2 0x216A JUMPI PUSH2 0x2169 PUSH2 0x320D JUMP JUMPDEST JUMPDEST PUSH1 0x20 MUL PUSH1 0x20 ADD ADD MLOAD SWAP1 POP JUMPDEST PUSH1 0x0 DUP9 PUSH1 0x1 PUSH1 0x2 DUP11 DUP7 PUSH2 0x2188 SWAP2 SWAP1 PUSH2 0x31D9 JUMP JUMPDEST PUSH2 0x2192 SWAP2 SWAP1 PUSH2 0x39D5 JUMP JUMPDEST PUSH2 0x219C SWAP2 SWAP1 PUSH2 0x31D9 JUMP JUMPDEST LT ISZERO PUSH2 0x21EE JUMPI DUP12 DUP11 PUSH1 0x1 PUSH1 0x2 DUP12 DUP8 PUSH2 0x21B4 SWAP2 SWAP1 PUSH2 0x31D9 JUMP JUMPDEST PUSH2 0x21BE SWAP2 SWAP1 PUSH2 0x39D5 JUMP JUMPDEST PUSH2 0x21C8 SWAP2 SWAP1 PUSH2 0x31D9 JUMP JUMPDEST PUSH2 0x21D2 SWAP2 SWAP1 PUSH2 0x368A JUMP JUMPDEST DUP2 MLOAD DUP2 LT PUSH2 0x21E3 JUMPI PUSH2 0x21E2 PUSH2 0x320D JUMP JUMPDEST JUMPDEST PUSH1 0x20 MUL PUSH1 0x20 ADD ADD MLOAD SWAP1 POP JUMPDEST PUSH1 0x0 DUP1 DUP3 EQ PUSH2 0x228A JUMPI PUSH20 0x0 PUSH4 0x561558FE PUSH1 0x40 MLOAD DUP1 PUSH1 0x40 ADD PUSH1 0x40 MSTORE DUP1 DUP7 DUP2 MSTORE PUSH1 0x20 ADD DUP6 DUP2 MSTORE POP PUSH1 0x40 MLOAD DUP3 PUSH4 0xFFFFFFFF AND PUSH1 0xE0 SHL DUP2 MSTORE PUSH1 0x4 ADD PUSH2 0x2242 SWAP2 SWAP1 PUSH2 0x3AA0 JUMP JUMPDEST PUSH1 0x20 PUSH1 0x40 MLOAD DUP1 DUP4 SUB DUP2 DUP7 GAS DELEGATECALL ISZERO DUP1 ISZERO PUSH2 0x225F JUMPI RETURNDATASIZE PUSH1 0x0 DUP1 RETURNDATACOPY RETURNDATASIZE PUSH1 0x0 REVERT JUMPDEST POP POP POP POP PUSH1 0x40 MLOAD RETURNDATASIZE PUSH1 0x1F NOT PUSH1 0x1F DUP3 ADD AND DUP3 ADD DUP1 PUSH1 0x40 MSTORE POP DUP2 ADD SWAP1 PUSH2 0x2283 SWAP2 SWAP1 PUSH2 0x3AD0 JUMP JUMPDEST SWAP1 POP PUSH2 0x228E JUMP JUMPDEST DUP3 SWAP1 POP JUMPDEST DUP1 DUP6 DUP6 DUP2 MLOAD DUP2 LT PUSH2 0x22A2 JUMPI PUSH2 0x22A1 PUSH2 0x320D JUMP JUMPDEST JUMPDEST PUSH1 0x20 MUL PUSH1 0x20 ADD ADD DUP2 DUP2 MSTORE POP POP DUP4 PUSH1 0x1 ADD SWAP4 POP POP POP POP PUSH2 0x20EF JUMP JUMPDEST POP PUSH1 0x1 DUP1 DUP8 AND SUB PUSH2 0x230D JUMPI DUP9 PUSH1 0x1 DUP11 MLOAD PUSH2 0x22D6 SWAP2 SWAP1 PUSH2 0x368A JUMP JUMPDEST DUP2 MLOAD DUP2 LT PUSH2 0x22E7 JUMPI PUSH2 0x22E6 PUSH2 0x320D JUMP JUMPDEST JUMPDEST PUSH1 0x20 MUL PUSH1 0x20 ADD ADD MLOAD DUP15 PUSH1 0x2 ADD PUSH1 0x0 DUP6 DUP2 MSTORE PUSH1 0x20 ADD SWAP1 DUP2 MSTORE PUSH1 0x20 ADD PUSH1 0x0 KECCAK256 DUP2 SWAP1 SSTORE POP PUSH2 0x235A JUMP JUMPDEST PUSH1 0x1 DUP10 MLOAD GT ISZERO PUSH2 0x2359 JUMPI DUP9 PUSH1 0x2 DUP11 MLOAD PUSH2 0x2326 SWAP2 SWAP1 PUSH2 0x368A JUMP JUMPDEST DUP2 MLOAD DUP2 LT PUSH2 0x2337 JUMPI PUSH2 0x2336 PUSH2 0x320D JUMP JUMPDEST JUMPDEST PUSH1 0x20 MUL PUSH1 0x20 ADD ADD MLOAD DUP15 PUSH1 0x2 ADD PUSH1 0x0 DUP6 DUP2 MSTORE PUSH1 0x20 ADD SWAP1 DUP2 MSTORE PUSH1 0x20 ADD PUSH1 0x0 KECCAK256 DUP2 SWAP1 SSTORE POP JUMPDEST JUMPDEST DUP5 SWAP7 POP PUSH1 0x1 DUP6 SWAP1 SHR SWAP5 POP DUP1 SWAP9 POP DUP4 SWAP6 POP PUSH1 0x1 DUP1 PUSH1 0x1 DUP7 PUSH2 0x237A SWAP2 SWAP1 PUSH2 0x368A JUMP JUMPDEST SWAP1 SHR PUSH2 0x2386 SWAP2 SWAP1 PUSH2 0x31D9 JUMP JUMPDEST SWAP4 POP DUP3 PUSH1 0x1 ADD SWAP3 POP POP POP PUSH2 0x2087 JUMP JUMPDEST POP DUP10 DUP10 SWAP1 POP DUP8 PUSH2 0x23A5 SWAP2 SWAP1 PUSH2 0x31D9 JUMP JUMPDEST DUP12 PUSH1 0x0 ADD DUP2 SWAP1 SSTORE POP DUP6 PUSH1 0x0 DUP2 MLOAD DUP2 LT PUSH2 0x23C1 JUMPI PUSH2 0x23C0 PUSH2 0x320D JUMP JUMPDEST JUMPDEST PUSH1 0x20 MUL PUSH1 0x20 ADD ADD MLOAD DUP12 PUSH1 0x2 ADD PUSH1 0x0 DUP8 DUP2 MSTORE PUSH1 0x20 ADD SWAP1 DUP2 MSTORE PUSH1 0x20 ADD PUSH1 0x0 KECCAK256 DUP2 SWAP1 SSTORE POP DUP6 PUSH1 0x0 DUP2 MLOAD DUP2 LT PUSH2 0x23F6 JUMPI PUSH2 0x23F5 PUSH2 0x320D JUMP JUMPDEST JUMPDEST PUSH1 0x20 MUL PUSH1 0x20 ADD ADD MLOAD SWAP8 POP POP POP POP POP POP POP POP SWAP4 SWAP3 POP POP POP JUMP JUMPDEST PUSH1 0x0 PUSH32 0x30644E72E131A029B85045B68181585D2833E84879B9709143E1F593F0000001 DUP3 LT PUSH2 0x2469 JUMPI PUSH1 0x40 MLOAD PUSH32 0xC380A82E00000000000000000000000000000000000000000000000000000000 DUP2 MSTORE PUSH1 0x4 ADD PUSH1 0x40 MLOAD DUP1 SWAP2 SUB SWAP1 REVERT JUMPDEST PUSH1 0x0 DUP3 SUB PUSH2 0x24A3 JUMPI PUSH1 0x40 MLOAD PUSH32 0x29691BE200000000000000000000000000000000000000000000000000000000 DUP2 MSTORE PUSH1 0x4 ADD PUSH1 0x40 MLOAD DUP1 SWAP2 SUB SWAP1 REVERT JUMPDEST PUSH2 0x24AD DUP4 DUP4 PUSH2 0x1C2D JUMP JUMPDEST ISZERO PUSH2 0x24E4 JUMPI PUSH1 0x40 MLOAD PUSH32 0x258A195A00000000000000000000000000000000000000000000000000000000 DUP2 MSTORE PUSH1 0x4 ADD PUSH1 0x40 MLOAD DUP1 SWAP2 SUB SWAP1 REVERT JUMPDEST PUSH1 0x0 DUP4 PUSH1 0x0 ADD SLOAD SWAP1 POP PUSH1 0x0 DUP5 PUSH1 0x1 ADD SLOAD SWAP1 POP PUSH1 0x1 DUP3 PUSH2 0x2503 SWAP2 SWAP1 PUSH2 0x31D9 JUMP JUMPDEST DUP2 PUSH1 0x2 PUSH2 0x2510 SWAP2 SWAP1 PUSH2 0x395B JUMP JUMPDEST LT ISZERO PUSH2 0x2523 JUMPI DUP1 PUSH2 0x2520 SWAP1 PUSH2 0x3191 JUMP JUMPDEST SWAP1 POP JUMPDEST DUP1 DUP6 PUSH1 0x1 ADD DUP2 SWAP1 SSTORE POP PUSH1 0x0 DUP5 SWAP1 POP PUSH1 0x0 JUMPDEST DUP3 DUP2 LT ISZERO PUSH2 0x2617 JUMPI PUSH1 0x1 DUP1 DUP3 DUP7 SWAP1 SHR AND SUB PUSH2 0x25F1 JUMPI PUSH20 0x0 PUSH4 0x561558FE PUSH1 0x40 MLOAD DUP1 PUSH1 0x40 ADD PUSH1 0x40 MSTORE DUP1 DUP11 PUSH1 0x2 ADD PUSH1 0x0 DUP7 DUP2 MSTORE PUSH1 0x20 ADD SWAP1 DUP2 MSTORE PUSH1 0x20 ADD PUSH1 0x0 KECCAK256 SLOAD DUP2 MSTORE PUSH1 0x20 ADD DUP6 DUP2 MSTORE POP PUSH1 0x40 MLOAD DUP3 PUSH4 0xFFFFFFFF AND PUSH1 0xE0 SHL DUP2 MSTORE PUSH1 0x4 ADD PUSH2 0x25A9 SWAP2 SWAP1 PUSH2 0x3AA0 JUMP JUMPDEST PUSH1 0x20 PUSH1 0x40 MLOAD DUP1 DUP4 SUB DUP2 DUP7 GAS DELEGATECALL ISZERO DUP1 ISZERO PUSH2 0x25C6 JUMPI RETURNDATASIZE PUSH1 0x0 DUP1 RETURNDATACOPY RETURNDATASIZE PUSH1 0x0 REVERT JUMPDEST POP POP POP POP PUSH1 0x40 MLOAD RETURNDATASIZE PUSH1 0x1F NOT PUSH1 0x1F DUP3 ADD AND DUP3 ADD DUP1 PUSH1 0x40 MSTORE POP DUP2 ADD SWAP1 PUSH2 0x25EA SWAP2 SWAP1 PUSH2 0x3AD0 JUMP JUMPDEST SWAP2 POP PUSH2 0x260C JUMP JUMPDEST DUP2 DUP8 PUSH1 0x2 ADD PUSH1 0x0 DUP4 DUP2 MSTORE PUSH1 0x20 ADD SWAP1 DUP2 MSTORE PUSH1 0x20 ADD PUSH1 0x0 KECCAK256 DUP2 SWAP1 SSTORE POP JUMPDEST DUP1 PUSH1 0x1 ADD SWAP1 POP PUSH2 0x2534 JUMP JUMPDEST POP DUP3 PUSH2 0x2622 SWAP1 PUSH2 0x3191 JUMP JUMPDEST SWAP3 POP DUP3 DUP7 PUSH1 0x0 ADD DUP2 SWAP1 SSTORE POP DUP1 DUP7 PUSH1 0x2 ADD PUSH1 0x0 DUP5 DUP2 MSTORE PUSH1 0x20 ADD SWAP1 DUP2 MSTORE PUSH1 0x20 ADD PUSH1 0x0 KECCAK256 DUP2 SWAP1 SSTORE POP DUP3 DUP7 PUSH1 0x3 ADD PUSH1 0x0 DUP8 DUP2 MSTORE PUSH1 0x20 ADD SWAP1 DUP2 MSTORE PUSH1 0x20 ADD PUSH1 0x0 KECCAK256 DUP2 SWAP1 SSTORE POP DUP1 SWAP4 POP POP POP POP SWAP3 SWAP2 POP POP JUMP JUMPDEST PUSH1 0x0 PUSH32 0x30644E72E131A029B85045B68181585D2833E84879B9709143E1F593F0000001 DUP5 LT PUSH2 0x26C8 JUMPI PUSH1 0x40 MLOAD PUSH32 0xC380A82E00000000000000000000000000000000000000000000000000000000 DUP2 MSTORE PUSH1 0x4 ADD PUSH1 0x40 MLOAD DUP1 SWAP2 SUB SWAP1 REVERT JUMPDEST PUSH2 0x26D2 DUP7 DUP7 PUSH2 0x1C2D JUMP JUMPDEST PUSH2 0x2708 JUMPI PUSH1 0x40 MLOAD PUSH32 0x7204756C00000000000000000000000000000000000000000000000000000000 DUP2 MSTORE PUSH1 0x4 ADD PUSH1 0x40 MLOAD DUP1 SWAP2 SUB SWAP1 REVERT JUMPDEST PUSH2 0x2712 DUP7 DUP6 PUSH2 0x1C2D JUMP JUMPDEST ISZERO PUSH2 0x2749 JUMPI PUSH1 0x40 MLOAD PUSH32 0x258A195A00000000000000000000000000000000000000000000000000000000 DUP2 MSTORE PUSH1 0x4 ADD PUSH1 0x40 MLOAD DUP1 SWAP2 SUB SWAP1 REVERT JUMPDEST PUSH1 0x0 PUSH2 0x2755 DUP8 DUP8 PUSH2 0x15D5 JUMP JUMPDEST SWAP1 POP PUSH1 0x0 DUP6 SWAP1 POP PUSH1 0x0 DUP8 SWAP1 POP PUSH1 0x0 PUSH1 0x1 DUP11 PUSH1 0x0 ADD SLOAD PUSH2 0x2774 SWAP2 SWAP1 PUSH2 0x368A JUMP JUMPDEST SWAP1 POP PUSH1 0x0 DUP1 DUP12 PUSH1 0x1 ADD SLOAD SWAP1 POP PUSH1 0x0 JUMPDEST DUP2 DUP2 LT ISZERO PUSH2 0x2B62 JUMPI PUSH1 0x1 DUP1 DUP3 DUP10 SWAP1 SHR AND SUB PUSH2 0x2963 JUMPI PUSH32 0x30644E72E131A029B85045B68181585D2833E84879B9709143E1F593F0000001 DUP11 DUP11 DUP6 DUP2 DUP2 LT PUSH2 0x27CC JUMPI PUSH2 0x27CB PUSH2 0x320D JUMP JUMPDEST JUMPDEST SWAP1 POP PUSH1 0x20 MUL ADD CALLDATALOAD LT PUSH2 0x280A JUMPI PUSH1 0x40 MLOAD PUSH32 0xC380A82E00000000000000000000000000000000000000000000000000000000 DUP2 MSTORE PUSH1 0x4 ADD PUSH1 0x40 MLOAD DUP1 SWAP2 SUB SWAP1 REVERT JUMPDEST PUSH20 0x0 PUSH4 0x561558FE PUSH1 0x40 MLOAD DUP1 PUSH1 0x40 ADD PUSH1 0x40 MSTORE DUP1 DUP14 DUP14 DUP9 DUP2 DUP2 LT PUSH2 0x2842 JUMPI PUSH2 0x2841 PUSH2 0x320D JUMP JUMPDEST JUMPDEST SWAP1 POP PUSH1 0x20 MUL ADD CALLDATALOAD DUP2 MSTORE PUSH1 0x20 ADD DUP10 DUP2 MSTORE POP PUSH1 0x40 MLOAD DUP3 PUSH4 0xFFFFFFFF AND PUSH1 0xE0 SHL DUP2 MSTORE PUSH1 0x4 ADD PUSH2 0x286E SWAP2 SWAP1 PUSH2 0x3AA0 JUMP JUMPDEST PUSH1 0x20 PUSH1 0x40 MLOAD DUP1 DUP4 SUB DUP2 DUP7 GAS DELEGATECALL ISZERO DUP1 ISZERO PUSH2 0x288B JUMPI RETURNDATASIZE PUSH1 0x0 DUP1 RETURNDATACOPY RETURNDATASIZE PUSH1 0x0 REVERT JUMPDEST POP POP POP POP PUSH1 0x40 MLOAD RETURNDATASIZE PUSH1 0x1F NOT PUSH1 0x1F DUP3 ADD AND DUP3 ADD DUP1 PUSH1 0x40 MSTORE POP DUP2 ADD SWAP1 PUSH2 0x28AF SWAP2 SWAP1 PUSH2 0x3AD0 JUMP JUMPDEST SWAP6 POP PUSH20 0x0 PUSH4 0x561558FE PUSH1 0x40 MLOAD DUP1 PUSH1 0x40 ADD PUSH1 0x40 MSTORE DUP1 DUP14 DUP14 DUP9 DUP2 DUP2 LT PUSH2 0x28E9 JUMPI PUSH2 0x28E8 PUSH2 0x320D JUMP JUMPDEST JUMPDEST SWAP1 POP PUSH1 0x20 MUL ADD CALLDATALOAD DUP2 MSTORE PUSH1 0x20 ADD DUP9 DUP2 MSTORE POP PUSH1 0x40 MLOAD DUP3 PUSH4 0xFFFFFFFF AND PUSH1 0xE0 SHL DUP2 MSTORE PUSH1 0x4 ADD PUSH2 0x2915 SWAP2 SWAP1 PUSH2 0x3AA0 JUMP JUMPDEST PUSH1 0x20 PUSH1 0x40 MLOAD DUP1 DUP4 SUB DUP2 DUP7 GAS DELEGATECALL ISZERO DUP1 ISZERO PUSH2 0x2932 JUMPI RETURNDATASIZE PUSH1 0x0 DUP1 RETURNDATACOPY RETURNDATASIZE PUSH1 0x0 REVERT JUMPDEST POP POP POP POP PUSH1 0x40 MLOAD RETURNDATASIZE PUSH1 0x1F NOT PUSH1 0x1F DUP3 ADD AND DUP3 ADD DUP1 PUSH1 0x40 MSTORE POP DUP2 ADD SWAP1 PUSH2 0x2956 SWAP2 SWAP1 PUSH2 0x3AD0 JUMP JUMPDEST SWAP5 POP DUP3 PUSH1 0x1 ADD SWAP3 POP PUSH2 0x2B57 JUMP JUMPDEST DUP1 DUP5 SWAP1 SHR DUP2 DUP9 SWAP1 SHR EQ PUSH2 0x2B3B JUMPI PUSH32 0x30644E72E131A029B85045B68181585D2833E84879B9709143E1F593F0000001 DUP11 DUP11 DUP6 DUP2 DUP2 LT PUSH2 0x29A4 JUMPI PUSH2 0x29A3 PUSH2 0x320D JUMP JUMPDEST JUMPDEST SWAP1 POP PUSH1 0x20 MUL ADD CALLDATALOAD LT PUSH2 0x29E2 JUMPI PUSH1 0x40 MLOAD PUSH32 0xC380A82E00000000000000000000000000000000000000000000000000000000 DUP2 MSTORE PUSH1 0x4 ADD PUSH1 0x40 MLOAD DUP1 SWAP2 SUB SWAP1 REVERT JUMPDEST PUSH20 0x0 PUSH4 0x561558FE PUSH1 0x40 MLOAD DUP1 PUSH1 0x40 ADD PUSH1 0x40 MSTORE DUP1 DUP10 DUP2 MSTORE PUSH1 0x20 ADD DUP14 DUP14 DUP9 DUP2 DUP2 LT PUSH2 0x2A20 JUMPI PUSH2 0x2A1F PUSH2 0x320D JUMP JUMPDEST JUMPDEST SWAP1 POP PUSH1 0x20 MUL ADD CALLDATALOAD DUP2 MSTORE POP PUSH1 0x40 MLOAD DUP3 PUSH4 0xFFFFFFFF AND PUSH1 0xE0 SHL DUP2 MSTORE PUSH1 0x4 ADD PUSH2 0x2A46 SWAP2 SWAP1 PUSH2 0x3AA0 JUMP JUMPDEST PUSH1 0x20 PUSH1 0x40 MLOAD DUP1 DUP4 SUB DUP2 DUP7 GAS DELEGATECALL ISZERO DUP1 ISZERO PUSH2 0x2A63 JUMPI RETURNDATASIZE PUSH1 0x0 DUP1 RETURNDATACOPY RETURNDATASIZE PUSH1 0x0 REVERT JUMPDEST POP POP POP POP PUSH1 0x40 MLOAD RETURNDATASIZE PUSH1 0x1F NOT PUSH1 0x1F DUP3 ADD AND DUP3 ADD DUP1 PUSH1 0x40 MSTORE POP DUP2 ADD SWAP1 PUSH2 0x2A87 SWAP2 SWAP1 PUSH2 0x3AD0 JUMP JUMPDEST SWAP6 POP PUSH20 0x0 PUSH4 0x561558FE PUSH1 0x40 MLOAD DUP1 PUSH1 0x40 ADD PUSH1 0x40 MSTORE DUP1 DUP9 DUP2 MSTORE PUSH1 0x20 ADD DUP14 DUP14 DUP9 DUP2 DUP2 LT PUSH2 0x2AC7 JUMPI PUSH2 0x2AC6 PUSH2 0x320D JUMP JUMPDEST JUMPDEST SWAP1 POP PUSH1 0x20 MUL ADD CALLDATALOAD DUP2 MSTORE POP PUSH1 0x40 MLOAD DUP3 PUSH4 0xFFFFFFFF AND PUSH1 0xE0 SHL DUP2 MSTORE PUSH1 0x4 ADD PUSH2 0x2AED SWAP2 SWAP1 PUSH2 0x3AA0 JUMP JUMPDEST PUSH1 0x20 PUSH1 0x40 MLOAD DUP1 DUP4 SUB DUP2 DUP7 GAS DELEGATECALL ISZERO DUP1 ISZERO PUSH2 0x2B0A JUMPI RETURNDATASIZE PUSH1 0x0 DUP1 RETURNDATACOPY RETURNDATASIZE PUSH1 0x0 REVERT JUMPDEST POP POP POP POP PUSH1 0x40 MLOAD RETURNDATASIZE PUSH1 0x1F NOT PUSH1 0x1F DUP3 ADD AND DUP3 ADD DUP1 PUSH1 0x40 MSTORE POP DUP2 ADD SWAP1 PUSH2 0x2B2E SWAP2 SWAP1 PUSH2 0x3AD0 JUMP JUMPDEST SWAP5 POP DUP3 PUSH1 0x1 ADD SWAP3 POP PUSH2 0x2B56 JUMP JUMPDEST DUP6 DUP14 PUSH1 0x2 ADD PUSH1 0x0 DUP6 DUP2 MSTORE PUSH1 0x20 ADD SWAP1 DUP2 MSTORE PUSH1 0x20 ADD PUSH1 0x0 KECCAK256 DUP2 SWAP1 SSTORE POP JUMPDEST JUMPDEST DUP1 PUSH1 0x1 ADD SWAP1 POP PUSH2 0x2783 JUMP JUMPDEST POP PUSH2 0x2B6C DUP13 PUSH2 0x1E07 JUMP JUMPDEST DUP5 EQ PUSH2 0x2BA4 JUMPI PUSH1 0x40 MLOAD PUSH32 0x3FA930C600000000000000000000000000000000000000000000000000000000 DUP2 MSTORE PUSH1 0x4 ADD PUSH1 0x40 MLOAD DUP1 SWAP2 SUB SWAP1 REVERT JUMPDEST DUP5 DUP13 PUSH1 0x2 ADD PUSH1 0x0 DUP4 DUP2 MSTORE PUSH1 0x20 ADD SWAP1 DUP2 MSTORE PUSH1 0x20 ADD PUSH1 0x0 KECCAK256 DUP2 SWAP1 SSTORE POP PUSH1 0x0 DUP11 EQ PUSH2 0x2BF6 JUMPI DUP12 PUSH1 0x3 ADD PUSH1 0x0 DUP13 DUP2 MSTORE PUSH1 0x20 ADD SWAP1 DUP2 MSTORE PUSH1 0x20 ADD PUSH1 0x0 KECCAK256 SLOAD DUP13 PUSH1 0x3 ADD PUSH1 0x0 DUP13 DUP2 MSTORE PUSH1 0x20 ADD SWAP1 DUP2 MSTORE PUSH1 0x20 ADD PUSH1 0x0 KECCAK256 DUP2 SWAP1 SSTORE POP JUMPDEST PUSH1 0x0 DUP13 PUSH1 0x3 ADD PUSH1 0x0 DUP14 DUP2 MSTORE PUSH1 0x20 ADD SWAP1 DUP2 MSTORE PUSH1 0x20 ADD PUSH1 0x0 KECCAK256 DUP2 SWAP1 SSTORE POP DUP5 SWAP7 POP POP POP POP POP POP POP SWAP6 SWAP5 POP POP POP POP POP JUMP JUMPDEST PUSH1 0x0 PUSH2 0x2C33 DUP6 DUP6 PUSH1 0x0 DUP7 DUP7 PUSH2 0x266D JUMP JUMPDEST SWAP1 POP SWAP5 SWAP4 POP POP POP POP JUMP JUMPDEST PUSH1 0x0 DUP1 REVERT JUMPDEST PUSH1 0x0 DUP1 REVERT JUMPDEST PUSH1 0x0 DUP2 SWAP1 POP SWAP2 SWAP1 POP JUMP JUMPDEST PUSH2 0x2C5A DUP2 PUSH2 0x2C47 JUMP JUMPDEST DUP2 EQ PUSH2 0x2C65 JUMPI PUSH1 0x0 DUP1 REVERT JUMPDEST POP JUMP JUMPDEST PUSH1 0x0 DUP2 CALLDATALOAD SWAP1 POP PUSH2 0x2C77 DUP2 PUSH2 0x2C51 JUMP JUMPDEST SWAP3 SWAP2 POP POP JUMP JUMPDEST PUSH1 0x0 DUP1 REVERT JUMPDEST PUSH1 0x0 DUP1 REVERT JUMPDEST PUSH1 0x0 DUP1 REVERT JUMPDEST PUSH1 0x0 DUP1 DUP4 PUSH1 0x1F DUP5 ADD SLT PUSH2 0x2CA2 JUMPI PUSH2 0x2CA1 PUSH2 0x2C7D JUMP JUMPDEST JUMPDEST DUP3 CALLDATALOAD SWAP1 POP PUSH8 0xFFFFFFFFFFFFFFFF DUP2 GT ISZERO PUSH2 0x2CBF JUMPI PUSH2 0x2CBE PUSH2 0x2C82 JUMP JUMPDEST JUMPDEST PUSH1 0x20 DUP4 ADD SWAP2 POP DUP4 PUSH1 0x20 DUP3 MUL DUP4 ADD GT ISZERO PUSH2 0x2CDB JUMPI PUSH2 0x2CDA PUSH2 0x2C87 JUMP JUMPDEST JUMPDEST SWAP3 POP SWAP3 SWAP1 POP JUMP JUMPDEST PUSH1 0x0 DUP1 PUSH1 0x0 PUSH1 0x40 DUP5 DUP7 SUB SLT ISZERO PUSH2 0x2CFB JUMPI PUSH2 0x2CFA PUSH2 0x2C3D JUMP JUMPDEST JUMPDEST PUSH1 0x0 PUSH2 0x2D09 DUP7 DUP3 DUP8 ADD PUSH2 0x2C68 JUMP JUMPDEST SWAP4 POP POP PUSH1 0x20 DUP5 ADD CALLDATALOAD PUSH8 0xFFFFFFFFFFFFFFFF DUP2 GT ISZERO PUSH2 0x2D2A JUMPI PUSH2 0x2D29 PUSH2 0x2C42 JUMP JUMPDEST JUMPDEST PUSH2 0x2D36 DUP7 DUP3 DUP8 ADD PUSH2 0x2C8C JUMP JUMPDEST SWAP3 POP SWAP3 POP POP SWAP3 POP SWAP3 POP SWAP3 JUMP JUMPDEST PUSH1 0x0 DUP1 PUSH1 0x40 DUP4 DUP6 SUB SLT ISZERO PUSH2 0x2D59 JUMPI PUSH2 0x2D58 PUSH2 0x2C3D JUMP JUMPDEST JUMPDEST PUSH1 0x0 PUSH2 0x2D67 DUP6 DUP3 DUP7 ADD PUSH2 0x2C68 JUMP JUMPDEST SWAP3 POP POP PUSH1 0x20 PUSH2 0x2D78 DUP6 DUP3 DUP7 ADD PUSH2 0x2C68 JUMP JUMPDEST SWAP2 POP POP SWAP3 POP SWAP3 SWAP1 POP JUMP JUMPDEST PUSH2 0x2D8B DUP2 PUSH2 0x2C47 JUMP JUMPDEST DUP3 MSTORE POP POP JUMP JUMPDEST PUSH1 0x0 PUSH1 0x20 DUP3 ADD SWAP1 POP PUSH2 0x2DA6 PUSH1 0x0 DUP4 ADD DUP5 PUSH2 0x2D82 JUMP JUMPDEST SWAP3 SWAP2 POP POP JUMP JUMPDEST PUSH1 0x0 PUSH20 0xFFFFFFFFFFFFFFFFFFFFFFFFFFFFFFFFFFFFFFFF DUP3 AND SWAP1 POP SWAP2 SWAP1 POP JUMP JUMPDEST PUSH1 0x0 DUP2 SWAP1 POP SWAP2 SWAP1 POP JUMP JUMPDEST PUSH1 0x0 PUSH2 0x2DF1 PUSH2 0x2DEC PUSH2 0x2DE7 DUP5 PUSH2 0x2DAC JUMP JUMPDEST PUSH2 0x2DCC JUMP JUMPDEST PUSH2 0x2DAC JUMP JUMPDEST SWAP1 POP SWAP2 SWAP1 POP JUMP JUMPDEST PUSH1 0x0 PUSH2 0x2E03 DUP3 PUSH2 0x2DD6 JUMP JUMPDEST SWAP1 POP SWAP2 SWAP1 POP JUMP JUMPDEST PUSH1 0x0 PUSH2 0x2E15 DUP3 PUSH2 0x2DF8 JUMP JUMPDEST SWAP1 POP SWAP2 SWAP1 POP JUMP JUMPDEST PUSH2 0x2E25 DUP2 PUSH2 0x2E0A JUMP JUMPDEST DUP3 MSTORE POP POP JUMP JUMPDEST PUSH1 0x0 PUSH1 0x20 DUP3 ADD SWAP1 POP PUSH2 0x2E40 PUSH1 0x0 DUP4 ADD DUP5 PUSH2 0x2E1C JUMP JUMPDEST SWAP3 SWAP2 POP POP JUMP JUMPDEST PUSH1 0x0 PUSH2 0x2E51 DUP3 PUSH2 0x2DAC JUMP JUMPDEST SWAP1 POP SWAP2 SWAP1 POP JUMP JUMPDEST PUSH2 0x2E61 DUP2 PUSH2 0x2E46 JUMP JUMPDEST DUP2 EQ PUSH2 0x2E6C JUMPI PUSH1 0x0 DUP1 REVERT JUMPDEST POP JUMP JUMPDEST PUSH1 0x0 DUP2 CALLDATALOAD SWAP1 POP PUSH2 0x2E7E DUP2 PUSH2 0x2E58 JUMP JUMPDEST SWAP3 SWAP2 POP POP JUMP JUMPDEST PUSH1 0x0 DUP1 PUSH1 0x40 DUP4 DUP6 SUB SLT ISZERO PUSH2 0x2E9B JUMPI PUSH2 0x2E9A PUSH2 0x2C3D JUMP JUMPDEST JUMPDEST PUSH1 0x0 PUSH2 0x2EA9 DUP6 DUP3 DUP7 ADD PUSH2 0x2E6F JUMP JUMPDEST SWAP3 POP POP PUSH1 0x20 PUSH2 0x2EBA DUP6 DUP3 DUP7 ADD PUSH2 0x2C68 JUMP JUMPDEST SWAP2 POP POP SWAP3 POP SWAP3 SWAP1 POP JUMP JUMPDEST PUSH1 0x0 DUP1 PUSH1 0x0 DUP1 PUSH1 0x0 PUSH1 0x80 DUP7 DUP9 SUB SLT ISZERO PUSH2 0x2EE0 JUMPI PUSH2 0x2EDF PUSH2 0x2C3D JUMP JUMPDEST JUMPDEST PUSH1 0x0 PUSH2 0x2EEE DUP9 DUP3 DUP10 ADD PUSH2 0x2C68 JUMP JUMPDEST SWAP6 POP POP PUSH1 0x20 PUSH2 0x2EFF DUP9 DUP3 DUP10 ADD PUSH2 0x2C68 JUMP JUMPDEST SWAP5 POP POP PUSH1 0x40 PUSH2 0x2F10 DUP9 DUP3 DUP10 ADD PUSH2 0x2C68 JUMP JUMPDEST SWAP4 POP POP PUSH1 0x60 DUP7 ADD CALLDATALOAD PUSH8 0xFFFFFFFFFFFFFFFF DUP2 GT ISZERO PUSH2 0x2F31 JUMPI PUSH2 0x2F30 PUSH2 0x2C42 JUMP JUMPDEST JUMPDEST PUSH2 0x2F3D DUP9 DUP3 DUP10 ADD PUSH2 0x2C8C JUMP JUMPDEST SWAP3 POP SWAP3 POP POP SWAP3 SWAP6 POP SWAP3 SWAP6 SWAP1 SWAP4 POP JUMP JUMPDEST PUSH1 0x0 DUP1 REVERT JUMPDEST PUSH1 0x0 PUSH2 0x1A0 DUP3 DUP5 SUB SLT ISZERO PUSH2 0x2F68 JUMPI PUSH2 0x2F67 PUSH2 0x2F4C JUMP JUMPDEST JUMPDEST DUP2 SWAP1 POP SWAP3 SWAP2 POP POP JUMP JUMPDEST PUSH1 0x0 DUP1 PUSH2 0x1C0 DUP4 DUP6 SUB SLT ISZERO PUSH2 0x2F89 JUMPI PUSH2 0x2F88 PUSH2 0x2C3D JUMP JUMPDEST JUMPDEST PUSH1 0x0 PUSH2 0x2F97 DUP6 DUP3 DUP7 ADD PUSH2 0x2C68 JUMP JUMPDEST SWAP3 POP POP PUSH1 0x20 PUSH2 0x2FA8 DUP6 DUP3 DUP7 ADD PUSH2 0x2F51 JUMP JUMPDEST SWAP2 POP POP SWAP3 POP SWAP3 SWAP1 POP JUMP JUMPDEST PUSH1 0x0 DUP2 ISZERO ISZERO SWAP1 POP SWAP2 SWAP1 POP JUMP JUMPDEST PUSH2 0x2FC7 DUP2 PUSH2 0x2FB2 JUMP JUMPDEST DUP3 MSTORE POP POP JUMP JUMPDEST PUSH1 0x0 PUSH1 0x20 DUP3 ADD SWAP1 POP PUSH2 0x2FE2 PUSH1 0x0 DUP4 ADD DUP5 PUSH2 0x2FBE JUMP JUMPDEST SWAP3 SWAP2 POP POP JUMP JUMPDEST PUSH1 0x0 DUP1 PUSH1 0x40 DUP4 DUP6 SUB SLT ISZERO PUSH2 0x2FFF JUMPI PUSH2 0x2FFE PUSH2 0x2C3D JUMP JUMPDEST JUMPDEST PUSH1 0x0 PUSH2 0x300D DUP6 DUP3 DUP7 ADD PUSH2 0x2C68 JUMP JUMPDEST SWAP3 POP POP PUSH1 0x20 PUSH2 0x301E DUP6 DUP3 DUP7 ADD PUSH2 0x2E6F JUMP JUMPDEST SWAP2 POP POP SWAP3 POP SWAP3 SWAP1 POP JUMP JUMPDEST PUSH1 0x0 PUSH1 0x20 DUP3 DUP5 SUB SLT ISZERO PUSH2 0x303E JUMPI PUSH2 0x303D PUSH2 0x2C3D JUMP JUMPDEST JUMPDEST PUSH1 0x0 PUSH2 0x304C DUP5 DUP3 DUP6 ADD PUSH2 0x2E6F JUMP JUMPDEST SWAP2 POP POP SWAP3 SWAP2 POP POP JUMP JUMPDEST PUSH1 0x0 DUP1 PUSH2 0x1C0 DUP4 DUP6 SUB SLT ISZERO PUSH2 0x306D JUMPI PUSH2 0x306C PUSH2 0x2C3D JUMP JUMPDEST JUMPDEST PUSH1 0x0 PUSH2 0x307B DUP6 DUP3 DUP7 ADD PUSH2 0x2F51 JUMP JUMPDEST SWAP3 POP POP PUSH2 0x1A0 PUSH2 0x308D DUP6 DUP3 DUP7 ADD PUSH2 0x2C68 JUMP JUMPDEST SWAP2 POP POP SWAP3 POP SWAP3 SWAP1 POP JUMP JUMPDEST PUSH1 0x0 PUSH1 0x20 DUP3 DUP5 SUB SLT ISZERO PUSH2 0x30AD JUMPI PUSH2 0x30AC PUSH2 0x2C3D JUMP JUMPDEST JUMPDEST PUSH1 0x0 PUSH2 0x30BB DUP5 DUP3 DUP6 ADD PUSH2 0x2C68 JUMP JUMPDEST SWAP2 POP POP SWAP3 SWAP2 POP POP JUMP JUMPDEST PUSH1 0x0 DUP1 PUSH1 0x0 DUP1 PUSH1 0x60 DUP6 DUP8 SUB SLT ISZERO PUSH2 0x30DE JUMPI PUSH2 0x30DD PUSH2 0x2C3D JUMP JUMPDEST JUMPDEST PUSH1 0x0 PUSH2 0x30EC DUP8 DUP3 DUP9 ADD PUSH2 0x2C68 JUMP JUMPDEST SWAP5 POP POP PUSH1 0x20 PUSH2 0x30FD DUP8 DUP3 DUP9 ADD PUSH2 0x2C68 JUMP JUMPDEST SWAP4 POP POP PUSH1 0x40 DUP6 ADD CALLDATALOAD PUSH8 0xFFFFFFFFFFFFFFFF DUP2 GT ISZERO PUSH2 0x311E JUMPI PUSH2 0x311D PUSH2 0x2C42 JUMP JUMPDEST JUMPDEST PUSH2 0x312A DUP8 DUP3 DUP9 ADD PUSH2 0x2C8C JUMP JUMPDEST SWAP3 POP SWAP3 POP POP SWAP3 SWAP6 SWAP2 SWAP5 POP SWAP3 POP JUMP JUMPDEST PUSH2 0x3141 DUP2 PUSH2 0x2E46 JUMP JUMPDEST DUP3 MSTORE POP POP JUMP JUMPDEST PUSH1 0x0 PUSH1 0x20 DUP3 ADD SWAP1 POP PUSH2 0x315C PUSH1 0x0 DUP4 ADD DUP5 PUSH2 0x3138 JUMP JUMPDEST SWAP3 SWAP2 POP POP JUMP JUMPDEST PUSH32 0x4E487B7100000000000000000000000000000000000000000000000000000000 PUSH1 0x0 MSTORE PUSH1 0x11 PUSH1 0x4 MSTORE PUSH1 0x24 PUSH1 0x0 REVERT JUMPDEST PUSH1 0x0 PUSH2 0x319C DUP3 PUSH2 0x2C47 JUMP JUMPDEST SWAP2 POP PUSH32 0xFFFFFFFFFFFFFFFFFFFFFFFFFFFFFFFFFFFFFFFFFFFFFFFFFFFFFFFFFFFFFFFF DUP3 SUB PUSH2 0x31CE JUMPI PUSH2 0x31CD PUSH2 0x3162 JUMP JUMPDEST JUMPDEST PUSH1 0x1 DUP3 ADD SWAP1 POP SWAP2 SWAP1 POP JUMP JUMPDEST PUSH1 0x0 PUSH2 0x31E4 DUP3 PUSH2 0x2C47 JUMP JUMPDEST SWAP2 POP PUSH2 0x31EF DUP4 PUSH2 0x2C47 JUMP JUMPDEST SWAP3 POP DUP3 DUP3 ADD SWAP1 POP DUP1 DUP3 GT ISZERO PUSH2 0x3207 JUMPI PUSH2 0x3206 PUSH2 0x3162 JUMP JUMPDEST JUMPDEST SWAP3 SWAP2 POP POP JUMP JUMPDEST PUSH32 0x4E487B7100000000000000000000000000000000000000000000000000000000 PUSH1 0x0 MSTORE PUSH1 0x32 PUSH1 0x4 MSTORE PUSH1 0x24 PUSH1 0x0 REVERT JUMPDEST PUSH1 0x0 PUSH1 0x2 SWAP1 POP SWAP2 SWAP1 POP JUMP JUMPDEST PUSH1 0x0 DUP2 SWAP1 POP SWAP3 SWAP2 POP POP JUMP JUMPDEST PUSH1 0x0 DUP2 SWAP1 POP SWAP2 SWAP1 POP JUMP JUMPDEST PUSH2 0x3265 DUP2 PUSH2 0x2C47 JUMP JUMPDEST DUP3 MSTORE POP POP JUMP JUMPDEST PUSH1 0x0 PUSH2 0x3277 DUP4 DUP4 PUSH2 0x325C JUMP JUMPDEST PUSH1 0x20 DUP4 ADD SWAP1 POP SWAP3 SWAP2 POP POP JUMP JUMPDEST PUSH1 0x0 PUSH1 0x20 DUP3 ADD SWAP1 POP SWAP2 SWAP1 POP JUMP JUMPDEST PUSH2 0x3299 DUP2 PUSH2 0x323C JUMP JUMPDEST PUSH2 0x32A3 DUP2 DUP5 PUSH2 0x3247 JUMP JUMPDEST SWAP3 POP PUSH2 0x32AE DUP3 PUSH2 0x3252 JUMP JUMPDEST DUP1 PUSH1 0x0 JUMPDEST DUP4 DUP2 LT ISZERO PUSH2 0x32DF JUMPI DUP2 MLOAD PUSH2 0x32C6 DUP8 DUP3 PUSH2 0x326B JUMP JUMPDEST SWAP7 POP PUSH2 0x32D1 DUP4 PUSH2 0x3283 JUMP JUMPDEST SWAP3 POP POP PUSH1 0x1 DUP2 ADD SWAP1 POP PUSH2 0x32B2 JUMP JUMPDEST POP POP POP POP POP POP JUMP JUMPDEST PUSH1 0x0 PUSH1 0x2 SWAP1 POP SWAP2 SWAP1 POP JUMP JUMPDEST PUSH1 0x0 DUP2 SWAP1 POP SWAP3 SWAP2 POP POP JUMP JUMPDEST PUSH1 0x0 DUP2 SWAP1 POP SWAP2 SWAP1 POP JUMP JUMPDEST PUSH1 0x0 DUP2 SWAP1 POP SWAP3 SWAP2 POP POP JUMP JUMPDEST PUSH2 0x331B DUP2 PUSH2 0x323C JUMP JUMPDEST PUSH2 0x3325 DUP2 DUP5 PUSH2 0x3307 JUMP JUMPDEST SWAP3 POP PUSH2 0x3330 DUP3 PUSH2 0x3252 JUMP JUMPDEST DUP1 PUSH1 0x0 JUMPDEST DUP4 DUP2 LT ISZERO PUSH2 0x3361 JUMPI DUP2 MLOAD PUSH2 0x3348 DUP8 DUP3 PUSH2 0x326B JUMP JUMPDEST SWAP7 POP PUSH2 0x3353 DUP4 PUSH2 0x3283 JUMP JUMPDEST SWAP3 POP POP PUSH1 0x1 DUP2 ADD SWAP1 POP PUSH2 0x3334 JUMP JUMPDEST POP POP POP POP POP POP JUMP JUMPDEST PUSH1 0x0 PUSH2 0x3375 DUP4 DUP4 PUSH2 0x3312 JUMP JUMPDEST PUSH1 0x40 DUP4 ADD SWAP1 POP SWAP3 SWAP2 POP POP JUMP JUMPDEST PUSH1 0x0 PUSH1 0x20 DUP3 ADD SWAP1 POP SWAP2 SWAP1 POP JUMP JUMPDEST PUSH2 0x3397 DUP2 PUSH2 0x32E7 JUMP JUMPDEST PUSH2 0x33A1 DUP2 DUP5 PUSH2 0x32F2 JUMP JUMPDEST SWAP3 POP PUSH2 0x33AC DUP3 PUSH2 0x32FD JUMP JUMPDEST DUP1 PUSH1 0x0 JUMPDEST DUP4 DUP2 LT ISZERO PUSH2 0x33DD JUMPI DUP2 MLOAD PUSH2 0x33C4 DUP8 DUP3 PUSH2 0x3369 JUMP JUMPDEST SWAP7 POP PUSH2 0x33CF DUP4 PUSH2 0x3381 JUMP JUMPDEST SWAP3 POP POP PUSH1 0x1 DUP2 ADD SWAP1 POP PUSH2 0x33B0 JUMP JUMPDEST POP POP POP POP POP POP JUMP JUMPDEST PUSH1 0x0 PUSH1 0x4 SWAP1 POP SWAP2 SWAP1 POP JUMP JUMPDEST PUSH1 0x0 DUP2 SWAP1 POP SWAP3 SWAP2 POP POP JUMP JUMPDEST PUSH1 0x0 DUP2 SWAP1 POP SWAP2 SWAP1 POP JUMP JUMPDEST PUSH1 0x0 PUSH1 0x20 DUP3 ADD SWAP1 POP SWAP2 SWAP1 POP JUMP JUMPDEST PUSH2 0x341B DUP2 PUSH2 0x33E5 JUMP JUMPDEST PUSH2 0x3425 DUP2 DUP5 PUSH2 0x33F0 JUMP JUMPDEST SWAP3 POP PUSH2 0x3430 DUP3 PUSH2 0x33FB JUMP JUMPDEST DUP1 PUSH1 0x0 JUMPDEST DUP4 DUP2 LT ISZERO PUSH2 0x3461 JUMPI DUP2 MLOAD PUSH2 0x3448 DUP8 DUP3 PUSH2 0x326B JUMP JUMPDEST SWAP7 POP PUSH2 0x3453 DUP4 PUSH2 0x3405 JUMP JUMPDEST SWAP3 POP POP PUSH1 0x1 DUP2 ADD SWAP1 POP PUSH2 0x3434 JUMP JUMPDEST POP POP POP POP POP POP JUMP JUMPDEST PUSH1 0x0 PUSH2 0x1A0 DUP3 ADD SWAP1 POP PUSH2 0x347F PUSH1 0x0 DUP4 ADD DUP9 PUSH2 0x3290 JUMP JUMPDEST PUSH2 0x348C PUSH1 0x40 DUP4 ADD DUP8 PUSH2 0x338E JUMP JUMPDEST PUSH2 0x3499 PUSH1 0xC0 DUP4 ADD DUP7 PUSH2 0x3290 JUMP JUMPDEST PUSH2 0x34A7 PUSH2 0x100 DUP4 ADD DUP6 PUSH2 0x3412 JUMP JUMPDEST PUSH2 0x34B5 PUSH2 0x180 DUP4 ADD DUP5 PUSH2 0x2D82 JUMP JUMPDEST SWAP7 SWAP6 POP POP POP POP POP POP JUMP JUMPDEST PUSH2 0x34C8 DUP2 PUSH2 0x2FB2 JUMP JUMPDEST DUP2 EQ PUSH2 0x34D3 JUMPI PUSH1 0x0 DUP1 REVERT JUMPDEST POP JUMP JUMPDEST PUSH1 0x0 DUP2 MLOAD SWAP1 POP PUSH2 0x34E5 DUP2 PUSH2 0x34BF JUMP JUMPDEST SWAP3 SWAP2 POP POP JUMP JUMPDEST PUSH1 0x0 PUSH1 0x20 DUP3 DUP5 SUB SLT ISZERO PUSH2 0x3501 JUMPI PUSH2 0x3500 PUSH2 0x2C3D JUMP JUMPDEST JUMPDEST PUSH1 0x0 PUSH2 0x350F DUP5 DUP3 DUP6 ADD PUSH2 0x34D6 JUMP JUMPDEST SWAP2 POP POP SWAP3 SWAP2 POP POP JUMP JUMPDEST PUSH1 0x0 PUSH1 0x40 DUP3 ADD SWAP1 POP PUSH2 0x352D PUSH1 0x0 DUP4 ADD DUP6 PUSH2 0x2D82 JUMP JUMPDEST PUSH2 0x353A PUSH1 0x20 DUP4 ADD DUP5 PUSH2 0x2D82 JUMP JUMPDEST SWAP4 SWAP3 POP POP POP JUMP JUMPDEST PUSH1 0x0 DUP3 DUP3 MSTORE PUSH1 0x20 DUP3 ADD SWAP1 POP SWAP3 SWAP2 POP POP JUMP JUMPDEST PUSH32 0x73636F7065206E6F7420636F7272656374000000000000000000000000000000 PUSH1 0x0 DUP3 ADD MSTORE POP JUMP JUMPDEST PUSH1 0x0 PUSH2 0x3588 PUSH1 0x11 DUP4 PUSH2 0x3541 JUMP JUMPDEST SWAP2 POP PUSH2 0x3593 DUP3 PUSH2 0x3552 JUMP JUMPDEST PUSH1 0x20 DUP3 ADD SWAP1 POP SWAP2 SWAP1 POP JUMP JUMPDEST PUSH1 0x0 PUSH1 0x20 DUP3 ADD SWAP1 POP DUP2 DUP2 SUB PUSH1 0x0 DUP4 ADD MSTORE PUSH2 0x35B7 DUP2 PUSH2 0x357B JUMP JUMPDEST SWAP1 POP SWAP2 SWAP1 POP JUMP JUMPDEST DUP3 DUP2 DUP4 CALLDATACOPY POP POP POP JUMP JUMPDEST PUSH2 0x35D4 PUSH2 0x100 DUP4 DUP4 PUSH2 0x35BE JUMP JUMPDEST POP POP JUMP JUMPDEST PUSH1 0x0 PUSH2 0x160 DUP3 ADD SWAP1 POP PUSH2 0x35EE PUSH1 0x0 DUP4 ADD DUP8 PUSH2 0x2D82 JUMP JUMPDEST PUSH2 0x35FB PUSH1 0x20 DUP4 ADD DUP7 PUSH2 0x2D82 JUMP JUMPDEST PUSH2 0x3608 PUSH1 0x40 DUP4 ADD DUP6 PUSH2 0x2D82 JUMP JUMPDEST PUSH2 0x3615 PUSH1 0x60 DUP4 ADD DUP5 PUSH2 0x35C7 JUMP JUMPDEST SWAP6 SWAP5 POP POP POP POP POP JUMP JUMPDEST PUSH32 0x416D6F756E74206973276E742076616C69640000000000000000000000000000 PUSH1 0x0 DUP3 ADD MSTORE POP JUMP JUMPDEST PUSH1 0x0 PUSH2 0x3654 PUSH1 0x12 DUP4 PUSH2 0x3541 JUMP JUMPDEST SWAP2 POP PUSH2 0x365F DUP3 PUSH2 0x361E JUMP JUMPDEST PUSH1 0x20 DUP3 ADD SWAP1 POP SWAP2 SWAP1 POP JUMP JUMPDEST PUSH1 0x0 PUSH1 0x20 DUP3 ADD SWAP1 POP DUP2 DUP2 SUB PUSH1 0x0 DUP4 ADD MSTORE PUSH2 0x3683 DUP2 PUSH2 0x3647 JUMP JUMPDEST SWAP1 POP SWAP2 SWAP1 POP JUMP JUMPDEST PUSH1 0x0 PUSH2 0x3695 DUP3 PUSH2 0x2C47 JUMP JUMPDEST SWAP2 POP PUSH2 0x36A0 DUP4 PUSH2 0x2C47 JUMP JUMPDEST SWAP3 POP DUP3 DUP3 SUB SWAP1 POP DUP2 DUP2 GT ISZERO PUSH2 0x36B8 JUMPI PUSH2 0x36B7 PUSH2 0x3162 JUMP JUMPDEST JUMPDEST SWAP3 SWAP2 POP POP JUMP JUMPDEST PUSH1 0x0 DUP3 DUP3 MSTORE PUSH1 0x20 DUP3 ADD SWAP1 POP SWAP3 SWAP2 POP POP JUMP JUMPDEST PUSH1 0x0 DUP1 REVERT JUMPDEST PUSH1 0x0 PUSH2 0x36E0 DUP4 DUP6 PUSH2 0x36BE JUMP JUMPDEST SWAP4 POP PUSH32 0x7FFFFFFFFFFFFFFFFFFFFFFFFFFFFFFFFFFFFFFFFFFFFFFFFFFFFFFFFFFFFFF DUP4 GT ISZERO PUSH2 0x3713 JUMPI PUSH2 0x3712 PUSH2 0x36CF JUMP JUMPDEST JUMPDEST PUSH1 0x20 DUP4 MUL SWAP3 POP PUSH2 0x3724 DUP4 DUP6 DUP5 PUSH2 0x35BE JUMP JUMPDEST DUP3 DUP5 ADD SWAP1 POP SWAP4 SWAP3 POP POP POP JUMP JUMPDEST PUSH1 0x0 PUSH1 0x60 DUP3 ADD SWAP1 POP PUSH2 0x3745 PUSH1 0x0 DUP4 ADD DUP8 PUSH2 0x2D82 JUMP JUMPDEST DUP2 DUP2 SUB PUSH1 0x20 DUP4 ADD MSTORE PUSH2 0x3758 DUP2 DUP6 DUP8 PUSH2 0x36D4 JUMP JUMPDEST SWAP1 POP PUSH2 0x3767 PUSH1 0x40 DUP4 ADD DUP5 PUSH2 0x2D82 JUMP JUMPDEST SWAP6 SWAP5 POP POP POP POP POP JUMP JUMPDEST PUSH1 0x0 PUSH1 0x60 DUP3 ADD SWAP1 POP PUSH2 0x3785 PUSH1 0x0 DUP4 ADD DUP7 PUSH2 0x2D82 JUMP JUMPDEST PUSH2 0x3792 PUSH1 0x20 DUP4 ADD DUP6 PUSH2 0x2D82 JUMP JUMPDEST PUSH2 0x379F PUSH1 0x40 DUP4 ADD DUP5 PUSH2 0x2D82 JUMP JUMPDEST SWAP5 SWAP4 POP POP POP POP JUMP JUMPDEST PUSH1 0x0 PUSH1 0x80 DUP3 ADD SWAP1 POP PUSH2 0x37BC PUSH1 0x0 DUP4 ADD DUP8 PUSH2 0x2D82 JUMP JUMPDEST PUSH2 0x37C9 PUSH1 0x20 DUP4 ADD DUP7 PUSH2 0x2D82 JUMP JUMPDEST PUSH2 0x37D6 PUSH1 0x40 DUP4 ADD DUP6 PUSH2 0x2D82 JUMP JUMPDEST PUSH2 0x37E3 PUSH1 0x60 DUP4 ADD DUP5 PUSH2 0x2D82 JUMP JUMPDEST SWAP6 SWAP5 POP POP POP POP POP JUMP JUMPDEST PUSH1 0x0 DUP2 SWAP1 POP SWAP2 SWAP1 POP JUMP JUMPDEST PUSH2 0x3807 PUSH2 0x3802 DUP3 PUSH2 0x2C47 JUMP JUMPDEST PUSH2 0x37EC JUMP JUMPDEST DUP3 MSTORE POP POP JUMP JUMPDEST PUSH1 0x0 PUSH2 0x3819 DUP3 DUP5 PUSH2 0x37F6 JUMP JUMPDEST PUSH1 0x20 DUP3 ADD SWAP2 POP DUP2 SWAP1 POP SWAP3 SWAP2 POP POP JUMP JUMPDEST PUSH1 0x0 DUP2 PUSH1 0x1 SHR SWAP1 POP SWAP2 SWAP1 POP JUMP JUMPDEST PUSH1 0x0 DUP1 DUP3 SWAP2 POP DUP4 SWAP1 POP JUMPDEST PUSH1 0x1 DUP6 GT ISZERO PUSH2 0x387F JUMPI DUP1 DUP7 DIV DUP2 GT ISZERO PUSH2 0x385B JUMPI PUSH2 0x385A PUSH2 0x3162 JUMP JUMPDEST JUMPDEST PUSH1 0x1 DUP6 AND ISZERO PUSH2 0x386A JUMPI DUP1 DUP3 MUL SWAP2 POP JUMPDEST DUP1 DUP2 MUL SWAP1 POP PUSH2 0x3878 DUP6 PUSH2 0x3828 JUMP JUMPDEST SWAP5 POP PUSH2 0x383F JUMP JUMPDEST SWAP5 POP SWAP5 SWAP3 POP POP POP JUMP JUMPDEST PUSH1 0x0 DUP3 PUSH2 0x3898 JUMPI PUSH1 0x1 SWAP1 POP PUSH2 0x3954 JUMP JUMPDEST DUP2 PUSH2 0x38A6 JUMPI PUSH1 0x0 SWAP1 POP PUSH2 0x3954 JUMP JUMPDEST DUP2 PUSH1 0x1 DUP2 EQ PUSH2 0x38BC JUMPI PUSH1 0x2 DUP2 EQ PUSH2 0x38C6 JUMPI PUSH2 0x38F5 JUMP JUMPDEST PUSH1 0x1 SWAP2 POP POP PUSH2 0x3954 JUMP JUMPDEST PUSH1 0xFF DUP5 GT ISZERO PUSH2 0x38D8 JUMPI PUSH2 0x38D7 PUSH2 0x3162 JUMP JUMPDEST JUMPDEST DUP4 PUSH1 0x2 EXP SWAP2 POP DUP5 DUP3 GT ISZERO PUSH2 0x38EF JUMPI PUSH2 0x38EE PUSH2 0x3162 JUMP JUMPDEST JUMPDEST POP PUSH2 0x3954 JUMP JUMPDEST POP PUSH1 0x20 DUP4 LT PUSH2 0x133 DUP4 LT AND PUSH1 0x4E DUP5 LT PUSH1 0xB DUP5 LT AND OR ISZERO PUSH2 0x392A JUMPI DUP3 DUP3 EXP SWAP1 POP DUP4 DUP2 GT ISZERO PUSH2 0x3925 JUMPI PUSH2 0x3924 PUSH2 0x3162 JUMP JUMPDEST JUMPDEST PUSH2 0x3954 JUMP JUMPDEST PUSH2 0x3937 DUP5 DUP5 DUP5 PUSH1 0x1 PUSH2 0x3835 JUMP JUMPDEST SWAP3 POP SWAP1 POP DUP2 DUP5 DIV DUP2 GT ISZERO PUSH2 0x394E JUMPI PUSH2 0x394D PUSH2 0x3162 JUMP JUMPDEST JUMPDEST DUP2 DUP2 MUL SWAP1 POP JUMPDEST SWAP4 SWAP3 POP POP POP JUMP JUMPDEST PUSH1 0x0 PUSH2 0x3966 DUP3 PUSH2 0x2C47 JUMP JUMPDEST SWAP2 POP PUSH2 0x3971 DUP4 PUSH2 0x2C47 JUMP JUMPDEST SWAP3 POP PUSH2 0x399E PUSH32 0xFFFFFFFFFFFFFFFFFFFFFFFFFFFFFFFFFFFFFFFFFFFFFFFFFFFFFFFFFFFFFFFF DUP5 DUP5 PUSH2 0x3888 JUMP JUMPDEST SWAP1 POP SWAP3 SWAP2 POP POP JUMP JUMPDEST PUSH32 0x4E487B7100000000000000000000000000000000000000000000000000000000 PUSH1 0x0 MSTORE PUSH1 0x41 PUSH1 0x4 MSTORE PUSH1 0x24 PUSH1 0x0 REVERT JUMPDEST PUSH1 0x0 PUSH2 0x39E0 DUP3 PUSH2 0x2C47 JUMP JUMPDEST SWAP2 POP PUSH2 0x39EB DUP4 PUSH2 0x2C47 JUMP JUMPDEST SWAP3 POP DUP3 DUP3 MUL PUSH2 0x39F9 DUP2 PUSH2 0x2C47 JUMP JUMPDEST SWAP2 POP DUP3 DUP3 DIV DUP5 EQ DUP4 ISZERO OR PUSH2 0x3A10 JUMPI PUSH2 0x3A0F PUSH2 0x3162 JUMP JUMPDEST JUMPDEST POP SWAP3 SWAP2 POP POP JUMP JUMPDEST PUSH1 0x0 DUP2 SWAP1 POP SWAP3 SWAP2 POP POP JUMP JUMPDEST PUSH2 0x3A2B DUP2 PUSH2 0x2C47 JUMP JUMPDEST DUP3 MSTORE POP POP JUMP JUMPDEST PUSH1 0x0 PUSH2 0x3A3D DUP4 DUP4 PUSH2 0x3A22 JUMP JUMPDEST PUSH1 0x20 DUP4 ADD SWAP1 POP SWAP3 SWAP2 POP POP JUMP JUMPDEST PUSH2 0x3A52 DUP2 PUSH2 0x323C JUMP JUMPDEST PUSH2 0x3A5C DUP2 DUP5 PUSH2 0x3A17 JUMP JUMPDEST SWAP3 POP PUSH2 0x3A67 DUP3 PUSH2 0x3252 JUMP JUMPDEST DUP1 PUSH1 0x0 JUMPDEST DUP4 DUP2 LT ISZERO PUSH2 0x3A98 JUMPI DUP2 MLOAD PUSH2 0x3A7F DUP8 DUP3 PUSH2 0x3A31 JUMP JUMPDEST SWAP7 POP PUSH2 0x3A8A DUP4 PUSH2 0x3283 JUMP JUMPDEST SWAP3 POP POP PUSH1 0x1 DUP2 ADD SWAP1 POP PUSH2 0x3A6B JUMP JUMPDEST POP POP POP POP POP POP JUMP JUMPDEST PUSH1 0x0 PUSH1 0x40 DUP3 ADD SWAP1 POP PUSH2 0x3AB5 PUSH1 0x0 DUP4 ADD DUP5 PUSH2 0x3A49 JUMP JUMPDEST SWAP3 SWAP2 POP POP JUMP JUMPDEST PUSH1 0x0 DUP2 MLOAD SWAP1 POP PUSH2 0x3ACA DUP2 PUSH2 0x2C51 JUMP JUMPDEST SWAP3 SWAP2 POP POP JUMP JUMPDEST PUSH1 0x0 PUSH1 0x20 DUP3 DUP5 SUB SLT ISZERO PUSH2 0x3AE6 JUMPI PUSH2 0x3AE5 PUSH2 0x2C3D JUMP JUMPDEST JUMPDEST PUSH1 0x0 PUSH2 0x3AF4 DUP5 DUP3 DUP6 ADD PUSH2 0x3ABB JUMP JUMPDEST SWAP2 POP POP SWAP3 SWAP2 POP POP JUMP INVALID LOG2 PUSH5 0x6970667358 0x22 SLT KECCAK256 DUP6 PUSH23 0xF31B043087542E269860A755C1C812829C41361321ED0 PUSH2 0x67C2 DUP13 SDIV 0x22 DUP9 PUSH5 0x736F6C6343 STOP ADDMOD BYTE STOP CALLER "
		},
		"gasEstimates": {
			"creation": {
				"codeDepositCost": "3031000",
				"executionCost": "infinite",
				"totalCost": "infinite"
			},
			"external": {
				"acceptGroupAdmin(uint256)": "55540",
				"addMember(uint256,uint256)": "infinite",
				"addMembers(uint256,uint256[])": "infinite",
				"balance()": "384",
				"buyProduct(uint256,uint256)": "infinite",
				"createGroup()": "infinite",
				"createGroup(address)": "infinite",
				"createGroup(address,uint256)": "infinite",
				"deposit(uint256,uint256)": "infinite",
				"getGroupAdmin(uint256)": "2998",
				"getMerkleTreeDepth(uint256)": "infinite",
				"getMerkleTreeRoot(uint256)": "infinite",
				"getMerkleTreeSize(uint256)": "infinite",
				"groupCounter()": "2518",
				"groups(uint256)": "infinite",
				"hasMember(uint256,uint256)": "infinite",
				"indexOf(uint256,uint256)": "infinite",
				"redeemProduct((uint256,uint256,uint256,uint256,uint256,uint256[8]),uint256)": "infinite",
				"removeMember(uint256,uint256,uint256[])": "infinite",
				"updateGroupAdmin(uint256,address)": "29272",
				"updateGroupMerkleTreeDuration(uint256,uint256)": "infinite",
				"updateMember(uint256,uint256,uint256,uint256[])": "infinite",
				"validateProof(uint256,(uint256,uint256,uint256,uint256,uint256,uint256[8]))": "infinite",
				"verifier()": "infinite",
				"verifyProof(uint256,(uint256,uint256,uint256,uint256,uint256,uint256[8]))": "infinite",
				"withdraw((uint256,uint256,uint256,uint256,uint256,uint256[8]),uint256)": "infinite"
			}
		},
		"methodIdentifiers": {
			"acceptGroupAdmin(uint256)": "da3cda52",
			"addMember(uint256,uint256)": "1783efc3",
			"addMembers(uint256,uint256[])": "04245371",
			"balance()": "b69ef8a8",
			"buyProduct(uint256,uint256)": "53b62866",
			"createGroup()": "575185ed",
			"createGroup(address)": "5c3f3b60",
			"createGroup(address,uint256)": "2c880363",
			"deposit(uint256,uint256)": "e2bbb158",
			"getGroupAdmin(uint256)": "a9961c94",
			"getMerkleTreeDepth(uint256)": "6389e107",
			"getMerkleTreeRoot(uint256)": "dabc4d51",
			"getMerkleTreeSize(uint256)": "7ee35a0c",
			"groupCounter()": "d24924fe",
			"groups(uint256)": "96324bd4",
			"hasMember(uint256,uint256)": "90509d44",
			"indexOf(uint256,uint256)": "06dd8485",
			"redeemProduct((uint256,uint256,uint256,uint256,uint256,uint256[8]),uint256)": "62579160",
			"removeMember(uint256,uint256,uint256[])": "6cdd32fe",
			"updateGroupAdmin(uint256,address)": "568ee826",
			"updateGroupMerkleTreeDuration(uint256,uint256)": "fcf0b6ec",
			"updateMember(uint256,uint256,uint256,uint256[])": "4178c4d5",
			"validateProof(uint256,(uint256,uint256,uint256,uint256,uint256,uint256[8]))": "d0d898dd",
			"verifier()": "2b7ac3f3",
			"verifyProof(uint256,(uint256,uint256,uint256,uint256,uint256,uint256[8]))": "456f4188",
			"withdraw((uint256,uint256,uint256,uint256,uint256,uint256[8]),uint256)": "91d3755d"
		}
	},
	"abi": [
		{
			"inputs": [
				{
					"internalType": "contract ISemaphoreVerifier",
					"name": "_verifier",
					"type": "address"
				}
			],
			"stateMutability": "nonpayable",
			"type": "constructor"
		},
		{
			"inputs": [],
			"name": "LeafAlreadyExists",
			"type": "error"
		},
		{
			"inputs": [],
			"name": "LeafCannotBeZero",
			"type": "error"
		},
		{
			"inputs": [],
			"name": "LeafDoesNotExist",
			"type": "error"
		},
		{
			"inputs": [],
			"name": "LeafGreaterThanSnarkScalarField",
			"type": "error"
		},
		{
			"inputs": [],
			"name": "Semaphore__CallerIsNotTheGroupAdmin",
			"type": "error"
		},
		{
			"inputs": [],
			"name": "Semaphore__CallerIsNotThePendingGroupAdmin",
			"type": "error"
		},
		{
			"inputs": [],
			"name": "Semaphore__GroupDoesNotExist",
			"type": "error"
		},
		{
			"inputs": [],
			"name": "Semaphore__GroupHasNoMembers",
			"type": "error"
		},
		{
			"inputs": [],
			"name": "Semaphore__InvalidProof",
			"type": "error"
		},
		{
			"inputs": [],
			"name": "Semaphore__MerkleTreeDepthIsNotSupported",
			"type": "error"
		},
		{
			"inputs": [],
			"name": "Semaphore__MerkleTreeRootIsExpired",
			"type": "error"
		},
		{
			"inputs": [],
			"name": "Semaphore__MerkleTreeRootIsNotPartOfTheGroup",
			"type": "error"
		},
		{
			"inputs": [],
			"name": "Semaphore__YouAreUsingTheSameNullifierTwice",
			"type": "error"
		},
		{
			"inputs": [],
			"name": "WrongSiblingNodes",
			"type": "error"
		},
		{
			"anonymous": false,
			"inputs": [
				{
					"indexed": true,
					"internalType": "uint256",
					"name": "groupId",
					"type": "uint256"
				},
				{
					"indexed": true,
					"internalType": "address",
					"name": "oldAdmin",
					"type": "address"
				},
				{
					"indexed": true,
					"internalType": "address",
					"name": "newAdmin",
					"type": "address"
				}
			],
			"name": "GroupAdminPending",
			"type": "event"
		},
		{
			"anonymous": false,
			"inputs": [
				{
					"indexed": true,
					"internalType": "uint256",
					"name": "groupId",
					"type": "uint256"
				},
				{
					"indexed": true,
					"internalType": "address",
					"name": "oldAdmin",
					"type": "address"
				},
				{
					"indexed": true,
					"internalType": "address",
					"name": "newAdmin",
					"type": "address"
				}
			],
			"name": "GroupAdminUpdated",
			"type": "event"
		},
		{
			"anonymous": false,
			"inputs": [
				{
					"indexed": true,
					"internalType": "uint256",
					"name": "groupId",
					"type": "uint256"
				}
			],
			"name": "GroupCreated",
			"type": "event"
		},
		{
			"anonymous": false,
			"inputs": [
				{
					"indexed": true,
					"internalType": "uint256",
					"name": "groupId",
					"type": "uint256"
				},
				{
					"indexed": false,
					"internalType": "uint256",
					"name": "oldMerkleTreeDuration",
					"type": "uint256"
				},
				{
					"indexed": false,
					"internalType": "uint256",
					"name": "newMerkleTreeDuration",
					"type": "uint256"
				}
			],
			"name": "GroupMerkleTreeDurationUpdated",
			"type": "event"
		},
		{
			"anonymous": false,
			"inputs": [
				{
					"indexed": true,
					"internalType": "uint256",
					"name": "groupId",
					"type": "uint256"
				},
				{
					"indexed": false,
					"internalType": "uint256",
					"name": "index",
					"type": "uint256"
				},
				{
					"indexed": false,
					"internalType": "uint256",
					"name": "identityCommitment",
					"type": "uint256"
				},
				{
					"indexed": false,
					"internalType": "uint256",
					"name": "merkleTreeRoot",
					"type": "uint256"
				}
			],
			"name": "MemberAdded",
			"type": "event"
		},
		{
			"anonymous": false,
			"inputs": [
				{
					"indexed": true,
					"internalType": "uint256",
					"name": "groupId",
					"type": "uint256"
				},
				{
					"indexed": false,
					"internalType": "uint256",
					"name": "index",
					"type": "uint256"
				},
				{
					"indexed": false,
					"internalType": "uint256",
					"name": "identityCommitment",
					"type": "uint256"
				},
				{
					"indexed": false,
					"internalType": "uint256",
					"name": "merkleTreeRoot",
					"type": "uint256"
				}
			],
			"name": "MemberRemoved",
			"type": "event"
		},
		{
			"anonymous": false,
			"inputs": [
				{
					"indexed": true,
					"internalType": "uint256",
					"name": "groupId",
					"type": "uint256"
				},
				{
					"indexed": false,
					"internalType": "uint256",
					"name": "index",
					"type": "uint256"
				},
				{
					"indexed": false,
					"internalType": "uint256",
					"name": "identityCommitment",
					"type": "uint256"
				},
				{
					"indexed": false,
					"internalType": "uint256",
					"name": "newIdentityCommitment",
					"type": "uint256"
				},
				{
					"indexed": false,
					"internalType": "uint256",
					"name": "merkleTreeRoot",
					"type": "uint256"
				}
			],
			"name": "MemberUpdated",
			"type": "event"
		},
		{
			"anonymous": false,
			"inputs": [
				{
					"indexed": true,
					"internalType": "uint256",
					"name": "groupId",
					"type": "uint256"
				},
				{
					"indexed": false,
					"internalType": "uint256",
					"name": "startIndex",
					"type": "uint256"
				},
				{
					"indexed": false,
					"internalType": "uint256[]",
					"name": "identityCommitments",
					"type": "uint256[]"
				},
				{
					"indexed": false,
					"internalType": "uint256",
					"name": "merkleTreeRoot",
					"type": "uint256"
				}
			],
			"name": "MembersAdded",
			"type": "event"
		},
		{
			"anonymous": false,
			"inputs": [
				{
					"indexed": true,
					"internalType": "uint256",
					"name": "groupId",
					"type": "uint256"
				},
				{
					"indexed": false,
					"internalType": "uint256",
					"name": "merkleTreeDepth",
					"type": "uint256"
				},
				{
					"indexed": true,
					"internalType": "uint256",
					"name": "merkleTreeRoot",
					"type": "uint256"
				},
				{
					"indexed": false,
					"internalType": "uint256",
					"name": "nullifier",
					"type": "uint256"
				},
				{
					"indexed": false,
					"internalType": "uint256",
					"name": "message",
					"type": "uint256"
				},
				{
					"indexed": true,
					"internalType": "uint256",
					"name": "scope",
					"type": "uint256"
				},
				{
					"indexed": false,
					"internalType": "uint256[8]",
					"name": "points",
					"type": "uint256[8]"
				}
			],
			"name": "ProofValidated",
			"type": "event"
		},
		{
			"inputs": [
				{
					"internalType": "uint256",
					"name": "groupId",
					"type": "uint256"
				}
			],
			"name": "acceptGroupAdmin",
			"outputs": [],
			"stateMutability": "nonpayable",
			"type": "function"
		},
		{
			"inputs": [
				{
					"internalType": "uint256",
					"name": "groupId",
					"type": "uint256"
				},
				{
					"internalType": "uint256",
					"name": "identityCommitment",
					"type": "uint256"
				}
			],
			"name": "addMember",
			"outputs": [],
			"stateMutability": "nonpayable",
			"type": "function"
		},
		{
			"inputs": [
				{
					"internalType": "uint256",
					"name": "groupId",
					"type": "uint256"
				},
				{
					"internalType": "uint256[]",
					"name": "identityCommitments",
					"type": "uint256[]"
				}
			],
			"name": "addMembers",
			"outputs": [],
			"stateMutability": "nonpayable",
			"type": "function"
		},
		{
			"inputs": [],
			"name": "balance",
			"outputs": [
				{
					"internalType": "uint256",
					"name": "",
					"type": "uint256"
				}
			],
			"stateMutability": "view",
			"type": "function"
		},
		{
			"inputs": [
				{
					"internalType": "uint256",
					"name": "groupId",
					"type": "uint256"
				},
				{
					"internalType": "uint256",
					"name": "commitment",
					"type": "uint256"
				}
			],
			"name": "buyProduct",
			"outputs": [],
			"stateMutability": "nonpayable",
			"type": "function"
		},
		{
			"inputs": [
				{
					"internalType": "address",
					"name": "admin",
					"type": "address"
				},
				{
					"internalType": "uint256",
					"name": "merkleTreeDuration",
					"type": "uint256"
				}
			],
			"name": "createGroup",
			"outputs": [
				{
					"internalType": "uint256",
					"name": "groupId",
					"type": "uint256"
				}
			],
			"stateMutability": "nonpayable",
			"type": "function"
		},
		{
			"inputs": [],
			"name": "createGroup",
			"outputs": [
				{
					"internalType": "uint256",
					"name": "groupId",
					"type": "uint256"
				}
			],
			"stateMutability": "nonpayable",
			"type": "function"
		},
		{
			"inputs": [
				{
					"internalType": "address",
					"name": "admin",
					"type": "address"
				}
			],
			"name": "createGroup",
			"outputs": [
				{
					"internalType": "uint256",
					"name": "groupId",
					"type": "uint256"
				}
			],
			"stateMutability": "nonpayable",
			"type": "function"
		},
		{
			"inputs": [
				{
					"internalType": "uint256",
					"name": "amount",
					"type": "uint256"
				},
				{
					"internalType": "uint256",
					"name": "commitment",
					"type": "uint256"
				}
			],
			"name": "deposit",
			"outputs": [],
			"stateMutability": "payable",
			"type": "function"
		},
		{
			"inputs": [
				{
					"internalType": "uint256",
					"name": "groupId",
					"type": "uint256"
				}
			],
			"name": "getGroupAdmin",
			"outputs": [
				{
					"internalType": "address",
					"name": "",
					"type": "address"
				}
			],
			"stateMutability": "view",
			"type": "function"
		},
		{
			"inputs": [
				{
					"internalType": "uint256",
					"name": "groupId",
					"type": "uint256"
				}
			],
			"name": "getMerkleTreeDepth",
			"outputs": [
				{
					"internalType": "uint256",
					"name": "",
					"type": "uint256"
				}
			],
			"stateMutability": "view",
			"type": "function"
		},
		{
			"inputs": [
				{
					"internalType": "uint256",
					"name": "groupId",
					"type": "uint256"
				}
			],
			"name": "getMerkleTreeRoot",
			"outputs": [
				{
					"internalType": "uint256",
					"name": "",
					"type": "uint256"
				}
			],
			"stateMutability": "view",
			"type": "function"
		},
		{
			"inputs": [
				{
					"internalType": "uint256",
					"name": "groupId",
					"type": "uint256"
				}
			],
			"name": "getMerkleTreeSize",
			"outputs": [
				{
					"internalType": "uint256",
					"name": "",
					"type": "uint256"
				}
			],
			"stateMutability": "view",
			"type": "function"
		},
		{
			"inputs": [],
			"name": "groupCounter",
			"outputs": [
				{
					"internalType": "uint256",
					"name": "",
					"type": "uint256"
				}
			],
			"stateMutability": "view",
			"type": "function"
		},
		{
			"inputs": [
				{
					"internalType": "uint256",
					"name": "",
					"type": "uint256"
				}
			],
			"name": "groups",
			"outputs": [
				{
					"internalType": "uint256",
					"name": "merkleTreeDuration",
					"type": "uint256"
				}
			],
			"stateMutability": "view",
			"type": "function"
		},
		{
			"inputs": [
				{
					"internalType": "uint256",
					"name": "groupId",
					"type": "uint256"
				},
				{
					"internalType": "uint256",
					"name": "identityCommitment",
					"type": "uint256"
				}
			],
			"name": "hasMember",
			"outputs": [
				{
					"internalType": "bool",
					"name": "",
					"type": "bool"
				}
			],
			"stateMutability": "view",
			"type": "function"
		},
		{
			"inputs": [
				{
					"internalType": "uint256",
					"name": "groupId",
					"type": "uint256"
				},
				{
					"internalType": "uint256",
					"name": "identityCommitment",
					"type": "uint256"
				}
			],
			"name": "indexOf",
			"outputs": [
				{
					"internalType": "uint256",
					"name": "",
					"type": "uint256"
				}
			],
			"stateMutability": "view",
			"type": "function"
		},
		{
			"inputs": [
				{
					"components": [
						{
							"internalType": "uint256",
							"name": "merkleTreeDepth",
							"type": "uint256"
						},
						{
							"internalType": "uint256",
							"name": "merkleTreeRoot",
							"type": "uint256"
						},
						{
							"internalType": "uint256",
							"name": "nullifier",
							"type": "uint256"
						},
						{
							"internalType": "uint256",
							"name": "message",
							"type": "uint256"
						},
						{
							"internalType": "uint256",
							"name": "scope",
							"type": "uint256"
						},
						{
							"internalType": "uint256[8]",
							"name": "points",
							"type": "uint256[8]"
						}
					],
					"internalType": "struct ISemaphore.SemaphoreProof",
					"name": "proof",
					"type": "tuple"
				},
				{
					"internalType": "uint256",
					"name": "groupId",
					"type": "uint256"
				}
			],
			"name": "redeemProduct",
			"outputs": [],
			"stateMutability": "nonpayable",
			"type": "function"
		},
		{
			"inputs": [
				{
					"internalType": "uint256",
					"name": "groupId",
					"type": "uint256"
				},
				{
					"internalType": "uint256",
					"name": "identityCommitment",
					"type": "uint256"
				},
				{
					"internalType": "uint256[]",
					"name": "merkleProofSiblings",
					"type": "uint256[]"
				}
			],
			"name": "removeMember",
			"outputs": [],
			"stateMutability": "nonpayable",
			"type": "function"
		},
		{
			"inputs": [
				{
					"internalType": "uint256",
					"name": "groupId",
					"type": "uint256"
				},
				{
					"internalType": "address",
					"name": "newAdmin",
					"type": "address"
				}
			],
			"name": "updateGroupAdmin",
			"outputs": [],
			"stateMutability": "nonpayable",
			"type": "function"
		},
		{
			"inputs": [
				{
					"internalType": "uint256",
					"name": "groupId",
					"type": "uint256"
				},
				{
					"internalType": "uint256",
					"name": "newMerkleTreeDuration",
					"type": "uint256"
				}
			],
			"name": "updateGroupMerkleTreeDuration",
			"outputs": [],
			"stateMutability": "nonpayable",
			"type": "function"
		},
		{
			"inputs": [
				{
					"internalType": "uint256",
					"name": "groupId",
					"type": "uint256"
				},
				{
					"internalType": "uint256",
					"name": "identityCommitment",
					"type": "uint256"
				},
				{
					"internalType": "uint256",
					"name": "newIdentityCommitment",
					"type": "uint256"
				},
				{
					"internalType": "uint256[]",
					"name": "merkleProofSiblings",
					"type": "uint256[]"
				}
			],
			"name": "updateMember",
			"outputs": [],
			"stateMutability": "nonpayable",
			"type": "function"
		},
		{
			"inputs": [
				{
					"internalType": "uint256",
					"name": "groupId",
					"type": "uint256"
				},
				{
					"components": [
						{
							"internalType": "uint256",
							"name": "merkleTreeDepth",
							"type": "uint256"
						},
						{
							"internalType": "uint256",
							"name": "merkleTreeRoot",
							"type": "uint256"
						},
						{
							"internalType": "uint256",
							"name": "nullifier",
							"type": "uint256"
						},
						{
							"internalType": "uint256",
							"name": "message",
							"type": "uint256"
						},
						{
							"internalType": "uint256",
							"name": "scope",
							"type": "uint256"
						},
						{
							"internalType": "uint256[8]",
							"name": "points",
							"type": "uint256[8]"
						}
					],
					"internalType": "struct ISemaphore.SemaphoreProof",
					"name": "proof",
					"type": "tuple"
				}
			],
			"name": "validateProof",
			"outputs": [],
			"stateMutability": "nonpayable",
			"type": "function"
		},
		{
			"inputs": [],
			"name": "verifier",
			"outputs": [
				{
					"internalType": "contract ISemaphoreVerifier",
					"name": "",
					"type": "address"
				}
			],
			"stateMutability": "view",
			"type": "function"
		},
		{
			"inputs": [
				{
					"internalType": "uint256",
					"name": "groupId",
					"type": "uint256"
				},
				{
					"components": [
						{
							"internalType": "uint256",
							"name": "merkleTreeDepth",
							"type": "uint256"
						},
						{
							"internalType": "uint256",
							"name": "merkleTreeRoot",
							"type": "uint256"
						},
						{
							"internalType": "uint256",
							"name": "nullifier",
							"type": "uint256"
						},
						{
							"internalType": "uint256",
							"name": "message",
							"type": "uint256"
						},
						{
							"internalType": "uint256",
							"name": "scope",
							"type": "uint256"
						},
						{
							"internalType": "uint256[8]",
							"name": "points",
							"type": "uint256[8]"
						}
					],
					"internalType": "struct ISemaphore.SemaphoreProof",
					"name": "proof",
					"type": "tuple"
				}
			],
			"name": "verifyProof",
			"outputs": [
				{
					"internalType": "bool",
					"name": "",
					"type": "bool"
				}
			],
			"stateMutability": "view",
			"type": "function"
		},
		{
			"inputs": [
				{
					"components": [
						{
							"internalType": "uint256",
							"name": "merkleTreeDepth",
							"type": "uint256"
						},
						{
							"internalType": "uint256",
							"name": "merkleTreeRoot",
							"type": "uint256"
						},
						{
							"internalType": "uint256",
							"name": "nullifier",
							"type": "uint256"
						},
						{
							"internalType": "uint256",
							"name": "message",
							"type": "uint256"
						},
						{
							"internalType": "uint256",
							"name": "scope",
							"type": "uint256"
						},
						{
							"internalType": "uint256[8]",
							"name": "points",
							"type": "uint256[8]"
						}
					],
					"internalType": "struct ISemaphore.SemaphoreProof",
					"name": "proof",
					"type": "tuple"
				},
				{
					"internalType": "uint256",
					"name": "groupId",
					"type": "uint256"
				}
			],
			"name": "withdraw",
			"outputs": [],
			"stateMutability": "nonpayable",
			"type": "function"
		}
	]
}