{
	"data": {
		"bytecode": {
			"linkReferences": {
				"poseidon-solidity/PoseidonT3.sol": {
					"PoseidonT3": [
						{
							"length": 20,
							"start": 11609
						},
						{
							"length": 20,
							"start": 12459
						},
						{
							"length": 20,
							"start": 13164
						},
						{
							"length": 20,
							"start": 13331
						},
						{
							"length": 20,
							"start": 13636
						},
						{
							"length": 20,
							"start": 13803
						}
					]
				}
			},
			"object": "6080604052600060065534801561001557600080fd5b50604051614a4b380380614a4b83398181016040528101906100379190610263565b8380600360006101000a81548173ffffffffffffffffffffffffffffffffffffffff021916908373ffffffffffffffffffffffffffffffffffffffff1602179055505082600b60006101000a81548173ffffffffffffffffffffffffffffffffffffffff021916908373ffffffffffffffffffffffffffffffffffffffff16021790555081600860006101000a81548173ffffffffffffffffffffffffffffffffffffffff021916908373ffffffffffffffffffffffffffffffffffffffff16021790555080600c60006101000a81548173ffffffffffffffffffffffffffffffffffffffff021916908373ffffffffffffffffffffffffffffffffffffffff160217905550505050506102ca565b600080fd5b600073ffffffffffffffffffffffffffffffffffffffff82169050919050565b60006101768261014b565b9050919050565b60006101888261016b565b9050919050565b6101988161017d565b81146101a357600080fd5b50565b6000815190506101b58161018f565b92915050565b60006101c68261016b565b9050919050565b6101d6816101bb565b81146101e157600080fd5b50565b6000815190506101f3816101cd565b92915050565b6102028161016b565b811461020d57600080fd5b50565b60008151905061021f816101f9565b92915050565b60006102308261016b565b9050919050565b61024081610225565b811461024b57600080fd5b50565b60008151905061025d81610237565b92915050565b6000806000806080858703121561027d5761027c610146565b5b600061028b878288016101a6565b945050602061029c878288016101e4565b93505060406102ad87828801610210565b92505060606102be8782880161024e565b91505092959194509250565b614772806102d96000396000f3fe608060405234801561001057600080fd5b50600436106101fb5760003560e01c80636cdd32fe1161011a578063a71b6cd0116100ad578063d24924fe1161007c578063d24924fe1461060d578063da3cda521461062b578063dabc4d5114610647578063fbd4987e14610677578063fcf0b6ec14610693576101fb565b8063a71b6cd014610575578063a9961c9414610591578063b4c609ea146105c1578063d0d898dd146105f1576101fb565b806390509d44116100e957806390509d44146104c657806390be89a9146104f6578063923fa6fe1461051457806396324bd414610545576101fb565b80636cdd32fe1461042e57806379d11d441461044a5780637ee35a0c146104665780638807d35814610496576101fb565b80634178c4d511610192578063575185ed11610161578063575185ed146103805780635aae96841461039e5780635c3f3b60146103ce5780636389e107146103fe576101fb565b80634178c4d5146102fa578063456f4188146103165780635195bd2914610346578063568ee82614610364576101fb565b806324600fc3116101ce57806324600fc3146102725780632b7ac3f31461027c5780632c8803631461029a5780633d87cb3d146102ca576101fb565b8063042453711461020057806306dd84851461021c57806314d75e9d1461024c5780631783efc314610256575b600080fd5b61021a60048036038101906102159190613573565b6106af565b005b610236600480360381019061023191906135d3565b6106f0565b6040516102439190613622565b60405180910390f35b61025461071e565b005b610270600480360381019061026b91906135d3565b610762565b005b61027a6107a1565b005b610284610861565b60405161029191906136bc565b60405180910390f35b6102b460048036038101906102af9190613715565b610887565b6040516102c19190613622565b60405180910390f35b6102e460048036038101906102df9190613755565b6108cd565b6040516102f19190613622565b60405180910390f35b610314600480360381019061030f9190613782565b6108e5565b005b610330600480360381019061032b919061382f565b61092a565b60405161033d919061388b565b60405180910390f35b61034e610d75565b60405161035b9190613622565b60405180910390f35b61037e600480360381019061037991906138a6565b610ddd565b005b610388610deb565b6040516103959190613622565b60405180910390f35b6103b860048036038101906103b39190613755565b610e30565b6040516103c59190613622565b60405180910390f35b6103e860048036038101906103e391906138e6565b610e59565b6040516103f59190613622565b60405180910390f35b61041860048036038101906104139190613755565b610ea0565b6040516104259190613622565b60405180910390f35b61044860048036038101906104439190613913565b610ebf565b005b610464600480360381019061045f91906139dd565b610f02565b005b610480600480360381019061047b9190613755565b6112cd565b60405161048d9190613622565b60405180910390f35b6104b060048036038101906104ab9190613a54565b6112ec565b6040516104bd919061388b565b60405180910390f35b6104e060048036038101906104db91906135d3565b61136f565b6040516104ed919061388b565b60405180910390f35b6104fe61139d565b60405161050b9190613622565b60405180910390f35b61052e60048036038101906105299190613755565b6113e1565b60405161053c929190613ab4565b60405180910390f35b61055f600480360381019061055a9190613755565b611666565b60405161056c9190613622565b60405180910390f35b61058f600480360381019061058a91906135d3565b611684565b005b6105ab60048036038101906105a69190613755565b6117d6565b6040516105b89190613aec565b60405180910390f35b6105db60048036038101906105d69190613c48565b611813565b6040516105e89190613622565b60405180910390f35b61060b6004803603810190610606919061382f565b611956565b005b610615611aa5565b6040516106229190613622565b60405180910390f35b61064560048036038101906106409190613755565b611aab565b005b610661600480360381019061065c9190613755565b611ab7565b60405161066e9190613622565b60405180910390f35b610691600480360381019061068c9190613ca4565b611ada565b005b6106ad60048036038101906106a891906135d3565b611c36565b005b60006106bc848484611d45565b9050426004600086815260200190815260200160002060010160008381526020019081526020016000208190555050505050565b600061071682600080868152602001908152602001600020611e5c90919063ffffffff16565b905092915050565b61072a60065430611ed6565b6000600760006006548152602001908152602001600020600201819055506006600081548092919061075b90613d45565b9190505550565b600061076e8383611fb5565b90504260046000858152602001908152602001600020600101600083815260200190815260200160002081905550505050565b60006107ab610d75565b9050600b60009054906101000a900473ffffffffffffffffffffffffffffffffffffffff1673ffffffffffffffffffffffffffffffffffffffff16636c61d60f600860009054906101000a900473ffffffffffffffffffffffffffffffffffffffff16836040518363ffffffff1660e01b815260040161082c929190613d8d565b600060405180830381600087803b15801561084657600080fd5b505af115801561085a573d6000803e3d6000fd5b5050505050565b600360009054906101000a900473ffffffffffffffffffffffffffffffffffffffff1681565b60006005600081548092919061089c90613d45565b9190505590506108ac8184611ed6565b81600460008381526020019081526020016000206000018190555092915050565b60006226ba10826108de9190613de5565b9050919050565b60006108f486868686866120c7565b90504260046000888152602001908152602001600020600101600083815260200190815260200160002081905550505050505050565b600082600073ffffffffffffffffffffffffffffffffffffffff166001600083815260200190815260200160002060009054906101000a900473ffffffffffffffffffffffffffffffffffffffff1673ffffffffffffffffffffffffffffffffffffffff16036109c6576040517f029f057900000000000000000000000000000000000000000000000000000000815260040160405180910390fd5b600160ff16836000013510806109e35750600c60ff168360000135115b15610a1a576040517fecf64f1200000000000000000000000000000000000000000000000000000000815260040160405180910390fd5b6000610a25856112cd565b905060008103610a61576040517fc8b02e0100000000000000000000000000000000000000000000000000000000815260040160405180910390fd5b6000610a6c86611ab7565b905080856020013514610b465760006004600088815260200190815260200160002060010160008760200135815260200190815260200160002054905060006004600089815260200190815260200160002060000154905060008203610afe576040517f4d32958600000000000000000000000000000000000000000000000000000000815260040160405180910390fd5b8082610b0a9190613e16565b421115610b43576040517f9581a99000000000000000000000000000000000000000000000000000000000815260040160405180910390fd5b50505b600360009054906101000a900473ffffffffffffffffffffffffffffffffffffffff1673ffffffffffffffffffffffffffffffffffffffff1663a23f019960405180604001604052808860a001600060088110610ba657610ba5613e4a565b5b602002013581526020018860a001600160088110610bc757610bc6613e4a565b5b6020020135815250604051806040016040528060405180604001604052808b60a001600260088110610bfc57610bfb613e4a565b5b602002013581526020018b60a001600360088110610c1d57610c1c613e4a565b5b6020020135815250815260200160405180604001604052808b60a001600460088110610c4c57610c4b613e4a565b5b602002013581526020018b60a001600560088110610c6d57610c6c613e4a565b5b602002013581525081525060405180604001604052808a60a001600660088110610c9a57610c99613e4a565b5b602002013581526020018a60a001600760088110610cbb57610cba613e4a565b5b602002013581525060405180608001604052808b6020013581526020018b604001358152602001610cef8c606001356121ff565b8152602001610d018c608001356121ff565b8152508a600001356040518663ffffffff1660e01b8152600401610d299594939291906140a6565b602060405180830381865afa158015610d46573d6000803e3d6000fd5b505050506040513d601f19601f82011682018060405250810190610d6a9190614128565b935050505092915050565b6000805b6006548111610dd957600080610d8e836113e1565b915091508184610d9e9190613e16565b935060008114610dc4578060076000858152602001908152602001600020600601819055505b50508080610dd190613d45565b915050610d79565b5090565b610de78282612236565b5050565b600060056000815480929190610e0090613d45565b919050559050610e108133611ed6565b610e10600460008381526020019081526020016000206000018190555090565b600080601e905062014a788184610e479190614155565b610e519190614155565b915050919050565b600060056000815480929190610e6e90613d45565b919050559050610e7e8183611ed6565b610e106004600083815260200190815260200160002060000181905550919050565b6000806000838152602001908152602001600020600101549050919050565b6000610ecd85858585612381565b905042600460008781526020019081526020016000206001016000838152602001908152602001600020819055505050505050565b600a54846080013514610f4a576040517f08c379a0000000000000000000000000000000000000000000000000000000008152600401610f41906141f4565b60405180910390fd5b610f548385611956565b600060076000858152602001908152602001600020600201549050600760008581526020019081526020016000206002016000815480929190610f9690613d45565b91905055506000600c60009054906101000a900473ffffffffffffffffffffffffffffffffffffffff1673ffffffffffffffffffffffffffffffffffffffff166335bc5462866040518263ffffffff1660e01b8152600401610ff89190613622565b602060405180830381865afa158015611015573d6000803e3d6000fd5b505050506040513d601f19601f820116820180604052508101906110399190614229565b600c60009054906101000a900473ffffffffffffffffffffffffffffffffffffffff1673ffffffffffffffffffffffffffffffffffffffff1663076f2129876040518263ffffffff1660e01b81526004016110949190613622565b602060405180830381865afa1580156110b1573d6000803e3d6000fd5b505050506040513d601f19601f820116820180604052508101906110d59190614229565b6110df9190614155565b90506000601f600c60009054906101000a900473ffffffffffffffffffffffffffffffffffffffff1673ffffffffffffffffffffffffffffffffffffffff166335bc5462886040518263ffffffff1660e01b81526004016111409190613622565b602060405180830381865afa15801561115d573d6000803e3d6000fd5b505050506040513d601f19601f820116820180604052508101906111819190614229565b61118b9190614155565b9050600b60009054906101000a900473ffffffffffffffffffffffffffffffffffffffff1673ffffffffffffffffffffffffffffffffffffffff166380cecea933846040518363ffffffff1660e01b81526004016111ea929190613d8d565b600060405180830381600087803b15801561120457600080fd5b505af1158015611218573d6000803e3d6000fd5b5050505082600760008881526020019081526020016000206003018686604051611243929190614286565b9081526020016040518091039020819055504260076000888152602001908152602001600020600401600085815260200190815260200160002060000181905550600081905080426112959190613e16565b600760008981526020019081526020016000206004016000868152602001908152602001600020600101819055505050505050505050565b6000806000838152602001908152602001600020600001549050919050565b600080600760008681526020019081526020016000206003018484604051611315929190614286565b908152602001604051809103902054905042600760008781526020019081526020016000206004016000838152602001908152602001600020600101541015611362576000915050611368565b60019150505b9392505050565b6000611395826000808681526020019081526020016000206124b490919063ffffffff16565b905092915050565b6000805b60065481116113dd576000806113b6836113e1565b9150915081846113c69190613e16565b9350505080806113d590613d45565b9150506113a1565b5090565b600080600760008481526020019081526020016000206006015490506000600760008581526020019081526020016000206002015490506000600c60009054906101000a900473ffffffffffffffffffffffffffffffffffffffff1673ffffffffffffffffffffffffffffffffffffffff1663076f2129866040518263ffffffff1660e01b81526004016114759190613622565b602060405180830381865afa158015611492573d6000803e3d6000fd5b505050506040513d601f19601f820116820180604052508101906114b69190614229565b90506000808490505b8381101561164f5760006007600089815260200190815260200160002060040160008381526020019081526020016000206000015490506000600760008a815260200190815260200160002060040160008481526020019081526020016000206001015490506000600760008b8152602001908152602001600020600401600085815260200190815260200160002060010154421190506000600c61156e8585611569919061429f565b6108cd565b1090506000600760008d8152602001908152602001600020600401600087815260200190815260200160002060020154905060006115b686426115b1919061429f565b6108cd565b9050831561161d5782156115fb57816115d987876115d4919061429f565b6108cd565b6115e3919061429f565b886115ee9190613e16565b9750505050505050611642565b81600c611608919061429f565b886116139190613e16565b9750869a5061163b565b8181611629919061429f565b886116349190613e16565b975060009a505b5050505050505b80806001019150506114bf565b50818161165c9190614155565b9450505050915091565b60046020528060005260406000206000915090508060000154905081565b6000600c60009054906101000a900473ffffffffffffffffffffffffffffffffffffffff1673ffffffffffffffffffffffffffffffffffffffff1663243b5710836040518263ffffffff1660e01b81526004016116e19190613622565b602060405180830381865afa1580156116fe573d6000803e3d6000fd5b505050506040513d601f19601f820116820180604052508101906117229190614229565b9050600b60009054906101000a900473ffffffffffffffffffffffffffffffffffffffff1673ffffffffffffffffffffffffffffffffffffffff166380cecea930670de0b6b3a7640000846117779190614155565b6040518363ffffffff1660e01b8152600401611794929190613d8d565b600060405180830381600087803b1580156117ae57600080fd5b505af11580156117c2573d6000803e3d6000fd5b505050506117d08284611fb5565b50505050565b60006001600083815260200190815260200160002060009054906101000a900473ffffffffffffffffffffffffffffffffffffffff169050919050565b600080600760008581526020019081526020016000206003018360405161183a9190614339565b908152602001604051809103902054905060006007600086815260200190815260200160002060040160008381526020019081526020016000206000015490506000611890824261188b919061429f565b610e30565b600c61189c919061429f565b90506000600c60009054906101000a900473ffffffffffffffffffffffffffffffffffffffff1673ffffffffffffffffffffffffffffffffffffffff1663076f2129886040518263ffffffff1660e01b81526004016118fb9190613622565b602060405180830381865afa158015611918573d6000803e3d6000fd5b505050506040513d601f19601f8201168201806040525081019061193c9190614229565b9050818161194a9190614155565b94505050505092915050565b6004600083815260200190815260200160002060020160008260400135815260200190815260200160002060009054906101000a900460ff16156119c6576040517f208b15e800000000000000000000000000000000000000000000000000000000815260040160405180910390fd5b6119d0828261092a565b611a06576040517f4aa6bc4000000000000000000000000000000000000000000000000000000000815260040160405180910390fd5b60016004600084815260200190815260200160002060020160008360400135815260200190815260200160002060006101000a81548160ff02191690831515021790555080608001358160200135837f0c32e14cfe81a05d371c248d22de6b7ae849e981b76a1f8842e7b6da73fc405a8460000135856040013586606001358760a001604051611a99949392919061436a565b60405180910390a45050565b60055481565b611ab4816124d7565b50565b6000611ad360008084815260200190815260200160002061268e565b9050919050565b600954836080013514611b22576040517f08c379a0000000000000000000000000000000000000000000000000000000008152600401611b19906141f4565b60405180910390fd5b611b2c8284611956565b6000611b388383611813565b9050600b60009054906101000a900473ffffffffffffffffffffffffffffffffffffffff1673ffffffffffffffffffffffffffffffffffffffff16636c61d60f30836040518363ffffffff1660e01b8152600401611b97929190613d8d565b600060405180830381600087803b158015611bb157600080fd5b505af1158015611bc5573d6000803e3d6000fd5b5050505060006007600085815260200190815260200160002060030183604051611bef9190614339565b908152602001604051809103902054905042600760008681526020019081526020016000206004016000838152602001908152602001600020600101819055505050505050565b813373ffffffffffffffffffffffffffffffffffffffff166001600083815260200190815260200160002060009054906101000a900473ffffffffffffffffffffffffffffffffffffffff1673ffffffffffffffffffffffffffffffffffffffff1614611ccf576040517fbb9bf27800000000000000000000000000000000000000000000000000000000815260040160405180910390fd5b600060046000858152602001908152602001600020600001549050826004600086815260200190815260200160002060000181905550837f264b2a8f6763c084235fe832ba903482b2ef1a521336881fc75b987c2dfd29c58285604051611d37929190613ab4565b60405180910390a250505050565b6000833373ffffffffffffffffffffffffffffffffffffffff166001600083815260200190815260200160002060009054906101000a900473ffffffffffffffffffffffffffffffffffffffff1673ffffffffffffffffffffffffffffffffffffffff1614611de0576040517fbb9bf27800000000000000000000000000000000000000000000000000000000815260040160405180910390fd5b6000611deb866112cd565b9050611e1385856000808a81526020019081526020016000206126b19092919063ffffffff16565b9250857f61e5e8054e3daf084a0c6c646c065e8bf5e7ca4d5567bda942309bd1652f349d82878787604051611e4b9493929190614422565b60405180910390a250509392505050565b6000808360030160008481526020019081526020016000205403611eac576040517f7204756c00000000000000000000000000000000000000000000000000000000815260040160405180910390fd5b600183600301600084815260200190815260200160002054611ece919061429f565b905092915050565b806001600084815260200190815260200160002060006101000a81548173ffffffffffffffffffffffffffffffffffffffff021916908373ffffffffffffffffffffffffffffffffffffffff160217905550817ff0adfb94eab6daf835deb69c5738fe636150c3dfd08094a76f39b963dc8cb05a60405160405180910390a28073ffffffffffffffffffffffffffffffffffffffff16600073ffffffffffffffffffffffffffffffffffffffff16837f0ba83579a0e79193ef649b9f5a8759d35af086ba62a3e207b52e4a8ae30d49e360405160405180910390a45050565b6000823373ffffffffffffffffffffffffffffffffffffffff166001600083815260200190815260200160002060009054906101000a900473ffffffffffffffffffffffffffffffffffffffff1673ffffffffffffffffffffffffffffffffffffffff1614612050576040517fbb9bf27800000000000000000000000000000000000000000000000000000000815260040160405180910390fd5b600061205b856112cd565b905061208184600080888152602001908152602001600020612c9590919063ffffffff16565b9250847f19239b3f93cd10558aaf11423af70c77763bf54f52bcc75bfa74d4d13548cde98286866040516120b793929190614462565b60405180910390a2505092915050565b6000853373ffffffffffffffffffffffffffffffffffffffff166001600083815260200190815260200160002060009054906101000a900473ffffffffffffffffffffffffffffffffffffffff1673ffffffffffffffffffffffffffffffffffffffff1614612162576040517fbb9bf27800000000000000000000000000000000000000000000000000000000815260040160405180910390fd5b6000612188876000808b8152602001908152602001600020611e5c90919063ffffffff16565b90506121b4878787876000808e8152602001908152602001600020612ef490949392919063ffffffff16565b9250877fea3588e4a2a0c93d6a0e69dfeaf7496f43ccccf02ad9ce0a5b7627cbca4b61b1828989876040516121ec9493929190614499565b60405180910390a2505095945050505050565b600060088260405160200161221491906144ff565b6040516020818303038152906040528051906020012060001c901c9050919050565b813373ffffffffffffffffffffffffffffffffffffffff166001600083815260200190815260200160002060009054906101000a900473ffffffffffffffffffffffffffffffffffffffff1673ffffffffffffffffffffffffffffffffffffffff16146122cf576040517fbb9bf27800000000000000000000000000000000000000000000000000000000815260040160405180910390fd5b816002600085815260200190815260200160002060006101000a81548173ffffffffffffffffffffffffffffffffffffffff021916908373ffffffffffffffffffffffffffffffffffffffff1602179055508173ffffffffffffffffffffffffffffffffffffffff163373ffffffffffffffffffffffffffffffffffffffff16847f1018365553cce55d9cb02ef73e18cc9311894f3fe1d1eafd235ac2d26cd8ba5860405160405180910390a4505050565b6000843373ffffffffffffffffffffffffffffffffffffffff166001600083815260200190815260200160002060009054906101000a900473ffffffffffffffffffffffffffffffffffffffff1673ffffffffffffffffffffffffffffffffffffffff161461241c576040517fbb9bf27800000000000000000000000000000000000000000000000000000000815260040160405180910390fd5b6000612442866000808a8152602001908152602001600020611e5c90919063ffffffff16565b905061246c8686866000808c81526020019081526020016000206134aa909392919063ffffffff16565b9250867f3108849c053c77b8073a11256dffb5ffd5b55e93e105a355e1c9061db890d8718288866040516124a293929190614462565b60405180910390a25050949350505050565b600080836003016000848152602001908152602001600020541415905092915050565b3373ffffffffffffffffffffffffffffffffffffffff166002600083815260200190815260200160002060009054906101000a900473ffffffffffffffffffffffffffffffffffffffff1673ffffffffffffffffffffffffffffffffffffffff161461256f576040517f34c4245d00000000000000000000000000000000000000000000000000000000815260040160405180910390fd5b60006001600083815260200190815260200160002060009054906101000a900473ffffffffffffffffffffffffffffffffffffffff169050336001600084815260200190815260200160002060006101000a81548173ffffffffffffffffffffffffffffffffffffffff021916908373ffffffffffffffffffffffffffffffffffffffff1602179055506002600083815260200190815260200160002060006101000a81549073ffffffffffffffffffffffffffffffffffffffff02191690553373ffffffffffffffffffffffffffffffffffffffff168173ffffffffffffffffffffffffffffffffffffffff16837f0ba83579a0e79193ef649b9f5a8759d35af086ba62a3e207b52e4a8ae30d49e360405160405180910390a45050565b600081600201600083600101548152602001908152602001600020549050919050565b6000808460000154905060005b8484905081101561283d577f30644e72e131a029b85045b68181585d2833e84879b9709143e1f593f00000018585838181106126fd576126fc613e4a565b5b905060200201351061273b576040517fc380a82e00000000000000000000000000000000000000000000000000000000815260040160405180910390fd5b60008585838181106127505761274f613e4a565b5b905060200201350361278e576040517f29691be200000000000000000000000000000000000000000000000000000000815260040160405180910390fd5b6127b1868686848181106127a5576127a4613e4a565b5b905060200201356124b4565b156127e8576040517f258a195a00000000000000000000000000000000000000000000000000000000815260040160405180910390fd5b806001836127f69190613e16565b6128009190613e16565b86600301600087878581811061281957612818613e4a565b5b905060200201358152602001908152602001600020819055508060010190506126be565b506060848480806020026020016040519081016040528093929190818152602001838360200280828437600081840152601f19601f8201169050808301925050505050505090506000866001015490505b858590508361289d9190613e16565b8160026128aa919061464d565b10156128c157806128ba90613d45565b905061288e565b8087600101819055506000839050600087879050856128e09190613e16565b90506000600183901c905060006001806001856128fd919061429f565b901c6129099190613e16565b905060005b85811015612c1c5760008383612924919061429f565b905060008167ffffffffffffffff81111561294257612941613b1d565b5b6040519080825280602002602001820160405280156129705781602001602082028036833780820191505090505b50905060005b82811015612b43576000886002888461298f9190613e16565b6129999190614155565b10156129bc578f60020160008681526020019081526020016000205490506129fc565b8a89600289856129cc9190613e16565b6129d69190614155565b6129e0919061429f565b815181106129f1576129f0613e4a565b5b602002602001015190505b600088600160028a86612a0f9190613e16565b612a199190614155565b612a239190613e16565b1015612a75578b8a600160028b87612a3b9190613e16565b612a459190614155565b612a4f9190613e16565b612a59919061429f565b81518110612a6a57612a69613e4a565b5b602002602001015190505b6000808214612b115773__$75f79a42d9bcbdbb69ad79ebd80f556f39$__63561558fe6040518060400160405280868152602001858152506040518263ffffffff1660e01b8152600401612ac99190614721565b602060405180830381865af4158015612ae6573d6000803e3d6000fd5b505050506040513d601f19601f82011682018060405250810190612b0a9190614229565b9050612b15565b8290505b80858581518110612b2957612b28613e4a565b5b602002602001018181525050836001019350505050612976565b50600180871603612b94578860018a51612b5d919061429f565b81518110612b6e57612b6d613e4a565b5b60200260200101518e600201600085815260200190815260200160002081905550612be1565b600189511115612be0578860028a51612bad919061429f565b81518110612bbe57612bbd613e4a565b5b60200260200101518e6002016000858152602001908152602001600020819055505b5b849650600185901c9450809850839550600180600186612c01919061429f565b901c612c0d9190613e16565b9350826001019250505061290e565b508989905087612c2c9190613e16565b8b6000018190555085600081518110612c4857612c47613e4a565b5b60200260200101518b60020160008781526020019081526020016000208190555085600081518110612c7d57612c7c613e4a565b5b60200260200101519750505050505050509392505050565b60007f30644e72e131a029b85045b68181585d2833e84879b9709143e1f593f00000018210612cf0576040517fc380a82e00000000000000000000000000000000000000000000000000000000815260040160405180910390fd5b60008203612d2a576040517f29691be200000000000000000000000000000000000000000000000000000000815260040160405180910390fd5b612d3483836124b4565b15612d6b576040517f258a195a00000000000000000000000000000000000000000000000000000000815260040160405180910390fd5b600083600001549050600084600101549050600182612d8a9190613e16565b816002612d97919061464d565b1015612daa5780612da790613d45565b90505b808560010181905550600084905060005b82811015612e9e576001808286901c1603612e785773__$75f79a42d9bcbdbb69ad79ebd80f556f39$__63561558fe60405180604001604052808a6002016000868152602001908152602001600020548152602001858152506040518263ffffffff1660e01b8152600401612e309190614721565b602060405180830381865af4158015612e4d573d6000803e3d6000fd5b505050506040513d601f19601f82011682018060405250810190612e719190614229565b9150612e93565b81876002016000838152602001908152602001600020819055505b806001019050612dbb565b5082612ea990613d45565b92508286600001819055508086600201600084815260200190815260200160002081905550828660030160008781526020019081526020016000208190555080935050505092915050565b60007f30644e72e131a029b85045b68181585d2833e84879b9709143e1f593f00000018410612f4f576040517fc380a82e00000000000000000000000000000000000000000000000000000000815260040160405180910390fd5b612f5986866124b4565b612f8f576040517f7204756c00000000000000000000000000000000000000000000000000000000815260040160405180910390fd5b612f9986856124b4565b15612fd0576040517f258a195a00000000000000000000000000000000000000000000000000000000815260040160405180910390fd5b6000612fdc8787611e5c565b905060008590506000879050600060018a60000154612ffb919061429f565b90506000808b60010154905060005b818110156133e9576001808289901c16036131ea577f30644e72e131a029b85045b68181585d2833e84879b9709143e1f593f00000018a8a8581811061305357613052613e4a565b5b9050602002013510613091576040517fc380a82e00000000000000000000000000000000000000000000000000000000815260040160405180910390fd5b73__$75f79a42d9bcbdbb69ad79ebd80f556f39$__63561558fe60405180604001604052808d8d888181106130c9576130c8613e4a565b5b905060200201358152602001898152506040518263ffffffff1660e01b81526004016130f59190614721565b602060405180830381865af4158015613112573d6000803e3d6000fd5b505050506040513d601f19601f820116820180604052508101906131369190614229565b955073__$75f79a42d9bcbdbb69ad79ebd80f556f39$__63561558fe60405180604001604052808d8d888181106131705761316f613e4a565b5b905060200201358152602001888152506040518263ffffffff1660e01b815260040161319c9190614721565b602060405180830381865af41580156131b9573d6000803e3d6000fd5b505050506040513d601f19601f820116820180604052508101906131dd9190614229565b94508260010192506133de565b8084901c8188901c146133c2577f30644e72e131a029b85045b68181585d2833e84879b9709143e1f593f00000018a8a8581811061322b5761322a613e4a565b5b9050602002013510613269576040517fc380a82e00000000000000000000000000000000000000000000000000000000815260040160405180910390fd5b73__$75f79a42d9bcbdbb69ad79ebd80f556f39$__63561558fe60405180604001604052808981526020018d8d888181106132a7576132a6613e4a565b5b905060200201358152506040518263ffffffff1660e01b81526004016132cd9190614721565b602060405180830381865af41580156132ea573d6000803e3d6000fd5b505050506040513d601f19601f8201168201806040525081019061330e9190614229565b955073__$75f79a42d9bcbdbb69ad79ebd80f556f39$__63561558fe60405180604001604052808881526020018d8d8881811061334e5761334d613e4a565b5b905060200201358152506040518263ffffffff1660e01b81526004016133749190614721565b602060405180830381865af4158015613391573d6000803e3d6000fd5b505050506040513d601f19601f820116820180604052508101906133b59190614229565b94508260010192506133dd565b858d6002016000858152602001908152602001600020819055505b5b80600101905061300a565b506133f38c61268e565b841461342b576040517f3fa930c600000000000000000000000000000000000000000000000000000000815260040160405180910390fd5b848c60020160008381526020019081526020016000208190555060008a1461347d578b60030160008c8152602001908152602001600020548c60030160008c8152602001908152602001600020819055505b60008c60030160008d81526020019081526020016000208190555084965050505050505095945050505050565b60006134ba858560008686612ef4565b9050949350505050565b6000604051905090565b600080fd5b600080fd5b6000819050919050565b6134eb816134d8565b81146134f657600080fd5b50565b600081359050613508816134e2565b92915050565b600080fd5b600080fd5b600080fd5b60008083601f8401126135335761353261350e565b5b8235905067ffffffffffffffff8111156135505761354f613513565b5b60208301915083602082028301111561356c5761356b613518565b5b9250929050565b60008060006040848603121561358c5761358b6134ce565b5b600061359a868287016134f9565b935050602084013567ffffffffffffffff8111156135bb576135ba6134d3565b5b6135c78682870161351d565b92509250509250925092565b600080604083850312156135ea576135e96134ce565b5b60006135f8858286016134f9565b9250506020613609858286016134f9565b9150509250929050565b61361c816134d8565b82525050565b60006020820190506136376000830184613613565b92915050565b600073ffffffffffffffffffffffffffffffffffffffff82169050919050565b6000819050919050565b600061368261367d6136788461363d565b61365d565b61363d565b9050919050565b600061369482613667565b9050919050565b60006136a682613689565b9050919050565b6136b68161369b565b82525050565b60006020820190506136d160008301846136ad565b92915050565b60006136e28261363d565b9050919050565b6136f2816136d7565b81146136fd57600080fd5b50565b60008135905061370f816136e9565b92915050565b6000806040838503121561372c5761372b6134ce565b5b600061373a85828601613700565b925050602061374b858286016134f9565b9150509250929050565b60006020828403121561376b5761376a6134ce565b5b6000613779848285016134f9565b91505092915050565b60008060008060006080868803121561379e5761379d6134ce565b5b60006137ac888289016134f9565b95505060206137bd888289016134f9565b94505060406137ce888289016134f9565b935050606086013567ffffffffffffffff8111156137ef576137ee6134d3565b5b6137fb8882890161351d565b92509250509295509295909350565b600080fd5b60006101a082840312156138265761382561380a565b5b81905092915050565b6000806101c08385031215613847576138466134ce565b5b6000613855858286016134f9565b92505060206138668582860161380f565b9150509250929050565b60008115159050919050565b61388581613870565b82525050565b60006020820190506138a0600083018461387c565b92915050565b600080604083850312156138bd576138bc6134ce565b5b60006138cb858286016134f9565b92505060206138dc85828601613700565b9150509250929050565b6000602082840312156138fc576138fb6134ce565b5b600061390a84828501613700565b91505092915050565b6000806000806060858703121561392d5761392c6134ce565b5b600061393b878288016134f9565b945050602061394c878288016134f9565b935050604085013567ffffffffffffffff81111561396d5761396c6134d3565b5b6139798782880161351d565b925092505092959194509250565b60008083601f84011261399d5761399c61350e565b5b8235905067ffffffffffffffff8111156139ba576139b9613513565b5b6020830191508360018202830111156139d6576139d5613518565b5b9250929050565b6000806000806101e085870312156139f8576139f76134ce565b5b6000613a068782880161380f565b9450506101a0613a18878288016134f9565b9350506101c085013567ffffffffffffffff811115613a3a57613a396134d3565b5b613a4687828801613987565b925092505092959194509250565b600080600060408486031215613a6d57613a6c6134ce565b5b6000613a7b868287016134f9565b935050602084013567ffffffffffffffff811115613a9c57613a9b6134d3565b5b613aa886828701613987565b92509250509250925092565b6000604082019050613ac96000830185613613565b613ad66020830184613613565b9392505050565b613ae6816136d7565b82525050565b6000602082019050613b016000830184613add565b92915050565b600080fd5b6000601f19601f8301169050919050565b7f4e487b7100000000000000000000000000000000000000000000000000000000600052604160045260246000fd5b613b5582613b0c565b810181811067ffffffffffffffff82111715613b7457613b73613b1d565b5b80604052505050565b6000613b876134c4565b9050613b938282613b4c565b919050565b600067ffffffffffffffff821115613bb357613bb2613b1d565b5b613bbc82613b0c565b9050602081019050919050565b82818337600083830152505050565b6000613beb613be684613b98565b613b7d565b905082815260208101848484011115613c0757613c06613b07565b5b613c12848285613bc9565b509392505050565b600082601f830112613c2f57613c2e61350e565b5b8135613c3f848260208601613bd8565b91505092915050565b60008060408385031215613c5f57613c5e6134ce565b5b6000613c6d858286016134f9565b925050602083013567ffffffffffffffff811115613c8e57613c8d6134d3565b5b613c9a85828601613c1a565b9150509250929050565b60008060006101e08486031215613cbe57613cbd6134ce565b5b6000613ccc8682870161380f565b9350506101a0613cde868287016134f9565b9250506101c084013567ffffffffffffffff811115613d0057613cff6134d3565b5b613d0c86828701613c1a565b9150509250925092565b7f4e487b7100000000000000000000000000000000000000000000000000000000600052601160045260246000fd5b6000613d50826134d8565b91507fffffffffffffffffffffffffffffffffffffffffffffffffffffffffffffffff8203613d8257613d81613d16565b5b600182019050919050565b6000604082019050613da26000830185613add565b613daf6020830184613613565b9392505050565b7f4e487b7100000000000000000000000000000000000000000000000000000000600052601260045260246000fd5b6000613df0826134d8565b9150613dfb836134d8565b925082613e0b57613e0a613db6565b5b828204905092915050565b6000613e21826134d8565b9150613e2c836134d8565b9250828201905080821115613e4457613e43613d16565b5b92915050565b7f4e487b7100000000000000000000000000000000000000000000000000000000600052603260045260246000fd5b600060029050919050565b600081905092915050565b6000819050919050565b613ea2816134d8565b82525050565b6000613eb48383613e99565b60208301905092915050565b6000602082019050919050565b613ed681613e79565b613ee08184613e84565b9250613eeb82613e8f565b8060005b83811015613f1c578151613f038782613ea8565b9650613f0e83613ec0565b925050600181019050613eef565b505050505050565b600060029050919050565b600081905092915050565b6000819050919050565b600081905092915050565b613f5881613e79565b613f628184613f44565b9250613f6d82613e8f565b8060005b83811015613f9e578151613f858782613ea8565b9650613f9083613ec0565b925050600181019050613f71565b505050505050565b6000613fb28383613f4f565b60408301905092915050565b6000602082019050919050565b613fd481613f24565b613fde8184613f2f565b9250613fe982613f3a565b8060005b8381101561401a5781516140018782613fa6565b965061400c83613fbe565b925050600181019050613fed565b505050505050565b600060049050919050565b600081905092915050565b6000819050919050565b6000602082019050919050565b61405881614022565b614062818461402d565b925061406d82614038565b8060005b8381101561409e5781516140858782613ea8565b965061409083614042565b925050600181019050614071565b505050505050565b60006101a0820190506140bc6000830188613ecd565b6140c96040830187613fcb565b6140d660c0830186613ecd565b6140e461010083018561404f565b6140f2610180830184613613565b9695505050505050565b61410581613870565b811461411057600080fd5b50565b600081519050614122816140fc565b92915050565b60006020828403121561413e5761413d6134ce565b5b600061414c84828501614113565b91505092915050565b6000614160826134d8565b915061416b836134d8565b9250828202614179816134d8565b915082820484148315176141905761418f613d16565b5b5092915050565b600082825260208201905092915050565b7f6e756c6c6966696572206e6f7420636f72726563740000000000000000000000600082015250565b60006141de601583614197565b91506141e9826141a8565b602082019050919050565b6000602082019050818103600083015261420d816141d1565b9050919050565b600081519050614223816134e2565b92915050565b60006020828403121561423f5761423e6134ce565b5b600061424d84828501614214565b91505092915050565b600081905092915050565b600061426d8385614256565b935061427a838584613bc9565b82840190509392505050565b6000614293828486614261565b91508190509392505050565b60006142aa826134d8565b91506142b5836134d8565b92508282039050818111156142cd576142cc613d16565b5b92915050565b600081519050919050565b60005b838110156142fc5780820151818401526020810190506142e1565b60008484015250505050565b6000614313826142d3565b61431d8185614256565b935061432d8185602086016142de565b80840191505092915050565b60006143458284614308565b915081905092915050565b82818337505050565b6143666101008383614350565b5050565b6000610160820190506143806000830187613613565b61438d6020830186613613565b61439a6040830185613613565b6143a76060830184614359565b95945050505050565b600082825260208201905092915050565b600080fd5b60006143d283856143b0565b93507f07ffffffffffffffffffffffffffffffffffffffffffffffffffffffffffffff831115614405576144046143c1565b5b602083029250614416838584614350565b82840190509392505050565b60006060820190506144376000830187613613565b818103602083015261444a8185876143c6565b90506144596040830184613613565b95945050505050565b60006060820190506144776000830186613613565b6144846020830185613613565b6144916040830184613613565b949350505050565b60006080820190506144ae6000830187613613565b6144bb6020830186613613565b6144c86040830185613613565b6144d56060830184613613565b95945050505050565b6000819050919050565b6144f96144f4826134d8565b6144de565b82525050565b600061450b82846144e8565b60208201915081905092915050565b60008160011c9050919050565b6000808291508390505b60018511156145715780860481111561454d5761454c613d16565b5b600185161561455c5780820291505b808102905061456a8561451a565b9450614531565b94509492505050565b60008261458a5760019050614646565b816145985760009050614646565b81600181146145ae57600281146145b8576145e7565b6001915050614646565b60ff8411156145ca576145c9613d16565b5b8360020a9150848211156145e1576145e0613d16565b5b50614646565b5060208310610133831016604e8410600b841016171561461c5782820a90508381111561461757614616613d16565b5b614646565b6146298484846001614527565b925090508184048111156146405761463f613d16565b5b81810290505b9392505050565b6000614658826134d8565b9150614663836134d8565b92506146907fffffffffffffffffffffffffffffffffffffffffffffffffffffffffffffffff848461457a565b905092915050565b600081905092915050565b6146ac816134d8565b82525050565b60006146be83836146a3565b60208301905092915050565b6146d381613e79565b6146dd8184614698565b92506146e882613e8f565b8060005b8381101561471957815161470087826146b2565b965061470b83613ec0565b9250506001810190506146ec565b505050505050565b600060408201905061473660008301846146ca565b9291505056fea264697066735822122092ca05cf4bafc91fb86fcc1b1c402a1be0bd8e4b927ac3e3a370caae9b8c04d164736f6c634300081a0033",
			"opcodes": "PUSH1 0x80 PUSH1 0x40 MSTORE PUSH1 0x0 PUSH1 0x6 SSTORE CALLVALUE DUP1 ISZERO PUSH2 0x15 JUMPI PUSH1 0x0 DUP1 REVERT JUMPDEST POP PUSH1 0x40 MLOAD PUSH2 0x4A4B CODESIZE SUB DUP1 PUSH2 0x4A4B DUP4 CODECOPY DUP2 DUP2 ADD PUSH1 0x40 MSTORE DUP2 ADD SWAP1 PUSH2 0x37 SWAP2 SWAP1 PUSH2 0x263 JUMP JUMPDEST DUP4 DUP1 PUSH1 0x3 PUSH1 0x0 PUSH2 0x100 EXP DUP2 SLOAD DUP2 PUSH20 0xFFFFFFFFFFFFFFFFFFFFFFFFFFFFFFFFFFFFFFFF MUL NOT AND SWAP1 DUP4 PUSH20 0xFFFFFFFFFFFFFFFFFFFFFFFFFFFFFFFFFFFFFFFF AND MUL OR SWAP1 SSTORE POP POP DUP3 PUSH1 0xB PUSH1 0x0 PUSH2 0x100 EXP DUP2 SLOAD DUP2 PUSH20 0xFFFFFFFFFFFFFFFFFFFFFFFFFFFFFFFFFFFFFFFF MUL NOT AND SWAP1 DUP4 PUSH20 0xFFFFFFFFFFFFFFFFFFFFFFFFFFFFFFFFFFFFFFFF AND MUL OR SWAP1 SSTORE POP DUP2 PUSH1 0x8 PUSH1 0x0 PUSH2 0x100 EXP DUP2 SLOAD DUP2 PUSH20 0xFFFFFFFFFFFFFFFFFFFFFFFFFFFFFFFFFFFFFFFF MUL NOT AND SWAP1 DUP4 PUSH20 0xFFFFFFFFFFFFFFFFFFFFFFFFFFFFFFFFFFFFFFFF AND MUL OR SWAP1 SSTORE POP DUP1 PUSH1 0xC PUSH1 0x0 PUSH2 0x100 EXP DUP2 SLOAD DUP2 PUSH20 0xFFFFFFFFFFFFFFFFFFFFFFFFFFFFFFFFFFFFFFFF MUL NOT AND SWAP1 DUP4 PUSH20 0xFFFFFFFFFFFFFFFFFFFFFFFFFFFFFFFFFFFFFFFF AND MUL OR SWAP1 SSTORE POP POP POP POP POP PUSH2 0x2CA JUMP JUMPDEST PUSH1 0x0 DUP1 REVERT JUMPDEST PUSH1 0x0 PUSH20 0xFFFFFFFFFFFFFFFFFFFFFFFFFFFFFFFFFFFFFFFF DUP3 AND SWAP1 POP SWAP2 SWAP1 POP JUMP JUMPDEST PUSH1 0x0 PUSH2 0x176 DUP3 PUSH2 0x14B JUMP JUMPDEST SWAP1 POP SWAP2 SWAP1 POP JUMP JUMPDEST PUSH1 0x0 PUSH2 0x188 DUP3 PUSH2 0x16B JUMP JUMPDEST SWAP1 POP SWAP2 SWAP1 POP JUMP JUMPDEST PUSH2 0x198 DUP2 PUSH2 0x17D JUMP JUMPDEST DUP2 EQ PUSH2 0x1A3 JUMPI PUSH1 0x0 DUP1 REVERT JUMPDEST POP JUMP JUMPDEST PUSH1 0x0 DUP2 MLOAD SWAP1 POP PUSH2 0x1B5 DUP2 PUSH2 0x18F JUMP JUMPDEST SWAP3 SWAP2 POP POP JUMP JUMPDEST PUSH1 0x0 PUSH2 0x1C6 DUP3 PUSH2 0x16B JUMP JUMPDEST SWAP1 POP SWAP2 SWAP1 POP JUMP JUMPDEST PUSH2 0x1D6 DUP2 PUSH2 0x1BB JUMP JUMPDEST DUP2 EQ PUSH2 0x1E1 JUMPI PUSH1 0x0 DUP1 REVERT JUMPDEST POP JUMP JUMPDEST PUSH1 0x0 DUP2 MLOAD SWAP1 POP PUSH2 0x1F3 DUP2 PUSH2 0x1CD JUMP JUMPDEST SWAP3 SWAP2 POP POP JUMP JUMPDEST PUSH2 0x202 DUP2 PUSH2 0x16B JUMP JUMPDEST DUP2 EQ PUSH2 0x20D JUMPI PUSH1 0x0 DUP1 REVERT JUMPDEST POP JUMP JUMPDEST PUSH1 0x0 DUP2 MLOAD SWAP1 POP PUSH2 0x21F DUP2 PUSH2 0x1F9 JUMP JUMPDEST SWAP3 SWAP2 POP POP JUMP JUMPDEST PUSH1 0x0 PUSH2 0x230 DUP3 PUSH2 0x16B JUMP JUMPDEST SWAP1 POP SWAP2 SWAP1 POP JUMP JUMPDEST PUSH2 0x240 DUP2 PUSH2 0x225 JUMP JUMPDEST DUP2 EQ PUSH2 0x24B JUMPI PUSH1 0x0 DUP1 REVERT JUMPDEST POP JUMP JUMPDEST PUSH1 0x0 DUP2 MLOAD SWAP1 POP PUSH2 0x25D DUP2 PUSH2 0x237 JUMP JUMPDEST SWAP3 SWAP2 POP POP JUMP JUMPDEST PUSH1 0x0 DUP1 PUSH1 0x0 DUP1 PUSH1 0x80 DUP6 DUP8 SUB SLT ISZERO PUSH2 0x27D JUMPI PUSH2 0x27C PUSH2 0x146 JUMP JUMPDEST JUMPDEST PUSH1 0x0 PUSH2 0x28B DUP8 DUP3 DUP9 ADD PUSH2 0x1A6 JUMP JUMPDEST SWAP5 POP POP PUSH1 0x20 PUSH2 0x29C DUP8 DUP3 DUP9 ADD PUSH2 0x1E4 JUMP JUMPDEST SWAP4 POP POP PUSH1 0x40 PUSH2 0x2AD DUP8 DUP3 DUP9 ADD PUSH2 0x210 JUMP JUMPDEST SWAP3 POP POP PUSH1 0x60 PUSH2 0x2BE DUP8 DUP3 DUP9 ADD PUSH2 0x24E JUMP JUMPDEST SWAP2 POP POP SWAP3 SWAP6 SWAP2 SWAP5 POP SWAP3 POP JUMP JUMPDEST PUSH2 0x4772 DUP1 PUSH2 0x2D9 PUSH1 0x0 CODECOPY PUSH1 0x0 RETURN INVALID PUSH1 0x80 PUSH1 0x40 MSTORE CALLVALUE DUP1 ISZERO PUSH2 0x10 JUMPI PUSH1 0x0 DUP1 REVERT JUMPDEST POP PUSH1 0x4 CALLDATASIZE LT PUSH2 0x1FB JUMPI PUSH1 0x0 CALLDATALOAD PUSH1 0xE0 SHR DUP1 PUSH4 0x6CDD32FE GT PUSH2 0x11A JUMPI DUP1 PUSH4 0xA71B6CD0 GT PUSH2 0xAD JUMPI DUP1 PUSH4 0xD24924FE GT PUSH2 0x7C JUMPI DUP1 PUSH4 0xD24924FE EQ PUSH2 0x60D JUMPI DUP1 PUSH4 0xDA3CDA52 EQ PUSH2 0x62B JUMPI DUP1 PUSH4 0xDABC4D51 EQ PUSH2 0x647 JUMPI DUP1 PUSH4 0xFBD4987E EQ PUSH2 0x677 JUMPI DUP1 PUSH4 0xFCF0B6EC EQ PUSH2 0x693 JUMPI PUSH2 0x1FB JUMP JUMPDEST DUP1 PUSH4 0xA71B6CD0 EQ PUSH2 0x575 JUMPI DUP1 PUSH4 0xA9961C94 EQ PUSH2 0x591 JUMPI DUP1 PUSH4 0xB4C609EA EQ PUSH2 0x5C1 JUMPI DUP1 PUSH4 0xD0D898DD EQ PUSH2 0x5F1 JUMPI PUSH2 0x1FB JUMP JUMPDEST DUP1 PUSH4 0x90509D44 GT PUSH2 0xE9 JUMPI DUP1 PUSH4 0x90509D44 EQ PUSH2 0x4C6 JUMPI DUP1 PUSH4 0x90BE89A9 EQ PUSH2 0x4F6 JUMPI DUP1 PUSH4 0x923FA6FE EQ PUSH2 0x514 JUMPI DUP1 PUSH4 0x96324BD4 EQ PUSH2 0x545 JUMPI PUSH2 0x1FB JUMP JUMPDEST DUP1 PUSH4 0x6CDD32FE EQ PUSH2 0x42E JUMPI DUP1 PUSH4 0x79D11D44 EQ PUSH2 0x44A JUMPI DUP1 PUSH4 0x7EE35A0C EQ PUSH2 0x466 JUMPI DUP1 PUSH4 0x8807D358 EQ PUSH2 0x496 JUMPI PUSH2 0x1FB JUMP JUMPDEST DUP1 PUSH4 0x4178C4D5 GT PUSH2 0x192 JUMPI DUP1 PUSH4 0x575185ED GT PUSH2 0x161 JUMPI DUP1 PUSH4 0x575185ED EQ PUSH2 0x380 JUMPI DUP1 PUSH4 0x5AAE9684 EQ PUSH2 0x39E JUMPI DUP1 PUSH4 0x5C3F3B60 EQ PUSH2 0x3CE JUMPI DUP1 PUSH4 0x6389E107 EQ PUSH2 0x3FE JUMPI PUSH2 0x1FB JUMP JUMPDEST DUP1 PUSH4 0x4178C4D5 EQ PUSH2 0x2FA JUMPI DUP1 PUSH4 0x456F4188 EQ PUSH2 0x316 JUMPI DUP1 PUSH4 0x5195BD29 EQ PUSH2 0x346 JUMPI DUP1 PUSH4 0x568EE826 EQ PUSH2 0x364 JUMPI PUSH2 0x1FB JUMP JUMPDEST DUP1 PUSH4 0x24600FC3 GT PUSH2 0x1CE JUMPI DUP1 PUSH4 0x24600FC3 EQ PUSH2 0x272 JUMPI DUP1 PUSH4 0x2B7AC3F3 EQ PUSH2 0x27C JUMPI DUP1 PUSH4 0x2C880363 EQ PUSH2 0x29A JUMPI DUP1 PUSH4 0x3D87CB3D EQ PUSH2 0x2CA JUMPI PUSH2 0x1FB JUMP JUMPDEST DUP1 PUSH4 0x4245371 EQ PUSH2 0x200 JUMPI DUP1 PUSH4 0x6DD8485 EQ PUSH2 0x21C JUMPI DUP1 PUSH4 0x14D75E9D EQ PUSH2 0x24C JUMPI DUP1 PUSH4 0x1783EFC3 EQ PUSH2 0x256 JUMPI JUMPDEST PUSH1 0x0 DUP1 REVERT JUMPDEST PUSH2 0x21A PUSH1 0x4 DUP1 CALLDATASIZE SUB DUP2 ADD SWAP1 PUSH2 0x215 SWAP2 SWAP1 PUSH2 0x3573 JUMP JUMPDEST PUSH2 0x6AF JUMP JUMPDEST STOP JUMPDEST PUSH2 0x236 PUSH1 0x4 DUP1 CALLDATASIZE SUB DUP2 ADD SWAP1 PUSH2 0x231 SWAP2 SWAP1 PUSH2 0x35D3 JUMP JUMPDEST PUSH2 0x6F0 JUMP JUMPDEST PUSH1 0x40 MLOAD PUSH2 0x243 SWAP2 SWAP1 PUSH2 0x3622 JUMP JUMPDEST PUSH1 0x40 MLOAD DUP1 SWAP2 SUB SWAP1 RETURN JUMPDEST PUSH2 0x254 PUSH2 0x71E JUMP JUMPDEST STOP JUMPDEST PUSH2 0x270 PUSH1 0x4 DUP1 CALLDATASIZE SUB DUP2 ADD SWAP1 PUSH2 0x26B SWAP2 SWAP1 PUSH2 0x35D3 JUMP JUMPDEST PUSH2 0x762 JUMP JUMPDEST STOP JUMPDEST PUSH2 0x27A PUSH2 0x7A1 JUMP JUMPDEST STOP JUMPDEST PUSH2 0x284 PUSH2 0x861 JUMP JUMPDEST PUSH1 0x40 MLOAD PUSH2 0x291 SWAP2 SWAP1 PUSH2 0x36BC JUMP JUMPDEST PUSH1 0x40 MLOAD DUP1 SWAP2 SUB SWAP1 RETURN JUMPDEST PUSH2 0x2B4 PUSH1 0x4 DUP1 CALLDATASIZE SUB DUP2 ADD SWAP1 PUSH2 0x2AF SWAP2 SWAP1 PUSH2 0x3715 JUMP JUMPDEST PUSH2 0x887 JUMP JUMPDEST PUSH1 0x40 MLOAD PUSH2 0x2C1 SWAP2 SWAP1 PUSH2 0x3622 JUMP JUMPDEST PUSH1 0x40 MLOAD DUP1 SWAP2 SUB SWAP1 RETURN JUMPDEST PUSH2 0x2E4 PUSH1 0x4 DUP1 CALLDATASIZE SUB DUP2 ADD SWAP1 PUSH2 0x2DF SWAP2 SWAP1 PUSH2 0x3755 JUMP JUMPDEST PUSH2 0x8CD JUMP JUMPDEST PUSH1 0x40 MLOAD PUSH2 0x2F1 SWAP2 SWAP1 PUSH2 0x3622 JUMP JUMPDEST PUSH1 0x40 MLOAD DUP1 SWAP2 SUB SWAP1 RETURN JUMPDEST PUSH2 0x314 PUSH1 0x4 DUP1 CALLDATASIZE SUB DUP2 ADD SWAP1 PUSH2 0x30F SWAP2 SWAP1 PUSH2 0x3782 JUMP JUMPDEST PUSH2 0x8E5 JUMP JUMPDEST STOP JUMPDEST PUSH2 0x330 PUSH1 0x4 DUP1 CALLDATASIZE SUB DUP2 ADD SWAP1 PUSH2 0x32B SWAP2 SWAP1 PUSH2 0x382F JUMP JUMPDEST PUSH2 0x92A JUMP JUMPDEST PUSH1 0x40 MLOAD PUSH2 0x33D SWAP2 SWAP1 PUSH2 0x388B JUMP JUMPDEST PUSH1 0x40 MLOAD DUP1 SWAP2 SUB SWAP1 RETURN JUMPDEST PUSH2 0x34E PUSH2 0xD75 JUMP JUMPDEST PUSH1 0x40 MLOAD PUSH2 0x35B SWAP2 SWAP1 PUSH2 0x3622 JUMP JUMPDEST PUSH1 0x40 MLOAD DUP1 SWAP2 SUB SWAP1 RETURN JUMPDEST PUSH2 0x37E PUSH1 0x4 DUP1 CALLDATASIZE SUB DUP2 ADD SWAP1 PUSH2 0x379 SWAP2 SWAP1 PUSH2 0x38A6 JUMP JUMPDEST PUSH2 0xDDD JUMP JUMPDEST STOP JUMPDEST PUSH2 0x388 PUSH2 0xDEB JUMP JUMPDEST PUSH1 0x40 MLOAD PUSH2 0x395 SWAP2 SWAP1 PUSH2 0x3622 JUMP JUMPDEST PUSH1 0x40 MLOAD DUP1 SWAP2 SUB SWAP1 RETURN JUMPDEST PUSH2 0x3B8 PUSH1 0x4 DUP1 CALLDATASIZE SUB DUP2 ADD SWAP1 PUSH2 0x3B3 SWAP2 SWAP1 PUSH2 0x3755 JUMP JUMPDEST PUSH2 0xE30 JUMP JUMPDEST PUSH1 0x40 MLOAD PUSH2 0x3C5 SWAP2 SWAP1 PUSH2 0x3622 JUMP JUMPDEST PUSH1 0x40 MLOAD DUP1 SWAP2 SUB SWAP1 RETURN JUMPDEST PUSH2 0x3E8 PUSH1 0x4 DUP1 CALLDATASIZE SUB DUP2 ADD SWAP1 PUSH2 0x3E3 SWAP2 SWAP1 PUSH2 0x38E6 JUMP JUMPDEST PUSH2 0xE59 JUMP JUMPDEST PUSH1 0x40 MLOAD PUSH2 0x3F5 SWAP2 SWAP1 PUSH2 0x3622 JUMP JUMPDEST PUSH1 0x40 MLOAD DUP1 SWAP2 SUB SWAP1 RETURN JUMPDEST PUSH2 0x418 PUSH1 0x4 DUP1 CALLDATASIZE SUB DUP2 ADD SWAP1 PUSH2 0x413 SWAP2 SWAP1 PUSH2 0x3755 JUMP JUMPDEST PUSH2 0xEA0 JUMP JUMPDEST PUSH1 0x40 MLOAD PUSH2 0x425 SWAP2 SWAP1 PUSH2 0x3622 JUMP JUMPDEST PUSH1 0x40 MLOAD DUP1 SWAP2 SUB SWAP1 RETURN JUMPDEST PUSH2 0x448 PUSH1 0x4 DUP1 CALLDATASIZE SUB DUP2 ADD SWAP1 PUSH2 0x443 SWAP2 SWAP1 PUSH2 0x3913 JUMP JUMPDEST PUSH2 0xEBF JUMP JUMPDEST STOP JUMPDEST PUSH2 0x464 PUSH1 0x4 DUP1 CALLDATASIZE SUB DUP2 ADD SWAP1 PUSH2 0x45F SWAP2 SWAP1 PUSH2 0x39DD JUMP JUMPDEST PUSH2 0xF02 JUMP JUMPDEST STOP JUMPDEST PUSH2 0x480 PUSH1 0x4 DUP1 CALLDATASIZE SUB DUP2 ADD SWAP1 PUSH2 0x47B SWAP2 SWAP1 PUSH2 0x3755 JUMP JUMPDEST PUSH2 0x12CD JUMP JUMPDEST PUSH1 0x40 MLOAD PUSH2 0x48D SWAP2 SWAP1 PUSH2 0x3622 JUMP JUMPDEST PUSH1 0x40 MLOAD DUP1 SWAP2 SUB SWAP1 RETURN JUMPDEST PUSH2 0x4B0 PUSH1 0x4 DUP1 CALLDATASIZE SUB DUP2 ADD SWAP1 PUSH2 0x4AB SWAP2 SWAP1 PUSH2 0x3A54 JUMP JUMPDEST PUSH2 0x12EC JUMP JUMPDEST PUSH1 0x40 MLOAD PUSH2 0x4BD SWAP2 SWAP1 PUSH2 0x388B JUMP JUMPDEST PUSH1 0x40 MLOAD DUP1 SWAP2 SUB SWAP1 RETURN JUMPDEST PUSH2 0x4E0 PUSH1 0x4 DUP1 CALLDATASIZE SUB DUP2 ADD SWAP1 PUSH2 0x4DB SWAP2 SWAP1 PUSH2 0x35D3 JUMP JUMPDEST PUSH2 0x136F JUMP JUMPDEST PUSH1 0x40 MLOAD PUSH2 0x4ED SWAP2 SWAP1 PUSH2 0x388B JUMP JUMPDEST PUSH1 0x40 MLOAD DUP1 SWAP2 SUB SWAP1 RETURN JUMPDEST PUSH2 0x4FE PUSH2 0x139D JUMP JUMPDEST PUSH1 0x40 MLOAD PUSH2 0x50B SWAP2 SWAP1 PUSH2 0x3622 JUMP JUMPDEST PUSH1 0x40 MLOAD DUP1 SWAP2 SUB SWAP1 RETURN JUMPDEST PUSH2 0x52E PUSH1 0x4 DUP1 CALLDATASIZE SUB DUP2 ADD SWAP1 PUSH2 0x529 SWAP2 SWAP1 PUSH2 0x3755 JUMP JUMPDEST PUSH2 0x13E1 JUMP JUMPDEST PUSH1 0x40 MLOAD PUSH2 0x53C SWAP3 SWAP2 SWAP1 PUSH2 0x3AB4 JUMP JUMPDEST PUSH1 0x40 MLOAD DUP1 SWAP2 SUB SWAP1 RETURN JUMPDEST PUSH2 0x55F PUSH1 0x4 DUP1 CALLDATASIZE SUB DUP2 ADD SWAP1 PUSH2 0x55A SWAP2 SWAP1 PUSH2 0x3755 JUMP JUMPDEST PUSH2 0x1666 JUMP JUMPDEST PUSH1 0x40 MLOAD PUSH2 0x56C SWAP2 SWAP1 PUSH2 0x3622 JUMP JUMPDEST PUSH1 0x40 MLOAD DUP1 SWAP2 SUB SWAP1 RETURN JUMPDEST PUSH2 0x58F PUSH1 0x4 DUP1 CALLDATASIZE SUB DUP2 ADD SWAP1 PUSH2 0x58A SWAP2 SWAP1 PUSH2 0x35D3 JUMP JUMPDEST PUSH2 0x1684 JUMP JUMPDEST STOP JUMPDEST PUSH2 0x5AB PUSH1 0x4 DUP1 CALLDATASIZE SUB DUP2 ADD SWAP1 PUSH2 0x5A6 SWAP2 SWAP1 PUSH2 0x3755 JUMP JUMPDEST PUSH2 0x17D6 JUMP JUMPDEST PUSH1 0x40 MLOAD PUSH2 0x5B8 SWAP2 SWAP1 PUSH2 0x3AEC JUMP JUMPDEST PUSH1 0x40 MLOAD DUP1 SWAP2 SUB SWAP1 RETURN JUMPDEST PUSH2 0x5DB PUSH1 0x4 DUP1 CALLDATASIZE SUB DUP2 ADD SWAP1 PUSH2 0x5D6 SWAP2 SWAP1 PUSH2 0x3C48 JUMP JUMPDEST PUSH2 0x1813 JUMP JUMPDEST PUSH1 0x40 MLOAD PUSH2 0x5E8 SWAP2 SWAP1 PUSH2 0x3622 JUMP JUMPDEST PUSH1 0x40 MLOAD DUP1 SWAP2 SUB SWAP1 RETURN JUMPDEST PUSH2 0x60B PUSH1 0x4 DUP1 CALLDATASIZE SUB DUP2 ADD SWAP1 PUSH2 0x606 SWAP2 SWAP1 PUSH2 0x382F JUMP JUMPDEST PUSH2 0x1956 JUMP JUMPDEST STOP JUMPDEST PUSH2 0x615 PUSH2 0x1AA5 JUMP JUMPDEST PUSH1 0x40 MLOAD PUSH2 0x622 SWAP2 SWAP1 PUSH2 0x3622 JUMP JUMPDEST PUSH1 0x40 MLOAD DUP1 SWAP2 SUB SWAP1 RETURN JUMPDEST PUSH2 0x645 PUSH1 0x4 DUP1 CALLDATASIZE SUB DUP2 ADD SWAP1 PUSH2 0x640 SWAP2 SWAP1 PUSH2 0x3755 JUMP JUMPDEST PUSH2 0x1AAB JUMP JUMPDEST STOP JUMPDEST PUSH2 0x661 PUSH1 0x4 DUP1 CALLDATASIZE SUB DUP2 ADD SWAP1 PUSH2 0x65C SWAP2 SWAP1 PUSH2 0x3755 JUMP JUMPDEST PUSH2 0x1AB7 JUMP JUMPDEST PUSH1 0x40 MLOAD PUSH2 0x66E SWAP2 SWAP1 PUSH2 0x3622 JUMP JUMPDEST PUSH1 0x40 MLOAD DUP1 SWAP2 SUB SWAP1 RETURN JUMPDEST PUSH2 0x691 PUSH1 0x4 DUP1 CALLDATASIZE SUB DUP2 ADD SWAP1 PUSH2 0x68C SWAP2 SWAP1 PUSH2 0x3CA4 JUMP JUMPDEST PUSH2 0x1ADA JUMP JUMPDEST STOP JUMPDEST PUSH2 0x6AD PUSH1 0x4 DUP1 CALLDATASIZE SUB DUP2 ADD SWAP1 PUSH2 0x6A8 SWAP2 SWAP1 PUSH2 0x35D3 JUMP JUMPDEST PUSH2 0x1C36 JUMP JUMPDEST STOP JUMPDEST PUSH1 0x0 PUSH2 0x6BC DUP5 DUP5 DUP5 PUSH2 0x1D45 JUMP JUMPDEST SWAP1 POP TIMESTAMP PUSH1 0x4 PUSH1 0x0 DUP7 DUP2 MSTORE PUSH1 0x20 ADD SWAP1 DUP2 MSTORE PUSH1 0x20 ADD PUSH1 0x0 KECCAK256 PUSH1 0x1 ADD PUSH1 0x0 DUP4 DUP2 MSTORE PUSH1 0x20 ADD SWAP1 DUP2 MSTORE PUSH1 0x20 ADD PUSH1 0x0 KECCAK256 DUP2 SWAP1 SSTORE POP POP POP POP POP JUMP JUMPDEST PUSH1 0x0 PUSH2 0x716 DUP3 PUSH1 0x0 DUP1 DUP7 DUP2 MSTORE PUSH1 0x20 ADD SWAP1 DUP2 MSTORE PUSH1 0x20 ADD PUSH1 0x0 KECCAK256 PUSH2 0x1E5C SWAP1 SWAP2 SWAP1 PUSH4 0xFFFFFFFF AND JUMP JUMPDEST SWAP1 POP SWAP3 SWAP2 POP POP JUMP JUMPDEST PUSH2 0x72A PUSH1 0x6 SLOAD ADDRESS PUSH2 0x1ED6 JUMP JUMPDEST PUSH1 0x0 PUSH1 0x7 PUSH1 0x0 PUSH1 0x6 SLOAD DUP2 MSTORE PUSH1 0x20 ADD SWAP1 DUP2 MSTORE PUSH1 0x20 ADD PUSH1 0x0 KECCAK256 PUSH1 0x2 ADD DUP2 SWAP1 SSTORE POP PUSH1 0x6 PUSH1 0x0 DUP2 SLOAD DUP1 SWAP3 SWAP2 SWAP1 PUSH2 0x75B SWAP1 PUSH2 0x3D45 JUMP JUMPDEST SWAP2 SWAP1 POP SSTORE POP JUMP JUMPDEST PUSH1 0x0 PUSH2 0x76E DUP4 DUP4 PUSH2 0x1FB5 JUMP JUMPDEST SWAP1 POP TIMESTAMP PUSH1 0x4 PUSH1 0x0 DUP6 DUP2 MSTORE PUSH1 0x20 ADD SWAP1 DUP2 MSTORE PUSH1 0x20 ADD PUSH1 0x0 KECCAK256 PUSH1 0x1 ADD PUSH1 0x0 DUP4 DUP2 MSTORE PUSH1 0x20 ADD SWAP1 DUP2 MSTORE PUSH1 0x20 ADD PUSH1 0x0 KECCAK256 DUP2 SWAP1 SSTORE POP POP POP POP JUMP JUMPDEST PUSH1 0x0 PUSH2 0x7AB PUSH2 0xD75 JUMP JUMPDEST SWAP1 POP PUSH1 0xB PUSH1 0x0 SWAP1 SLOAD SWAP1 PUSH2 0x100 EXP SWAP1 DIV PUSH20 0xFFFFFFFFFFFFFFFFFFFFFFFFFFFFFFFFFFFFFFFF AND PUSH20 0xFFFFFFFFFFFFFFFFFFFFFFFFFFFFFFFFFFFFFFFF AND PUSH4 0x6C61D60F PUSH1 0x8 PUSH1 0x0 SWAP1 SLOAD SWAP1 PUSH2 0x100 EXP SWAP1 DIV PUSH20 0xFFFFFFFFFFFFFFFFFFFFFFFFFFFFFFFFFFFFFFFF AND DUP4 PUSH1 0x40 MLOAD DUP4 PUSH4 0xFFFFFFFF AND PUSH1 0xE0 SHL DUP2 MSTORE PUSH1 0x4 ADD PUSH2 0x82C SWAP3 SWAP2 SWAP1 PUSH2 0x3D8D JUMP JUMPDEST PUSH1 0x0 PUSH1 0x40 MLOAD DUP1 DUP4 SUB DUP2 PUSH1 0x0 DUP8 DUP1 EXTCODESIZE ISZERO DUP1 ISZERO PUSH2 0x846 JUMPI PUSH1 0x0 DUP1 REVERT JUMPDEST POP GAS CALL ISZERO DUP1 ISZERO PUSH2 0x85A JUMPI RETURNDATASIZE PUSH1 0x0 DUP1 RETURNDATACOPY RETURNDATASIZE PUSH1 0x0 REVERT JUMPDEST POP POP POP POP POP JUMP JUMPDEST PUSH1 0x3 PUSH1 0x0 SWAP1 SLOAD SWAP1 PUSH2 0x100 EXP SWAP1 DIV PUSH20 0xFFFFFFFFFFFFFFFFFFFFFFFFFFFFFFFFFFFFFFFF AND DUP2 JUMP JUMPDEST PUSH1 0x0 PUSH1 0x5 PUSH1 0x0 DUP2 SLOAD DUP1 SWAP3 SWAP2 SWAP1 PUSH2 0x89C SWAP1 PUSH2 0x3D45 JUMP JUMPDEST SWAP2 SWAP1 POP SSTORE SWAP1 POP PUSH2 0x8AC DUP2 DUP5 PUSH2 0x1ED6 JUMP JUMPDEST DUP2 PUSH1 0x4 PUSH1 0x0 DUP4 DUP2 MSTORE PUSH1 0x20 ADD SWAP1 DUP2 MSTORE PUSH1 0x20 ADD PUSH1 0x0 KECCAK256 PUSH1 0x0 ADD DUP2 SWAP1 SSTORE POP SWAP3 SWAP2 POP POP JUMP JUMPDEST PUSH1 0x0 PUSH3 0x26BA10 DUP3 PUSH2 0x8DE SWAP2 SWAP1 PUSH2 0x3DE5 JUMP JUMPDEST SWAP1 POP SWAP2 SWAP1 POP JUMP JUMPDEST PUSH1 0x0 PUSH2 0x8F4 DUP7 DUP7 DUP7 DUP7 DUP7 PUSH2 0x20C7 JUMP JUMPDEST SWAP1 POP TIMESTAMP PUSH1 0x4 PUSH1 0x0 DUP9 DUP2 MSTORE PUSH1 0x20 ADD SWAP1 DUP2 MSTORE PUSH1 0x20 ADD PUSH1 0x0 KECCAK256 PUSH1 0x1 ADD PUSH1 0x0 DUP4 DUP2 MSTORE PUSH1 0x20 ADD SWAP1 DUP2 MSTORE PUSH1 0x20 ADD PUSH1 0x0 KECCAK256 DUP2 SWAP1 SSTORE POP POP POP POP POP POP POP JUMP JUMPDEST PUSH1 0x0 DUP3 PUSH1 0x0 PUSH20 0xFFFFFFFFFFFFFFFFFFFFFFFFFFFFFFFFFFFFFFFF AND PUSH1 0x1 PUSH1 0x0 DUP4 DUP2 MSTORE PUSH1 0x20 ADD SWAP1 DUP2 MSTORE PUSH1 0x20 ADD PUSH1 0x0 KECCAK256 PUSH1 0x0 SWAP1 SLOAD SWAP1 PUSH2 0x100 EXP SWAP1 DIV PUSH20 0xFFFFFFFFFFFFFFFFFFFFFFFFFFFFFFFFFFFFFFFF AND PUSH20 0xFFFFFFFFFFFFFFFFFFFFFFFFFFFFFFFFFFFFFFFF AND SUB PUSH2 0x9C6 JUMPI PUSH1 0x40 MLOAD PUSH32 0x29F057900000000000000000000000000000000000000000000000000000000 DUP2 MSTORE PUSH1 0x4 ADD PUSH1 0x40 MLOAD DUP1 SWAP2 SUB SWAP1 REVERT JUMPDEST PUSH1 0x1 PUSH1 0xFF AND DUP4 PUSH1 0x0 ADD CALLDATALOAD LT DUP1 PUSH2 0x9E3 JUMPI POP PUSH1 0xC PUSH1 0xFF AND DUP4 PUSH1 0x0 ADD CALLDATALOAD GT JUMPDEST ISZERO PUSH2 0xA1A JUMPI PUSH1 0x40 MLOAD PUSH32 0xECF64F1200000000000000000000000000000000000000000000000000000000 DUP2 MSTORE PUSH1 0x4 ADD PUSH1 0x40 MLOAD DUP1 SWAP2 SUB SWAP1 REVERT JUMPDEST PUSH1 0x0 PUSH2 0xA25 DUP6 PUSH2 0x12CD JUMP JUMPDEST SWAP1 POP PUSH1 0x0 DUP2 SUB PUSH2 0xA61 JUMPI PUSH1 0x40 MLOAD PUSH32 0xC8B02E0100000000000000000000000000000000000000000000000000000000 DUP2 MSTORE PUSH1 0x4 ADD PUSH1 0x40 MLOAD DUP1 SWAP2 SUB SWAP1 REVERT JUMPDEST PUSH1 0x0 PUSH2 0xA6C DUP7 PUSH2 0x1AB7 JUMP JUMPDEST SWAP1 POP DUP1 DUP6 PUSH1 0x20 ADD CALLDATALOAD EQ PUSH2 0xB46 JUMPI PUSH1 0x0 PUSH1 0x4 PUSH1 0x0 DUP9 DUP2 MSTORE PUSH1 0x20 ADD SWAP1 DUP2 MSTORE PUSH1 0x20 ADD PUSH1 0x0 KECCAK256 PUSH1 0x1 ADD PUSH1 0x0 DUP8 PUSH1 0x20 ADD CALLDATALOAD DUP2 MSTORE PUSH1 0x20 ADD SWAP1 DUP2 MSTORE PUSH1 0x20 ADD PUSH1 0x0 KECCAK256 SLOAD SWAP1 POP PUSH1 0x0 PUSH1 0x4 PUSH1 0x0 DUP10 DUP2 MSTORE PUSH1 0x20 ADD SWAP1 DUP2 MSTORE PUSH1 0x20 ADD PUSH1 0x0 KECCAK256 PUSH1 0x0 ADD SLOAD SWAP1 POP PUSH1 0x0 DUP3 SUB PUSH2 0xAFE JUMPI PUSH1 0x40 MLOAD PUSH32 0x4D32958600000000000000000000000000000000000000000000000000000000 DUP2 MSTORE PUSH1 0x4 ADD PUSH1 0x40 MLOAD DUP1 SWAP2 SUB SWAP1 REVERT JUMPDEST DUP1 DUP3 PUSH2 0xB0A SWAP2 SWAP1 PUSH2 0x3E16 JUMP JUMPDEST TIMESTAMP GT ISZERO PUSH2 0xB43 JUMPI PUSH1 0x40 MLOAD PUSH32 0x9581A99000000000000000000000000000000000000000000000000000000000 DUP2 MSTORE PUSH1 0x4 ADD PUSH1 0x40 MLOAD DUP1 SWAP2 SUB SWAP1 REVERT JUMPDEST POP POP JUMPDEST PUSH1 0x3 PUSH1 0x0 SWAP1 SLOAD SWAP1 PUSH2 0x100 EXP SWAP1 DIV PUSH20 0xFFFFFFFFFFFFFFFFFFFFFFFFFFFFFFFFFFFFFFFF AND PUSH20 0xFFFFFFFFFFFFFFFFFFFFFFFFFFFFFFFFFFFFFFFF AND PUSH4 0xA23F0199 PUSH1 0x40 MLOAD DUP1 PUSH1 0x40 ADD PUSH1 0x40 MSTORE DUP1 DUP9 PUSH1 0xA0 ADD PUSH1 0x0 PUSH1 0x8 DUP2 LT PUSH2 0xBA6 JUMPI PUSH2 0xBA5 PUSH2 0x3E4A JUMP JUMPDEST JUMPDEST PUSH1 0x20 MUL ADD CALLDATALOAD DUP2 MSTORE PUSH1 0x20 ADD DUP9 PUSH1 0xA0 ADD PUSH1 0x1 PUSH1 0x8 DUP2 LT PUSH2 0xBC7 JUMPI PUSH2 0xBC6 PUSH2 0x3E4A JUMP JUMPDEST JUMPDEST PUSH1 0x20 MUL ADD CALLDATALOAD DUP2 MSTORE POP PUSH1 0x40 MLOAD DUP1 PUSH1 0x40 ADD PUSH1 0x40 MSTORE DUP1 PUSH1 0x40 MLOAD DUP1 PUSH1 0x40 ADD PUSH1 0x40 MSTORE DUP1 DUP12 PUSH1 0xA0 ADD PUSH1 0x2 PUSH1 0x8 DUP2 LT PUSH2 0xBFC JUMPI PUSH2 0xBFB PUSH2 0x3E4A JUMP JUMPDEST JUMPDEST PUSH1 0x20 MUL ADD CALLDATALOAD DUP2 MSTORE PUSH1 0x20 ADD DUP12 PUSH1 0xA0 ADD PUSH1 0x3 PUSH1 0x8 DUP2 LT PUSH2 0xC1D JUMPI PUSH2 0xC1C PUSH2 0x3E4A JUMP JUMPDEST JUMPDEST PUSH1 0x20 MUL ADD CALLDATALOAD DUP2 MSTORE POP DUP2 MSTORE PUSH1 0x20 ADD PUSH1 0x40 MLOAD DUP1 PUSH1 0x40 ADD PUSH1 0x40 MSTORE DUP1 DUP12 PUSH1 0xA0 ADD PUSH1 0x4 PUSH1 0x8 DUP2 LT PUSH2 0xC4C JUMPI PUSH2 0xC4B PUSH2 0x3E4A JUMP JUMPDEST JUMPDEST PUSH1 0x20 MUL ADD CALLDATALOAD DUP2 MSTORE PUSH1 0x20 ADD DUP12 PUSH1 0xA0 ADD PUSH1 0x5 PUSH1 0x8 DUP2 LT PUSH2 0xC6D JUMPI PUSH2 0xC6C PUSH2 0x3E4A JUMP JUMPDEST JUMPDEST PUSH1 0x20 MUL ADD CALLDATALOAD DUP2 MSTORE POP DUP2 MSTORE POP PUSH1 0x40 MLOAD DUP1 PUSH1 0x40 ADD PUSH1 0x40 MSTORE DUP1 DUP11 PUSH1 0xA0 ADD PUSH1 0x6 PUSH1 0x8 DUP2 LT PUSH2 0xC9A JUMPI PUSH2 0xC99 PUSH2 0x3E4A JUMP JUMPDEST JUMPDEST PUSH1 0x20 MUL ADD CALLDATALOAD DUP2 MSTORE PUSH1 0x20 ADD DUP11 PUSH1 0xA0 ADD PUSH1 0x7 PUSH1 0x8 DUP2 LT PUSH2 0xCBB JUMPI PUSH2 0xCBA PUSH2 0x3E4A JUMP JUMPDEST JUMPDEST PUSH1 0x20 MUL ADD CALLDATALOAD DUP2 MSTORE POP PUSH1 0x40 MLOAD DUP1 PUSH1 0x80 ADD PUSH1 0x40 MSTORE DUP1 DUP12 PUSH1 0x20 ADD CALLDATALOAD DUP2 MSTORE PUSH1 0x20 ADD DUP12 PUSH1 0x40 ADD CALLDATALOAD DUP2 MSTORE PUSH1 0x20 ADD PUSH2 0xCEF DUP13 PUSH1 0x60 ADD CALLDATALOAD PUSH2 0x21FF JUMP JUMPDEST DUP2 MSTORE PUSH1 0x20 ADD PUSH2 0xD01 DUP13 PUSH1 0x80 ADD CALLDATALOAD PUSH2 0x21FF JUMP JUMPDEST DUP2 MSTORE POP DUP11 PUSH1 0x0 ADD CALLDATALOAD PUSH1 0x40 MLOAD DUP7 PUSH4 0xFFFFFFFF AND PUSH1 0xE0 SHL DUP2 MSTORE PUSH1 0x4 ADD PUSH2 0xD29 SWAP6 SWAP5 SWAP4 SWAP3 SWAP2 SWAP1 PUSH2 0x40A6 JUMP JUMPDEST PUSH1 0x20 PUSH1 0x40 MLOAD DUP1 DUP4 SUB DUP2 DUP7 GAS STATICCALL ISZERO DUP1 ISZERO PUSH2 0xD46 JUMPI RETURNDATASIZE PUSH1 0x0 DUP1 RETURNDATACOPY RETURNDATASIZE PUSH1 0x0 REVERT JUMPDEST POP POP POP POP PUSH1 0x40 MLOAD RETURNDATASIZE PUSH1 0x1F NOT PUSH1 0x1F DUP3 ADD AND DUP3 ADD DUP1 PUSH1 0x40 MSTORE POP DUP2 ADD SWAP1 PUSH2 0xD6A SWAP2 SWAP1 PUSH2 0x4128 JUMP JUMPDEST SWAP4 POP POP POP POP SWAP3 SWAP2 POP POP JUMP JUMPDEST PUSH1 0x0 DUP1 JUMPDEST PUSH1 0x6 SLOAD DUP2 GT PUSH2 0xDD9 JUMPI PUSH1 0x0 DUP1 PUSH2 0xD8E DUP4 PUSH2 0x13E1 JUMP JUMPDEST SWAP2 POP SWAP2 POP DUP2 DUP5 PUSH2 0xD9E SWAP2 SWAP1 PUSH2 0x3E16 JUMP JUMPDEST SWAP4 POP PUSH1 0x0 DUP2 EQ PUSH2 0xDC4 JUMPI DUP1 PUSH1 0x7 PUSH1 0x0 DUP6 DUP2 MSTORE PUSH1 0x20 ADD SWAP1 DUP2 MSTORE PUSH1 0x20 ADD PUSH1 0x0 KECCAK256 PUSH1 0x6 ADD DUP2 SWAP1 SSTORE POP JUMPDEST POP POP DUP1 DUP1 PUSH2 0xDD1 SWAP1 PUSH2 0x3D45 JUMP JUMPDEST SWAP2 POP POP PUSH2 0xD79 JUMP JUMPDEST POP SWAP1 JUMP JUMPDEST PUSH2 0xDE7 DUP3 DUP3 PUSH2 0x2236 JUMP JUMPDEST POP POP JUMP JUMPDEST PUSH1 0x0 PUSH1 0x5 PUSH1 0x0 DUP2 SLOAD DUP1 SWAP3 SWAP2 SWAP1 PUSH2 0xE00 SWAP1 PUSH2 0x3D45 JUMP JUMPDEST SWAP2 SWAP1 POP SSTORE SWAP1 POP PUSH2 0xE10 DUP2 CALLER PUSH2 0x1ED6 JUMP JUMPDEST PUSH2 0xE10 PUSH1 0x4 PUSH1 0x0 DUP4 DUP2 MSTORE PUSH1 0x20 ADD SWAP1 DUP2 MSTORE PUSH1 0x20 ADD PUSH1 0x0 KECCAK256 PUSH1 0x0 ADD DUP2 SWAP1 SSTORE POP SWAP1 JUMP JUMPDEST PUSH1 0x0 DUP1 PUSH1 0x1E SWAP1 POP PUSH3 0x14A78 DUP2 DUP5 PUSH2 0xE47 SWAP2 SWAP1 PUSH2 0x4155 JUMP JUMPDEST PUSH2 0xE51 SWAP2 SWAP1 PUSH2 0x4155 JUMP JUMPDEST SWAP2 POP POP SWAP2 SWAP1 POP JUMP JUMPDEST PUSH1 0x0 PUSH1 0x5 PUSH1 0x0 DUP2 SLOAD DUP1 SWAP3 SWAP2 SWAP1 PUSH2 0xE6E SWAP1 PUSH2 0x3D45 JUMP JUMPDEST SWAP2 SWAP1 POP SSTORE SWAP1 POP PUSH2 0xE7E DUP2 DUP4 PUSH2 0x1ED6 JUMP JUMPDEST PUSH2 0xE10 PUSH1 0x4 PUSH1 0x0 DUP4 DUP2 MSTORE PUSH1 0x20 ADD SWAP1 DUP2 MSTORE PUSH1 0x20 ADD PUSH1 0x0 KECCAK256 PUSH1 0x0 ADD DUP2 SWAP1 SSTORE POP SWAP2 SWAP1 POP JUMP JUMPDEST PUSH1 0x0 DUP1 PUSH1 0x0 DUP4 DUP2 MSTORE PUSH1 0x20 ADD SWAP1 DUP2 MSTORE PUSH1 0x20 ADD PUSH1 0x0 KECCAK256 PUSH1 0x1 ADD SLOAD SWAP1 POP SWAP2 SWAP1 POP JUMP JUMPDEST PUSH1 0x0 PUSH2 0xECD DUP6 DUP6 DUP6 DUP6 PUSH2 0x2381 JUMP JUMPDEST SWAP1 POP TIMESTAMP PUSH1 0x4 PUSH1 0x0 DUP8 DUP2 MSTORE PUSH1 0x20 ADD SWAP1 DUP2 MSTORE PUSH1 0x20 ADD PUSH1 0x0 KECCAK256 PUSH1 0x1 ADD PUSH1 0x0 DUP4 DUP2 MSTORE PUSH1 0x20 ADD SWAP1 DUP2 MSTORE PUSH1 0x20 ADD PUSH1 0x0 KECCAK256 DUP2 SWAP1 SSTORE POP POP POP POP POP POP JUMP JUMPDEST PUSH1 0xA SLOAD DUP5 PUSH1 0x80 ADD CALLDATALOAD EQ PUSH2 0xF4A JUMPI PUSH1 0x40 MLOAD PUSH32 0x8C379A000000000000000000000000000000000000000000000000000000000 DUP2 MSTORE PUSH1 0x4 ADD PUSH2 0xF41 SWAP1 PUSH2 0x41F4 JUMP JUMPDEST PUSH1 0x40 MLOAD DUP1 SWAP2 SUB SWAP1 REVERT JUMPDEST PUSH2 0xF54 DUP4 DUP6 PUSH2 0x1956 JUMP JUMPDEST PUSH1 0x0 PUSH1 0x7 PUSH1 0x0 DUP6 DUP2 MSTORE PUSH1 0x20 ADD SWAP1 DUP2 MSTORE PUSH1 0x20 ADD PUSH1 0x0 KECCAK256 PUSH1 0x2 ADD SLOAD SWAP1 POP PUSH1 0x7 PUSH1 0x0 DUP6 DUP2 MSTORE PUSH1 0x20 ADD SWAP1 DUP2 MSTORE PUSH1 0x20 ADD PUSH1 0x0 KECCAK256 PUSH1 0x2 ADD PUSH1 0x0 DUP2 SLOAD DUP1 SWAP3 SWAP2 SWAP1 PUSH2 0xF96 SWAP1 PUSH2 0x3D45 JUMP JUMPDEST SWAP2 SWAP1 POP SSTORE POP PUSH1 0x0 PUSH1 0xC PUSH1 0x0 SWAP1 SLOAD SWAP1 PUSH2 0x100 EXP SWAP1 DIV PUSH20 0xFFFFFFFFFFFFFFFFFFFFFFFFFFFFFFFFFFFFFFFF AND PUSH20 0xFFFFFFFFFFFFFFFFFFFFFFFFFFFFFFFFFFFFFFFF AND PUSH4 0x35BC5462 DUP7 PUSH1 0x40 MLOAD DUP3 PUSH4 0xFFFFFFFF AND PUSH1 0xE0 SHL DUP2 MSTORE PUSH1 0x4 ADD PUSH2 0xFF8 SWAP2 SWAP1 PUSH2 0x3622 JUMP JUMPDEST PUSH1 0x20 PUSH1 0x40 MLOAD DUP1 DUP4 SUB DUP2 DUP7 GAS STATICCALL ISZERO DUP1 ISZERO PUSH2 0x1015 JUMPI RETURNDATASIZE PUSH1 0x0 DUP1 RETURNDATACOPY RETURNDATASIZE PUSH1 0x0 REVERT JUMPDEST POP POP POP POP PUSH1 0x40 MLOAD RETURNDATASIZE PUSH1 0x1F NOT PUSH1 0x1F DUP3 ADD AND DUP3 ADD DUP1 PUSH1 0x40 MSTORE POP DUP2 ADD SWAP1 PUSH2 0x1039 SWAP2 SWAP1 PUSH2 0x4229 JUMP JUMPDEST PUSH1 0xC PUSH1 0x0 SWAP1 SLOAD SWAP1 PUSH2 0x100 EXP SWAP1 DIV PUSH20 0xFFFFFFFFFFFFFFFFFFFFFFFFFFFFFFFFFFFFFFFF AND PUSH20 0xFFFFFFFFFFFFFFFFFFFFFFFFFFFFFFFFFFFFFFFF AND PUSH4 0x76F2129 DUP8 PUSH1 0x40 MLOAD DUP3 PUSH4 0xFFFFFFFF AND PUSH1 0xE0 SHL DUP2 MSTORE PUSH1 0x4 ADD PUSH2 0x1094 SWAP2 SWAP1 PUSH2 0x3622 JUMP JUMPDEST PUSH1 0x20 PUSH1 0x40 MLOAD DUP1 DUP4 SUB DUP2 DUP7 GAS STATICCALL ISZERO DUP1 ISZERO PUSH2 0x10B1 JUMPI RETURNDATASIZE PUSH1 0x0 DUP1 RETURNDATACOPY RETURNDATASIZE PUSH1 0x0 REVERT JUMPDEST POP POP POP POP PUSH1 0x40 MLOAD RETURNDATASIZE PUSH1 0x1F NOT PUSH1 0x1F DUP3 ADD AND DUP3 ADD DUP1 PUSH1 0x40 MSTORE POP DUP2 ADD SWAP1 PUSH2 0x10D5 SWAP2 SWAP1 PUSH2 0x4229 JUMP JUMPDEST PUSH2 0x10DF SWAP2 SWAP1 PUSH2 0x4155 JUMP JUMPDEST SWAP1 POP PUSH1 0x0 PUSH1 0x1F PUSH1 0xC PUSH1 0x0 SWAP1 SLOAD SWAP1 PUSH2 0x100 EXP SWAP1 DIV PUSH20 0xFFFFFFFFFFFFFFFFFFFFFFFFFFFFFFFFFFFFFFFF AND PUSH20 0xFFFFFFFFFFFFFFFFFFFFFFFFFFFFFFFFFFFFFFFF AND PUSH4 0x35BC5462 DUP9 PUSH1 0x40 MLOAD DUP3 PUSH4 0xFFFFFFFF AND PUSH1 0xE0 SHL DUP2 MSTORE PUSH1 0x4 ADD PUSH2 0x1140 SWAP2 SWAP1 PUSH2 0x3622 JUMP JUMPDEST PUSH1 0x20 PUSH1 0x40 MLOAD DUP1 DUP4 SUB DUP2 DUP7 GAS STATICCALL ISZERO DUP1 ISZERO PUSH2 0x115D JUMPI RETURNDATASIZE PUSH1 0x0 DUP1 RETURNDATACOPY RETURNDATASIZE PUSH1 0x0 REVERT JUMPDEST POP POP POP POP PUSH1 0x40 MLOAD RETURNDATASIZE PUSH1 0x1F NOT PUSH1 0x1F DUP3 ADD AND DUP3 ADD DUP1 PUSH1 0x40 MSTORE POP DUP2 ADD SWAP1 PUSH2 0x1181 SWAP2 SWAP1 PUSH2 0x4229 JUMP JUMPDEST PUSH2 0x118B SWAP2 SWAP1 PUSH2 0x4155 JUMP JUMPDEST SWAP1 POP PUSH1 0xB PUSH1 0x0 SWAP1 SLOAD SWAP1 PUSH2 0x100 EXP SWAP1 DIV PUSH20 0xFFFFFFFFFFFFFFFFFFFFFFFFFFFFFFFFFFFFFFFF AND PUSH20 0xFFFFFFFFFFFFFFFFFFFFFFFFFFFFFFFFFFFFFFFF AND PUSH4 0x80CECEA9 CALLER DUP5 PUSH1 0x40 MLOAD DUP4 PUSH4 0xFFFFFFFF AND PUSH1 0xE0 SHL DUP2 MSTORE PUSH1 0x4 ADD PUSH2 0x11EA SWAP3 SWAP2 SWAP1 PUSH2 0x3D8D JUMP JUMPDEST PUSH1 0x0 PUSH1 0x40 MLOAD DUP1 DUP4 SUB DUP2 PUSH1 0x0 DUP8 DUP1 EXTCODESIZE ISZERO DUP1 ISZERO PUSH2 0x1204 JUMPI PUSH1 0x0 DUP1 REVERT JUMPDEST POP GAS CALL ISZERO DUP1 ISZERO PUSH2 0x1218 JUMPI RETURNDATASIZE PUSH1 0x0 DUP1 RETURNDATACOPY RETURNDATASIZE PUSH1 0x0 REVERT JUMPDEST POP POP POP POP DUP3 PUSH1 0x7 PUSH1 0x0 DUP9 DUP2 MSTORE PUSH1 0x20 ADD SWAP1 DUP2 MSTORE PUSH1 0x20 ADD PUSH1 0x0 KECCAK256 PUSH1 0x3 ADD DUP7 DUP7 PUSH1 0x40 MLOAD PUSH2 0x1243 SWAP3 SWAP2 SWAP1 PUSH2 0x4286 JUMP JUMPDEST SWAP1 DUP2 MSTORE PUSH1 0x20 ADD PUSH1 0x40 MLOAD DUP1 SWAP2 SUB SWAP1 KECCAK256 DUP2 SWAP1 SSTORE POP TIMESTAMP PUSH1 0x7 PUSH1 0x0 DUP9 DUP2 MSTORE PUSH1 0x20 ADD SWAP1 DUP2 MSTORE PUSH1 0x20 ADD PUSH1 0x0 KECCAK256 PUSH1 0x4 ADD PUSH1 0x0 DUP6 DUP2 MSTORE PUSH1 0x20 ADD SWAP1 DUP2 MSTORE PUSH1 0x20 ADD PUSH1 0x0 KECCAK256 PUSH1 0x0 ADD DUP2 SWAP1 SSTORE POP PUSH1 0x0 DUP2 SWAP1 POP DUP1 TIMESTAMP PUSH2 0x1295 SWAP2 SWAP1 PUSH2 0x3E16 JUMP JUMPDEST PUSH1 0x7 PUSH1 0x0 DUP10 DUP2 MSTORE PUSH1 0x20 ADD SWAP1 DUP2 MSTORE PUSH1 0x20 ADD PUSH1 0x0 KECCAK256 PUSH1 0x4 ADD PUSH1 0x0 DUP7 DUP2 MSTORE PUSH1 0x20 ADD SWAP1 DUP2 MSTORE PUSH1 0x20 ADD PUSH1 0x0 KECCAK256 PUSH1 0x1 ADD DUP2 SWAP1 SSTORE POP POP POP POP POP POP POP POP POP JUMP JUMPDEST PUSH1 0x0 DUP1 PUSH1 0x0 DUP4 DUP2 MSTORE PUSH1 0x20 ADD SWAP1 DUP2 MSTORE PUSH1 0x20 ADD PUSH1 0x0 KECCAK256 PUSH1 0x0 ADD SLOAD SWAP1 POP SWAP2 SWAP1 POP JUMP JUMPDEST PUSH1 0x0 DUP1 PUSH1 0x7 PUSH1 0x0 DUP7 DUP2 MSTORE PUSH1 0x20 ADD SWAP1 DUP2 MSTORE PUSH1 0x20 ADD PUSH1 0x0 KECCAK256 PUSH1 0x3 ADD DUP5 DUP5 PUSH1 0x40 MLOAD PUSH2 0x1315 SWAP3 SWAP2 SWAP1 PUSH2 0x4286 JUMP JUMPDEST SWAP1 DUP2 MSTORE PUSH1 0x20 ADD PUSH1 0x40 MLOAD DUP1 SWAP2 SUB SWAP1 KECCAK256 SLOAD SWAP1 POP TIMESTAMP PUSH1 0x7 PUSH1 0x0 DUP8 DUP2 MSTORE PUSH1 0x20 ADD SWAP1 DUP2 MSTORE PUSH1 0x20 ADD PUSH1 0x0 KECCAK256 PUSH1 0x4 ADD PUSH1 0x0 DUP4 DUP2 MSTORE PUSH1 0x20 ADD SWAP1 DUP2 MSTORE PUSH1 0x20 ADD PUSH1 0x0 KECCAK256 PUSH1 0x1 ADD SLOAD LT ISZERO PUSH2 0x1362 JUMPI PUSH1 0x0 SWAP2 POP POP PUSH2 0x1368 JUMP JUMPDEST PUSH1 0x1 SWAP2 POP POP JUMPDEST SWAP4 SWAP3 POP POP POP JUMP JUMPDEST PUSH1 0x0 PUSH2 0x1395 DUP3 PUSH1 0x0 DUP1 DUP7 DUP2 MSTORE PUSH1 0x20 ADD SWAP1 DUP2 MSTORE PUSH1 0x20 ADD PUSH1 0x0 KECCAK256 PUSH2 0x24B4 SWAP1 SWAP2 SWAP1 PUSH4 0xFFFFFFFF AND JUMP JUMPDEST SWAP1 POP SWAP3 SWAP2 POP POP JUMP JUMPDEST PUSH1 0x0 DUP1 JUMPDEST PUSH1 0x6 SLOAD DUP2 GT PUSH2 0x13DD JUMPI PUSH1 0x0 DUP1 PUSH2 0x13B6 DUP4 PUSH2 0x13E1 JUMP JUMPDEST SWAP2 POP SWAP2 POP DUP2 DUP5 PUSH2 0x13C6 SWAP2 SWAP1 PUSH2 0x3E16 JUMP JUMPDEST SWAP4 POP POP POP DUP1 DUP1 PUSH2 0x13D5 SWAP1 PUSH2 0x3D45 JUMP JUMPDEST SWAP2 POP POP PUSH2 0x13A1 JUMP JUMPDEST POP SWAP1 JUMP JUMPDEST PUSH1 0x0 DUP1 PUSH1 0x7 PUSH1 0x0 DUP5 DUP2 MSTORE PUSH1 0x20 ADD SWAP1 DUP2 MSTORE PUSH1 0x20 ADD PUSH1 0x0 KECCAK256 PUSH1 0x6 ADD SLOAD SWAP1 POP PUSH1 0x0 PUSH1 0x7 PUSH1 0x0 DUP6 DUP2 MSTORE PUSH1 0x20 ADD SWAP1 DUP2 MSTORE PUSH1 0x20 ADD PUSH1 0x0 KECCAK256 PUSH1 0x2 ADD SLOAD SWAP1 POP PUSH1 0x0 PUSH1 0xC PUSH1 0x0 SWAP1 SLOAD SWAP1 PUSH2 0x100 EXP SWAP1 DIV PUSH20 0xFFFFFFFFFFFFFFFFFFFFFFFFFFFFFFFFFFFFFFFF AND PUSH20 0xFFFFFFFFFFFFFFFFFFFFFFFFFFFFFFFFFFFFFFFF AND PUSH4 0x76F2129 DUP7 PUSH1 0x40 MLOAD DUP3 PUSH4 0xFFFFFFFF AND PUSH1 0xE0 SHL DUP2 MSTORE PUSH1 0x4 ADD PUSH2 0x1475 SWAP2 SWAP1 PUSH2 0x3622 JUMP JUMPDEST PUSH1 0x20 PUSH1 0x40 MLOAD DUP1 DUP4 SUB DUP2 DUP7 GAS STATICCALL ISZERO DUP1 ISZERO PUSH2 0x1492 JUMPI RETURNDATASIZE PUSH1 0x0 DUP1 RETURNDATACOPY RETURNDATASIZE PUSH1 0x0 REVERT JUMPDEST POP POP POP POP PUSH1 0x40 MLOAD RETURNDATASIZE PUSH1 0x1F NOT PUSH1 0x1F DUP3 ADD AND DUP3 ADD DUP1 PUSH1 0x40 MSTORE POP DUP2 ADD SWAP1 PUSH2 0x14B6 SWAP2 SWAP1 PUSH2 0x4229 JUMP JUMPDEST SWAP1 POP PUSH1 0x0 DUP1 DUP5 SWAP1 POP JUMPDEST DUP4 DUP2 LT ISZERO PUSH2 0x164F JUMPI PUSH1 0x0 PUSH1 0x7 PUSH1 0x0 DUP10 DUP2 MSTORE PUSH1 0x20 ADD SWAP1 DUP2 MSTORE PUSH1 0x20 ADD PUSH1 0x0 KECCAK256 PUSH1 0x4 ADD PUSH1 0x0 DUP4 DUP2 MSTORE PUSH1 0x20 ADD SWAP1 DUP2 MSTORE PUSH1 0x20 ADD PUSH1 0x0 KECCAK256 PUSH1 0x0 ADD SLOAD SWAP1 POP PUSH1 0x0 PUSH1 0x7 PUSH1 0x0 DUP11 DUP2 MSTORE PUSH1 0x20 ADD SWAP1 DUP2 MSTORE PUSH1 0x20 ADD PUSH1 0x0 KECCAK256 PUSH1 0x4 ADD PUSH1 0x0 DUP5 DUP2 MSTORE PUSH1 0x20 ADD SWAP1 DUP2 MSTORE PUSH1 0x20 ADD PUSH1 0x0 KECCAK256 PUSH1 0x1 ADD SLOAD SWAP1 POP PUSH1 0x0 PUSH1 0x7 PUSH1 0x0 DUP12 DUP2 MSTORE PUSH1 0x20 ADD SWAP1 DUP2 MSTORE PUSH1 0x20 ADD PUSH1 0x0 KECCAK256 PUSH1 0x4 ADD PUSH1 0x0 DUP6 DUP2 MSTORE PUSH1 0x20 ADD SWAP1 DUP2 MSTORE PUSH1 0x20 ADD PUSH1 0x0 KECCAK256 PUSH1 0x1 ADD SLOAD TIMESTAMP GT SWAP1 POP PUSH1 0x0 PUSH1 0xC PUSH2 0x156E DUP6 DUP6 PUSH2 0x1569 SWAP2 SWAP1 PUSH2 0x429F JUMP JUMPDEST PUSH2 0x8CD JUMP JUMPDEST LT SWAP1 POP PUSH1 0x0 PUSH1 0x7 PUSH1 0x0 DUP14 DUP2 MSTORE PUSH1 0x20 ADD SWAP1 DUP2 MSTORE PUSH1 0x20 ADD PUSH1 0x0 KECCAK256 PUSH1 0x4 ADD PUSH1 0x0 DUP8 DUP2 MSTORE PUSH1 0x20 ADD SWAP1 DUP2 MSTORE PUSH1 0x20 ADD PUSH1 0x0 KECCAK256 PUSH1 0x2 ADD SLOAD SWAP1 POP PUSH1 0x0 PUSH2 0x15B6 DUP7 TIMESTAMP PUSH2 0x15B1 SWAP2 SWAP1 PUSH2 0x429F JUMP JUMPDEST PUSH2 0x8CD JUMP JUMPDEST SWAP1 POP DUP4 ISZERO PUSH2 0x161D JUMPI DUP3 ISZERO PUSH2 0x15FB JUMPI DUP2 PUSH2 0x15D9 DUP8 DUP8 PUSH2 0x15D4 SWAP2 SWAP1 PUSH2 0x429F JUMP JUMPDEST PUSH2 0x8CD JUMP JUMPDEST PUSH2 0x15E3 SWAP2 SWAP1 PUSH2 0x429F JUMP JUMPDEST DUP9 PUSH2 0x15EE SWAP2 SWAP1 PUSH2 0x3E16 JUMP JUMPDEST SWAP8 POP POP POP POP POP POP POP PUSH2 0x1642 JUMP JUMPDEST DUP2 PUSH1 0xC PUSH2 0x1608 SWAP2 SWAP1 PUSH2 0x429F JUMP JUMPDEST DUP9 PUSH2 0x1613 SWAP2 SWAP1 PUSH2 0x3E16 JUMP JUMPDEST SWAP8 POP DUP7 SWAP11 POP PUSH2 0x163B JUMP JUMPDEST DUP2 DUP2 PUSH2 0x1629 SWAP2 SWAP1 PUSH2 0x429F JUMP JUMPDEST DUP9 PUSH2 0x1634 SWAP2 SWAP1 PUSH2 0x3E16 JUMP JUMPDEST SWAP8 POP PUSH1 0x0 SWAP11 POP JUMPDEST POP POP POP POP POP POP JUMPDEST DUP1 DUP1 PUSH1 0x1 ADD SWAP2 POP POP PUSH2 0x14BF JUMP JUMPDEST POP DUP2 DUP2 PUSH2 0x165C SWAP2 SWAP1 PUSH2 0x4155 JUMP JUMPDEST SWAP5 POP POP POP POP SWAP2 POP SWAP2 JUMP JUMPDEST PUSH1 0x4 PUSH1 0x20 MSTORE DUP1 PUSH1 0x0 MSTORE PUSH1 0x40 PUSH1 0x0 KECCAK256 PUSH1 0x0 SWAP2 POP SWAP1 POP DUP1 PUSH1 0x0 ADD SLOAD SWAP1 POP DUP2 JUMP JUMPDEST PUSH1 0x0 PUSH1 0xC PUSH1 0x0 SWAP1 SLOAD SWAP1 PUSH2 0x100 EXP SWAP1 DIV PUSH20 0xFFFFFFFFFFFFFFFFFFFFFFFFFFFFFFFFFFFFFFFF AND PUSH20 0xFFFFFFFFFFFFFFFFFFFFFFFFFFFFFFFFFFFFFFFF AND PUSH4 0x243B5710 DUP4 PUSH1 0x40 MLOAD DUP3 PUSH4 0xFFFFFFFF AND PUSH1 0xE0 SHL DUP2 MSTORE PUSH1 0x4 ADD PUSH2 0x16E1 SWAP2 SWAP1 PUSH2 0x3622 JUMP JUMPDEST PUSH1 0x20 PUSH1 0x40 MLOAD DUP1 DUP4 SUB DUP2 DUP7 GAS STATICCALL ISZERO DUP1 ISZERO PUSH2 0x16FE JUMPI RETURNDATASIZE PUSH1 0x0 DUP1 RETURNDATACOPY RETURNDATASIZE PUSH1 0x0 REVERT JUMPDEST POP POP POP POP PUSH1 0x40 MLOAD RETURNDATASIZE PUSH1 0x1F NOT PUSH1 0x1F DUP3 ADD AND DUP3 ADD DUP1 PUSH1 0x40 MSTORE POP DUP2 ADD SWAP1 PUSH2 0x1722 SWAP2 SWAP1 PUSH2 0x4229 JUMP JUMPDEST SWAP1 POP PUSH1 0xB PUSH1 0x0 SWAP1 SLOAD SWAP1 PUSH2 0x100 EXP SWAP1 DIV PUSH20 0xFFFFFFFFFFFFFFFFFFFFFFFFFFFFFFFFFFFFFFFF AND PUSH20 0xFFFFFFFFFFFFFFFFFFFFFFFFFFFFFFFFFFFFFFFF AND PUSH4 0x80CECEA9 ADDRESS PUSH8 0xDE0B6B3A7640000 DUP5 PUSH2 0x1777 SWAP2 SWAP1 PUSH2 0x4155 JUMP JUMPDEST PUSH1 0x40 MLOAD DUP4 PUSH4 0xFFFFFFFF AND PUSH1 0xE0 SHL DUP2 MSTORE PUSH1 0x4 ADD PUSH2 0x1794 SWAP3 SWAP2 SWAP1 PUSH2 0x3D8D JUMP JUMPDEST PUSH1 0x0 PUSH1 0x40 MLOAD DUP1 DUP4 SUB DUP2 PUSH1 0x0 DUP8 DUP1 EXTCODESIZE ISZERO DUP1 ISZERO PUSH2 0x17AE JUMPI PUSH1 0x0 DUP1 REVERT JUMPDEST POP GAS CALL ISZERO DUP1 ISZERO PUSH2 0x17C2 JUMPI RETURNDATASIZE PUSH1 0x0 DUP1 RETURNDATACOPY RETURNDATASIZE PUSH1 0x0 REVERT JUMPDEST POP POP POP POP PUSH2 0x17D0 DUP3 DUP5 PUSH2 0x1FB5 JUMP JUMPDEST POP POP POP POP JUMP JUMPDEST PUSH1 0x0 PUSH1 0x1 PUSH1 0x0 DUP4 DUP2 MSTORE PUSH1 0x20 ADD SWAP1 DUP2 MSTORE PUSH1 0x20 ADD PUSH1 0x0 KECCAK256 PUSH1 0x0 SWAP1 SLOAD SWAP1 PUSH2 0x100 EXP SWAP1 DIV PUSH20 0xFFFFFFFFFFFFFFFFFFFFFFFFFFFFFFFFFFFFFFFF AND SWAP1 POP SWAP2 SWAP1 POP JUMP JUMPDEST PUSH1 0x0 DUP1 PUSH1 0x7 PUSH1 0x0 DUP6 DUP2 MSTORE PUSH1 0x20 ADD SWAP1 DUP2 MSTORE PUSH1 0x20 ADD PUSH1 0x0 KECCAK256 PUSH1 0x3 ADD DUP4 PUSH1 0x40 MLOAD PUSH2 0x183A SWAP2 SWAP1 PUSH2 0x4339 JUMP JUMPDEST SWAP1 DUP2 MSTORE PUSH1 0x20 ADD PUSH1 0x40 MLOAD DUP1 SWAP2 SUB SWAP1 KECCAK256 SLOAD SWAP1 POP PUSH1 0x0 PUSH1 0x7 PUSH1 0x0 DUP7 DUP2 MSTORE PUSH1 0x20 ADD SWAP1 DUP2 MSTORE PUSH1 0x20 ADD PUSH1 0x0 KECCAK256 PUSH1 0x4 ADD PUSH1 0x0 DUP4 DUP2 MSTORE PUSH1 0x20 ADD SWAP1 DUP2 MSTORE PUSH1 0x20 ADD PUSH1 0x0 KECCAK256 PUSH1 0x0 ADD SLOAD SWAP1 POP PUSH1 0x0 PUSH2 0x1890 DUP3 TIMESTAMP PUSH2 0x188B SWAP2 SWAP1 PUSH2 0x429F JUMP JUMPDEST PUSH2 0xE30 JUMP JUMPDEST PUSH1 0xC PUSH2 0x189C SWAP2 SWAP1 PUSH2 0x429F JUMP JUMPDEST SWAP1 POP PUSH1 0x0 PUSH1 0xC PUSH1 0x0 SWAP1 SLOAD SWAP1 PUSH2 0x100 EXP SWAP1 DIV PUSH20 0xFFFFFFFFFFFFFFFFFFFFFFFFFFFFFFFFFFFFFFFF AND PUSH20 0xFFFFFFFFFFFFFFFFFFFFFFFFFFFFFFFFFFFFFFFF AND PUSH4 0x76F2129 DUP9 PUSH1 0x40 MLOAD DUP3 PUSH4 0xFFFFFFFF AND PUSH1 0xE0 SHL DUP2 MSTORE PUSH1 0x4 ADD PUSH2 0x18FB SWAP2 SWAP1 PUSH2 0x3622 JUMP JUMPDEST PUSH1 0x20 PUSH1 0x40 MLOAD DUP1 DUP4 SUB DUP2 DUP7 GAS STATICCALL ISZERO DUP1 ISZERO PUSH2 0x1918 JUMPI RETURNDATASIZE PUSH1 0x0 DUP1 RETURNDATACOPY RETURNDATASIZE PUSH1 0x0 REVERT JUMPDEST POP POP POP POP PUSH1 0x40 MLOAD RETURNDATASIZE PUSH1 0x1F NOT PUSH1 0x1F DUP3 ADD AND DUP3 ADD DUP1 PUSH1 0x40 MSTORE POP DUP2 ADD SWAP1 PUSH2 0x193C SWAP2 SWAP1 PUSH2 0x4229 JUMP JUMPDEST SWAP1 POP DUP2 DUP2 PUSH2 0x194A SWAP2 SWAP1 PUSH2 0x4155 JUMP JUMPDEST SWAP5 POP POP POP POP POP SWAP3 SWAP2 POP POP JUMP JUMPDEST PUSH1 0x4 PUSH1 0x0 DUP4 DUP2 MSTORE PUSH1 0x20 ADD SWAP1 DUP2 MSTORE PUSH1 0x20 ADD PUSH1 0x0 KECCAK256 PUSH1 0x2 ADD PUSH1 0x0 DUP3 PUSH1 0x40 ADD CALLDATALOAD DUP2 MSTORE PUSH1 0x20 ADD SWAP1 DUP2 MSTORE PUSH1 0x20 ADD PUSH1 0x0 KECCAK256 PUSH1 0x0 SWAP1 SLOAD SWAP1 PUSH2 0x100 EXP SWAP1 DIV PUSH1 0xFF AND ISZERO PUSH2 0x19C6 JUMPI PUSH1 0x40 MLOAD PUSH32 0x208B15E800000000000000000000000000000000000000000000000000000000 DUP2 MSTORE PUSH1 0x4 ADD PUSH1 0x40 MLOAD DUP1 SWAP2 SUB SWAP1 REVERT JUMPDEST PUSH2 0x19D0 DUP3 DUP3 PUSH2 0x92A JUMP JUMPDEST PUSH2 0x1A06 JUMPI PUSH1 0x40 MLOAD PUSH32 0x4AA6BC4000000000000000000000000000000000000000000000000000000000 DUP2 MSTORE PUSH1 0x4 ADD PUSH1 0x40 MLOAD DUP1 SWAP2 SUB SWAP1 REVERT JUMPDEST PUSH1 0x1 PUSH1 0x4 PUSH1 0x0 DUP5 DUP2 MSTORE PUSH1 0x20 ADD SWAP1 DUP2 MSTORE PUSH1 0x20 ADD PUSH1 0x0 KECCAK256 PUSH1 0x2 ADD PUSH1 0x0 DUP4 PUSH1 0x40 ADD CALLDATALOAD DUP2 MSTORE PUSH1 0x20 ADD SWAP1 DUP2 MSTORE PUSH1 0x20 ADD PUSH1 0x0 KECCAK256 PUSH1 0x0 PUSH2 0x100 EXP DUP2 SLOAD DUP2 PUSH1 0xFF MUL NOT AND SWAP1 DUP4 ISZERO ISZERO MUL OR SWAP1 SSTORE POP DUP1 PUSH1 0x80 ADD CALLDATALOAD DUP2 PUSH1 0x20 ADD CALLDATALOAD DUP4 PUSH32 0xC32E14CFE81A05D371C248D22DE6B7AE849E981B76A1F8842E7B6DA73FC405A DUP5 PUSH1 0x0 ADD CALLDATALOAD DUP6 PUSH1 0x40 ADD CALLDATALOAD DUP7 PUSH1 0x60 ADD CALLDATALOAD DUP8 PUSH1 0xA0 ADD PUSH1 0x40 MLOAD PUSH2 0x1A99 SWAP5 SWAP4 SWAP3 SWAP2 SWAP1 PUSH2 0x436A JUMP JUMPDEST PUSH1 0x40 MLOAD DUP1 SWAP2 SUB SWAP1 LOG4 POP POP JUMP JUMPDEST PUSH1 0x5 SLOAD DUP2 JUMP JUMPDEST PUSH2 0x1AB4 DUP2 PUSH2 0x24D7 JUMP JUMPDEST POP JUMP JUMPDEST PUSH1 0x0 PUSH2 0x1AD3 PUSH1 0x0 DUP1 DUP5 DUP2 MSTORE PUSH1 0x20 ADD SWAP1 DUP2 MSTORE PUSH1 0x20 ADD PUSH1 0x0 KECCAK256 PUSH2 0x268E JUMP JUMPDEST SWAP1 POP SWAP2 SWAP1 POP JUMP JUMPDEST PUSH1 0x9 SLOAD DUP4 PUSH1 0x80 ADD CALLDATALOAD EQ PUSH2 0x1B22 JUMPI PUSH1 0x40 MLOAD PUSH32 0x8C379A000000000000000000000000000000000000000000000000000000000 DUP2 MSTORE PUSH1 0x4 ADD PUSH2 0x1B19 SWAP1 PUSH2 0x41F4 JUMP JUMPDEST PUSH1 0x40 MLOAD DUP1 SWAP2 SUB SWAP1 REVERT JUMPDEST PUSH2 0x1B2C DUP3 DUP5 PUSH2 0x1956 JUMP JUMPDEST PUSH1 0x0 PUSH2 0x1B38 DUP4 DUP4 PUSH2 0x1813 JUMP JUMPDEST SWAP1 POP PUSH1 0xB PUSH1 0x0 SWAP1 SLOAD SWAP1 PUSH2 0x100 EXP SWAP1 DIV PUSH20 0xFFFFFFFFFFFFFFFFFFFFFFFFFFFFFFFFFFFFFFFF AND PUSH20 0xFFFFFFFFFFFFFFFFFFFFFFFFFFFFFFFFFFFFFFFF AND PUSH4 0x6C61D60F ADDRESS DUP4 PUSH1 0x40 MLOAD DUP4 PUSH4 0xFFFFFFFF AND PUSH1 0xE0 SHL DUP2 MSTORE PUSH1 0x4 ADD PUSH2 0x1B97 SWAP3 SWAP2 SWAP1 PUSH2 0x3D8D JUMP JUMPDEST PUSH1 0x0 PUSH1 0x40 MLOAD DUP1 DUP4 SUB DUP2 PUSH1 0x0 DUP8 DUP1 EXTCODESIZE ISZERO DUP1 ISZERO PUSH2 0x1BB1 JUMPI PUSH1 0x0 DUP1 REVERT JUMPDEST POP GAS CALL ISZERO DUP1 ISZERO PUSH2 0x1BC5 JUMPI RETURNDATASIZE PUSH1 0x0 DUP1 RETURNDATACOPY RETURNDATASIZE PUSH1 0x0 REVERT JUMPDEST POP POP POP POP PUSH1 0x0 PUSH1 0x7 PUSH1 0x0 DUP6 DUP2 MSTORE PUSH1 0x20 ADD SWAP1 DUP2 MSTORE PUSH1 0x20 ADD PUSH1 0x0 KECCAK256 PUSH1 0x3 ADD DUP4 PUSH1 0x40 MLOAD PUSH2 0x1BEF SWAP2 SWAP1 PUSH2 0x4339 JUMP JUMPDEST SWAP1 DUP2 MSTORE PUSH1 0x20 ADD PUSH1 0x40 MLOAD DUP1 SWAP2 SUB SWAP1 KECCAK256 SLOAD SWAP1 POP TIMESTAMP PUSH1 0x7 PUSH1 0x0 DUP7 DUP2 MSTORE PUSH1 0x20 ADD SWAP1 DUP2 MSTORE PUSH1 0x20 ADD PUSH1 0x0 KECCAK256 PUSH1 0x4 ADD PUSH1 0x0 DUP4 DUP2 MSTORE PUSH1 0x20 ADD SWAP1 DUP2 MSTORE PUSH1 0x20 ADD PUSH1 0x0 KECCAK256 PUSH1 0x1 ADD DUP2 SWAP1 SSTORE POP POP POP POP POP POP JUMP JUMPDEST DUP2 CALLER PUSH20 0xFFFFFFFFFFFFFFFFFFFFFFFFFFFFFFFFFFFFFFFF AND PUSH1 0x1 PUSH1 0x0 DUP4 DUP2 MSTORE PUSH1 0x20 ADD SWAP1 DUP2 MSTORE PUSH1 0x20 ADD PUSH1 0x0 KECCAK256 PUSH1 0x0 SWAP1 SLOAD SWAP1 PUSH2 0x100 EXP SWAP1 DIV PUSH20 0xFFFFFFFFFFFFFFFFFFFFFFFFFFFFFFFFFFFFFFFF AND PUSH20 0xFFFFFFFFFFFFFFFFFFFFFFFFFFFFFFFFFFFFFFFF AND EQ PUSH2 0x1CCF JUMPI PUSH1 0x40 MLOAD PUSH32 0xBB9BF27800000000000000000000000000000000000000000000000000000000 DUP2 MSTORE PUSH1 0x4 ADD PUSH1 0x40 MLOAD DUP1 SWAP2 SUB SWAP1 REVERT JUMPDEST PUSH1 0x0 PUSH1 0x4 PUSH1 0x0 DUP6 DUP2 MSTORE PUSH1 0x20 ADD SWAP1 DUP2 MSTORE PUSH1 0x20 ADD PUSH1 0x0 KECCAK256 PUSH1 0x0 ADD SLOAD SWAP1 POP DUP3 PUSH1 0x4 PUSH1 0x0 DUP7 DUP2 MSTORE PUSH1 0x20 ADD SWAP1 DUP2 MSTORE PUSH1 0x20 ADD PUSH1 0x0 KECCAK256 PUSH1 0x0 ADD DUP2 SWAP1 SSTORE POP DUP4 PUSH32 0x264B2A8F6763C084235FE832BA903482B2EF1A521336881FC75B987C2DFD29C5 DUP3 DUP6 PUSH1 0x40 MLOAD PUSH2 0x1D37 SWAP3 SWAP2 SWAP1 PUSH2 0x3AB4 JUMP JUMPDEST PUSH1 0x40 MLOAD DUP1 SWAP2 SUB SWAP1 LOG2 POP POP POP POP JUMP JUMPDEST PUSH1 0x0 DUP4 CALLER PUSH20 0xFFFFFFFFFFFFFFFFFFFFFFFFFFFFFFFFFFFFFFFF AND PUSH1 0x1 PUSH1 0x0 DUP4 DUP2 MSTORE PUSH1 0x20 ADD SWAP1 DUP2 MSTORE PUSH1 0x20 ADD PUSH1 0x0 KECCAK256 PUSH1 0x0 SWAP1 SLOAD SWAP1 PUSH2 0x100 EXP SWAP1 DIV PUSH20 0xFFFFFFFFFFFFFFFFFFFFFFFFFFFFFFFFFFFFFFFF AND PUSH20 0xFFFFFFFFFFFFFFFFFFFFFFFFFFFFFFFFFFFFFFFF AND EQ PUSH2 0x1DE0 JUMPI PUSH1 0x40 MLOAD PUSH32 0xBB9BF27800000000000000000000000000000000000000000000000000000000 DUP2 MSTORE PUSH1 0x4 ADD PUSH1 0x40 MLOAD DUP1 SWAP2 SUB SWAP1 REVERT JUMPDEST PUSH1 0x0 PUSH2 0x1DEB DUP7 PUSH2 0x12CD JUMP JUMPDEST SWAP1 POP PUSH2 0x1E13 DUP6 DUP6 PUSH1 0x0 DUP1 DUP11 DUP2 MSTORE PUSH1 0x20 ADD SWAP1 DUP2 MSTORE PUSH1 0x20 ADD PUSH1 0x0 KECCAK256 PUSH2 0x26B1 SWAP1 SWAP3 SWAP2 SWAP1 PUSH4 0xFFFFFFFF AND JUMP JUMPDEST SWAP3 POP DUP6 PUSH32 0x61E5E8054E3DAF084A0C6C646C065E8BF5E7CA4D5567BDA942309BD1652F349D DUP3 DUP8 DUP8 DUP8 PUSH1 0x40 MLOAD PUSH2 0x1E4B SWAP5 SWAP4 SWAP3 SWAP2 SWAP1 PUSH2 0x4422 JUMP JUMPDEST PUSH1 0x40 MLOAD DUP1 SWAP2 SUB SWAP1 LOG2 POP POP SWAP4 SWAP3 POP POP POP JUMP JUMPDEST PUSH1 0x0 DUP1 DUP4 PUSH1 0x3 ADD PUSH1 0x0 DUP5 DUP2 MSTORE PUSH1 0x20 ADD SWAP1 DUP2 MSTORE PUSH1 0x20 ADD PUSH1 0x0 KECCAK256 SLOAD SUB PUSH2 0x1EAC JUMPI PUSH1 0x40 MLOAD PUSH32 0x7204756C00000000000000000000000000000000000000000000000000000000 DUP2 MSTORE PUSH1 0x4 ADD PUSH1 0x40 MLOAD DUP1 SWAP2 SUB SWAP1 REVERT JUMPDEST PUSH1 0x1 DUP4 PUSH1 0x3 ADD PUSH1 0x0 DUP5 DUP2 MSTORE PUSH1 0x20 ADD SWAP1 DUP2 MSTORE PUSH1 0x20 ADD PUSH1 0x0 KECCAK256 SLOAD PUSH2 0x1ECE SWAP2 SWAP1 PUSH2 0x429F JUMP JUMPDEST SWAP1 POP SWAP3 SWAP2 POP POP JUMP JUMPDEST DUP1 PUSH1 0x1 PUSH1 0x0 DUP5 DUP2 MSTORE PUSH1 0x20 ADD SWAP1 DUP2 MSTORE PUSH1 0x20 ADD PUSH1 0x0 KECCAK256 PUSH1 0x0 PUSH2 0x100 EXP DUP2 SLOAD DUP2 PUSH20 0xFFFFFFFFFFFFFFFFFFFFFFFFFFFFFFFFFFFFFFFF MUL NOT AND SWAP1 DUP4 PUSH20 0xFFFFFFFFFFFFFFFFFFFFFFFFFFFFFFFFFFFFFFFF AND MUL OR SWAP1 SSTORE POP DUP2 PUSH32 0xF0ADFB94EAB6DAF835DEB69C5738FE636150C3DFD08094A76F39B963DC8CB05A PUSH1 0x40 MLOAD PUSH1 0x40 MLOAD DUP1 SWAP2 SUB SWAP1 LOG2 DUP1 PUSH20 0xFFFFFFFFFFFFFFFFFFFFFFFFFFFFFFFFFFFFFFFF AND PUSH1 0x0 PUSH20 0xFFFFFFFFFFFFFFFFFFFFFFFFFFFFFFFFFFFFFFFF AND DUP4 PUSH32 0xBA83579A0E79193EF649B9F5A8759D35AF086BA62A3E207B52E4A8AE30D49E3 PUSH1 0x40 MLOAD PUSH1 0x40 MLOAD DUP1 SWAP2 SUB SWAP1 LOG4 POP POP JUMP JUMPDEST PUSH1 0x0 DUP3 CALLER PUSH20 0xFFFFFFFFFFFFFFFFFFFFFFFFFFFFFFFFFFFFFFFF AND PUSH1 0x1 PUSH1 0x0 DUP4 DUP2 MSTORE PUSH1 0x20 ADD SWAP1 DUP2 MSTORE PUSH1 0x20 ADD PUSH1 0x0 KECCAK256 PUSH1 0x0 SWAP1 SLOAD SWAP1 PUSH2 0x100 EXP SWAP1 DIV PUSH20 0xFFFFFFFFFFFFFFFFFFFFFFFFFFFFFFFFFFFFFFFF AND PUSH20 0xFFFFFFFFFFFFFFFFFFFFFFFFFFFFFFFFFFFFFFFF AND EQ PUSH2 0x2050 JUMPI PUSH1 0x40 MLOAD PUSH32 0xBB9BF27800000000000000000000000000000000000000000000000000000000 DUP2 MSTORE PUSH1 0x4 ADD PUSH1 0x40 MLOAD DUP1 SWAP2 SUB SWAP1 REVERT JUMPDEST PUSH1 0x0 PUSH2 0x205B DUP6 PUSH2 0x12CD JUMP JUMPDEST SWAP1 POP PUSH2 0x2081 DUP5 PUSH1 0x0 DUP1 DUP9 DUP2 MSTORE PUSH1 0x20 ADD SWAP1 DUP2 MSTORE PUSH1 0x20 ADD PUSH1 0x0 KECCAK256 PUSH2 0x2C95 SWAP1 SWAP2 SWAP1 PUSH4 0xFFFFFFFF AND JUMP JUMPDEST SWAP3 POP DUP5 PUSH32 0x19239B3F93CD10558AAF11423AF70C77763BF54F52BCC75BFA74D4D13548CDE9 DUP3 DUP7 DUP7 PUSH1 0x40 MLOAD PUSH2 0x20B7 SWAP4 SWAP3 SWAP2 SWAP1 PUSH2 0x4462 JUMP JUMPDEST PUSH1 0x40 MLOAD DUP1 SWAP2 SUB SWAP1 LOG2 POP POP SWAP3 SWAP2 POP POP JUMP JUMPDEST PUSH1 0x0 DUP6 CALLER PUSH20 0xFFFFFFFFFFFFFFFFFFFFFFFFFFFFFFFFFFFFFFFF AND PUSH1 0x1 PUSH1 0x0 DUP4 DUP2 MSTORE PUSH1 0x20 ADD SWAP1 DUP2 MSTORE PUSH1 0x20 ADD PUSH1 0x0 KECCAK256 PUSH1 0x0 SWAP1 SLOAD SWAP1 PUSH2 0x100 EXP SWAP1 DIV PUSH20 0xFFFFFFFFFFFFFFFFFFFFFFFFFFFFFFFFFFFFFFFF AND PUSH20 0xFFFFFFFFFFFFFFFFFFFFFFFFFFFFFFFFFFFFFFFF AND EQ PUSH2 0x2162 JUMPI PUSH1 0x40 MLOAD PUSH32 0xBB9BF27800000000000000000000000000000000000000000000000000000000 DUP2 MSTORE PUSH1 0x4 ADD PUSH1 0x40 MLOAD DUP1 SWAP2 SUB SWAP1 REVERT JUMPDEST PUSH1 0x0 PUSH2 0x2188 DUP8 PUSH1 0x0 DUP1 DUP12 DUP2 MSTORE PUSH1 0x20 ADD SWAP1 DUP2 MSTORE PUSH1 0x20 ADD PUSH1 0x0 KECCAK256 PUSH2 0x1E5C SWAP1 SWAP2 SWAP1 PUSH4 0xFFFFFFFF AND JUMP JUMPDEST SWAP1 POP PUSH2 0x21B4 DUP8 DUP8 DUP8 DUP8 PUSH1 0x0 DUP1 DUP15 DUP2 MSTORE PUSH1 0x20 ADD SWAP1 DUP2 MSTORE PUSH1 0x20 ADD PUSH1 0x0 KECCAK256 PUSH2 0x2EF4 SWAP1 SWAP5 SWAP4 SWAP3 SWAP2 SWAP1 PUSH4 0xFFFFFFFF AND JUMP JUMPDEST SWAP3 POP DUP8 PUSH32 0xEA3588E4A2A0C93D6A0E69DFEAF7496F43CCCCF02AD9CE0A5B7627CBCA4B61B1 DUP3 DUP10 DUP10 DUP8 PUSH1 0x40 MLOAD PUSH2 0x21EC SWAP5 SWAP4 SWAP3 SWAP2 SWAP1 PUSH2 0x4499 JUMP JUMPDEST PUSH1 0x40 MLOAD DUP1 SWAP2 SUB SWAP1 LOG2 POP POP SWAP6 SWAP5 POP POP POP POP POP JUMP JUMPDEST PUSH1 0x0 PUSH1 0x8 DUP3 PUSH1 0x40 MLOAD PUSH1 0x20 ADD PUSH2 0x2214 SWAP2 SWAP1 PUSH2 0x44FF JUMP JUMPDEST PUSH1 0x40 MLOAD PUSH1 0x20 DUP2 DUP4 SUB SUB DUP2 MSTORE SWAP1 PUSH1 0x40 MSTORE DUP1 MLOAD SWAP1 PUSH1 0x20 ADD KECCAK256 PUSH1 0x0 SHR SWAP1 SHR SWAP1 POP SWAP2 SWAP1 POP JUMP JUMPDEST DUP2 CALLER PUSH20 0xFFFFFFFFFFFFFFFFFFFFFFFFFFFFFFFFFFFFFFFF AND PUSH1 0x1 PUSH1 0x0 DUP4 DUP2 MSTORE PUSH1 0x20 ADD SWAP1 DUP2 MSTORE PUSH1 0x20 ADD PUSH1 0x0 KECCAK256 PUSH1 0x0 SWAP1 SLOAD SWAP1 PUSH2 0x100 EXP SWAP1 DIV PUSH20 0xFFFFFFFFFFFFFFFFFFFFFFFFFFFFFFFFFFFFFFFF AND PUSH20 0xFFFFFFFFFFFFFFFFFFFFFFFFFFFFFFFFFFFFFFFF AND EQ PUSH2 0x22CF JUMPI PUSH1 0x40 MLOAD PUSH32 0xBB9BF27800000000000000000000000000000000000000000000000000000000 DUP2 MSTORE PUSH1 0x4 ADD PUSH1 0x40 MLOAD DUP1 SWAP2 SUB SWAP1 REVERT JUMPDEST DUP2 PUSH1 0x2 PUSH1 0x0 DUP6 DUP2 MSTORE PUSH1 0x20 ADD SWAP1 DUP2 MSTORE PUSH1 0x20 ADD PUSH1 0x0 KECCAK256 PUSH1 0x0 PUSH2 0x100 EXP DUP2 SLOAD DUP2 PUSH20 0xFFFFFFFFFFFFFFFFFFFFFFFFFFFFFFFFFFFFFFFF MUL NOT AND SWAP1 DUP4 PUSH20 0xFFFFFFFFFFFFFFFFFFFFFFFFFFFFFFFFFFFFFFFF AND MUL OR SWAP1 SSTORE POP DUP2 PUSH20 0xFFFFFFFFFFFFFFFFFFFFFFFFFFFFFFFFFFFFFFFF AND CALLER PUSH20 0xFFFFFFFFFFFFFFFFFFFFFFFFFFFFFFFFFFFFFFFF AND DUP5 PUSH32 0x1018365553CCE55D9CB02EF73E18CC9311894F3FE1D1EAFD235AC2D26CD8BA58 PUSH1 0x40 MLOAD PUSH1 0x40 MLOAD DUP1 SWAP2 SUB SWAP1 LOG4 POP POP POP JUMP JUMPDEST PUSH1 0x0 DUP5 CALLER PUSH20 0xFFFFFFFFFFFFFFFFFFFFFFFFFFFFFFFFFFFFFFFF AND PUSH1 0x1 PUSH1 0x0 DUP4 DUP2 MSTORE PUSH1 0x20 ADD SWAP1 DUP2 MSTORE PUSH1 0x20 ADD PUSH1 0x0 KECCAK256 PUSH1 0x0 SWAP1 SLOAD SWAP1 PUSH2 0x100 EXP SWAP1 DIV PUSH20 0xFFFFFFFFFFFFFFFFFFFFFFFFFFFFFFFFFFFFFFFF AND PUSH20 0xFFFFFFFFFFFFFFFFFFFFFFFFFFFFFFFFFFFFFFFF AND EQ PUSH2 0x241C JUMPI PUSH1 0x40 MLOAD PUSH32 0xBB9BF27800000000000000000000000000000000000000000000000000000000 DUP2 MSTORE PUSH1 0x4 ADD PUSH1 0x40 MLOAD DUP1 SWAP2 SUB SWAP1 REVERT JUMPDEST PUSH1 0x0 PUSH2 0x2442 DUP7 PUSH1 0x0 DUP1 DUP11 DUP2 MSTORE PUSH1 0x20 ADD SWAP1 DUP2 MSTORE PUSH1 0x20 ADD PUSH1 0x0 KECCAK256 PUSH2 0x1E5C SWAP1 SWAP2 SWAP1 PUSH4 0xFFFFFFFF AND JUMP JUMPDEST SWAP1 POP PUSH2 0x246C DUP7 DUP7 DUP7 PUSH1 0x0 DUP1 DUP13 DUP2 MSTORE PUSH1 0x20 ADD SWAP1 DUP2 MSTORE PUSH1 0x20 ADD PUSH1 0x0 KECCAK256 PUSH2 0x34AA SWAP1 SWAP4 SWAP3 SWAP2 SWAP1 PUSH4 0xFFFFFFFF AND JUMP JUMPDEST SWAP3 POP DUP7 PUSH32 0x3108849C053C77B8073A11256DFFB5FFD5B55E93E105A355E1C9061DB890D871 DUP3 DUP9 DUP7 PUSH1 0x40 MLOAD PUSH2 0x24A2 SWAP4 SWAP3 SWAP2 SWAP1 PUSH2 0x4462 JUMP JUMPDEST PUSH1 0x40 MLOAD DUP1 SWAP2 SUB SWAP1 LOG2 POP POP SWAP5 SWAP4 POP POP POP POP JUMP JUMPDEST PUSH1 0x0 DUP1 DUP4 PUSH1 0x3 ADD PUSH1 0x0 DUP5 DUP2 MSTORE PUSH1 0x20 ADD SWAP1 DUP2 MSTORE PUSH1 0x20 ADD PUSH1 0x0 KECCAK256 SLOAD EQ ISZERO SWAP1 POP SWAP3 SWAP2 POP POP JUMP JUMPDEST CALLER PUSH20 0xFFFFFFFFFFFFFFFFFFFFFFFFFFFFFFFFFFFFFFFF AND PUSH1 0x2 PUSH1 0x0 DUP4 DUP2 MSTORE PUSH1 0x20 ADD SWAP1 DUP2 MSTORE PUSH1 0x20 ADD PUSH1 0x0 KECCAK256 PUSH1 0x0 SWAP1 SLOAD SWAP1 PUSH2 0x100 EXP SWAP1 DIV PUSH20 0xFFFFFFFFFFFFFFFFFFFFFFFFFFFFFFFFFFFFFFFF AND PUSH20 0xFFFFFFFFFFFFFFFFFFFFFFFFFFFFFFFFFFFFFFFF AND EQ PUSH2 0x256F JUMPI PUSH1 0x40 MLOAD PUSH32 0x34C4245D00000000000000000000000000000000000000000000000000000000 DUP2 MSTORE PUSH1 0x4 ADD PUSH1 0x40 MLOAD DUP1 SWAP2 SUB SWAP1 REVERT JUMPDEST PUSH1 0x0 PUSH1 0x1 PUSH1 0x0 DUP4 DUP2 MSTORE PUSH1 0x20 ADD SWAP1 DUP2 MSTORE PUSH1 0x20 ADD PUSH1 0x0 KECCAK256 PUSH1 0x0 SWAP1 SLOAD SWAP1 PUSH2 0x100 EXP SWAP1 DIV PUSH20 0xFFFFFFFFFFFFFFFFFFFFFFFFFFFFFFFFFFFFFFFF AND SWAP1 POP CALLER PUSH1 0x1 PUSH1 0x0 DUP5 DUP2 MSTORE PUSH1 0x20 ADD SWAP1 DUP2 MSTORE PUSH1 0x20 ADD PUSH1 0x0 KECCAK256 PUSH1 0x0 PUSH2 0x100 EXP DUP2 SLOAD DUP2 PUSH20 0xFFFFFFFFFFFFFFFFFFFFFFFFFFFFFFFFFFFFFFFF MUL NOT AND SWAP1 DUP4 PUSH20 0xFFFFFFFFFFFFFFFFFFFFFFFFFFFFFFFFFFFFFFFF AND MUL OR SWAP1 SSTORE POP PUSH1 0x2 PUSH1 0x0 DUP4 DUP2 MSTORE PUSH1 0x20 ADD SWAP1 DUP2 MSTORE PUSH1 0x20 ADD PUSH1 0x0 KECCAK256 PUSH1 0x0 PUSH2 0x100 EXP DUP2 SLOAD SWAP1 PUSH20 0xFFFFFFFFFFFFFFFFFFFFFFFFFFFFFFFFFFFFFFFF MUL NOT AND SWAP1 SSTORE CALLER PUSH20 0xFFFFFFFFFFFFFFFFFFFFFFFFFFFFFFFFFFFFFFFF AND DUP2 PUSH20 0xFFFFFFFFFFFFFFFFFFFFFFFFFFFFFFFFFFFFFFFF AND DUP4 PUSH32 0xBA83579A0E79193EF649B9F5A8759D35AF086BA62A3E207B52E4A8AE30D49E3 PUSH1 0x40 MLOAD PUSH1 0x40 MLOAD DUP1 SWAP2 SUB SWAP1 LOG4 POP POP JUMP JUMPDEST PUSH1 0x0 DUP2 PUSH1 0x2 ADD PUSH1 0x0 DUP4 PUSH1 0x1 ADD SLOAD DUP2 MSTORE PUSH1 0x20 ADD SWAP1 DUP2 MSTORE PUSH1 0x20 ADD PUSH1 0x0 KECCAK256 SLOAD SWAP1 POP SWAP2 SWAP1 POP JUMP JUMPDEST PUSH1 0x0 DUP1 DUP5 PUSH1 0x0 ADD SLOAD SWAP1 POP PUSH1 0x0 JUMPDEST DUP5 DUP5 SWAP1 POP DUP2 LT ISZERO PUSH2 0x283D JUMPI PUSH32 0x30644E72E131A029B85045B68181585D2833E84879B9709143E1F593F0000001 DUP6 DUP6 DUP4 DUP2 DUP2 LT PUSH2 0x26FD JUMPI PUSH2 0x26FC PUSH2 0x3E4A JUMP JUMPDEST JUMPDEST SWAP1 POP PUSH1 0x20 MUL ADD CALLDATALOAD LT PUSH2 0x273B JUMPI PUSH1 0x40 MLOAD PUSH32 0xC380A82E00000000000000000000000000000000000000000000000000000000 DUP2 MSTORE PUSH1 0x4 ADD PUSH1 0x40 MLOAD DUP1 SWAP2 SUB SWAP1 REVERT JUMPDEST PUSH1 0x0 DUP6 DUP6 DUP4 DUP2 DUP2 LT PUSH2 0x2750 JUMPI PUSH2 0x274F PUSH2 0x3E4A JUMP JUMPDEST JUMPDEST SWAP1 POP PUSH1 0x20 MUL ADD CALLDATALOAD SUB PUSH2 0x278E JUMPI PUSH1 0x40 MLOAD PUSH32 0x29691BE200000000000000000000000000000000000000000000000000000000 DUP2 MSTORE PUSH1 0x4 ADD PUSH1 0x40 MLOAD DUP1 SWAP2 SUB SWAP1 REVERT JUMPDEST PUSH2 0x27B1 DUP7 DUP7 DUP7 DUP5 DUP2 DUP2 LT PUSH2 0x27A5 JUMPI PUSH2 0x27A4 PUSH2 0x3E4A JUMP JUMPDEST JUMPDEST SWAP1 POP PUSH1 0x20 MUL ADD CALLDATALOAD PUSH2 0x24B4 JUMP JUMPDEST ISZERO PUSH2 0x27E8 JUMPI PUSH1 0x40 MLOAD PUSH32 0x258A195A00000000000000000000000000000000000000000000000000000000 DUP2 MSTORE PUSH1 0x4 ADD PUSH1 0x40 MLOAD DUP1 SWAP2 SUB SWAP1 REVERT JUMPDEST DUP1 PUSH1 0x1 DUP4 PUSH2 0x27F6 SWAP2 SWAP1 PUSH2 0x3E16 JUMP JUMPDEST PUSH2 0x2800 SWAP2 SWAP1 PUSH2 0x3E16 JUMP JUMPDEST DUP7 PUSH1 0x3 ADD PUSH1 0x0 DUP8 DUP8 DUP6 DUP2 DUP2 LT PUSH2 0x2819 JUMPI PUSH2 0x2818 PUSH2 0x3E4A JUMP JUMPDEST JUMPDEST SWAP1 POP PUSH1 0x20 MUL ADD CALLDATALOAD DUP2 MSTORE PUSH1 0x20 ADD SWAP1 DUP2 MSTORE PUSH1 0x20 ADD PUSH1 0x0 KECCAK256 DUP2 SWAP1 SSTORE POP DUP1 PUSH1 0x1 ADD SWAP1 POP PUSH2 0x26BE JUMP JUMPDEST POP PUSH1 0x60 DUP5 DUP5 DUP1 DUP1 PUSH1 0x20 MUL PUSH1 0x20 ADD PUSH1 0x40 MLOAD SWAP1 DUP2 ADD PUSH1 0x40 MSTORE DUP1 SWAP4 SWAP3 SWAP2 SWAP1 DUP2 DUP2 MSTORE PUSH1 0x20 ADD DUP4 DUP4 PUSH1 0x20 MUL DUP1 DUP3 DUP5 CALLDATACOPY PUSH1 0x0 DUP2 DUP5 ADD MSTORE PUSH1 0x1F NOT PUSH1 0x1F DUP3 ADD AND SWAP1 POP DUP1 DUP4 ADD SWAP3 POP POP POP POP POP POP POP SWAP1 POP PUSH1 0x0 DUP7 PUSH1 0x1 ADD SLOAD SWAP1 POP JUMPDEST DUP6 DUP6 SWAP1 POP DUP4 PUSH2 0x289D SWAP2 SWAP1 PUSH2 0x3E16 JUMP JUMPDEST DUP2 PUSH1 0x2 PUSH2 0x28AA SWAP2 SWAP1 PUSH2 0x464D JUMP JUMPDEST LT ISZERO PUSH2 0x28C1 JUMPI DUP1 PUSH2 0x28BA SWAP1 PUSH2 0x3D45 JUMP JUMPDEST SWAP1 POP PUSH2 0x288E JUMP JUMPDEST DUP1 DUP8 PUSH1 0x1 ADD DUP2 SWAP1 SSTORE POP PUSH1 0x0 DUP4 SWAP1 POP PUSH1 0x0 DUP8 DUP8 SWAP1 POP DUP6 PUSH2 0x28E0 SWAP2 SWAP1 PUSH2 0x3E16 JUMP JUMPDEST SWAP1 POP PUSH1 0x0 PUSH1 0x1 DUP4 SWAP1 SHR SWAP1 POP PUSH1 0x0 PUSH1 0x1 DUP1 PUSH1 0x1 DUP6 PUSH2 0x28FD SWAP2 SWAP1 PUSH2 0x429F JUMP JUMPDEST SWAP1 SHR PUSH2 0x2909 SWAP2 SWAP1 PUSH2 0x3E16 JUMP JUMPDEST SWAP1 POP PUSH1 0x0 JUMPDEST DUP6 DUP2 LT ISZERO PUSH2 0x2C1C JUMPI PUSH1 0x0 DUP4 DUP4 PUSH2 0x2924 SWAP2 SWAP1 PUSH2 0x429F JUMP JUMPDEST SWAP1 POP PUSH1 0x0 DUP2 PUSH8 0xFFFFFFFFFFFFFFFF DUP2 GT ISZERO PUSH2 0x2942 JUMPI PUSH2 0x2941 PUSH2 0x3B1D JUMP JUMPDEST JUMPDEST PUSH1 0x40 MLOAD SWAP1 DUP1 DUP3 MSTORE DUP1 PUSH1 0x20 MUL PUSH1 0x20 ADD DUP3 ADD PUSH1 0x40 MSTORE DUP1 ISZERO PUSH2 0x2970 JUMPI DUP2 PUSH1 0x20 ADD PUSH1 0x20 DUP3 MUL DUP1 CALLDATASIZE DUP4 CALLDATACOPY DUP1 DUP3 ADD SWAP2 POP POP SWAP1 POP JUMPDEST POP SWAP1 POP PUSH1 0x0 JUMPDEST DUP3 DUP2 LT ISZERO PUSH2 0x2B43 JUMPI PUSH1 0x0 DUP9 PUSH1 0x2 DUP9 DUP5 PUSH2 0x298F SWAP2 SWAP1 PUSH2 0x3E16 JUMP JUMPDEST PUSH2 0x2999 SWAP2 SWAP1 PUSH2 0x4155 JUMP JUMPDEST LT ISZERO PUSH2 0x29BC JUMPI DUP16 PUSH1 0x2 ADD PUSH1 0x0 DUP7 DUP2 MSTORE PUSH1 0x20 ADD SWAP1 DUP2 MSTORE PUSH1 0x20 ADD PUSH1 0x0 KECCAK256 SLOAD SWAP1 POP PUSH2 0x29FC JUMP JUMPDEST DUP11 DUP10 PUSH1 0x2 DUP10 DUP6 PUSH2 0x29CC SWAP2 SWAP1 PUSH2 0x3E16 JUMP JUMPDEST PUSH2 0x29D6 SWAP2 SWAP1 PUSH2 0x4155 JUMP JUMPDEST PUSH2 0x29E0 SWAP2 SWAP1 PUSH2 0x429F JUMP JUMPDEST DUP2 MLOAD DUP2 LT PUSH2 0x29F1 JUMPI PUSH2 0x29F0 PUSH2 0x3E4A JUMP JUMPDEST JUMPDEST PUSH1 0x20 MUL PUSH1 0x20 ADD ADD MLOAD SWAP1 POP JUMPDEST PUSH1 0x0 DUP9 PUSH1 0x1 PUSH1 0x2 DUP11 DUP7 PUSH2 0x2A0F SWAP2 SWAP1 PUSH2 0x3E16 JUMP JUMPDEST PUSH2 0x2A19 SWAP2 SWAP1 PUSH2 0x4155 JUMP JUMPDEST PUSH2 0x2A23 SWAP2 SWAP1 PUSH2 0x3E16 JUMP JUMPDEST LT ISZERO PUSH2 0x2A75 JUMPI DUP12 DUP11 PUSH1 0x1 PUSH1 0x2 DUP12 DUP8 PUSH2 0x2A3B SWAP2 SWAP1 PUSH2 0x3E16 JUMP JUMPDEST PUSH2 0x2A45 SWAP2 SWAP1 PUSH2 0x4155 JUMP JUMPDEST PUSH2 0x2A4F SWAP2 SWAP1 PUSH2 0x3E16 JUMP JUMPDEST PUSH2 0x2A59 SWAP2 SWAP1 PUSH2 0x429F JUMP JUMPDEST DUP2 MLOAD DUP2 LT PUSH2 0x2A6A JUMPI PUSH2 0x2A69 PUSH2 0x3E4A JUMP JUMPDEST JUMPDEST PUSH1 0x20 MUL PUSH1 0x20 ADD ADD MLOAD SWAP1 POP JUMPDEST PUSH1 0x0 DUP1 DUP3 EQ PUSH2 0x2B11 JUMPI PUSH20 0x0 PUSH4 0x561558FE PUSH1 0x40 MLOAD DUP1 PUSH1 0x40 ADD PUSH1 0x40 MSTORE DUP1 DUP7 DUP2 MSTORE PUSH1 0x20 ADD DUP6 DUP2 MSTORE POP PUSH1 0x40 MLOAD DUP3 PUSH4 0xFFFFFFFF AND PUSH1 0xE0 SHL DUP2 MSTORE PUSH1 0x4 ADD PUSH2 0x2AC9 SWAP2 SWAP1 PUSH2 0x4721 JUMP JUMPDEST PUSH1 0x20 PUSH1 0x40 MLOAD DUP1 DUP4 SUB DUP2 DUP7 GAS DELEGATECALL ISZERO DUP1 ISZERO PUSH2 0x2AE6 JUMPI RETURNDATASIZE PUSH1 0x0 DUP1 RETURNDATACOPY RETURNDATASIZE PUSH1 0x0 REVERT JUMPDEST POP POP POP POP PUSH1 0x40 MLOAD RETURNDATASIZE PUSH1 0x1F NOT PUSH1 0x1F DUP3 ADD AND DUP3 ADD DUP1 PUSH1 0x40 MSTORE POP DUP2 ADD SWAP1 PUSH2 0x2B0A SWAP2 SWAP1 PUSH2 0x4229 JUMP JUMPDEST SWAP1 POP PUSH2 0x2B15 JUMP JUMPDEST DUP3 SWAP1 POP JUMPDEST DUP1 DUP6 DUP6 DUP2 MLOAD DUP2 LT PUSH2 0x2B29 JUMPI PUSH2 0x2B28 PUSH2 0x3E4A JUMP JUMPDEST JUMPDEST PUSH1 0x20 MUL PUSH1 0x20 ADD ADD DUP2 DUP2 MSTORE POP POP DUP4 PUSH1 0x1 ADD SWAP4 POP POP POP POP PUSH2 0x2976 JUMP JUMPDEST POP PUSH1 0x1 DUP1 DUP8 AND SUB PUSH2 0x2B94 JUMPI DUP9 PUSH1 0x1 DUP11 MLOAD PUSH2 0x2B5D SWAP2 SWAP1 PUSH2 0x429F JUMP JUMPDEST DUP2 MLOAD DUP2 LT PUSH2 0x2B6E JUMPI PUSH2 0x2B6D PUSH2 0x3E4A JUMP JUMPDEST JUMPDEST PUSH1 0x20 MUL PUSH1 0x20 ADD ADD MLOAD DUP15 PUSH1 0x2 ADD PUSH1 0x0 DUP6 DUP2 MSTORE PUSH1 0x20 ADD SWAP1 DUP2 MSTORE PUSH1 0x20 ADD PUSH1 0x0 KECCAK256 DUP2 SWAP1 SSTORE POP PUSH2 0x2BE1 JUMP JUMPDEST PUSH1 0x1 DUP10 MLOAD GT ISZERO PUSH2 0x2BE0 JUMPI DUP9 PUSH1 0x2 DUP11 MLOAD PUSH2 0x2BAD SWAP2 SWAP1 PUSH2 0x429F JUMP JUMPDEST DUP2 MLOAD DUP2 LT PUSH2 0x2BBE JUMPI PUSH2 0x2BBD PUSH2 0x3E4A JUMP JUMPDEST JUMPDEST PUSH1 0x20 MUL PUSH1 0x20 ADD ADD MLOAD DUP15 PUSH1 0x2 ADD PUSH1 0x0 DUP6 DUP2 MSTORE PUSH1 0x20 ADD SWAP1 DUP2 MSTORE PUSH1 0x20 ADD PUSH1 0x0 KECCAK256 DUP2 SWAP1 SSTORE POP JUMPDEST JUMPDEST DUP5 SWAP7 POP PUSH1 0x1 DUP6 SWAP1 SHR SWAP5 POP DUP1 SWAP9 POP DUP4 SWAP6 POP PUSH1 0x1 DUP1 PUSH1 0x1 DUP7 PUSH2 0x2C01 SWAP2 SWAP1 PUSH2 0x429F JUMP JUMPDEST SWAP1 SHR PUSH2 0x2C0D SWAP2 SWAP1 PUSH2 0x3E16 JUMP JUMPDEST SWAP4 POP DUP3 PUSH1 0x1 ADD SWAP3 POP POP POP PUSH2 0x290E JUMP JUMPDEST POP DUP10 DUP10 SWAP1 POP DUP8 PUSH2 0x2C2C SWAP2 SWAP1 PUSH2 0x3E16 JUMP JUMPDEST DUP12 PUSH1 0x0 ADD DUP2 SWAP1 SSTORE POP DUP6 PUSH1 0x0 DUP2 MLOAD DUP2 LT PUSH2 0x2C48 JUMPI PUSH2 0x2C47 PUSH2 0x3E4A JUMP JUMPDEST JUMPDEST PUSH1 0x20 MUL PUSH1 0x20 ADD ADD MLOAD DUP12 PUSH1 0x2 ADD PUSH1 0x0 DUP8 DUP2 MSTORE PUSH1 0x20 ADD SWAP1 DUP2 MSTORE PUSH1 0x20 ADD PUSH1 0x0 KECCAK256 DUP2 SWAP1 SSTORE POP DUP6 PUSH1 0x0 DUP2 MLOAD DUP2 LT PUSH2 0x2C7D JUMPI PUSH2 0x2C7C PUSH2 0x3E4A JUMP JUMPDEST JUMPDEST PUSH1 0x20 MUL PUSH1 0x20 ADD ADD MLOAD SWAP8 POP POP POP POP POP POP POP POP SWAP4 SWAP3 POP POP POP JUMP JUMPDEST PUSH1 0x0 PUSH32 0x30644E72E131A029B85045B68181585D2833E84879B9709143E1F593F0000001 DUP3 LT PUSH2 0x2CF0 JUMPI PUSH1 0x40 MLOAD PUSH32 0xC380A82E00000000000000000000000000000000000000000000000000000000 DUP2 MSTORE PUSH1 0x4 ADD PUSH1 0x40 MLOAD DUP1 SWAP2 SUB SWAP1 REVERT JUMPDEST PUSH1 0x0 DUP3 SUB PUSH2 0x2D2A JUMPI PUSH1 0x40 MLOAD PUSH32 0x29691BE200000000000000000000000000000000000000000000000000000000 DUP2 MSTORE PUSH1 0x4 ADD PUSH1 0x40 MLOAD DUP1 SWAP2 SUB SWAP1 REVERT JUMPDEST PUSH2 0x2D34 DUP4 DUP4 PUSH2 0x24B4 JUMP JUMPDEST ISZERO PUSH2 0x2D6B JUMPI PUSH1 0x40 MLOAD PUSH32 0x258A195A00000000000000000000000000000000000000000000000000000000 DUP2 MSTORE PUSH1 0x4 ADD PUSH1 0x40 MLOAD DUP1 SWAP2 SUB SWAP1 REVERT JUMPDEST PUSH1 0x0 DUP4 PUSH1 0x0 ADD SLOAD SWAP1 POP PUSH1 0x0 DUP5 PUSH1 0x1 ADD SLOAD SWAP1 POP PUSH1 0x1 DUP3 PUSH2 0x2D8A SWAP2 SWAP1 PUSH2 0x3E16 JUMP JUMPDEST DUP2 PUSH1 0x2 PUSH2 0x2D97 SWAP2 SWAP1 PUSH2 0x464D JUMP JUMPDEST LT ISZERO PUSH2 0x2DAA JUMPI DUP1 PUSH2 0x2DA7 SWAP1 PUSH2 0x3D45 JUMP JUMPDEST SWAP1 POP JUMPDEST DUP1 DUP6 PUSH1 0x1 ADD DUP2 SWAP1 SSTORE POP PUSH1 0x0 DUP5 SWAP1 POP PUSH1 0x0 JUMPDEST DUP3 DUP2 LT ISZERO PUSH2 0x2E9E JUMPI PUSH1 0x1 DUP1 DUP3 DUP7 SWAP1 SHR AND SUB PUSH2 0x2E78 JUMPI PUSH20 0x0 PUSH4 0x561558FE PUSH1 0x40 MLOAD DUP1 PUSH1 0x40 ADD PUSH1 0x40 MSTORE DUP1 DUP11 PUSH1 0x2 ADD PUSH1 0x0 DUP7 DUP2 MSTORE PUSH1 0x20 ADD SWAP1 DUP2 MSTORE PUSH1 0x20 ADD PUSH1 0x0 KECCAK256 SLOAD DUP2 MSTORE PUSH1 0x20 ADD DUP6 DUP2 MSTORE POP PUSH1 0x40 MLOAD DUP3 PUSH4 0xFFFFFFFF AND PUSH1 0xE0 SHL DUP2 MSTORE PUSH1 0x4 ADD PUSH2 0x2E30 SWAP2 SWAP1 PUSH2 0x4721 JUMP JUMPDEST PUSH1 0x20 PUSH1 0x40 MLOAD DUP1 DUP4 SUB DUP2 DUP7 GAS DELEGATECALL ISZERO DUP1 ISZERO PUSH2 0x2E4D JUMPI RETURNDATASIZE PUSH1 0x0 DUP1 RETURNDATACOPY RETURNDATASIZE PUSH1 0x0 REVERT JUMPDEST POP POP POP POP PUSH1 0x40 MLOAD RETURNDATASIZE PUSH1 0x1F NOT PUSH1 0x1F DUP3 ADD AND DUP3 ADD DUP1 PUSH1 0x40 MSTORE POP DUP2 ADD SWAP1 PUSH2 0x2E71 SWAP2 SWAP1 PUSH2 0x4229 JUMP JUMPDEST SWAP2 POP PUSH2 0x2E93 JUMP JUMPDEST DUP2 DUP8 PUSH1 0x2 ADD PUSH1 0x0 DUP4 DUP2 MSTORE PUSH1 0x20 ADD SWAP1 DUP2 MSTORE PUSH1 0x20 ADD PUSH1 0x0 KECCAK256 DUP2 SWAP1 SSTORE POP JUMPDEST DUP1 PUSH1 0x1 ADD SWAP1 POP PUSH2 0x2DBB JUMP JUMPDEST POP DUP3 PUSH2 0x2EA9 SWAP1 PUSH2 0x3D45 JUMP JUMPDEST SWAP3 POP DUP3 DUP7 PUSH1 0x0 ADD DUP2 SWAP1 SSTORE POP DUP1 DUP7 PUSH1 0x2 ADD PUSH1 0x0 DUP5 DUP2 MSTORE PUSH1 0x20 ADD SWAP1 DUP2 MSTORE PUSH1 0x20 ADD PUSH1 0x0 KECCAK256 DUP2 SWAP1 SSTORE POP DUP3 DUP7 PUSH1 0x3 ADD PUSH1 0x0 DUP8 DUP2 MSTORE PUSH1 0x20 ADD SWAP1 DUP2 MSTORE PUSH1 0x20 ADD PUSH1 0x0 KECCAK256 DUP2 SWAP1 SSTORE POP DUP1 SWAP4 POP POP POP POP SWAP3 SWAP2 POP POP JUMP JUMPDEST PUSH1 0x0 PUSH32 0x30644E72E131A029B85045B68181585D2833E84879B9709143E1F593F0000001 DUP5 LT PUSH2 0x2F4F JUMPI PUSH1 0x40 MLOAD PUSH32 0xC380A82E00000000000000000000000000000000000000000000000000000000 DUP2 MSTORE PUSH1 0x4 ADD PUSH1 0x40 MLOAD DUP1 SWAP2 SUB SWAP1 REVERT JUMPDEST PUSH2 0x2F59 DUP7 DUP7 PUSH2 0x24B4 JUMP JUMPDEST PUSH2 0x2F8F JUMPI PUSH1 0x40 MLOAD PUSH32 0x7204756C00000000000000000000000000000000000000000000000000000000 DUP2 MSTORE PUSH1 0x4 ADD PUSH1 0x40 MLOAD DUP1 SWAP2 SUB SWAP1 REVERT JUMPDEST PUSH2 0x2F99 DUP7 DUP6 PUSH2 0x24B4 JUMP JUMPDEST ISZERO PUSH2 0x2FD0 JUMPI PUSH1 0x40 MLOAD PUSH32 0x258A195A00000000000000000000000000000000000000000000000000000000 DUP2 MSTORE PUSH1 0x4 ADD PUSH1 0x40 MLOAD DUP1 SWAP2 SUB SWAP1 REVERT JUMPDEST PUSH1 0x0 PUSH2 0x2FDC DUP8 DUP8 PUSH2 0x1E5C JUMP JUMPDEST SWAP1 POP PUSH1 0x0 DUP6 SWAP1 POP PUSH1 0x0 DUP8 SWAP1 POP PUSH1 0x0 PUSH1 0x1 DUP11 PUSH1 0x0 ADD SLOAD PUSH2 0x2FFB SWAP2 SWAP1 PUSH2 0x429F JUMP JUMPDEST SWAP1 POP PUSH1 0x0 DUP1 DUP12 PUSH1 0x1 ADD SLOAD SWAP1 POP PUSH1 0x0 JUMPDEST DUP2 DUP2 LT ISZERO PUSH2 0x33E9 JUMPI PUSH1 0x1 DUP1 DUP3 DUP10 SWAP1 SHR AND SUB PUSH2 0x31EA JUMPI PUSH32 0x30644E72E131A029B85045B68181585D2833E84879B9709143E1F593F0000001 DUP11 DUP11 DUP6 DUP2 DUP2 LT PUSH2 0x3053 JUMPI PUSH2 0x3052 PUSH2 0x3E4A JUMP JUMPDEST JUMPDEST SWAP1 POP PUSH1 0x20 MUL ADD CALLDATALOAD LT PUSH2 0x3091 JUMPI PUSH1 0x40 MLOAD PUSH32 0xC380A82E00000000000000000000000000000000000000000000000000000000 DUP2 MSTORE PUSH1 0x4 ADD PUSH1 0x40 MLOAD DUP1 SWAP2 SUB SWAP1 REVERT JUMPDEST PUSH20 0x0 PUSH4 0x561558FE PUSH1 0x40 MLOAD DUP1 PUSH1 0x40 ADD PUSH1 0x40 MSTORE DUP1 DUP14 DUP14 DUP9 DUP2 DUP2 LT PUSH2 0x30C9 JUMPI PUSH2 0x30C8 PUSH2 0x3E4A JUMP JUMPDEST JUMPDEST SWAP1 POP PUSH1 0x20 MUL ADD CALLDATALOAD DUP2 MSTORE PUSH1 0x20 ADD DUP10 DUP2 MSTORE POP PUSH1 0x40 MLOAD DUP3 PUSH4 0xFFFFFFFF AND PUSH1 0xE0 SHL DUP2 MSTORE PUSH1 0x4 ADD PUSH2 0x30F5 SWAP2 SWAP1 PUSH2 0x4721 JUMP JUMPDEST PUSH1 0x20 PUSH1 0x40 MLOAD DUP1 DUP4 SUB DUP2 DUP7 GAS DELEGATECALL ISZERO DUP1 ISZERO PUSH2 0x3112 JUMPI RETURNDATASIZE PUSH1 0x0 DUP1 RETURNDATACOPY RETURNDATASIZE PUSH1 0x0 REVERT JUMPDEST POP POP POP POP PUSH1 0x40 MLOAD RETURNDATASIZE PUSH1 0x1F NOT PUSH1 0x1F DUP3 ADD AND DUP3 ADD DUP1 PUSH1 0x40 MSTORE POP DUP2 ADD SWAP1 PUSH2 0x3136 SWAP2 SWAP1 PUSH2 0x4229 JUMP JUMPDEST SWAP6 POP PUSH20 0x0 PUSH4 0x561558FE PUSH1 0x40 MLOAD DUP1 PUSH1 0x40 ADD PUSH1 0x40 MSTORE DUP1 DUP14 DUP14 DUP9 DUP2 DUP2 LT PUSH2 0x3170 JUMPI PUSH2 0x316F PUSH2 0x3E4A JUMP JUMPDEST JUMPDEST SWAP1 POP PUSH1 0x20 MUL ADD CALLDATALOAD DUP2 MSTORE PUSH1 0x20 ADD DUP9 DUP2 MSTORE POP PUSH1 0x40 MLOAD DUP3 PUSH4 0xFFFFFFFF AND PUSH1 0xE0 SHL DUP2 MSTORE PUSH1 0x4 ADD PUSH2 0x319C SWAP2 SWAP1 PUSH2 0x4721 JUMP JUMPDEST PUSH1 0x20 PUSH1 0x40 MLOAD DUP1 DUP4 SUB DUP2 DUP7 GAS DELEGATECALL ISZERO DUP1 ISZERO PUSH2 0x31B9 JUMPI RETURNDATASIZE PUSH1 0x0 DUP1 RETURNDATACOPY RETURNDATASIZE PUSH1 0x0 REVERT JUMPDEST POP POP POP POP PUSH1 0x40 MLOAD RETURNDATASIZE PUSH1 0x1F NOT PUSH1 0x1F DUP3 ADD AND DUP3 ADD DUP1 PUSH1 0x40 MSTORE POP DUP2 ADD SWAP1 PUSH2 0x31DD SWAP2 SWAP1 PUSH2 0x4229 JUMP JUMPDEST SWAP5 POP DUP3 PUSH1 0x1 ADD SWAP3 POP PUSH2 0x33DE JUMP JUMPDEST DUP1 DUP5 SWAP1 SHR DUP2 DUP9 SWAP1 SHR EQ PUSH2 0x33C2 JUMPI PUSH32 0x30644E72E131A029B85045B68181585D2833E84879B9709143E1F593F0000001 DUP11 DUP11 DUP6 DUP2 DUP2 LT PUSH2 0x322B JUMPI PUSH2 0x322A PUSH2 0x3E4A JUMP JUMPDEST JUMPDEST SWAP1 POP PUSH1 0x20 MUL ADD CALLDATALOAD LT PUSH2 0x3269 JUMPI PUSH1 0x40 MLOAD PUSH32 0xC380A82E00000000000000000000000000000000000000000000000000000000 DUP2 MSTORE PUSH1 0x4 ADD PUSH1 0x40 MLOAD DUP1 SWAP2 SUB SWAP1 REVERT JUMPDEST PUSH20 0x0 PUSH4 0x561558FE PUSH1 0x40 MLOAD DUP1 PUSH1 0x40 ADD PUSH1 0x40 MSTORE DUP1 DUP10 DUP2 MSTORE PUSH1 0x20 ADD DUP14 DUP14 DUP9 DUP2 DUP2 LT PUSH2 0x32A7 JUMPI PUSH2 0x32A6 PUSH2 0x3E4A JUMP JUMPDEST JUMPDEST SWAP1 POP PUSH1 0x20 MUL ADD CALLDATALOAD DUP2 MSTORE POP PUSH1 0x40 MLOAD DUP3 PUSH4 0xFFFFFFFF AND PUSH1 0xE0 SHL DUP2 MSTORE PUSH1 0x4 ADD PUSH2 0x32CD SWAP2 SWAP1 PUSH2 0x4721 JUMP JUMPDEST PUSH1 0x20 PUSH1 0x40 MLOAD DUP1 DUP4 SUB DUP2 DUP7 GAS DELEGATECALL ISZERO DUP1 ISZERO PUSH2 0x32EA JUMPI RETURNDATASIZE PUSH1 0x0 DUP1 RETURNDATACOPY RETURNDATASIZE PUSH1 0x0 REVERT JUMPDEST POP POP POP POP PUSH1 0x40 MLOAD RETURNDATASIZE PUSH1 0x1F NOT PUSH1 0x1F DUP3 ADD AND DUP3 ADD DUP1 PUSH1 0x40 MSTORE POP DUP2 ADD SWAP1 PUSH2 0x330E SWAP2 SWAP1 PUSH2 0x4229 JUMP JUMPDEST SWAP6 POP PUSH20 0x0 PUSH4 0x561558FE PUSH1 0x40 MLOAD DUP1 PUSH1 0x40 ADD PUSH1 0x40 MSTORE DUP1 DUP9 DUP2 MSTORE PUSH1 0x20 ADD DUP14 DUP14 DUP9 DUP2 DUP2 LT PUSH2 0x334E JUMPI PUSH2 0x334D PUSH2 0x3E4A JUMP JUMPDEST JUMPDEST SWAP1 POP PUSH1 0x20 MUL ADD CALLDATALOAD DUP2 MSTORE POP PUSH1 0x40 MLOAD DUP3 PUSH4 0xFFFFFFFF AND PUSH1 0xE0 SHL DUP2 MSTORE PUSH1 0x4 ADD PUSH2 0x3374 SWAP2 SWAP1 PUSH2 0x4721 JUMP JUMPDEST PUSH1 0x20 PUSH1 0x40 MLOAD DUP1 DUP4 SUB DUP2 DUP7 GAS DELEGATECALL ISZERO DUP1 ISZERO PUSH2 0x3391 JUMPI RETURNDATASIZE PUSH1 0x0 DUP1 RETURNDATACOPY RETURNDATASIZE PUSH1 0x0 REVERT JUMPDEST POP POP POP POP PUSH1 0x40 MLOAD RETURNDATASIZE PUSH1 0x1F NOT PUSH1 0x1F DUP3 ADD AND DUP3 ADD DUP1 PUSH1 0x40 MSTORE POP DUP2 ADD SWAP1 PUSH2 0x33B5 SWAP2 SWAP1 PUSH2 0x4229 JUMP JUMPDEST SWAP5 POP DUP3 PUSH1 0x1 ADD SWAP3 POP PUSH2 0x33DD JUMP JUMPDEST DUP6 DUP14 PUSH1 0x2 ADD PUSH1 0x0 DUP6 DUP2 MSTORE PUSH1 0x20 ADD SWAP1 DUP2 MSTORE PUSH1 0x20 ADD PUSH1 0x0 KECCAK256 DUP2 SWAP1 SSTORE POP JUMPDEST JUMPDEST DUP1 PUSH1 0x1 ADD SWAP1 POP PUSH2 0x300A JUMP JUMPDEST POP PUSH2 0x33F3 DUP13 PUSH2 0x268E JUMP JUMPDEST DUP5 EQ PUSH2 0x342B JUMPI PUSH1 0x40 MLOAD PUSH32 0x3FA930C600000000000000000000000000000000000000000000000000000000 DUP2 MSTORE PUSH1 0x4 ADD PUSH1 0x40 MLOAD DUP1 SWAP2 SUB SWAP1 REVERT JUMPDEST DUP5 DUP13 PUSH1 0x2 ADD PUSH1 0x0 DUP4 DUP2 MSTORE PUSH1 0x20 ADD SWAP1 DUP2 MSTORE PUSH1 0x20 ADD PUSH1 0x0 KECCAK256 DUP2 SWAP1 SSTORE POP PUSH1 0x0 DUP11 EQ PUSH2 0x347D JUMPI DUP12 PUSH1 0x3 ADD PUSH1 0x0 DUP13 DUP2 MSTORE PUSH1 0x20 ADD SWAP1 DUP2 MSTORE PUSH1 0x20 ADD PUSH1 0x0 KECCAK256 SLOAD DUP13 PUSH1 0x3 ADD PUSH1 0x0 DUP13 DUP2 MSTORE PUSH1 0x20 ADD SWAP1 DUP2 MSTORE PUSH1 0x20 ADD PUSH1 0x0 KECCAK256 DUP2 SWAP1 SSTORE POP JUMPDEST PUSH1 0x0 DUP13 PUSH1 0x3 ADD PUSH1 0x0 DUP14 DUP2 MSTORE PUSH1 0x20 ADD SWAP1 DUP2 MSTORE PUSH1 0x20 ADD PUSH1 0x0 KECCAK256 DUP2 SWAP1 SSTORE POP DUP5 SWAP7 POP POP POP POP POP POP POP SWAP6 SWAP5 POP POP POP POP POP JUMP JUMPDEST PUSH1 0x0 PUSH2 0x34BA DUP6 DUP6 PUSH1 0x0 DUP7 DUP7 PUSH2 0x2EF4 JUMP JUMPDEST SWAP1 POP SWAP5 SWAP4 POP POP POP POP JUMP JUMPDEST PUSH1 0x0 PUSH1 0x40 MLOAD SWAP1 POP SWAP1 JUMP JUMPDEST PUSH1 0x0 DUP1 REVERT JUMPDEST PUSH1 0x0 DUP1 REVERT JUMPDEST PUSH1 0x0 DUP2 SWAP1 POP SWAP2 SWAP1 POP JUMP JUMPDEST PUSH2 0x34EB DUP2 PUSH2 0x34D8 JUMP JUMPDEST DUP2 EQ PUSH2 0x34F6 JUMPI PUSH1 0x0 DUP1 REVERT JUMPDEST POP JUMP JUMPDEST PUSH1 0x0 DUP2 CALLDATALOAD SWAP1 POP PUSH2 0x3508 DUP2 PUSH2 0x34E2 JUMP JUMPDEST SWAP3 SWAP2 POP POP JUMP JUMPDEST PUSH1 0x0 DUP1 REVERT JUMPDEST PUSH1 0x0 DUP1 REVERT JUMPDEST PUSH1 0x0 DUP1 REVERT JUMPDEST PUSH1 0x0 DUP1 DUP4 PUSH1 0x1F DUP5 ADD SLT PUSH2 0x3533 JUMPI PUSH2 0x3532 PUSH2 0x350E JUMP JUMPDEST JUMPDEST DUP3 CALLDATALOAD SWAP1 POP PUSH8 0xFFFFFFFFFFFFFFFF DUP2 GT ISZERO PUSH2 0x3550 JUMPI PUSH2 0x354F PUSH2 0x3513 JUMP JUMPDEST JUMPDEST PUSH1 0x20 DUP4 ADD SWAP2 POP DUP4 PUSH1 0x20 DUP3 MUL DUP4 ADD GT ISZERO PUSH2 0x356C JUMPI PUSH2 0x356B PUSH2 0x3518 JUMP JUMPDEST JUMPDEST SWAP3 POP SWAP3 SWAP1 POP JUMP JUMPDEST PUSH1 0x0 DUP1 PUSH1 0x0 PUSH1 0x40 DUP5 DUP7 SUB SLT ISZERO PUSH2 0x358C JUMPI PUSH2 0x358B PUSH2 0x34CE JUMP JUMPDEST JUMPDEST PUSH1 0x0 PUSH2 0x359A DUP7 DUP3 DUP8 ADD PUSH2 0x34F9 JUMP JUMPDEST SWAP4 POP POP PUSH1 0x20 DUP5 ADD CALLDATALOAD PUSH8 0xFFFFFFFFFFFFFFFF DUP2 GT ISZERO PUSH2 0x35BB JUMPI PUSH2 0x35BA PUSH2 0x34D3 JUMP JUMPDEST JUMPDEST PUSH2 0x35C7 DUP7 DUP3 DUP8 ADD PUSH2 0x351D JUMP JUMPDEST SWAP3 POP SWAP3 POP POP SWAP3 POP SWAP3 POP SWAP3 JUMP JUMPDEST PUSH1 0x0 DUP1 PUSH1 0x40 DUP4 DUP6 SUB SLT ISZERO PUSH2 0x35EA JUMPI PUSH2 0x35E9 PUSH2 0x34CE JUMP JUMPDEST JUMPDEST PUSH1 0x0 PUSH2 0x35F8 DUP6 DUP3 DUP7 ADD PUSH2 0x34F9 JUMP JUMPDEST SWAP3 POP POP PUSH1 0x20 PUSH2 0x3609 DUP6 DUP3 DUP7 ADD PUSH2 0x34F9 JUMP JUMPDEST SWAP2 POP POP SWAP3 POP SWAP3 SWAP1 POP JUMP JUMPDEST PUSH2 0x361C DUP2 PUSH2 0x34D8 JUMP JUMPDEST DUP3 MSTORE POP POP JUMP JUMPDEST PUSH1 0x0 PUSH1 0x20 DUP3 ADD SWAP1 POP PUSH2 0x3637 PUSH1 0x0 DUP4 ADD DUP5 PUSH2 0x3613 JUMP JUMPDEST SWAP3 SWAP2 POP POP JUMP JUMPDEST PUSH1 0x0 PUSH20 0xFFFFFFFFFFFFFFFFFFFFFFFFFFFFFFFFFFFFFFFF DUP3 AND SWAP1 POP SWAP2 SWAP1 POP JUMP JUMPDEST PUSH1 0x0 DUP2 SWAP1 POP SWAP2 SWAP1 POP JUMP JUMPDEST PUSH1 0x0 PUSH2 0x3682 PUSH2 0x367D PUSH2 0x3678 DUP5 PUSH2 0x363D JUMP JUMPDEST PUSH2 0x365D JUMP JUMPDEST PUSH2 0x363D JUMP JUMPDEST SWAP1 POP SWAP2 SWAP1 POP JUMP JUMPDEST PUSH1 0x0 PUSH2 0x3694 DUP3 PUSH2 0x3667 JUMP JUMPDEST SWAP1 POP SWAP2 SWAP1 POP JUMP JUMPDEST PUSH1 0x0 PUSH2 0x36A6 DUP3 PUSH2 0x3689 JUMP JUMPDEST SWAP1 POP SWAP2 SWAP1 POP JUMP JUMPDEST PUSH2 0x36B6 DUP2 PUSH2 0x369B JUMP JUMPDEST DUP3 MSTORE POP POP JUMP JUMPDEST PUSH1 0x0 PUSH1 0x20 DUP3 ADD SWAP1 POP PUSH2 0x36D1 PUSH1 0x0 DUP4 ADD DUP5 PUSH2 0x36AD JUMP JUMPDEST SWAP3 SWAP2 POP POP JUMP JUMPDEST PUSH1 0x0 PUSH2 0x36E2 DUP3 PUSH2 0x363D JUMP JUMPDEST SWAP1 POP SWAP2 SWAP1 POP JUMP JUMPDEST PUSH2 0x36F2 DUP2 PUSH2 0x36D7 JUMP JUMPDEST DUP2 EQ PUSH2 0x36FD JUMPI PUSH1 0x0 DUP1 REVERT JUMPDEST POP JUMP JUMPDEST PUSH1 0x0 DUP2 CALLDATALOAD SWAP1 POP PUSH2 0x370F DUP2 PUSH2 0x36E9 JUMP JUMPDEST SWAP3 SWAP2 POP POP JUMP JUMPDEST PUSH1 0x0 DUP1 PUSH1 0x40 DUP4 DUP6 SUB SLT ISZERO PUSH2 0x372C JUMPI PUSH2 0x372B PUSH2 0x34CE JUMP JUMPDEST JUMPDEST PUSH1 0x0 PUSH2 0x373A DUP6 DUP3 DUP7 ADD PUSH2 0x3700 JUMP JUMPDEST SWAP3 POP POP PUSH1 0x20 PUSH2 0x374B DUP6 DUP3 DUP7 ADD PUSH2 0x34F9 JUMP JUMPDEST SWAP2 POP POP SWAP3 POP SWAP3 SWAP1 POP JUMP JUMPDEST PUSH1 0x0 PUSH1 0x20 DUP3 DUP5 SUB SLT ISZERO PUSH2 0x376B JUMPI PUSH2 0x376A PUSH2 0x34CE JUMP JUMPDEST JUMPDEST PUSH1 0x0 PUSH2 0x3779 DUP5 DUP3 DUP6 ADD PUSH2 0x34F9 JUMP JUMPDEST SWAP2 POP POP SWAP3 SWAP2 POP POP JUMP JUMPDEST PUSH1 0x0 DUP1 PUSH1 0x0 DUP1 PUSH1 0x0 PUSH1 0x80 DUP7 DUP9 SUB SLT ISZERO PUSH2 0x379E JUMPI PUSH2 0x379D PUSH2 0x34CE JUMP JUMPDEST JUMPDEST PUSH1 0x0 PUSH2 0x37AC DUP9 DUP3 DUP10 ADD PUSH2 0x34F9 JUMP JUMPDEST SWAP6 POP POP PUSH1 0x20 PUSH2 0x37BD DUP9 DUP3 DUP10 ADD PUSH2 0x34F9 JUMP JUMPDEST SWAP5 POP POP PUSH1 0x40 PUSH2 0x37CE DUP9 DUP3 DUP10 ADD PUSH2 0x34F9 JUMP JUMPDEST SWAP4 POP POP PUSH1 0x60 DUP7 ADD CALLDATALOAD PUSH8 0xFFFFFFFFFFFFFFFF DUP2 GT ISZERO PUSH2 0x37EF JUMPI PUSH2 0x37EE PUSH2 0x34D3 JUMP JUMPDEST JUMPDEST PUSH2 0x37FB DUP9 DUP3 DUP10 ADD PUSH2 0x351D JUMP JUMPDEST SWAP3 POP SWAP3 POP POP SWAP3 SWAP6 POP SWAP3 SWAP6 SWAP1 SWAP4 POP JUMP JUMPDEST PUSH1 0x0 DUP1 REVERT JUMPDEST PUSH1 0x0 PUSH2 0x1A0 DUP3 DUP5 SUB SLT ISZERO PUSH2 0x3826 JUMPI PUSH2 0x3825 PUSH2 0x380A JUMP JUMPDEST JUMPDEST DUP2 SWAP1 POP SWAP3 SWAP2 POP POP JUMP JUMPDEST PUSH1 0x0 DUP1 PUSH2 0x1C0 DUP4 DUP6 SUB SLT ISZERO PUSH2 0x3847 JUMPI PUSH2 0x3846 PUSH2 0x34CE JUMP JUMPDEST JUMPDEST PUSH1 0x0 PUSH2 0x3855 DUP6 DUP3 DUP7 ADD PUSH2 0x34F9 JUMP JUMPDEST SWAP3 POP POP PUSH1 0x20 PUSH2 0x3866 DUP6 DUP3 DUP7 ADD PUSH2 0x380F JUMP JUMPDEST SWAP2 POP POP SWAP3 POP SWAP3 SWAP1 POP JUMP JUMPDEST PUSH1 0x0 DUP2 ISZERO ISZERO SWAP1 POP SWAP2 SWAP1 POP JUMP JUMPDEST PUSH2 0x3885 DUP2 PUSH2 0x3870 JUMP JUMPDEST DUP3 MSTORE POP POP JUMP JUMPDEST PUSH1 0x0 PUSH1 0x20 DUP3 ADD SWAP1 POP PUSH2 0x38A0 PUSH1 0x0 DUP4 ADD DUP5 PUSH2 0x387C JUMP JUMPDEST SWAP3 SWAP2 POP POP JUMP JUMPDEST PUSH1 0x0 DUP1 PUSH1 0x40 DUP4 DUP6 SUB SLT ISZERO PUSH2 0x38BD JUMPI PUSH2 0x38BC PUSH2 0x34CE JUMP JUMPDEST JUMPDEST PUSH1 0x0 PUSH2 0x38CB DUP6 DUP3 DUP7 ADD PUSH2 0x34F9 JUMP JUMPDEST SWAP3 POP POP PUSH1 0x20 PUSH2 0x38DC DUP6 DUP3 DUP7 ADD PUSH2 0x3700 JUMP JUMPDEST SWAP2 POP POP SWAP3 POP SWAP3 SWAP1 POP JUMP JUMPDEST PUSH1 0x0 PUSH1 0x20 DUP3 DUP5 SUB SLT ISZERO PUSH2 0x38FC JUMPI PUSH2 0x38FB PUSH2 0x34CE JUMP JUMPDEST JUMPDEST PUSH1 0x0 PUSH2 0x390A DUP5 DUP3 DUP6 ADD PUSH2 0x3700 JUMP JUMPDEST SWAP2 POP POP SWAP3 SWAP2 POP POP JUMP JUMPDEST PUSH1 0x0 DUP1 PUSH1 0x0 DUP1 PUSH1 0x60 DUP6 DUP8 SUB SLT ISZERO PUSH2 0x392D JUMPI PUSH2 0x392C PUSH2 0x34CE JUMP JUMPDEST JUMPDEST PUSH1 0x0 PUSH2 0x393B DUP8 DUP3 DUP9 ADD PUSH2 0x34F9 JUMP JUMPDEST SWAP5 POP POP PUSH1 0x20 PUSH2 0x394C DUP8 DUP3 DUP9 ADD PUSH2 0x34F9 JUMP JUMPDEST SWAP4 POP POP PUSH1 0x40 DUP6 ADD CALLDATALOAD PUSH8 0xFFFFFFFFFFFFFFFF DUP2 GT ISZERO PUSH2 0x396D JUMPI PUSH2 0x396C PUSH2 0x34D3 JUMP JUMPDEST JUMPDEST PUSH2 0x3979 DUP8 DUP3 DUP9 ADD PUSH2 0x351D JUMP JUMPDEST SWAP3 POP SWAP3 POP POP SWAP3 SWAP6 SWAP2 SWAP5 POP SWAP3 POP JUMP JUMPDEST PUSH1 0x0 DUP1 DUP4 PUSH1 0x1F DUP5 ADD SLT PUSH2 0x399D JUMPI PUSH2 0x399C PUSH2 0x350E JUMP JUMPDEST JUMPDEST DUP3 CALLDATALOAD SWAP1 POP PUSH8 0xFFFFFFFFFFFFFFFF DUP2 GT ISZERO PUSH2 0x39BA JUMPI PUSH2 0x39B9 PUSH2 0x3513 JUMP JUMPDEST JUMPDEST PUSH1 0x20 DUP4 ADD SWAP2 POP DUP4 PUSH1 0x1 DUP3 MUL DUP4 ADD GT ISZERO PUSH2 0x39D6 JUMPI PUSH2 0x39D5 PUSH2 0x3518 JUMP JUMPDEST JUMPDEST SWAP3 POP SWAP3 SWAP1 POP JUMP JUMPDEST PUSH1 0x0 DUP1 PUSH1 0x0 DUP1 PUSH2 0x1E0 DUP6 DUP8 SUB SLT ISZERO PUSH2 0x39F8 JUMPI PUSH2 0x39F7 PUSH2 0x34CE JUMP JUMPDEST JUMPDEST PUSH1 0x0 PUSH2 0x3A06 DUP8 DUP3 DUP9 ADD PUSH2 0x380F JUMP JUMPDEST SWAP5 POP POP PUSH2 0x1A0 PUSH2 0x3A18 DUP8 DUP3 DUP9 ADD PUSH2 0x34F9 JUMP JUMPDEST SWAP4 POP POP PUSH2 0x1C0 DUP6 ADD CALLDATALOAD PUSH8 0xFFFFFFFFFFFFFFFF DUP2 GT ISZERO PUSH2 0x3A3A JUMPI PUSH2 0x3A39 PUSH2 0x34D3 JUMP JUMPDEST JUMPDEST PUSH2 0x3A46 DUP8 DUP3 DUP9 ADD PUSH2 0x3987 JUMP JUMPDEST SWAP3 POP SWAP3 POP POP SWAP3 SWAP6 SWAP2 SWAP5 POP SWAP3 POP JUMP JUMPDEST PUSH1 0x0 DUP1 PUSH1 0x0 PUSH1 0x40 DUP5 DUP7 SUB SLT ISZERO PUSH2 0x3A6D JUMPI PUSH2 0x3A6C PUSH2 0x34CE JUMP JUMPDEST JUMPDEST PUSH1 0x0 PUSH2 0x3A7B DUP7 DUP3 DUP8 ADD PUSH2 0x34F9 JUMP JUMPDEST SWAP4 POP POP PUSH1 0x20 DUP5 ADD CALLDATALOAD PUSH8 0xFFFFFFFFFFFFFFFF DUP2 GT ISZERO PUSH2 0x3A9C JUMPI PUSH2 0x3A9B PUSH2 0x34D3 JUMP JUMPDEST JUMPDEST PUSH2 0x3AA8 DUP7 DUP3 DUP8 ADD PUSH2 0x3987 JUMP JUMPDEST SWAP3 POP SWAP3 POP POP SWAP3 POP SWAP3 POP SWAP3 JUMP JUMPDEST PUSH1 0x0 PUSH1 0x40 DUP3 ADD SWAP1 POP PUSH2 0x3AC9 PUSH1 0x0 DUP4 ADD DUP6 PUSH2 0x3613 JUMP JUMPDEST PUSH2 0x3AD6 PUSH1 0x20 DUP4 ADD DUP5 PUSH2 0x3613 JUMP JUMPDEST SWAP4 SWAP3 POP POP POP JUMP JUMPDEST PUSH2 0x3AE6 DUP2 PUSH2 0x36D7 JUMP JUMPDEST DUP3 MSTORE POP POP JUMP JUMPDEST PUSH1 0x0 PUSH1 0x20 DUP3 ADD SWAP1 POP PUSH2 0x3B01 PUSH1 0x0 DUP4 ADD DUP5 PUSH2 0x3ADD JUMP JUMPDEST SWAP3 SWAP2 POP POP JUMP JUMPDEST PUSH1 0x0 DUP1 REVERT JUMPDEST PUSH1 0x0 PUSH1 0x1F NOT PUSH1 0x1F DUP4 ADD AND SWAP1 POP SWAP2 SWAP1 POP JUMP JUMPDEST PUSH32 0x4E487B7100000000000000000000000000000000000000000000000000000000 PUSH1 0x0 MSTORE PUSH1 0x41 PUSH1 0x4 MSTORE PUSH1 0x24 PUSH1 0x0 REVERT JUMPDEST PUSH2 0x3B55 DUP3 PUSH2 0x3B0C JUMP JUMPDEST DUP2 ADD DUP2 DUP2 LT PUSH8 0xFFFFFFFFFFFFFFFF DUP3 GT OR ISZERO PUSH2 0x3B74 JUMPI PUSH2 0x3B73 PUSH2 0x3B1D JUMP JUMPDEST JUMPDEST DUP1 PUSH1 0x40 MSTORE POP POP POP JUMP JUMPDEST PUSH1 0x0 PUSH2 0x3B87 PUSH2 0x34C4 JUMP JUMPDEST SWAP1 POP PUSH2 0x3B93 DUP3 DUP3 PUSH2 0x3B4C JUMP JUMPDEST SWAP2 SWAP1 POP JUMP JUMPDEST PUSH1 0x0 PUSH8 0xFFFFFFFFFFFFFFFF DUP3 GT ISZERO PUSH2 0x3BB3 JUMPI PUSH2 0x3BB2 PUSH2 0x3B1D JUMP JUMPDEST JUMPDEST PUSH2 0x3BBC DUP3 PUSH2 0x3B0C JUMP JUMPDEST SWAP1 POP PUSH1 0x20 DUP2 ADD SWAP1 POP SWAP2 SWAP1 POP JUMP JUMPDEST DUP3 DUP2 DUP4 CALLDATACOPY PUSH1 0x0 DUP4 DUP4 ADD MSTORE POP POP POP JUMP JUMPDEST PUSH1 0x0 PUSH2 0x3BEB PUSH2 0x3BE6 DUP5 PUSH2 0x3B98 JUMP JUMPDEST PUSH2 0x3B7D JUMP JUMPDEST SWAP1 POP DUP3 DUP2 MSTORE PUSH1 0x20 DUP2 ADD DUP5 DUP5 DUP5 ADD GT ISZERO PUSH2 0x3C07 JUMPI PUSH2 0x3C06 PUSH2 0x3B07 JUMP JUMPDEST JUMPDEST PUSH2 0x3C12 DUP5 DUP3 DUP6 PUSH2 0x3BC9 JUMP JUMPDEST POP SWAP4 SWAP3 POP POP POP JUMP JUMPDEST PUSH1 0x0 DUP3 PUSH1 0x1F DUP4 ADD SLT PUSH2 0x3C2F JUMPI PUSH2 0x3C2E PUSH2 0x350E JUMP JUMPDEST JUMPDEST DUP2 CALLDATALOAD PUSH2 0x3C3F DUP5 DUP3 PUSH1 0x20 DUP7 ADD PUSH2 0x3BD8 JUMP JUMPDEST SWAP2 POP POP SWAP3 SWAP2 POP POP JUMP JUMPDEST PUSH1 0x0 DUP1 PUSH1 0x40 DUP4 DUP6 SUB SLT ISZERO PUSH2 0x3C5F JUMPI PUSH2 0x3C5E PUSH2 0x34CE JUMP JUMPDEST JUMPDEST PUSH1 0x0 PUSH2 0x3C6D DUP6 DUP3 DUP7 ADD PUSH2 0x34F9 JUMP JUMPDEST SWAP3 POP POP PUSH1 0x20 DUP4 ADD CALLDATALOAD PUSH8 0xFFFFFFFFFFFFFFFF DUP2 GT ISZERO PUSH2 0x3C8E JUMPI PUSH2 0x3C8D PUSH2 0x34D3 JUMP JUMPDEST JUMPDEST PUSH2 0x3C9A DUP6 DUP3 DUP7 ADD PUSH2 0x3C1A JUMP JUMPDEST SWAP2 POP POP SWAP3 POP SWAP3 SWAP1 POP JUMP JUMPDEST PUSH1 0x0 DUP1 PUSH1 0x0 PUSH2 0x1E0 DUP5 DUP7 SUB SLT ISZERO PUSH2 0x3CBE JUMPI PUSH2 0x3CBD PUSH2 0x34CE JUMP JUMPDEST JUMPDEST PUSH1 0x0 PUSH2 0x3CCC DUP7 DUP3 DUP8 ADD PUSH2 0x380F JUMP JUMPDEST SWAP4 POP POP PUSH2 0x1A0 PUSH2 0x3CDE DUP7 DUP3 DUP8 ADD PUSH2 0x34F9 JUMP JUMPDEST SWAP3 POP POP PUSH2 0x1C0 DUP5 ADD CALLDATALOAD PUSH8 0xFFFFFFFFFFFFFFFF DUP2 GT ISZERO PUSH2 0x3D00 JUMPI PUSH2 0x3CFF PUSH2 0x34D3 JUMP JUMPDEST JUMPDEST PUSH2 0x3D0C DUP7 DUP3 DUP8 ADD PUSH2 0x3C1A JUMP JUMPDEST SWAP2 POP POP SWAP3 POP SWAP3 POP SWAP3 JUMP JUMPDEST PUSH32 0x4E487B7100000000000000000000000000000000000000000000000000000000 PUSH1 0x0 MSTORE PUSH1 0x11 PUSH1 0x4 MSTORE PUSH1 0x24 PUSH1 0x0 REVERT JUMPDEST PUSH1 0x0 PUSH2 0x3D50 DUP3 PUSH2 0x34D8 JUMP JUMPDEST SWAP2 POP PUSH32 0xFFFFFFFFFFFFFFFFFFFFFFFFFFFFFFFFFFFFFFFFFFFFFFFFFFFFFFFFFFFFFFFF DUP3 SUB PUSH2 0x3D82 JUMPI PUSH2 0x3D81 PUSH2 0x3D16 JUMP JUMPDEST JUMPDEST PUSH1 0x1 DUP3 ADD SWAP1 POP SWAP2 SWAP1 POP JUMP JUMPDEST PUSH1 0x0 PUSH1 0x40 DUP3 ADD SWAP1 POP PUSH2 0x3DA2 PUSH1 0x0 DUP4 ADD DUP6 PUSH2 0x3ADD JUMP JUMPDEST PUSH2 0x3DAF PUSH1 0x20 DUP4 ADD DUP5 PUSH2 0x3613 JUMP JUMPDEST SWAP4 SWAP3 POP POP POP JUMP JUMPDEST PUSH32 0x4E487B7100000000000000000000000000000000000000000000000000000000 PUSH1 0x0 MSTORE PUSH1 0x12 PUSH1 0x4 MSTORE PUSH1 0x24 PUSH1 0x0 REVERT JUMPDEST PUSH1 0x0 PUSH2 0x3DF0 DUP3 PUSH2 0x34D8 JUMP JUMPDEST SWAP2 POP PUSH2 0x3DFB DUP4 PUSH2 0x34D8 JUMP JUMPDEST SWAP3 POP DUP3 PUSH2 0x3E0B JUMPI PUSH2 0x3E0A PUSH2 0x3DB6 JUMP JUMPDEST JUMPDEST DUP3 DUP3 DIV SWAP1 POP SWAP3 SWAP2 POP POP JUMP JUMPDEST PUSH1 0x0 PUSH2 0x3E21 DUP3 PUSH2 0x34D8 JUMP JUMPDEST SWAP2 POP PUSH2 0x3E2C DUP4 PUSH2 0x34D8 JUMP JUMPDEST SWAP3 POP DUP3 DUP3 ADD SWAP1 POP DUP1 DUP3 GT ISZERO PUSH2 0x3E44 JUMPI PUSH2 0x3E43 PUSH2 0x3D16 JUMP JUMPDEST JUMPDEST SWAP3 SWAP2 POP POP JUMP JUMPDEST PUSH32 0x4E487B7100000000000000000000000000000000000000000000000000000000 PUSH1 0x0 MSTORE PUSH1 0x32 PUSH1 0x4 MSTORE PUSH1 0x24 PUSH1 0x0 REVERT JUMPDEST PUSH1 0x0 PUSH1 0x2 SWAP1 POP SWAP2 SWAP1 POP JUMP JUMPDEST PUSH1 0x0 DUP2 SWAP1 POP SWAP3 SWAP2 POP POP JUMP JUMPDEST PUSH1 0x0 DUP2 SWAP1 POP SWAP2 SWAP1 POP JUMP JUMPDEST PUSH2 0x3EA2 DUP2 PUSH2 0x34D8 JUMP JUMPDEST DUP3 MSTORE POP POP JUMP JUMPDEST PUSH1 0x0 PUSH2 0x3EB4 DUP4 DUP4 PUSH2 0x3E99 JUMP JUMPDEST PUSH1 0x20 DUP4 ADD SWAP1 POP SWAP3 SWAP2 POP POP JUMP JUMPDEST PUSH1 0x0 PUSH1 0x20 DUP3 ADD SWAP1 POP SWAP2 SWAP1 POP JUMP JUMPDEST PUSH2 0x3ED6 DUP2 PUSH2 0x3E79 JUMP JUMPDEST PUSH2 0x3EE0 DUP2 DUP5 PUSH2 0x3E84 JUMP JUMPDEST SWAP3 POP PUSH2 0x3EEB DUP3 PUSH2 0x3E8F JUMP JUMPDEST DUP1 PUSH1 0x0 JUMPDEST DUP4 DUP2 LT ISZERO PUSH2 0x3F1C JUMPI DUP2 MLOAD PUSH2 0x3F03 DUP8 DUP3 PUSH2 0x3EA8 JUMP JUMPDEST SWAP7 POP PUSH2 0x3F0E DUP4 PUSH2 0x3EC0 JUMP JUMPDEST SWAP3 POP POP PUSH1 0x1 DUP2 ADD SWAP1 POP PUSH2 0x3EEF JUMP JUMPDEST POP POP POP POP POP POP JUMP JUMPDEST PUSH1 0x0 PUSH1 0x2 SWAP1 POP SWAP2 SWAP1 POP JUMP JUMPDEST PUSH1 0x0 DUP2 SWAP1 POP SWAP3 SWAP2 POP POP JUMP JUMPDEST PUSH1 0x0 DUP2 SWAP1 POP SWAP2 SWAP1 POP JUMP JUMPDEST PUSH1 0x0 DUP2 SWAP1 POP SWAP3 SWAP2 POP POP JUMP JUMPDEST PUSH2 0x3F58 DUP2 PUSH2 0x3E79 JUMP JUMPDEST PUSH2 0x3F62 DUP2 DUP5 PUSH2 0x3F44 JUMP JUMPDEST SWAP3 POP PUSH2 0x3F6D DUP3 PUSH2 0x3E8F JUMP JUMPDEST DUP1 PUSH1 0x0 JUMPDEST DUP4 DUP2 LT ISZERO PUSH2 0x3F9E JUMPI DUP2 MLOAD PUSH2 0x3F85 DUP8 DUP3 PUSH2 0x3EA8 JUMP JUMPDEST SWAP7 POP PUSH2 0x3F90 DUP4 PUSH2 0x3EC0 JUMP JUMPDEST SWAP3 POP POP PUSH1 0x1 DUP2 ADD SWAP1 POP PUSH2 0x3F71 JUMP JUMPDEST POP POP POP POP POP POP JUMP JUMPDEST PUSH1 0x0 PUSH2 0x3FB2 DUP4 DUP4 PUSH2 0x3F4F JUMP JUMPDEST PUSH1 0x40 DUP4 ADD SWAP1 POP SWAP3 SWAP2 POP POP JUMP JUMPDEST PUSH1 0x0 PUSH1 0x20 DUP3 ADD SWAP1 POP SWAP2 SWAP1 POP JUMP JUMPDEST PUSH2 0x3FD4 DUP2 PUSH2 0x3F24 JUMP JUMPDEST PUSH2 0x3FDE DUP2 DUP5 PUSH2 0x3F2F JUMP JUMPDEST SWAP3 POP PUSH2 0x3FE9 DUP3 PUSH2 0x3F3A JUMP JUMPDEST DUP1 PUSH1 0x0 JUMPDEST DUP4 DUP2 LT ISZERO PUSH2 0x401A JUMPI DUP2 MLOAD PUSH2 0x4001 DUP8 DUP3 PUSH2 0x3FA6 JUMP JUMPDEST SWAP7 POP PUSH2 0x400C DUP4 PUSH2 0x3FBE JUMP JUMPDEST SWAP3 POP POP PUSH1 0x1 DUP2 ADD SWAP1 POP PUSH2 0x3FED JUMP JUMPDEST POP POP POP POP POP POP JUMP JUMPDEST PUSH1 0x0 PUSH1 0x4 SWAP1 POP SWAP2 SWAP1 POP JUMP JUMPDEST PUSH1 0x0 DUP2 SWAP1 POP SWAP3 SWAP2 POP POP JUMP JUMPDEST PUSH1 0x0 DUP2 SWAP1 POP SWAP2 SWAP1 POP JUMP JUMPDEST PUSH1 0x0 PUSH1 0x20 DUP3 ADD SWAP1 POP SWAP2 SWAP1 POP JUMP JUMPDEST PUSH2 0x4058 DUP2 PUSH2 0x4022 JUMP JUMPDEST PUSH2 0x4062 DUP2 DUP5 PUSH2 0x402D JUMP JUMPDEST SWAP3 POP PUSH2 0x406D DUP3 PUSH2 0x4038 JUMP JUMPDEST DUP1 PUSH1 0x0 JUMPDEST DUP4 DUP2 LT ISZERO PUSH2 0x409E JUMPI DUP2 MLOAD PUSH2 0x4085 DUP8 DUP3 PUSH2 0x3EA8 JUMP JUMPDEST SWAP7 POP PUSH2 0x4090 DUP4 PUSH2 0x4042 JUMP JUMPDEST SWAP3 POP POP PUSH1 0x1 DUP2 ADD SWAP1 POP PUSH2 0x4071 JUMP JUMPDEST POP POP POP POP POP POP JUMP JUMPDEST PUSH1 0x0 PUSH2 0x1A0 DUP3 ADD SWAP1 POP PUSH2 0x40BC PUSH1 0x0 DUP4 ADD DUP9 PUSH2 0x3ECD JUMP JUMPDEST PUSH2 0x40C9 PUSH1 0x40 DUP4 ADD DUP8 PUSH2 0x3FCB JUMP JUMPDEST PUSH2 0x40D6 PUSH1 0xC0 DUP4 ADD DUP7 PUSH2 0x3ECD JUMP JUMPDEST PUSH2 0x40E4 PUSH2 0x100 DUP4 ADD DUP6 PUSH2 0x404F JUMP JUMPDEST PUSH2 0x40F2 PUSH2 0x180 DUP4 ADD DUP5 PUSH2 0x3613 JUMP JUMPDEST SWAP7 SWAP6 POP POP POP POP POP POP JUMP JUMPDEST PUSH2 0x4105 DUP2 PUSH2 0x3870 JUMP JUMPDEST DUP2 EQ PUSH2 0x4110 JUMPI PUSH1 0x0 DUP1 REVERT JUMPDEST POP JUMP JUMPDEST PUSH1 0x0 DUP2 MLOAD SWAP1 POP PUSH2 0x4122 DUP2 PUSH2 0x40FC JUMP JUMPDEST SWAP3 SWAP2 POP POP JUMP JUMPDEST PUSH1 0x0 PUSH1 0x20 DUP3 DUP5 SUB SLT ISZERO PUSH2 0x413E JUMPI PUSH2 0x413D PUSH2 0x34CE JUMP JUMPDEST JUMPDEST PUSH1 0x0 PUSH2 0x414C DUP5 DUP3 DUP6 ADD PUSH2 0x4113 JUMP JUMPDEST SWAP2 POP POP SWAP3 SWAP2 POP POP JUMP JUMPDEST PUSH1 0x0 PUSH2 0x4160 DUP3 PUSH2 0x34D8 JUMP JUMPDEST SWAP2 POP PUSH2 0x416B DUP4 PUSH2 0x34D8 JUMP JUMPDEST SWAP3 POP DUP3 DUP3 MUL PUSH2 0x4179 DUP2 PUSH2 0x34D8 JUMP JUMPDEST SWAP2 POP DUP3 DUP3 DIV DUP5 EQ DUP4 ISZERO OR PUSH2 0x4190 JUMPI PUSH2 0x418F PUSH2 0x3D16 JUMP JUMPDEST JUMPDEST POP SWAP3 SWAP2 POP POP JUMP JUMPDEST PUSH1 0x0 DUP3 DUP3 MSTORE PUSH1 0x20 DUP3 ADD SWAP1 POP SWAP3 SWAP2 POP POP JUMP JUMPDEST PUSH32 0x6E756C6C6966696572206E6F7420636F72726563740000000000000000000000 PUSH1 0x0 DUP3 ADD MSTORE POP JUMP JUMPDEST PUSH1 0x0 PUSH2 0x41DE PUSH1 0x15 DUP4 PUSH2 0x4197 JUMP JUMPDEST SWAP2 POP PUSH2 0x41E9 DUP3 PUSH2 0x41A8 JUMP JUMPDEST PUSH1 0x20 DUP3 ADD SWAP1 POP SWAP2 SWAP1 POP JUMP JUMPDEST PUSH1 0x0 PUSH1 0x20 DUP3 ADD SWAP1 POP DUP2 DUP2 SUB PUSH1 0x0 DUP4 ADD MSTORE PUSH2 0x420D DUP2 PUSH2 0x41D1 JUMP JUMPDEST SWAP1 POP SWAP2 SWAP1 POP JUMP JUMPDEST PUSH1 0x0 DUP2 MLOAD SWAP1 POP PUSH2 0x4223 DUP2 PUSH2 0x34E2 JUMP JUMPDEST SWAP3 SWAP2 POP POP JUMP JUMPDEST PUSH1 0x0 PUSH1 0x20 DUP3 DUP5 SUB SLT ISZERO PUSH2 0x423F JUMPI PUSH2 0x423E PUSH2 0x34CE JUMP JUMPDEST JUMPDEST PUSH1 0x0 PUSH2 0x424D DUP5 DUP3 DUP6 ADD PUSH2 0x4214 JUMP JUMPDEST SWAP2 POP POP SWAP3 SWAP2 POP POP JUMP JUMPDEST PUSH1 0x0 DUP2 SWAP1 POP SWAP3 SWAP2 POP POP JUMP JUMPDEST PUSH1 0x0 PUSH2 0x426D DUP4 DUP6 PUSH2 0x4256 JUMP JUMPDEST SWAP4 POP PUSH2 0x427A DUP4 DUP6 DUP5 PUSH2 0x3BC9 JUMP JUMPDEST DUP3 DUP5 ADD SWAP1 POP SWAP4 SWAP3 POP POP POP JUMP JUMPDEST PUSH1 0x0 PUSH2 0x4293 DUP3 DUP5 DUP7 PUSH2 0x4261 JUMP JUMPDEST SWAP2 POP DUP2 SWAP1 POP SWAP4 SWAP3 POP POP POP JUMP JUMPDEST PUSH1 0x0 PUSH2 0x42AA DUP3 PUSH2 0x34D8 JUMP JUMPDEST SWAP2 POP PUSH2 0x42B5 DUP4 PUSH2 0x34D8 JUMP JUMPDEST SWAP3 POP DUP3 DUP3 SUB SWAP1 POP DUP2 DUP2 GT ISZERO PUSH2 0x42CD JUMPI PUSH2 0x42CC PUSH2 0x3D16 JUMP JUMPDEST JUMPDEST SWAP3 SWAP2 POP POP JUMP JUMPDEST PUSH1 0x0 DUP2 MLOAD SWAP1 POP SWAP2 SWAP1 POP JUMP JUMPDEST PUSH1 0x0 JUMPDEST DUP4 DUP2 LT ISZERO PUSH2 0x42FC JUMPI DUP1 DUP3 ADD MLOAD DUP2 DUP5 ADD MSTORE PUSH1 0x20 DUP2 ADD SWAP1 POP PUSH2 0x42E1 JUMP JUMPDEST PUSH1 0x0 DUP5 DUP5 ADD MSTORE POP POP POP POP JUMP JUMPDEST PUSH1 0x0 PUSH2 0x4313 DUP3 PUSH2 0x42D3 JUMP JUMPDEST PUSH2 0x431D DUP2 DUP6 PUSH2 0x4256 JUMP JUMPDEST SWAP4 POP PUSH2 0x432D DUP2 DUP6 PUSH1 0x20 DUP7 ADD PUSH2 0x42DE JUMP JUMPDEST DUP1 DUP5 ADD SWAP2 POP POP SWAP3 SWAP2 POP POP JUMP JUMPDEST PUSH1 0x0 PUSH2 0x4345 DUP3 DUP5 PUSH2 0x4308 JUMP JUMPDEST SWAP2 POP DUP2 SWAP1 POP SWAP3 SWAP2 POP POP JUMP JUMPDEST DUP3 DUP2 DUP4 CALLDATACOPY POP POP POP JUMP JUMPDEST PUSH2 0x4366 PUSH2 0x100 DUP4 DUP4 PUSH2 0x4350 JUMP JUMPDEST POP POP JUMP JUMPDEST PUSH1 0x0 PUSH2 0x160 DUP3 ADD SWAP1 POP PUSH2 0x4380 PUSH1 0x0 DUP4 ADD DUP8 PUSH2 0x3613 JUMP JUMPDEST PUSH2 0x438D PUSH1 0x20 DUP4 ADD DUP7 PUSH2 0x3613 JUMP JUMPDEST PUSH2 0x439A PUSH1 0x40 DUP4 ADD DUP6 PUSH2 0x3613 JUMP JUMPDEST PUSH2 0x43A7 PUSH1 0x60 DUP4 ADD DUP5 PUSH2 0x4359 JUMP JUMPDEST SWAP6 SWAP5 POP POP POP POP POP JUMP JUMPDEST PUSH1 0x0 DUP3 DUP3 MSTORE PUSH1 0x20 DUP3 ADD SWAP1 POP SWAP3 SWAP2 POP POP JUMP JUMPDEST PUSH1 0x0 DUP1 REVERT JUMPDEST PUSH1 0x0 PUSH2 0x43D2 DUP4 DUP6 PUSH2 0x43B0 JUMP JUMPDEST SWAP4 POP PUSH32 0x7FFFFFFFFFFFFFFFFFFFFFFFFFFFFFFFFFFFFFFFFFFFFFFFFFFFFFFFFFFFFFF DUP4 GT ISZERO PUSH2 0x4405 JUMPI PUSH2 0x4404 PUSH2 0x43C1 JUMP JUMPDEST JUMPDEST PUSH1 0x20 DUP4 MUL SWAP3 POP PUSH2 0x4416 DUP4 DUP6 DUP5 PUSH2 0x4350 JUMP JUMPDEST DUP3 DUP5 ADD SWAP1 POP SWAP4 SWAP3 POP POP POP JUMP JUMPDEST PUSH1 0x0 PUSH1 0x60 DUP3 ADD SWAP1 POP PUSH2 0x4437 PUSH1 0x0 DUP4 ADD DUP8 PUSH2 0x3613 JUMP JUMPDEST DUP2 DUP2 SUB PUSH1 0x20 DUP4 ADD MSTORE PUSH2 0x444A DUP2 DUP6 DUP8 PUSH2 0x43C6 JUMP JUMPDEST SWAP1 POP PUSH2 0x4459 PUSH1 0x40 DUP4 ADD DUP5 PUSH2 0x3613 JUMP JUMPDEST SWAP6 SWAP5 POP POP POP POP POP JUMP JUMPDEST PUSH1 0x0 PUSH1 0x60 DUP3 ADD SWAP1 POP PUSH2 0x4477 PUSH1 0x0 DUP4 ADD DUP7 PUSH2 0x3613 JUMP JUMPDEST PUSH2 0x4484 PUSH1 0x20 DUP4 ADD DUP6 PUSH2 0x3613 JUMP JUMPDEST PUSH2 0x4491 PUSH1 0x40 DUP4 ADD DUP5 PUSH2 0x3613 JUMP JUMPDEST SWAP5 SWAP4 POP POP POP POP JUMP JUMPDEST PUSH1 0x0 PUSH1 0x80 DUP3 ADD SWAP1 POP PUSH2 0x44AE PUSH1 0x0 DUP4 ADD DUP8 PUSH2 0x3613 JUMP JUMPDEST PUSH2 0x44BB PUSH1 0x20 DUP4 ADD DUP7 PUSH2 0x3613 JUMP JUMPDEST PUSH2 0x44C8 PUSH1 0x40 DUP4 ADD DUP6 PUSH2 0x3613 JUMP JUMPDEST PUSH2 0x44D5 PUSH1 0x60 DUP4 ADD DUP5 PUSH2 0x3613 JUMP JUMPDEST SWAP6 SWAP5 POP POP POP POP POP JUMP JUMPDEST PUSH1 0x0 DUP2 SWAP1 POP SWAP2 SWAP1 POP JUMP JUMPDEST PUSH2 0x44F9 PUSH2 0x44F4 DUP3 PUSH2 0x34D8 JUMP JUMPDEST PUSH2 0x44DE JUMP JUMPDEST DUP3 MSTORE POP POP JUMP JUMPDEST PUSH1 0x0 PUSH2 0x450B DUP3 DUP5 PUSH2 0x44E8 JUMP JUMPDEST PUSH1 0x20 DUP3 ADD SWAP2 POP DUP2 SWAP1 POP SWAP3 SWAP2 POP POP JUMP JUMPDEST PUSH1 0x0 DUP2 PUSH1 0x1 SHR SWAP1 POP SWAP2 SWAP1 POP JUMP JUMPDEST PUSH1 0x0 DUP1 DUP3 SWAP2 POP DUP4 SWAP1 POP JUMPDEST PUSH1 0x1 DUP6 GT ISZERO PUSH2 0x4571 JUMPI DUP1 DUP7 DIV DUP2 GT ISZERO PUSH2 0x454D JUMPI PUSH2 0x454C PUSH2 0x3D16 JUMP JUMPDEST JUMPDEST PUSH1 0x1 DUP6 AND ISZERO PUSH2 0x455C JUMPI DUP1 DUP3 MUL SWAP2 POP JUMPDEST DUP1 DUP2 MUL SWAP1 POP PUSH2 0x456A DUP6 PUSH2 0x451A JUMP JUMPDEST SWAP5 POP PUSH2 0x4531 JUMP JUMPDEST SWAP5 POP SWAP5 SWAP3 POP POP POP JUMP JUMPDEST PUSH1 0x0 DUP3 PUSH2 0x458A JUMPI PUSH1 0x1 SWAP1 POP PUSH2 0x4646 JUMP JUMPDEST DUP2 PUSH2 0x4598 JUMPI PUSH1 0x0 SWAP1 POP PUSH2 0x4646 JUMP JUMPDEST DUP2 PUSH1 0x1 DUP2 EQ PUSH2 0x45AE JUMPI PUSH1 0x2 DUP2 EQ PUSH2 0x45B8 JUMPI PUSH2 0x45E7 JUMP JUMPDEST PUSH1 0x1 SWAP2 POP POP PUSH2 0x4646 JUMP JUMPDEST PUSH1 0xFF DUP5 GT ISZERO PUSH2 0x45CA JUMPI PUSH2 0x45C9 PUSH2 0x3D16 JUMP JUMPDEST JUMPDEST DUP4 PUSH1 0x2 EXP SWAP2 POP DUP5 DUP3 GT ISZERO PUSH2 0x45E1 JUMPI PUSH2 0x45E0 PUSH2 0x3D16 JUMP JUMPDEST JUMPDEST POP PUSH2 0x4646 JUMP JUMPDEST POP PUSH1 0x20 DUP4 LT PUSH2 0x133 DUP4 LT AND PUSH1 0x4E DUP5 LT PUSH1 0xB DUP5 LT AND OR ISZERO PUSH2 0x461C JUMPI DUP3 DUP3 EXP SWAP1 POP DUP4 DUP2 GT ISZERO PUSH2 0x4617 JUMPI PUSH2 0x4616 PUSH2 0x3D16 JUMP JUMPDEST JUMPDEST PUSH2 0x4646 JUMP JUMPDEST PUSH2 0x4629 DUP5 DUP5 DUP5 PUSH1 0x1 PUSH2 0x4527 JUMP JUMPDEST SWAP3 POP SWAP1 POP DUP2 DUP5 DIV DUP2 GT ISZERO PUSH2 0x4640 JUMPI PUSH2 0x463F PUSH2 0x3D16 JUMP JUMPDEST JUMPDEST DUP2 DUP2 MUL SWAP1 POP JUMPDEST SWAP4 SWAP3 POP POP POP JUMP JUMPDEST PUSH1 0x0 PUSH2 0x4658 DUP3 PUSH2 0x34D8 JUMP JUMPDEST SWAP2 POP PUSH2 0x4663 DUP4 PUSH2 0x34D8 JUMP JUMPDEST SWAP3 POP PUSH2 0x4690 PUSH32 0xFFFFFFFFFFFFFFFFFFFFFFFFFFFFFFFFFFFFFFFFFFFFFFFFFFFFFFFFFFFFFFFF DUP5 DUP5 PUSH2 0x457A JUMP JUMPDEST SWAP1 POP SWAP3 SWAP2 POP POP JUMP JUMPDEST PUSH1 0x0 DUP2 SWAP1 POP SWAP3 SWAP2 POP POP JUMP JUMPDEST PUSH2 0x46AC DUP2 PUSH2 0x34D8 JUMP JUMPDEST DUP3 MSTORE POP POP JUMP JUMPDEST PUSH1 0x0 PUSH2 0x46BE DUP4 DUP4 PUSH2 0x46A3 JUMP JUMPDEST PUSH1 0x20 DUP4 ADD SWAP1 POP SWAP3 SWAP2 POP POP JUMP JUMPDEST PUSH2 0x46D3 DUP2 PUSH2 0x3E79 JUMP JUMPDEST PUSH2 0x46DD DUP2 DUP5 PUSH2 0x4698 JUMP JUMPDEST SWAP3 POP PUSH2 0x46E8 DUP3 PUSH2 0x3E8F JUMP JUMPDEST DUP1 PUSH1 0x0 JUMPDEST DUP4 DUP2 LT ISZERO PUSH2 0x4719 JUMPI DUP2 MLOAD PUSH2 0x4700 DUP8 DUP3 PUSH2 0x46B2 JUMP JUMPDEST SWAP7 POP PUSH2 0x470B DUP4 PUSH2 0x3EC0 JUMP JUMPDEST SWAP3 POP POP PUSH1 0x1 DUP2 ADD SWAP1 POP PUSH2 0x46EC JUMP JUMPDEST POP POP POP POP POP POP JUMP JUMPDEST PUSH1 0x0 PUSH1 0x40 DUP3 ADD SWAP1 POP PUSH2 0x4736 PUSH1 0x0 DUP4 ADD DUP5 PUSH2 0x46CA JUMP JUMPDEST SWAP3 SWAP2 POP POP JUMP INVALID LOG2 PUSH5 0x6970667358 0x22 SLT KECCAK256 SWAP3 0xCA SDIV 0xCF 0x4B 0xAF 0xC9 0x1F 0xB8 PUSH16 0xCC1B1C402A1BE0BD8E4B927AC3E3A370 0xCA 0xAE SWAP12 DUP13 DIV 0xD1 PUSH5 0x736F6C6343 STOP ADDMOD BYTE STOP CALLER "
		},
		"gasEstimates": {
			"creation": {
				"codeDepositCost": "3658000",
				"executionCost": "infinite",
				"totalCost": "infinite"
			},
			"external": {
				"acceptGroupAdmin(uint256)": "55562",
				"addMember(uint256,uint256)": "infinite",
				"addMembers(uint256,uint256[])": "infinite",
				"calculateRefund(uint256,string)": "infinite",
				"cancelSubscription((uint256,uint256,uint256,uint256,uint256,uint256[8]),uint256,string)": "infinite",
				"createGroup()": "infinite",
				"createGroup(address)": "infinite",
				"createGroup(address,uint256)": "infinite",
				"createProduct()": "61346",
				"createSubscription(uint256,uint256)": "infinite",
				"getAvailableFunds()": "infinite",
				"getAvailableFundsForPackage(uint256)": "infinite",
				"getGroupAdmin(uint256)": "2932",
				"getMerkleTreeDepth(uint256)": "infinite",
				"getMerkleTreeRoot(uint256)": "infinite",
				"getMerkleTreeSize(uint256)": "infinite",
				"groupCounter()": "2473",
				"groups(uint256)": "infinite",
				"hasMember(uint256,uint256)": "infinite",
				"indexOf(uint256,uint256)": "infinite",
				"monthsToSeconds(uint256)": "infinite",
				"packageExists(uint256,string)": "infinite",
				"removeMember(uint256,uint256,uint256[])": "infinite",
				"secondsToMonths(uint256)": "infinite",
				"startSubscription((uint256,uint256,uint256,uint256,uint256,uint256[8]),uint256,string)": "infinite",
				"updateGroupAdmin(uint256,address)": "29294",
				"updateGroupMerkleTreeDuration(uint256,uint256)": "infinite",
				"updateMember(uint256,uint256,uint256,uint256[])": "infinite",
				"validateProof(uint256,(uint256,uint256,uint256,uint256,uint256,uint256[8]))": "infinite",
				"verifier()": "infinite",
				"verifyProof(uint256,(uint256,uint256,uint256,uint256,uint256,uint256[8]))": "infinite",
				"viewAvailableFunds()": "infinite",
				"withdrawFunds()": "infinite"
			}
		},
		"methodIdentifiers": {
			"acceptGroupAdmin(uint256)": "da3cda52",
			"addMember(uint256,uint256)": "1783efc3",
			"addMembers(uint256,uint256[])": "04245371",
			"calculateRefund(uint256,string)": "b4c609ea",
			"cancelSubscription((uint256,uint256,uint256,uint256,uint256,uint256[8]),uint256,string)": "fbd4987e",
			"createGroup()": "575185ed",
			"createGroup(address)": "5c3f3b60",
			"createGroup(address,uint256)": "2c880363",
			"createProduct()": "14d75e9d",
			"createSubscription(uint256,uint256)": "a71b6cd0",
			"getAvailableFunds()": "5195bd29",
			"getAvailableFundsForPackage(uint256)": "923fa6fe",
			"getGroupAdmin(uint256)": "a9961c94",
			"getMerkleTreeDepth(uint256)": "6389e107",
			"getMerkleTreeRoot(uint256)": "dabc4d51",
			"getMerkleTreeSize(uint256)": "7ee35a0c",
			"groupCounter()": "d24924fe",
			"groups(uint256)": "96324bd4",
			"hasMember(uint256,uint256)": "90509d44",
			"indexOf(uint256,uint256)": "06dd8485",
			"monthsToSeconds(uint256)": "5aae9684",
			"packageExists(uint256,string)": "8807d358",
			"removeMember(uint256,uint256,uint256[])": "6cdd32fe",
			"secondsToMonths(uint256)": "3d87cb3d",
			"startSubscription((uint256,uint256,uint256,uint256,uint256,uint256[8]),uint256,string)": "79d11d44",
			"updateGroupAdmin(uint256,address)": "568ee826",
			"updateGroupMerkleTreeDuration(uint256,uint256)": "fcf0b6ec",
			"updateMember(uint256,uint256,uint256,uint256[])": "4178c4d5",
			"validateProof(uint256,(uint256,uint256,uint256,uint256,uint256,uint256[8]))": "d0d898dd",
			"verifier()": "2b7ac3f3",
			"verifyProof(uint256,(uint256,uint256,uint256,uint256,uint256,uint256[8]))": "456f4188",
			"viewAvailableFunds()": "90be89a9",
			"withdrawFunds()": "24600fc3"
		}
	},
	"abi": [
		{
			"inputs": [
				{
					"internalType": "contract ISemaphoreVerifier",
					"name": "_verifier",
					"type": "address"
				},
				{
					"internalType": "contract IPalo",
					"name": "_fundsContract",
					"type": "address"
				},
				{
					"internalType": "address",
					"name": "_providerAddress",
					"type": "address"
				},
				{
					"internalType": "contract IproductsContract",
					"name": "_productsContract",
					"type": "address"
				}
			],
			"stateMutability": "nonpayable",
			"type": "constructor"
		},
		{
			"inputs": [],
			"name": "LeafAlreadyExists",
			"type": "error"
		},
		{
			"inputs": [],
			"name": "LeafCannotBeZero",
			"type": "error"
		},
		{
			"inputs": [],
			"name": "LeafDoesNotExist",
			"type": "error"
		},
		{
			"inputs": [],
			"name": "LeafGreaterThanSnarkScalarField",
			"type": "error"
		},
		{
			"inputs": [],
			"name": "Semaphore__CallerIsNotTheGroupAdmin",
			"type": "error"
		},
		{
			"inputs": [],
			"name": "Semaphore__CallerIsNotThePendingGroupAdmin",
			"type": "error"
		},
		{
			"inputs": [],
			"name": "Semaphore__GroupDoesNotExist",
			"type": "error"
		},
		{
			"inputs": [],
			"name": "Semaphore__GroupHasNoMembers",
			"type": "error"
		},
		{
			"inputs": [],
			"name": "Semaphore__InvalidProof",
			"type": "error"
		},
		{
			"inputs": [],
			"name": "Semaphore__MerkleTreeDepthIsNotSupported",
			"type": "error"
		},
		{
			"inputs": [],
			"name": "Semaphore__MerkleTreeRootIsExpired",
			"type": "error"
		},
		{
			"inputs": [],
			"name": "Semaphore__MerkleTreeRootIsNotPartOfTheGroup",
			"type": "error"
		},
		{
			"inputs": [],
			"name": "Semaphore__YouAreUsingTheSameNullifierTwice",
			"type": "error"
		},
		{
			"inputs": [],
			"name": "WrongSiblingNodes",
			"type": "error"
		},
		{
			"anonymous": false,
			"inputs": [
				{
					"indexed": true,
					"internalType": "uint256",
					"name": "groupId",
					"type": "uint256"
				},
				{
					"indexed": true,
					"internalType": "address",
					"name": "oldAdmin",
					"type": "address"
				},
				{
					"indexed": true,
					"internalType": "address",
					"name": "newAdmin",
					"type": "address"
				}
			],
			"name": "GroupAdminPending",
			"type": "event"
		},
		{
			"anonymous": false,
			"inputs": [
				{
					"indexed": true,
					"internalType": "uint256",
					"name": "groupId",
					"type": "uint256"
				},
				{
					"indexed": true,
					"internalType": "address",
					"name": "oldAdmin",
					"type": "address"
				},
				{
					"indexed": true,
					"internalType": "address",
					"name": "newAdmin",
					"type": "address"
				}
			],
			"name": "GroupAdminUpdated",
			"type": "event"
		},
		{
			"anonymous": false,
			"inputs": [
				{
					"indexed": true,
					"internalType": "uint256",
					"name": "groupId",
					"type": "uint256"
				}
			],
			"name": "GroupCreated",
			"type": "event"
		},
		{
			"anonymous": false,
			"inputs": [
				{
					"indexed": true,
					"internalType": "uint256",
					"name": "groupId",
					"type": "uint256"
				},
				{
					"indexed": false,
					"internalType": "uint256",
					"name": "oldMerkleTreeDuration",
					"type": "uint256"
				},
				{
					"indexed": false,
					"internalType": "uint256",
					"name": "newMerkleTreeDuration",
					"type": "uint256"
				}
			],
			"name": "GroupMerkleTreeDurationUpdated",
			"type": "event"
		},
		{
			"anonymous": false,
			"inputs": [
				{
					"indexed": true,
					"internalType": "uint256",
					"name": "groupId",
					"type": "uint256"
				},
				{
					"indexed": false,
					"internalType": "uint256",
					"name": "index",
					"type": "uint256"
				},
				{
					"indexed": false,
					"internalType": "uint256",
					"name": "identityCommitment",
					"type": "uint256"
				},
				{
					"indexed": false,
					"internalType": "uint256",
					"name": "merkleTreeRoot",
					"type": "uint256"
				}
			],
			"name": "MemberAdded",
			"type": "event"
		},
		{
			"anonymous": false,
			"inputs": [
				{
					"indexed": true,
					"internalType": "uint256",
					"name": "groupId",
					"type": "uint256"
				},
				{
					"indexed": false,
					"internalType": "uint256",
					"name": "index",
					"type": "uint256"
				},
				{
					"indexed": false,
					"internalType": "uint256",
					"name": "identityCommitment",
					"type": "uint256"
				},
				{
					"indexed": false,
					"internalType": "uint256",
					"name": "merkleTreeRoot",
					"type": "uint256"
				}
			],
			"name": "MemberRemoved",
			"type": "event"
		},
		{
			"anonymous": false,
			"inputs": [
				{
					"indexed": true,
					"internalType": "uint256",
					"name": "groupId",
					"type": "uint256"
				},
				{
					"indexed": false,
					"internalType": "uint256",
					"name": "index",
					"type": "uint256"
				},
				{
					"indexed": false,
					"internalType": "uint256",
					"name": "identityCommitment",
					"type": "uint256"
				},
				{
					"indexed": false,
					"internalType": "uint256",
					"name": "newIdentityCommitment",
					"type": "uint256"
				},
				{
					"indexed": false,
					"internalType": "uint256",
					"name": "merkleTreeRoot",
					"type": "uint256"
				}
			],
			"name": "MemberUpdated",
			"type": "event"
		},
		{
			"anonymous": false,
			"inputs": [
				{
					"indexed": true,
					"internalType": "uint256",
					"name": "groupId",
					"type": "uint256"
				},
				{
					"indexed": false,
					"internalType": "uint256",
					"name": "startIndex",
					"type": "uint256"
				},
				{
					"indexed": false,
					"internalType": "uint256[]",
					"name": "identityCommitments",
					"type": "uint256[]"
				},
				{
					"indexed": false,
					"internalType": "uint256",
					"name": "merkleTreeRoot",
					"type": "uint256"
				}
			],
			"name": "MembersAdded",
			"type": "event"
		},
		{
			"anonymous": false,
			"inputs": [
				{
					"indexed": true,
					"internalType": "uint256",
					"name": "groupId",
					"type": "uint256"
				},
				{
					"indexed": false,
					"internalType": "uint256",
					"name": "merkleTreeDepth",
					"type": "uint256"
				},
				{
					"indexed": true,
					"internalType": "uint256",
					"name": "merkleTreeRoot",
					"type": "uint256"
				},
				{
					"indexed": false,
					"internalType": "uint256",
					"name": "nullifier",
					"type": "uint256"
				},
				{
					"indexed": false,
					"internalType": "uint256",
					"name": "message",
					"type": "uint256"
				},
				{
					"indexed": true,
					"internalType": "uint256",
					"name": "scope",
					"type": "uint256"
				},
				{
					"indexed": false,
					"internalType": "uint256[8]",
					"name": "points",
					"type": "uint256[8]"
				}
			],
			"name": "ProofValidated",
			"type": "event"
		},
		{
			"inputs": [
				{
					"internalType": "uint256",
					"name": "groupId",
					"type": "uint256"
				}
			],
			"name": "acceptGroupAdmin",
			"outputs": [],
			"stateMutability": "nonpayable",
			"type": "function"
		},
		{
			"inputs": [
				{
					"internalType": "uint256",
					"name": "groupId",
					"type": "uint256"
				},
				{
					"internalType": "uint256",
					"name": "identityCommitment",
					"type": "uint256"
				}
			],
			"name": "addMember",
			"outputs": [],
			"stateMutability": "nonpayable",
			"type": "function"
		},
		{
			"inputs": [
				{
					"internalType": "uint256",
					"name": "groupId",
					"type": "uint256"
				},
				{
					"internalType": "uint256[]",
					"name": "identityCommitments",
					"type": "uint256[]"
				}
			],
			"name": "addMembers",
			"outputs": [],
			"stateMutability": "nonpayable",
			"type": "function"
		},
		{
			"inputs": [
				{
					"internalType": "uint256",
					"name": "packageId",
					"type": "uint256"
				},
				{
					"internalType": "string",
					"name": "ens",
					"type": "string"
				}
			],
			"name": "calculateRefund",
			"outputs": [
				{
					"internalType": "uint256",
					"name": "amount",
					"type": "uint256"
				}
			],
			"stateMutability": "view",
			"type": "function"
		},
		{
			"inputs": [
				{
					"components": [
						{
							"internalType": "uint256",
							"name": "merkleTreeDepth",
							"type": "uint256"
						},
						{
							"internalType": "uint256",
							"name": "merkleTreeRoot",
							"type": "uint256"
						},
						{
							"internalType": "uint256",
							"name": "nullifier",
							"type": "uint256"
						},
						{
							"internalType": "uint256",
							"name": "message",
							"type": "uint256"
						},
						{
							"internalType": "uint256",
							"name": "scope",
							"type": "uint256"
						},
						{
							"internalType": "uint256[8]",
							"name": "points",
							"type": "uint256[8]"
						}
					],
					"internalType": "struct ISemaphore.SemaphoreProof",
					"name": "proof",
					"type": "tuple"
				},
				{
					"internalType": "uint256",
					"name": "packageId",
					"type": "uint256"
				},
				{
					"internalType": "string",
					"name": "ens",
					"type": "string"
				}
			],
			"name": "cancelSubscription",
			"outputs": [],
			"stateMutability": "nonpayable",
			"type": "function"
		},
		{
			"inputs": [
				{
					"internalType": "address",
					"name": "admin",
					"type": "address"
				},
				{
					"internalType": "uint256",
					"name": "merkleTreeDuration",
					"type": "uint256"
				}
			],
			"name": "createGroup",
			"outputs": [
				{
					"internalType": "uint256",
					"name": "groupId",
					"type": "uint256"
				}
			],
			"stateMutability": "nonpayable",
			"type": "function"
		},
		{
			"inputs": [],
			"name": "createGroup",
			"outputs": [
				{
					"internalType": "uint256",
					"name": "groupId",
					"type": "uint256"
				}
			],
			"stateMutability": "nonpayable",
			"type": "function"
		},
		{
			"inputs": [
				{
					"internalType": "address",
					"name": "admin",
					"type": "address"
				}
			],
			"name": "createGroup",
			"outputs": [
				{
					"internalType": "uint256",
					"name": "groupId",
					"type": "uint256"
				}
			],
			"stateMutability": "nonpayable",
			"type": "function"
		},
		{
			"inputs": [],
			"name": "createProduct",
			"outputs": [],
			"stateMutability": "nonpayable",
			"type": "function"
		},
		{
			"inputs": [
				{
					"internalType": "uint256",
					"name": "_commitment",
					"type": "uint256"
				},
				{
					"internalType": "uint256",
					"name": "packageId",
					"type": "uint256"
				}
			],
			"name": "createSubscription",
			"outputs": [],
			"stateMutability": "nonpayable",
			"type": "function"
		},
		{
			"inputs": [],
			"name": "getAvailableFunds",
			"outputs": [
				{
					"internalType": "uint256",
					"name": "total",
					"type": "uint256"
				}
			],
			"stateMutability": "nonpayable",
			"type": "function"
		},
		{
			"inputs": [
				{
					"internalType": "uint256",
					"name": "packageId",
					"type": "uint256"
				}
			],
			"name": "getAvailableFundsForPackage",
			"outputs": [
				{
					"internalType": "uint256",
					"name": "total",
					"type": "uint256"
				},
				{
					"internalType": "uint256",
					"name": "lastPaidPerson",
					"type": "uint256"
				}
			],
			"stateMutability": "view",
			"type": "function"
		},
		{
			"inputs": [
				{
					"internalType": "uint256",
					"name": "groupId",
					"type": "uint256"
				}
			],
			"name": "getGroupAdmin",
			"outputs": [
				{
					"internalType": "address",
					"name": "",
					"type": "address"
				}
			],
			"stateMutability": "view",
			"type": "function"
		},
		{
			"inputs": [
				{
					"internalType": "uint256",
					"name": "groupId",
					"type": "uint256"
				}
			],
			"name": "getMerkleTreeDepth",
			"outputs": [
				{
					"internalType": "uint256",
					"name": "",
					"type": "uint256"
				}
			],
			"stateMutability": "view",
			"type": "function"
		},
		{
			"inputs": [
				{
					"internalType": "uint256",
					"name": "groupId",
					"type": "uint256"
				}
			],
			"name": "getMerkleTreeRoot",
			"outputs": [
				{
					"internalType": "uint256",
					"name": "",
					"type": "uint256"
				}
			],
			"stateMutability": "view",
			"type": "function"
		},
		{
			"inputs": [
				{
					"internalType": "uint256",
					"name": "groupId",
					"type": "uint256"
				}
			],
			"name": "getMerkleTreeSize",
			"outputs": [
				{
					"internalType": "uint256",
					"name": "",
					"type": "uint256"
				}
			],
			"stateMutability": "view",
			"type": "function"
		},
		{
			"inputs": [],
			"name": "groupCounter",
			"outputs": [
				{
					"internalType": "uint256",
					"name": "",
					"type": "uint256"
				}
			],
			"stateMutability": "view",
			"type": "function"
		},
		{
			"inputs": [
				{
					"internalType": "uint256",
					"name": "",
					"type": "uint256"
				}
			],
			"name": "groups",
			"outputs": [
				{
					"internalType": "uint256",
					"name": "merkleTreeDuration",
					"type": "uint256"
				}
			],
			"stateMutability": "view",
			"type": "function"
		},
		{
			"inputs": [
				{
					"internalType": "uint256",
					"name": "groupId",
					"type": "uint256"
				},
				{
					"internalType": "uint256",
					"name": "identityCommitment",
					"type": "uint256"
				}
			],
			"name": "hasMember",
			"outputs": [
				{
					"internalType": "bool",
					"name": "",
					"type": "bool"
				}
			],
			"stateMutability": "view",
			"type": "function"
		},
		{
			"inputs": [
				{
					"internalType": "uint256",
					"name": "groupId",
					"type": "uint256"
				},
				{
					"internalType": "uint256",
					"name": "identityCommitment",
					"type": "uint256"
				}
			],
			"name": "indexOf",
			"outputs": [
				{
					"internalType": "uint256",
					"name": "",
					"type": "uint256"
				}
			],
			"stateMutability": "view",
			"type": "function"
		},
		{
			"inputs": [
				{
					"internalType": "uint256",
					"name": "months",
					"type": "uint256"
				}
			],
			"name": "monthsToSeconds",
			"outputs": [
				{
					"internalType": "uint256",
					"name": "",
					"type": "uint256"
				}
			],
			"stateMutability": "pure",
			"type": "function"
		},
		{
			"inputs": [
				{
					"internalType": "uint256",
					"name": "packageId",
					"type": "uint256"
				},
				{
					"internalType": "string",
					"name": "ens",
					"type": "string"
				}
			],
			"name": "packageExists",
			"outputs": [
				{
					"internalType": "bool",
					"name": "",
					"type": "bool"
				}
			],
			"stateMutability": "view",
			"type": "function"
		},
		{
			"inputs": [
				{
					"internalType": "uint256",
					"name": "groupId",
					"type": "uint256"
				},
				{
					"internalType": "uint256",
					"name": "identityCommitment",
					"type": "uint256"
				},
				{
					"internalType": "uint256[]",
					"name": "merkleProofSiblings",
					"type": "uint256[]"
				}
			],
			"name": "removeMember",
			"outputs": [],
			"stateMutability": "nonpayable",
			"type": "function"
		},
		{
			"inputs": [
				{
					"internalType": "uint256",
					"name": "_seconds",
					"type": "uint256"
				}
			],
			"name": "secondsToMonths",
			"outputs": [
				{
					"internalType": "uint256",
					"name": "",
					"type": "uint256"
				}
			],
			"stateMutability": "pure",
			"type": "function"
		},
		{
			"inputs": [
				{
					"components": [
						{
							"internalType": "uint256",
							"name": "merkleTreeDepth",
							"type": "uint256"
						},
						{
							"internalType": "uint256",
							"name": "merkleTreeRoot",
							"type": "uint256"
						},
						{
							"internalType": "uint256",
							"name": "nullifier",
							"type": "uint256"
						},
						{
							"internalType": "uint256",
							"name": "message",
							"type": "uint256"
						},
						{
							"internalType": "uint256",
							"name": "scope",
							"type": "uint256"
						},
						{
							"internalType": "uint256[8]",
							"name": "points",
							"type": "uint256[8]"
						}
					],
					"internalType": "struct ISemaphore.SemaphoreProof",
					"name": "proof",
					"type": "tuple"
				},
				{
					"internalType": "uint256",
					"name": "packageId",
					"type": "uint256"
				},
				{
					"internalType": "string",
					"name": "ens",
					"type": "string"
				}
			],
			"name": "startSubscription",
			"outputs": [],
			"stateMutability": "nonpayable",
			"type": "function"
		},
		{
			"inputs": [
				{
					"internalType": "uint256",
					"name": "groupId",
					"type": "uint256"
				},
				{
					"internalType": "address",
					"name": "newAdmin",
					"type": "address"
				}
			],
			"name": "updateGroupAdmin",
			"outputs": [],
			"stateMutability": "nonpayable",
			"type": "function"
		},
		{
			"inputs": [
				{
					"internalType": "uint256",
					"name": "groupId",
					"type": "uint256"
				},
				{
					"internalType": "uint256",
					"name": "newMerkleTreeDuration",
					"type": "uint256"
				}
			],
			"name": "updateGroupMerkleTreeDuration",
			"outputs": [],
			"stateMutability": "nonpayable",
			"type": "function"
		},
		{
			"inputs": [
				{
					"internalType": "uint256",
					"name": "groupId",
					"type": "uint256"
				},
				{
					"internalType": "uint256",
					"name": "identityCommitment",
					"type": "uint256"
				},
				{
					"internalType": "uint256",
					"name": "newIdentityCommitment",
					"type": "uint256"
				},
				{
					"internalType": "uint256[]",
					"name": "merkleProofSiblings",
					"type": "uint256[]"
				}
			],
			"name": "updateMember",
			"outputs": [],
			"stateMutability": "nonpayable",
			"type": "function"
		},
		{
			"inputs": [
				{
					"internalType": "uint256",
					"name": "groupId",
					"type": "uint256"
				},
				{
					"components": [
						{
							"internalType": "uint256",
							"name": "merkleTreeDepth",
							"type": "uint256"
						},
						{
							"internalType": "uint256",
							"name": "merkleTreeRoot",
							"type": "uint256"
						},
						{
							"internalType": "uint256",
							"name": "nullifier",
							"type": "uint256"
						},
						{
							"internalType": "uint256",
							"name": "message",
							"type": "uint256"
						},
						{
							"internalType": "uint256",
							"name": "scope",
							"type": "uint256"
						},
						{
							"internalType": "uint256[8]",
							"name": "points",
							"type": "uint256[8]"
						}
					],
					"internalType": "struct ISemaphore.SemaphoreProof",
					"name": "proof",
					"type": "tuple"
				}
			],
			"name": "validateProof",
			"outputs": [],
			"stateMutability": "nonpayable",
			"type": "function"
		},
		{
			"inputs": [],
			"name": "verifier",
			"outputs": [
				{
					"internalType": "contract ISemaphoreVerifier",
					"name": "",
					"type": "address"
				}
			],
			"stateMutability": "view",
			"type": "function"
		},
		{
			"inputs": [
				{
					"internalType": "uint256",
					"name": "groupId",
					"type": "uint256"
				},
				{
					"components": [
						{
							"internalType": "uint256",
							"name": "merkleTreeDepth",
							"type": "uint256"
						},
						{
							"internalType": "uint256",
							"name": "merkleTreeRoot",
							"type": "uint256"
						},
						{
							"internalType": "uint256",
							"name": "nullifier",
							"type": "uint256"
						},
						{
							"internalType": "uint256",
							"name": "message",
							"type": "uint256"
						},
						{
							"internalType": "uint256",
							"name": "scope",
							"type": "uint256"
						},
						{
							"internalType": "uint256[8]",
							"name": "points",
							"type": "uint256[8]"
						}
					],
					"internalType": "struct ISemaphore.SemaphoreProof",
					"name": "proof",
					"type": "tuple"
				}
			],
			"name": "verifyProof",
			"outputs": [
				{
					"internalType": "bool",
					"name": "",
					"type": "bool"
				}
			],
			"stateMutability": "view",
			"type": "function"
		},
		{
			"inputs": [],
			"name": "viewAvailableFunds",
			"outputs": [
				{
					"internalType": "uint256",
					"name": "total",
					"type": "uint256"
				}
			],
			"stateMutability": "view",
			"type": "function"
		},
		{
			"inputs": [],
			"name": "withdrawFunds",
			"outputs": [],
			"stateMutability": "nonpayable",
			"type": "function"
		}
	]
}