{
	"Contracts/EnsRegistry.sol": {
		"ENSRegistry": {
			"abi": [
				{
					"inputs": [],
					"stateMutability": "nonpayable",
					"type": "constructor"
				},
				{
					"anonymous": false,
					"inputs": [
						{
							"indexed": true,
							"internalType": "address",
							"name": "owner",
							"type": "address"
						},
						{
							"indexed": true,
							"internalType": "address",
							"name": "operator",
							"type": "address"
						},
						{
							"indexed": false,
							"internalType": "bool",
							"name": "approved",
							"type": "bool"
						}
					],
					"name": "ApprovalForAll",
					"type": "event"
				},
				{
					"anonymous": false,
					"inputs": [
						{
							"indexed": true,
							"internalType": "bytes32",
							"name": "node",
							"type": "bytes32"
						},
						{
							"indexed": true,
							"internalType": "bytes32",
							"name": "label",
							"type": "bytes32"
						},
						{
							"indexed": false,
							"internalType": "address",
							"name": "owner",
							"type": "address"
						}
					],
					"name": "NewOwner",
					"type": "event"
				},
				{
					"anonymous": false,
					"inputs": [
						{
							"indexed": true,
							"internalType": "bytes32",
							"name": "node",
							"type": "bytes32"
						},
						{
							"indexed": false,
							"internalType": "address",
							"name": "resolver",
							"type": "address"
						}
					],
					"name": "NewResolver",
					"type": "event"
				},
				{
					"anonymous": false,
					"inputs": [
						{
							"indexed": true,
							"internalType": "bytes32",
							"name": "node",
							"type": "bytes32"
						},
						{
							"indexed": false,
							"internalType": "uint64",
							"name": "ttl",
							"type": "uint64"
						}
					],
					"name": "NewTTL",
					"type": "event"
				},
				{
					"anonymous": false,
					"inputs": [
						{
							"indexed": true,
							"internalType": "bytes32",
							"name": "node",
							"type": "bytes32"
						},
						{
							"indexed": false,
							"internalType": "address",
							"name": "owner",
							"type": "address"
						}
					],
					"name": "Transfer",
					"type": "event"
				},
				{
					"inputs": [
						{
							"internalType": "address",
							"name": "owner",
							"type": "address"
						},
						{
							"internalType": "address",
							"name": "operator",
							"type": "address"
						}
					],
					"name": "isApprovedForAll",
					"outputs": [
						{
							"internalType": "bool",
							"name": "",
							"type": "bool"
						}
					],
					"stateMutability": "view",
					"type": "function"
				},
				{
					"inputs": [
						{
							"internalType": "bytes32",
							"name": "node",
							"type": "bytes32"
						}
					],
					"name": "owner",
					"outputs": [
						{
							"internalType": "address",
							"name": "",
							"type": "address"
						}
					],
					"stateMutability": "view",
					"type": "function"
				},
				{
					"inputs": [
						{
							"internalType": "bytes32",
							"name": "node",
							"type": "bytes32"
						}
					],
					"name": "recordExists",
					"outputs": [
						{
							"internalType": "bool",
							"name": "",
							"type": "bool"
						}
					],
					"stateMutability": "view",
					"type": "function"
				},
				{
					"inputs": [
						{
							"internalType": "bytes32",
							"name": "node",
							"type": "bytes32"
						}
					],
					"name": "resolver",
					"outputs": [
						{
							"internalType": "address",
							"name": "",
							"type": "address"
						}
					],
					"stateMutability": "view",
					"type": "function"
				},
				{
					"inputs": [
						{
							"internalType": "address",
							"name": "operator",
							"type": "address"
						},
						{
							"internalType": "bool",
							"name": "approved",
							"type": "bool"
						}
					],
					"name": "setApprovalForAll",
					"outputs": [],
					"stateMutability": "nonpayable",
					"type": "function"
				},
				{
					"inputs": [
						{
							"internalType": "bytes32",
							"name": "node",
							"type": "bytes32"
						},
						{
							"internalType": "address",
							"name": "owner",
							"type": "address"
						}
					],
					"name": "setOwner",
					"outputs": [],
					"stateMutability": "nonpayable",
					"type": "function"
				},
				{
					"inputs": [
						{
							"internalType": "bytes32",
							"name": "node",
							"type": "bytes32"
						},
						{
							"internalType": "address",
							"name": "owner",
							"type": "address"
						},
						{
							"internalType": "address",
							"name": "resolver",
							"type": "address"
						},
						{
							"internalType": "uint64",
							"name": "ttl",
							"type": "uint64"
						}
					],
					"name": "setRecord",
					"outputs": [],
					"stateMutability": "nonpayable",
					"type": "function"
				},
				{
					"inputs": [
						{
							"internalType": "bytes32",
							"name": "node",
							"type": "bytes32"
						},
						{
							"internalType": "address",
							"name": "resolver",
							"type": "address"
						}
					],
					"name": "setResolver",
					"outputs": [],
					"stateMutability": "nonpayable",
					"type": "function"
				},
				{
					"inputs": [
						{
							"internalType": "bytes32",
							"name": "node",
							"type": "bytes32"
						},
						{
							"internalType": "bytes32",
							"name": "label",
							"type": "bytes32"
						},
						{
							"internalType": "address",
							"name": "owner",
							"type": "address"
						}
					],
					"name": "setSubnodeOwner",
					"outputs": [
						{
							"internalType": "bytes32",
							"name": "",
							"type": "bytes32"
						}
					],
					"stateMutability": "nonpayable",
					"type": "function"
				},
				{
					"inputs": [
						{
							"internalType": "bytes32",
							"name": "node",
							"type": "bytes32"
						},
						{
							"internalType": "bytes32",
							"name": "label",
							"type": "bytes32"
						},
						{
							"internalType": "address",
							"name": "owner",
							"type": "address"
						},
						{
							"internalType": "address",
							"name": "resolver",
							"type": "address"
						},
						{
							"internalType": "uint64",
							"name": "ttl",
							"type": "uint64"
						}
					],
					"name": "setSubnodeRecord",
					"outputs": [],
					"stateMutability": "nonpayable",
					"type": "function"
				},
				{
					"inputs": [
						{
							"internalType": "bytes32",
							"name": "node",
							"type": "bytes32"
						},
						{
							"internalType": "uint64",
							"name": "ttl",
							"type": "uint64"
						}
					],
					"name": "setTTL",
					"outputs": [],
					"stateMutability": "nonpayable",
					"type": "function"
				},
				{
					"inputs": [
						{
							"internalType": "bytes32",
							"name": "node",
							"type": "bytes32"
						}
					],
					"name": "ttl",
					"outputs": [
						{
							"internalType": "uint64",
							"name": "",
							"type": "uint64"
						}
					],
					"stateMutability": "view",
					"type": "function"
				}
			],
			"devdoc": {
				"kind": "dev",
				"methods": {
					"constructor": {
						"details": "Constructs a new ENS registry."
					},
					"isApprovedForAll(address,address)": {
						"details": "Query if an address is an authorized operator for another address.",
						"params": {
							"operator": "The address that acts on behalf of the owner.",
							"owner": "The address that owns the records."
						},
						"returns": {
							"_0": "True if `operator` is an approved operator for `owner`, false otherwise."
						}
					},
					"owner(bytes32)": {
						"details": "Returns the address that owns the specified node.",
						"params": {
							"node": "The specified node."
						},
						"returns": {
							"_0": "address of the owner."
						}
					},
					"recordExists(bytes32)": {
						"details": "Returns whether a record has been imported to the registry.",
						"params": {
							"node": "The specified node."
						},
						"returns": {
							"_0": "Bool if record exists"
						}
					},
					"resolver(bytes32)": {
						"details": "Returns the address of the resolver for the specified node.",
						"params": {
							"node": "The specified node."
						},
						"returns": {
							"_0": "address of the resolver."
						}
					},
					"setApprovalForAll(address,bool)": {
						"details": "Enable or disable approval for a third party (\"operator\") to manage  all of `msg.sender`'s ENS records. Emits the ApprovalForAll event.",
						"params": {
							"approved": "True if the operator is approved, false to revoke approval.",
							"operator": "Address to add to the set of authorized operators."
						}
					},
					"setOwner(bytes32,address)": {
						"details": "Transfers ownership of a node to a new address. May only be called by the current owner of the node.",
						"params": {
							"node": "The node to transfer ownership of.",
							"owner": "The address of the new owner."
						}
					},
					"setRecord(bytes32,address,address,uint64)": {
						"details": "Sets the record for a node.",
						"params": {
							"node": "The node to update.",
							"owner": "The address of the new owner.",
							"resolver": "The address of the resolver.",
							"ttl": "The TTL in seconds."
						}
					},
					"setResolver(bytes32,address)": {
						"details": "Sets the resolver address for the specified node.",
						"params": {
							"node": "The node to update.",
							"resolver": "The address of the resolver."
						}
					},
					"setSubnodeOwner(bytes32,bytes32,address)": {
						"details": "Transfers ownership of a subnode keccak256(node, label) to a new address. May only be called by the owner of the parent node.",
						"params": {
							"label": "The hash of the label specifying the subnode.",
							"node": "The parent node.",
							"owner": "The address of the new owner."
						}
					},
					"setSubnodeRecord(bytes32,bytes32,address,address,uint64)": {
						"details": "Sets the record for a subnode.",
						"params": {
							"label": "The hash of the label specifying the subnode.",
							"node": "The parent node.",
							"owner": "The address of the new owner.",
							"resolver": "The address of the resolver.",
							"ttl": "The TTL in seconds."
						}
					},
					"setTTL(bytes32,uint64)": {
						"details": "Sets the TTL for the specified node.",
						"params": {
							"node": "The node to update.",
							"ttl": "The TTL in seconds."
						}
					},
					"ttl(bytes32)": {
						"details": "Returns the TTL of a node, and any records associated with it.",
						"params": {
							"node": "The specified node."
						},
						"returns": {
							"_0": "ttl of the node."
						}
					}
				},
				"version": 1
			},
			"evm": {
				"assembly": "    /* \"Contracts/EnsRegistry.sol\":85:6428  contract ENSRegistry is ENS {... */\n  mstore(0x40, 0x80)\n    /* \"Contracts/EnsRegistry.sol\":618:687  constructor() public {... */\n  callvalue\n  dup1\n  iszero\n  tag_1\n  jumpi\n  0x00\n  dup1\n  revert\ntag_1:\n  pop\n    /* \"Contracts/EnsRegistry.sol\":670:680  msg.sender */\n  caller\n    /* \"Contracts/EnsRegistry.sol\":649:656  records */\n  0x00\n    /* \"Contracts/EnsRegistry.sol\":649:661  records[0x0] */\n  dup1\n    /* \"Contracts/EnsRegistry.sol\":657:660  0x0 */\n  dup1\n    /* \"Contracts/EnsRegistry.sol\":649:661  records[0x0] */\n  0x00\n  shl\n  dup2\n  mstore\n  0x20\n  add\n  swap1\n  dup2\n  mstore\n  0x20\n  add\n  0x00\n  keccak256\n    /* \"Contracts/EnsRegistry.sol\":649:667  records[0x0].owner */\n  0x00\n  add\n  0x00\n    /* \"Contracts/EnsRegistry.sol\":649:680  records[0x0].owner = msg.sender */\n  0x0100\n  exp\n  dup2\n  sload\n  dup2\n  0xffffffffffffffffffffffffffffffffffffffff\n  mul\n  not\n  and\n  swap1\n  dup4\n  0xffffffffffffffffffffffffffffffffffffffff\n  and\n  mul\n  or\n  swap1\n  sstore\n  pop\n    /* \"Contracts/EnsRegistry.sol\":85:6428  contract ENSRegistry is ENS {... */\n  dataSize(sub_0)\n  dup1\n  dataOffset(sub_0)\n  0x00\n  codecopy\n  0x00\n  return\nstop\n\nsub_0: assembly {\n        /* \"Contracts/EnsRegistry.sol\":85:6428  contract ENSRegistry is ENS {... */\n      mstore(0x40, 0x80)\n      callvalue\n      dup1\n      iszero\n      tag_1\n      jumpi\n      0x00\n      dup1\n      revert\n    tag_1:\n      pop\n      jumpi(tag_2, lt(calldatasize, 0x04))\n      shr(0xe0, calldataload(0x00))\n      dup1\n      0x5b0fc9c3\n      gt\n      tag_15\n      jumpi\n      dup1\n      0x5b0fc9c3\n      eq\n      tag_9\n      jumpi\n      dup1\n      0x5ef2c7f0\n      eq\n      tag_10\n      jumpi\n      dup1\n      0xa22cb465\n      eq\n      tag_11\n      jumpi\n      dup1\n      0xcf408823\n      eq\n      tag_12\n      jumpi\n      dup1\n      0xe985e9c5\n      eq\n      tag_13\n      jumpi\n      dup1\n      0xf79fe538\n      eq\n      tag_14\n      jumpi\n      jump(tag_2)\n    tag_15:\n      dup1\n      0x0178b8bf\n      eq\n      tag_3\n      jumpi\n      dup1\n      0x02571be3\n      eq\n      tag_4\n      jumpi\n      dup1\n      0x06ab5923\n      eq\n      tag_5\n      jumpi\n      dup1\n      0x14ab9038\n      eq\n      tag_6\n      jumpi\n      dup1\n      0x16a25cbd\n      eq\n      tag_7\n      jumpi\n      dup1\n      0x1896f70a\n      eq\n      tag_8\n      jumpi\n    tag_2:\n      0x00\n      dup1\n      revert\n        /* \"Contracts/EnsRegistry.sol\":4675:4814  function resolver(... */\n    tag_3:\n      tag_16\n      0x04\n      dup1\n      calldatasize\n      sub\n      dup2\n      add\n      swap1\n      tag_17\n      swap2\n      swap1\n      tag_18\n      jump\t// in\n    tag_17:\n      tag_19\n      jump\t// in\n    tag_16:\n      mload(0x40)\n      tag_20\n      swap2\n      swap1\n      tag_21\n      jump\t// in\n    tag_20:\n      mload(0x40)\n      dup1\n      swap2\n      sub\n      swap1\n      return\n        /* \"Contracts/EnsRegistry.sol\":4259:4502  function owner(... */\n    tag_4:\n      tag_22\n      0x04\n      dup1\n      calldatasize\n      sub\n      dup2\n      add\n      swap1\n      tag_23\n      swap2\n      swap1\n      tag_18\n      jump\t// in\n    tag_23:\n      tag_24\n      jump\t// in\n    tag_22:\n      mload(0x40)\n      tag_25\n      swap2\n      swap1\n      tag_21\n      jump\t// in\n    tag_25:\n      mload(0x40)\n      dup1\n      swap2\n      sub\n      swap1\n      return\n        /* \"Contracts/EnsRegistry.sol\":2494:2829  function setSubnodeOwner(... */\n    tag_5:\n      tag_26\n      0x04\n      dup1\n      calldatasize\n      sub\n      dup2\n      add\n      swap1\n      tag_27\n      swap2\n      swap1\n      tag_28\n      jump\t// in\n    tag_27:\n      tag_29\n      jump\t// in\n    tag_26:\n      mload(0x40)\n      tag_30\n      swap2\n      swap1\n      tag_31\n      jump\t// in\n    tag_30:\n      mload(0x40)\n      dup1\n      swap2\n      sub\n      swap1\n      return\n        /* \"Contracts/EnsRegistry.sol\":3360:3537  function setTTL(... */\n    tag_6:\n      tag_32\n      0x04\n      dup1\n      calldatasize\n      sub\n      dup2\n      add\n      swap1\n      tag_33\n      swap2\n      swap1\n      tag_34\n      jump\t// in\n    tag_33:\n      tag_35\n      jump\t// in\n    tag_32:\n      stop\n        /* \"Contracts/EnsRegistry.sol\":4982:5096  function ttl(bytes32 node) public view virtual override returns (uint64) {... */\n    tag_7:\n      tag_36\n      0x04\n      dup1\n      calldatasize\n      sub\n      dup2\n      add\n      swap1\n      tag_37\n      swap2\n      swap1\n      tag_18\n      jump\t// in\n    tag_37:\n      tag_38\n      jump\t// in\n    tag_36:\n      mload(0x40)\n      tag_39\n      swap2\n      swap1\n      tag_40\n      jump\t// in\n    tag_39:\n      mload(0x40)\n      dup1\n      swap2\n      sub\n      swap1\n      return\n        /* \"Contracts/EnsRegistry.sol\":3004:3212  function setResolver(... */\n    tag_8:\n      tag_41\n      0x04\n      dup1\n      calldatasize\n      sub\n      dup2\n      add\n      swap1\n      tag_42\n      swap2\n      swap1\n      tag_43\n      jump\t// in\n    tag_42:\n      tag_44\n      jump\t// in\n    tag_41:\n      stop\n        /* \"Contracts/EnsRegistry.sol\":1997:2182  function setOwner(... */\n    tag_9:\n      tag_45\n      0x04\n      dup1\n      calldatasize\n      sub\n      dup2\n      add\n      swap1\n      tag_46\n      swap2\n      swap1\n      tag_43\n      jump\t// in\n    tag_46:\n      tag_47\n      jump\t// in\n    tag_45:\n      stop\n        /* \"Contracts/EnsRegistry.sol\":1464:1758  function setSubnodeRecord(... */\n    tag_10:\n      tag_48\n      0x04\n      dup1\n      calldatasize\n      sub\n      dup2\n      add\n      swap1\n      tag_49\n      swap2\n      swap1\n      tag_50\n      jump\t// in\n    tag_49:\n      tag_51\n      jump\t// in\n    tag_48:\n      stop\n        /* \"Contracts/EnsRegistry.sol\":3871:4099  function setApprovalForAll(... */\n    tag_11:\n      tag_52\n      0x04\n      dup1\n      calldatasize\n      sub\n      dup2\n      add\n      swap1\n      tag_53\n      swap2\n      swap1\n      tag_54\n      jump\t// in\n    tag_53:\n      tag_55\n      jump\t// in\n    tag_52:\n      stop\n        /* \"Contracts/EnsRegistry.sol\":928:1157  function setRecord(... */\n    tag_12:\n      tag_56\n      0x04\n      dup1\n      calldatasize\n      sub\n      dup2\n      add\n      swap1\n      tag_57\n      swap2\n      swap1\n      tag_58\n      jump\t// in\n    tag_57:\n      tag_59\n      jump\t// in\n    tag_56:\n      stop\n        /* \"Contracts/EnsRegistry.sol\":5733:5910  function isApprovedForAll(... */\n    tag_13:\n      tag_60\n      0x04\n      dup1\n      calldatasize\n      sub\n      dup2\n      add\n      swap1\n      tag_61\n      swap2\n      swap1\n      tag_62\n      jump\t// in\n    tag_61:\n      tag_63\n      jump\t// in\n    tag_60:\n      mload(0x40)\n      tag_64\n      swap2\n      swap1\n      tag_65\n      jump\t// in\n    tag_64:\n      mload(0x40)\n      dup1\n      swap2\n      sub\n      swap1\n      return\n        /* \"Contracts/EnsRegistry.sol\":5266:5419  function recordExists(... */\n    tag_14:\n      tag_66\n      0x04\n      dup1\n      calldatasize\n      sub\n      dup2\n      add\n      swap1\n      tag_67\n      swap2\n      swap1\n      tag_18\n      jump\t// in\n    tag_67:\n      tag_68\n      jump\t// in\n    tag_66:\n      mload(0x40)\n      tag_69\n      swap2\n      swap1\n      tag_65\n      jump\t// in\n    tag_69:\n      mload(0x40)\n      dup1\n      swap2\n      sub\n      swap1\n      return\n        /* \"Contracts/EnsRegistry.sol\":4675:4814  function resolver(... */\n    tag_19:\n        /* \"Contracts/EnsRegistry.sol\":4759:4766  address */\n      0x00\n        /* \"Contracts/EnsRegistry.sol\":4785:4792  records */\n      dup1\n        /* \"Contracts/EnsRegistry.sol\":4785:4798  records[node] */\n      0x00\n        /* \"Contracts/EnsRegistry.sol\":4793:4797  node */\n      dup4\n        /* \"Contracts/EnsRegistry.sol\":4785:4798  records[node] */\n      dup2\n      mstore\n      0x20\n      add\n      swap1\n      dup2\n      mstore\n      0x20\n      add\n      0x00\n      keccak256\n        /* \"Contracts/EnsRegistry.sol\":4785:4807  records[node].resolver */\n      0x01\n      add\n      0x00\n      swap1\n      sload\n      swap1\n      0x0100\n      exp\n      swap1\n      div\n      0xffffffffffffffffffffffffffffffffffffffff\n      and\n        /* \"Contracts/EnsRegistry.sol\":4778:4807  return records[node].resolver */\n      swap1\n      pop\n        /* \"Contracts/EnsRegistry.sol\":4675:4814  function resolver(... */\n      swap2\n      swap1\n      pop\n      jump\t// out\n        /* \"Contracts/EnsRegistry.sol\":4259:4502  function owner(... */\n    tag_24:\n        /* \"Contracts/EnsRegistry.sol\":4340:4347  address */\n      0x00\n        /* \"Contracts/EnsRegistry.sol\":4359:4371  address addr */\n      dup1\n        /* \"Contracts/EnsRegistry.sol\":4374:4381  records */\n      0x00\n        /* \"Contracts/EnsRegistry.sol\":4374:4387  records[node] */\n      dup1\n        /* \"Contracts/EnsRegistry.sol\":4382:4386  node */\n      dup5\n        /* \"Contracts/EnsRegistry.sol\":4374:4387  records[node] */\n      dup2\n      mstore\n      0x20\n      add\n      swap1\n      dup2\n      mstore\n      0x20\n      add\n      0x00\n      keccak256\n        /* \"Contracts/EnsRegistry.sol\":4374:4393  records[node].owner */\n      0x00\n      add\n      0x00\n      swap1\n      sload\n      swap1\n      0x0100\n      exp\n      swap1\n      div\n      0xffffffffffffffffffffffffffffffffffffffff\n      and\n        /* \"Contracts/EnsRegistry.sol\":4359:4393  address addr = records[node].owner */\n      swap1\n      pop\n        /* \"Contracts/EnsRegistry.sol\":4423:4427  this */\n      address\n        /* \"Contracts/EnsRegistry.sol\":4407:4428  addr == address(this) */\n      0xffffffffffffffffffffffffffffffffffffffff\n      and\n        /* \"Contracts/EnsRegistry.sol\":4407:4411  addr */\n      dup2\n        /* \"Contracts/EnsRegistry.sol\":4407:4428  addr == address(this) */\n      0xffffffffffffffffffffffffffffffffffffffff\n      and\n      sub\n        /* \"Contracts/EnsRegistry.sol\":4403:4474  if (addr == address(this)) {... */\n      tag_72\n      jumpi\n        /* \"Contracts/EnsRegistry.sol\":4459:4462  0x0 */\n      0x00\n        /* \"Contracts/EnsRegistry.sol\":4444:4463  return address(0x0) */\n      swap2\n      pop\n      pop\n      jump(tag_71)\n        /* \"Contracts/EnsRegistry.sol\":4403:4474  if (addr == address(this)) {... */\n    tag_72:\n        /* \"Contracts/EnsRegistry.sol\":4491:4495  addr */\n      dup1\n        /* \"Contracts/EnsRegistry.sol\":4484:4495  return addr */\n      swap2\n      pop\n      pop\n        /* \"Contracts/EnsRegistry.sol\":4259:4502  function owner(... */\n    tag_71:\n      swap2\n      swap1\n      pop\n      jump\t// out\n        /* \"Contracts/EnsRegistry.sol\":2494:2829  function setSubnodeOwner(... */\n    tag_29:\n        /* \"Contracts/EnsRegistry.sol\":2643:2650  bytes32 */\n      0x00\n        /* \"Contracts/EnsRegistry.sol\":2628:2632  node */\n      dup4\n        /* \"Contracts/EnsRegistry.sol\":430:443  address owner */\n      0x00\n        /* \"Contracts/EnsRegistry.sol\":446:453  records */\n      dup1\n        /* \"Contracts/EnsRegistry.sol\":446:459  records[node] */\n      0x00\n        /* \"Contracts/EnsRegistry.sol\":454:458  node */\n      dup4\n        /* \"Contracts/EnsRegistry.sol\":446:459  records[node] */\n      dup2\n      mstore\n      0x20\n      add\n      swap1\n      dup2\n      mstore\n      0x20\n      add\n      0x00\n      keccak256\n        /* \"Contracts/EnsRegistry.sol\":446:465  records[node].owner */\n      0x00\n      add\n      0x00\n      swap1\n      sload\n      swap1\n      0x0100\n      exp\n      swap1\n      div\n      0xffffffffffffffffffffffffffffffffffffffff\n      and\n        /* \"Contracts/EnsRegistry.sol\":430:465  address owner = records[node].owner */\n      swap1\n      pop\n        /* \"Contracts/EnsRegistry.sol\":492:502  msg.sender */\n      caller\n        /* \"Contracts/EnsRegistry.sol\":483:502  owner == msg.sender */\n      0xffffffffffffffffffffffffffffffffffffffff\n      and\n        /* \"Contracts/EnsRegistry.sol\":483:488  owner */\n      dup2\n        /* \"Contracts/EnsRegistry.sol\":483:502  owner == msg.sender */\n      0xffffffffffffffffffffffffffffffffffffffff\n      and\n      eq\n        /* \"Contracts/EnsRegistry.sol\":483:534  owner == msg.sender || operators[owner][msg.sender] */\n      dup1\n      tag_74\n      jumpi\n      pop\n        /* \"Contracts/EnsRegistry.sol\":506:515  operators */\n      0x01\n        /* \"Contracts/EnsRegistry.sol\":506:522  operators[owner] */\n      0x00\n        /* \"Contracts/EnsRegistry.sol\":516:521  owner */\n      dup3\n        /* \"Contracts/EnsRegistry.sol\":506:522  operators[owner] */\n      0xffffffffffffffffffffffffffffffffffffffff\n      and\n      0xffffffffffffffffffffffffffffffffffffffff\n      and\n      dup2\n      mstore\n      0x20\n      add\n      swap1\n      dup2\n      mstore\n      0x20\n      add\n      0x00\n      keccak256\n        /* \"Contracts/EnsRegistry.sol\":506:534  operators[owner][msg.sender] */\n      0x00\n        /* \"Contracts/EnsRegistry.sol\":523:533  msg.sender */\n      caller\n        /* \"Contracts/EnsRegistry.sol\":506:534  operators[owner][msg.sender] */\n      0xffffffffffffffffffffffffffffffffffffffff\n      and\n      0xffffffffffffffffffffffffffffffffffffffff\n      and\n      dup2\n      mstore\n      0x20\n      add\n      swap1\n      dup2\n      mstore\n      0x20\n      add\n      0x00\n      keccak256\n      0x00\n      swap1\n      sload\n      swap1\n      0x0100\n      exp\n      swap1\n      div\n      0xff\n      and\n        /* \"Contracts/EnsRegistry.sol\":483:534  owner == msg.sender || operators[owner][msg.sender] */\n    tag_74:\n        /* \"Contracts/EnsRegistry.sol\":475:535  require(owner == msg.sender || operators[owner][msg.sender]) */\n      tag_75\n      jumpi\n      0x00\n      dup1\n      revert\n    tag_75:\n        /* \"Contracts/EnsRegistry.sol\":2662:2677  bytes32 subnode */\n      0x00\n        /* \"Contracts/EnsRegistry.sol\":2707:2711  node */\n      dup7\n        /* \"Contracts/EnsRegistry.sol\":2713:2718  label */\n      dup7\n        /* \"Contracts/EnsRegistry.sol\":2690:2719  abi.encodePacked(node, label) */\n      add(0x20, mload(0x40))\n      tag_77\n      swap3\n      swap2\n      swap1\n      tag_78\n      jump\t// in\n    tag_77:\n      mload(0x40)\n      0x20\n      dup2\n      dup4\n      sub\n      sub\n      dup2\n      mstore\n      swap1\n      0x40\n      mstore\n        /* \"Contracts/EnsRegistry.sol\":2680:2720  keccak256(abi.encodePacked(node, label)) */\n      dup1\n      mload\n      swap1\n      0x20\n      add\n      keccak256\n        /* \"Contracts/EnsRegistry.sol\":2662:2720  bytes32 subnode = keccak256(abi.encodePacked(node, label)) */\n      swap1\n      pop\n        /* \"Contracts/EnsRegistry.sol\":2730:2755  _setOwner(subnode, owner) */\n      tag_79\n        /* \"Contracts/EnsRegistry.sol\":2740:2747  subnode */\n      dup2\n        /* \"Contracts/EnsRegistry.sol\":2749:2754  owner */\n      dup7\n        /* \"Contracts/EnsRegistry.sol\":2730:2739  _setOwner */\n      tag_80\n        /* \"Contracts/EnsRegistry.sol\":2730:2755  _setOwner(subnode, owner) */\n      jump\t// in\n    tag_79:\n        /* \"Contracts/EnsRegistry.sol\":2785:2790  label */\n      dup6\n        /* \"Contracts/EnsRegistry.sol\":2779:2783  node */\n      dup8\n        /* \"Contracts/EnsRegistry.sol\":2770:2798  NewOwner(node, label, owner) */\n      0xce0457fe73731f824cc272376169235128c118b49d344817417c6d108d155e82\n        /* \"Contracts/EnsRegistry.sol\":2792:2797  owner */\n      dup8\n        /* \"Contracts/EnsRegistry.sol\":2770:2798  NewOwner(node, label, owner) */\n      mload(0x40)\n      tag_81\n      swap2\n      swap1\n      tag_21\n      jump\t// in\n    tag_81:\n      mload(0x40)\n      dup1\n      swap2\n      sub\n      swap1\n      log3\n        /* \"Contracts/EnsRegistry.sol\":2815:2822  subnode */\n      dup1\n        /* \"Contracts/EnsRegistry.sol\":2808:2822  return subnode */\n      swap4\n      pop\n      pop\n        /* \"Contracts/EnsRegistry.sol\":420:553  {... */\n      pop\n        /* \"Contracts/EnsRegistry.sol\":2494:2829  function setSubnodeOwner(... */\n      pop\n      swap4\n      swap3\n      pop\n      pop\n      pop\n      jump\t// out\n        /* \"Contracts/EnsRegistry.sol\":3360:3537  function setTTL(... */\n    tag_35:\n        /* \"Contracts/EnsRegistry.sol\":3459:3463  node */\n      dup2\n        /* \"Contracts/EnsRegistry.sol\":430:443  address owner */\n      0x00\n        /* \"Contracts/EnsRegistry.sol\":446:453  records */\n      dup1\n        /* \"Contracts/EnsRegistry.sol\":446:459  records[node] */\n      0x00\n        /* \"Contracts/EnsRegistry.sol\":454:458  node */\n      dup4\n        /* \"Contracts/EnsRegistry.sol\":446:459  records[node] */\n      dup2\n      mstore\n      0x20\n      add\n      swap1\n      dup2\n      mstore\n      0x20\n      add\n      0x00\n      keccak256\n        /* \"Contracts/EnsRegistry.sol\":446:465  records[node].owner */\n      0x00\n      add\n      0x00\n      swap1\n      sload\n      swap1\n      0x0100\n      exp\n      swap1\n      div\n      0xffffffffffffffffffffffffffffffffffffffff\n      and\n        /* \"Contracts/EnsRegistry.sol\":430:465  address owner = records[node].owner */\n      swap1\n      pop\n        /* \"Contracts/EnsRegistry.sol\":492:502  msg.sender */\n      caller\n        /* \"Contracts/EnsRegistry.sol\":483:502  owner == msg.sender */\n      0xffffffffffffffffffffffffffffffffffffffff\n      and\n        /* \"Contracts/EnsRegistry.sol\":483:488  owner */\n      dup2\n        /* \"Contracts/EnsRegistry.sol\":483:502  owner == msg.sender */\n      0xffffffffffffffffffffffffffffffffffffffff\n      and\n      eq\n        /* \"Contracts/EnsRegistry.sol\":483:534  owner == msg.sender || operators[owner][msg.sender] */\n      dup1\n      tag_83\n      jumpi\n      pop\n        /* \"Contracts/EnsRegistry.sol\":506:515  operators */\n      0x01\n        /* \"Contracts/EnsRegistry.sol\":506:522  operators[owner] */\n      0x00\n        /* \"Contracts/EnsRegistry.sol\":516:521  owner */\n      dup3\n        /* \"Contracts/EnsRegistry.sol\":506:522  operators[owner] */\n      0xffffffffffffffffffffffffffffffffffffffff\n      and\n      0xffffffffffffffffffffffffffffffffffffffff\n      and\n      dup2\n      mstore\n      0x20\n      add\n      swap1\n      dup2\n      mstore\n      0x20\n      add\n      0x00\n      keccak256\n        /* \"Contracts/EnsRegistry.sol\":506:534  operators[owner][msg.sender] */\n      0x00\n        /* \"Contracts/EnsRegistry.sol\":523:533  msg.sender */\n      caller\n        /* \"Contracts/EnsRegistry.sol\":506:534  operators[owner][msg.sender] */\n      0xffffffffffffffffffffffffffffffffffffffff\n      and\n      0xffffffffffffffffffffffffffffffffffffffff\n      and\n      dup2\n      mstore\n      0x20\n      add\n      swap1\n      dup2\n      mstore\n      0x20\n      add\n      0x00\n      keccak256\n      0x00\n      swap1\n      sload\n      swap1\n      0x0100\n      exp\n      swap1\n      div\n      0xff\n      and\n        /* \"Contracts/EnsRegistry.sol\":483:534  owner == msg.sender || operators[owner][msg.sender] */\n    tag_83:\n        /* \"Contracts/EnsRegistry.sol\":475:535  require(owner == msg.sender || operators[owner][msg.sender]) */\n      tag_84\n      jumpi\n      0x00\n      dup1\n      revert\n    tag_84:\n        /* \"Contracts/EnsRegistry.sol\":3487:3491  node */\n      dup4\n        /* \"Contracts/EnsRegistry.sol\":3480:3497  NewTTL(node, ttl) */\n      0x1d4f9bbfc9cab89d66e1a1562f2233ccbf1308cb4f63de2ead5787adddb8fa68\n        /* \"Contracts/EnsRegistry.sol\":3493:3496  ttl */\n      dup5\n        /* \"Contracts/EnsRegistry.sol\":3480:3497  NewTTL(node, ttl) */\n      mload(0x40)\n      tag_86\n      swap2\n      swap1\n      tag_40\n      jump\t// in\n    tag_86:\n      mload(0x40)\n      dup1\n      swap2\n      sub\n      swap1\n      log2\n        /* \"Contracts/EnsRegistry.sol\":3527:3530  ttl */\n      dup3\n        /* \"Contracts/EnsRegistry.sol\":3507:3514  records */\n      0x00\n        /* \"Contracts/EnsRegistry.sol\":3507:3520  records[node] */\n      dup1\n        /* \"Contracts/EnsRegistry.sol\":3515:3519  node */\n      dup7\n        /* \"Contracts/EnsRegistry.sol\":3507:3520  records[node] */\n      dup2\n      mstore\n      0x20\n      add\n      swap1\n      dup2\n      mstore\n      0x20\n      add\n      0x00\n      keccak256\n        /* \"Contracts/EnsRegistry.sol\":3507:3524  records[node].ttl */\n      0x01\n      add\n      0x14\n        /* \"Contracts/EnsRegistry.sol\":3507:3530  records[node].ttl = ttl */\n      0x0100\n      exp\n      dup2\n      sload\n      dup2\n      0xffffffffffffffff\n      mul\n      not\n      and\n      swap1\n      dup4\n      0xffffffffffffffff\n      and\n      mul\n      or\n      swap1\n      sstore\n      pop\n        /* \"Contracts/EnsRegistry.sol\":420:553  {... */\n      pop\n        /* \"Contracts/EnsRegistry.sol\":3360:3537  function setTTL(... */\n      pop\n      pop\n      pop\n      jump\t// out\n        /* \"Contracts/EnsRegistry.sol\":4982:5096  function ttl(bytes32 node) public view virtual override returns (uint64) {... */\n    tag_38:\n        /* \"Contracts/EnsRegistry.sol\":5047:5053  uint64 */\n      0x00\n        /* \"Contracts/EnsRegistry.sol\":5072:5079  records */\n      dup1\n        /* \"Contracts/EnsRegistry.sol\":5072:5085  records[node] */\n      0x00\n        /* \"Contracts/EnsRegistry.sol\":5080:5084  node */\n      dup4\n        /* \"Contracts/EnsRegistry.sol\":5072:5085  records[node] */\n      dup2\n      mstore\n      0x20\n      add\n      swap1\n      dup2\n      mstore\n      0x20\n      add\n      0x00\n      keccak256\n        /* \"Contracts/EnsRegistry.sol\":5072:5089  records[node].ttl */\n      0x01\n      add\n      0x14\n      swap1\n      sload\n      swap1\n      0x0100\n      exp\n      swap1\n      div\n      0xffffffffffffffff\n      and\n        /* \"Contracts/EnsRegistry.sol\":5065:5089  return records[node].ttl */\n      swap1\n      pop\n        /* \"Contracts/EnsRegistry.sol\":4982:5096  function ttl(bytes32 node) public view virtual override returns (uint64) {... */\n      swap2\n      swap1\n      pop\n      jump\t// out\n        /* \"Contracts/EnsRegistry.sol\":3004:3212  function setResolver(... */\n    tag_44:\n        /* \"Contracts/EnsRegistry.sol\":3114:3118  node */\n      dup2\n        /* \"Contracts/EnsRegistry.sol\":430:443  address owner */\n      0x00\n        /* \"Contracts/EnsRegistry.sol\":446:453  records */\n      dup1\n        /* \"Contracts/EnsRegistry.sol\":446:459  records[node] */\n      0x00\n        /* \"Contracts/EnsRegistry.sol\":454:458  node */\n      dup4\n        /* \"Contracts/EnsRegistry.sol\":446:459  records[node] */\n      dup2\n      mstore\n      0x20\n      add\n      swap1\n      dup2\n      mstore\n      0x20\n      add\n      0x00\n      keccak256\n        /* \"Contracts/EnsRegistry.sol\":446:465  records[node].owner */\n      0x00\n      add\n      0x00\n      swap1\n      sload\n      swap1\n      0x0100\n      exp\n      swap1\n      div\n      0xffffffffffffffffffffffffffffffffffffffff\n      and\n        /* \"Contracts/EnsRegistry.sol\":430:465  address owner = records[node].owner */\n      swap1\n      pop\n        /* \"Contracts/EnsRegistry.sol\":492:502  msg.sender */\n      caller\n        /* \"Contracts/EnsRegistry.sol\":483:502  owner == msg.sender */\n      0xffffffffffffffffffffffffffffffffffffffff\n      and\n        /* \"Contracts/EnsRegistry.sol\":483:488  owner */\n      dup2\n        /* \"Contracts/EnsRegistry.sol\":483:502  owner == msg.sender */\n      0xffffffffffffffffffffffffffffffffffffffff\n      and\n      eq\n        /* \"Contracts/EnsRegistry.sol\":483:534  owner == msg.sender || operators[owner][msg.sender] */\n      dup1\n      tag_89\n      jumpi\n      pop\n        /* \"Contracts/EnsRegistry.sol\":506:515  operators */\n      0x01\n        /* \"Contracts/EnsRegistry.sol\":506:522  operators[owner] */\n      0x00\n        /* \"Contracts/EnsRegistry.sol\":516:521  owner */\n      dup3\n        /* \"Contracts/EnsRegistry.sol\":506:522  operators[owner] */\n      0xffffffffffffffffffffffffffffffffffffffff\n      and\n      0xffffffffffffffffffffffffffffffffffffffff\n      and\n      dup2\n      mstore\n      0x20\n      add\n      swap1\n      dup2\n      mstore\n      0x20\n      add\n      0x00\n      keccak256\n        /* \"Contracts/EnsRegistry.sol\":506:534  operators[owner][msg.sender] */\n      0x00\n        /* \"Contracts/EnsRegistry.sol\":523:533  msg.sender */\n      caller\n        /* \"Contracts/EnsRegistry.sol\":506:534  operators[owner][msg.sender] */\n      0xffffffffffffffffffffffffffffffffffffffff\n      and\n      0xffffffffffffffffffffffffffffffffffffffff\n      and\n      dup2\n      mstore\n      0x20\n      add\n      swap1\n      dup2\n      mstore\n      0x20\n      add\n      0x00\n      keccak256\n      0x00\n      swap1\n      sload\n      swap1\n      0x0100\n      exp\n      swap1\n      div\n      0xff\n      and\n        /* \"Contracts/EnsRegistry.sol\":483:534  owner == msg.sender || operators[owner][msg.sender] */\n    tag_89:\n        /* \"Contracts/EnsRegistry.sol\":475:535  require(owner == msg.sender || operators[owner][msg.sender]) */\n      tag_90\n      jumpi\n      0x00\n      dup1\n      revert\n    tag_90:\n        /* \"Contracts/EnsRegistry.sol\":3147:3151  node */\n      dup4\n        /* \"Contracts/EnsRegistry.sol\":3135:3162  NewResolver(node, resolver) */\n      0x335721b01866dc23fbee8b6b2c7b1e14d6f05c28cd35a2c934239f94095602a0\n        /* \"Contracts/EnsRegistry.sol\":3153:3161  resolver */\n      dup5\n        /* \"Contracts/EnsRegistry.sol\":3135:3162  NewResolver(node, resolver) */\n      mload(0x40)\n      tag_92\n      swap2\n      swap1\n      tag_21\n      jump\t// in\n    tag_92:\n      mload(0x40)\n      dup1\n      swap2\n      sub\n      swap1\n      log2\n        /* \"Contracts/EnsRegistry.sol\":3197:3205  resolver */\n      dup3\n        /* \"Contracts/EnsRegistry.sol\":3172:3179  records */\n      0x00\n        /* \"Contracts/EnsRegistry.sol\":3172:3185  records[node] */\n      dup1\n        /* \"Contracts/EnsRegistry.sol\":3180:3184  node */\n      dup7\n        /* \"Contracts/EnsRegistry.sol\":3172:3185  records[node] */\n      dup2\n      mstore\n      0x20\n      add\n      swap1\n      dup2\n      mstore\n      0x20\n      add\n      0x00\n      keccak256\n        /* \"Contracts/EnsRegistry.sol\":3172:3194  records[node].resolver */\n      0x01\n      add\n      0x00\n        /* \"Contracts/EnsRegistry.sol\":3172:3205  records[node].resolver = resolver */\n      0x0100\n      exp\n      dup2\n      sload\n      dup2\n      0xffffffffffffffffffffffffffffffffffffffff\n      mul\n      not\n      and\n      swap1\n      dup4\n      0xffffffffffffffffffffffffffffffffffffffff\n      and\n      mul\n      or\n      swap1\n      sstore\n      pop\n        /* \"Contracts/EnsRegistry.sol\":420:553  {... */\n      pop\n        /* \"Contracts/EnsRegistry.sol\":3004:3212  function setResolver(... */\n      pop\n      pop\n      pop\n      jump\t// out\n        /* \"Contracts/EnsRegistry.sol\":1997:2182  function setOwner(... */\n    tag_47:\n        /* \"Contracts/EnsRegistry.sol\":2101:2105  node */\n      dup2\n        /* \"Contracts/EnsRegistry.sol\":430:443  address owner */\n      0x00\n        /* \"Contracts/EnsRegistry.sol\":446:453  records */\n      dup1\n        /* \"Contracts/EnsRegistry.sol\":446:459  records[node] */\n      0x00\n        /* \"Contracts/EnsRegistry.sol\":454:458  node */\n      dup4\n        /* \"Contracts/EnsRegistry.sol\":446:459  records[node] */\n      dup2\n      mstore\n      0x20\n      add\n      swap1\n      dup2\n      mstore\n      0x20\n      add\n      0x00\n      keccak256\n        /* \"Contracts/EnsRegistry.sol\":446:465  records[node].owner */\n      0x00\n      add\n      0x00\n      swap1\n      sload\n      swap1\n      0x0100\n      exp\n      swap1\n      div\n      0xffffffffffffffffffffffffffffffffffffffff\n      and\n        /* \"Contracts/EnsRegistry.sol\":430:465  address owner = records[node].owner */\n      swap1\n      pop\n        /* \"Contracts/EnsRegistry.sol\":492:502  msg.sender */\n      caller\n        /* \"Contracts/EnsRegistry.sol\":483:502  owner == msg.sender */\n      0xffffffffffffffffffffffffffffffffffffffff\n      and\n        /* \"Contracts/EnsRegistry.sol\":483:488  owner */\n      dup2\n        /* \"Contracts/EnsRegistry.sol\":483:502  owner == msg.sender */\n      0xffffffffffffffffffffffffffffffffffffffff\n      and\n      eq\n        /* \"Contracts/EnsRegistry.sol\":483:534  owner == msg.sender || operators[owner][msg.sender] */\n      dup1\n      tag_94\n      jumpi\n      pop\n        /* \"Contracts/EnsRegistry.sol\":506:515  operators */\n      0x01\n        /* \"Contracts/EnsRegistry.sol\":506:522  operators[owner] */\n      0x00\n        /* \"Contracts/EnsRegistry.sol\":516:521  owner */\n      dup3\n        /* \"Contracts/EnsRegistry.sol\":506:522  operators[owner] */\n      0xffffffffffffffffffffffffffffffffffffffff\n      and\n      0xffffffffffffffffffffffffffffffffffffffff\n      and\n      dup2\n      mstore\n      0x20\n      add\n      swap1\n      dup2\n      mstore\n      0x20\n      add\n      0x00\n      keccak256\n        /* \"Contracts/EnsRegistry.sol\":506:534  operators[owner][msg.sender] */\n      0x00\n        /* \"Contracts/EnsRegistry.sol\":523:533  msg.sender */\n      caller\n        /* \"Contracts/EnsRegistry.sol\":506:534  operators[owner][msg.sender] */\n      0xffffffffffffffffffffffffffffffffffffffff\n      and\n      0xffffffffffffffffffffffffffffffffffffffff\n      and\n      dup2\n      mstore\n      0x20\n      add\n      swap1\n      dup2\n      mstore\n      0x20\n      add\n      0x00\n      keccak256\n      0x00\n      swap1\n      sload\n      swap1\n      0x0100\n      exp\n      swap1\n      div\n      0xff\n      and\n        /* \"Contracts/EnsRegistry.sol\":483:534  owner == msg.sender || operators[owner][msg.sender] */\n    tag_94:\n        /* \"Contracts/EnsRegistry.sol\":475:535  require(owner == msg.sender || operators[owner][msg.sender]) */\n      tag_95\n      jumpi\n      0x00\n      dup1\n      revert\n    tag_95:\n        /* \"Contracts/EnsRegistry.sol\":2117:2139  _setOwner(node, owner) */\n      tag_97\n        /* \"Contracts/EnsRegistry.sol\":2127:2131  node */\n      dup5\n        /* \"Contracts/EnsRegistry.sol\":2133:2138  owner */\n      dup5\n        /* \"Contracts/EnsRegistry.sol\":2117:2126  _setOwner */\n      tag_80\n        /* \"Contracts/EnsRegistry.sol\":2117:2139  _setOwner(node, owner) */\n      jump\t// in\n    tag_97:\n        /* \"Contracts/EnsRegistry.sol\":2163:2167  node */\n      dup4\n        /* \"Contracts/EnsRegistry.sol\":2154:2175  Transfer(node, owner) */\n      0xd4735d920b0f87494915f556dd9b54c8f309026070caea5c737245152564d266\n        /* \"Contracts/EnsRegistry.sol\":2169:2174  owner */\n      dup5\n        /* \"Contracts/EnsRegistry.sol\":2154:2175  Transfer(node, owner) */\n      mload(0x40)\n      tag_98\n      swap2\n      swap1\n      tag_21\n      jump\t// in\n    tag_98:\n      mload(0x40)\n      dup1\n      swap2\n      sub\n      swap1\n      log2\n        /* \"Contracts/EnsRegistry.sol\":420:553  {... */\n      pop\n        /* \"Contracts/EnsRegistry.sol\":1997:2182  function setOwner(... */\n      pop\n      pop\n      pop\n      jump\t// out\n        /* \"Contracts/EnsRegistry.sol\":1464:1758  function setSubnodeRecord(... */\n    tag_51:\n        /* \"Contracts/EnsRegistry.sol\":1646:1661  bytes32 subnode */\n      0x00\n        /* \"Contracts/EnsRegistry.sol\":1664:1699  setSubnodeOwner(node, label, owner) */\n      tag_100\n        /* \"Contracts/EnsRegistry.sol\":1680:1684  node */\n      dup7\n        /* \"Contracts/EnsRegistry.sol\":1686:1691  label */\n      dup7\n        /* \"Contracts/EnsRegistry.sol\":1693:1698  owner */\n      dup7\n        /* \"Contracts/EnsRegistry.sol\":1664:1679  setSubnodeOwner */\n      tag_29\n        /* \"Contracts/EnsRegistry.sol\":1664:1699  setSubnodeOwner(node, label, owner) */\n      jump\t// in\n    tag_100:\n        /* \"Contracts/EnsRegistry.sol\":1646:1699  bytes32 subnode = setSubnodeOwner(node, label, owner) */\n      swap1\n      pop\n        /* \"Contracts/EnsRegistry.sol\":1709:1751  _setResolverAndTTL(subnode, resolver, ttl) */\n      tag_101\n        /* \"Contracts/EnsRegistry.sol\":1728:1735  subnode */\n      dup2\n        /* \"Contracts/EnsRegistry.sol\":1737:1745  resolver */\n      dup5\n        /* \"Contracts/EnsRegistry.sol\":1747:1750  ttl */\n      dup5\n        /* \"Contracts/EnsRegistry.sol\":1709:1727  _setResolverAndTTL */\n      tag_102\n        /* \"Contracts/EnsRegistry.sol\":1709:1751  _setResolverAndTTL(subnode, resolver, ttl) */\n      jump\t// in\n    tag_101:\n        /* \"Contracts/EnsRegistry.sol\":1636:1758  {... */\n      pop\n        /* \"Contracts/EnsRegistry.sol\":1464:1758  function setSubnodeRecord(... */\n      pop\n      pop\n      pop\n      pop\n      pop\n      jump\t// out\n        /* \"Contracts/EnsRegistry.sol\":3871:4099  function setApprovalForAll(... */\n    tag_55:\n        /* \"Contracts/EnsRegistry.sol\":4023:4031  approved */\n      dup1\n        /* \"Contracts/EnsRegistry.sol\":3989:3998  operators */\n      0x01\n        /* \"Contracts/EnsRegistry.sol\":3989:4010  operators[msg.sender] */\n      0x00\n        /* \"Contracts/EnsRegistry.sol\":3999:4009  msg.sender */\n      caller\n        /* \"Contracts/EnsRegistry.sol\":3989:4010  operators[msg.sender] */\n      0xffffffffffffffffffffffffffffffffffffffff\n      and\n      0xffffffffffffffffffffffffffffffffffffffff\n      and\n      dup2\n      mstore\n      0x20\n      add\n      swap1\n      dup2\n      mstore\n      0x20\n      add\n      0x00\n      keccak256\n        /* \"Contracts/EnsRegistry.sol\":3989:4020  operators[msg.sender][operator] */\n      0x00\n        /* \"Contracts/EnsRegistry.sol\":4011:4019  operator */\n      dup5\n        /* \"Contracts/EnsRegistry.sol\":3989:4020  operators[msg.sender][operator] */\n      0xffffffffffffffffffffffffffffffffffffffff\n      and\n      0xffffffffffffffffffffffffffffffffffffffff\n      and\n      dup2\n      mstore\n      0x20\n      add\n      swap1\n      dup2\n      mstore\n      0x20\n      add\n      0x00\n      keccak256\n      0x00\n        /* \"Contracts/EnsRegistry.sol\":3989:4031  operators[msg.sender][operator] = approved */\n      0x0100\n      exp\n      dup2\n      sload\n      dup2\n      0xff\n      mul\n      not\n      and\n      swap1\n      dup4\n      iszero\n      iszero\n      mul\n      or\n      swap1\n      sstore\n      pop\n        /* \"Contracts/EnsRegistry.sol\":4073:4081  operator */\n      dup2\n        /* \"Contracts/EnsRegistry.sol\":4046:4092  ApprovalForAll(msg.sender, operator, approved) */\n      0xffffffffffffffffffffffffffffffffffffffff\n      and\n        /* \"Contracts/EnsRegistry.sol\":4061:4071  msg.sender */\n      caller\n        /* \"Contracts/EnsRegistry.sol\":4046:4092  ApprovalForAll(msg.sender, operator, approved) */\n      0xffffffffffffffffffffffffffffffffffffffff\n      and\n      0x17307eab39ab6107e8899845ad3d59bd9653f200f220920489ca2b5937696c31\n        /* \"Contracts/EnsRegistry.sol\":4083:4091  approved */\n      dup4\n        /* \"Contracts/EnsRegistry.sol\":4046:4092  ApprovalForAll(msg.sender, operator, approved) */\n      mload(0x40)\n      tag_104\n      swap2\n      swap1\n      tag_65\n      jump\t// in\n    tag_104:\n      mload(0x40)\n      dup1\n      swap2\n      sub\n      swap1\n      log3\n        /* \"Contracts/EnsRegistry.sol\":3871:4099  function setApprovalForAll(... */\n      pop\n      pop\n      jump\t// out\n        /* \"Contracts/EnsRegistry.sol\":928:1157  function setRecord(... */\n    tag_59:\n        /* \"Contracts/EnsRegistry.sol\":1080:1101  setOwner(node, owner) */\n      tag_106\n        /* \"Contracts/EnsRegistry.sol\":1089:1093  node */\n      dup5\n        /* \"Contracts/EnsRegistry.sol\":1095:1100  owner */\n      dup5\n        /* \"Contracts/EnsRegistry.sol\":1080:1088  setOwner */\n      tag_47\n        /* \"Contracts/EnsRegistry.sol\":1080:1101  setOwner(node, owner) */\n      jump\t// in\n    tag_106:\n        /* \"Contracts/EnsRegistry.sol\":1111:1150  _setResolverAndTTL(node, resolver, ttl) */\n      tag_107\n        /* \"Contracts/EnsRegistry.sol\":1130:1134  node */\n      dup5\n        /* \"Contracts/EnsRegistry.sol\":1136:1144  resolver */\n      dup4\n        /* \"Contracts/EnsRegistry.sol\":1146:1149  ttl */\n      dup4\n        /* \"Contracts/EnsRegistry.sol\":1111:1129  _setResolverAndTTL */\n      tag_102\n        /* \"Contracts/EnsRegistry.sol\":1111:1150  _setResolverAndTTL(node, resolver, ttl) */\n      jump\t// in\n    tag_107:\n        /* \"Contracts/EnsRegistry.sol\":928:1157  function setRecord(... */\n      pop\n      pop\n      pop\n      pop\n      jump\t// out\n        /* \"Contracts/EnsRegistry.sol\":5733:5910  function isApprovedForAll(... */\n    tag_63:\n        /* \"Contracts/EnsRegistry.sol\":5854:5858  bool */\n      0x00\n        /* \"Contracts/EnsRegistry.sol\":5877:5886  operators */\n      0x01\n        /* \"Contracts/EnsRegistry.sol\":5877:5893  operators[owner] */\n      0x00\n        /* \"Contracts/EnsRegistry.sol\":5887:5892  owner */\n      dup5\n        /* \"Contracts/EnsRegistry.sol\":5877:5893  operators[owner] */\n      0xffffffffffffffffffffffffffffffffffffffff\n      and\n      0xffffffffffffffffffffffffffffffffffffffff\n      and\n      dup2\n      mstore\n      0x20\n      add\n      swap1\n      dup2\n      mstore\n      0x20\n      add\n      0x00\n      keccak256\n        /* \"Contracts/EnsRegistry.sol\":5877:5903  operators[owner][operator] */\n      0x00\n        /* \"Contracts/EnsRegistry.sol\":5894:5902  operator */\n      dup4\n        /* \"Contracts/EnsRegistry.sol\":5877:5903  operators[owner][operator] */\n      0xffffffffffffffffffffffffffffffffffffffff\n      and\n      0xffffffffffffffffffffffffffffffffffffffff\n      and\n      dup2\n      mstore\n      0x20\n      add\n      swap1\n      dup2\n      mstore\n      0x20\n      add\n      0x00\n      keccak256\n      0x00\n      swap1\n      sload\n      swap1\n      0x0100\n      exp\n      swap1\n      div\n      0xff\n      and\n        /* \"Contracts/EnsRegistry.sol\":5870:5903  return operators[owner][operator] */\n      swap1\n      pop\n        /* \"Contracts/EnsRegistry.sol\":5733:5910  function isApprovedForAll(... */\n      swap3\n      swap2\n      pop\n      pop\n      jump\t// out\n        /* \"Contracts/EnsRegistry.sol\":5266:5419  function recordExists(... */\n    tag_68:\n        /* \"Contracts/EnsRegistry.sol\":5354:5358  bool */\n      0x00\n        /* \"Contracts/EnsRegistry.sol\":5408:5411  0x0 */\n      dup1\n        /* \"Contracts/EnsRegistry.sol\":5377:5412  records[node].owner != address(0x0) */\n      0xffffffffffffffffffffffffffffffffffffffff\n      and\n        /* \"Contracts/EnsRegistry.sol\":5377:5384  records */\n      0x00\n        /* \"Contracts/EnsRegistry.sol\":5377:5390  records[node] */\n      dup1\n        /* \"Contracts/EnsRegistry.sol\":5385:5389  node */\n      dup5\n        /* \"Contracts/EnsRegistry.sol\":5377:5390  records[node] */\n      dup2\n      mstore\n      0x20\n      add\n      swap1\n      dup2\n      mstore\n      0x20\n      add\n      0x00\n      keccak256\n        /* \"Contracts/EnsRegistry.sol\":5377:5396  records[node].owner */\n      0x00\n      add\n      0x00\n      swap1\n      sload\n      swap1\n      0x0100\n      exp\n      swap1\n      div\n      0xffffffffffffffffffffffffffffffffffffffff\n      and\n        /* \"Contracts/EnsRegistry.sol\":5377:5412  records[node].owner != address(0x0) */\n      0xffffffffffffffffffffffffffffffffffffffff\n      and\n      eq\n      iszero\n        /* \"Contracts/EnsRegistry.sol\":5370:5412  return records[node].owner != address(0x0) */\n      swap1\n      pop\n        /* \"Contracts/EnsRegistry.sol\":5266:5419  function recordExists(... */\n      swap2\n      swap1\n      pop\n      jump\t// out\n        /* \"Contracts/EnsRegistry.sol\":5916:6025  function _setOwner(bytes32 node, address owner) internal virtual {... */\n    tag_80:\n        /* \"Contracts/EnsRegistry.sol\":6013:6018  owner */\n      dup1\n        /* \"Contracts/EnsRegistry.sol\":5991:5998  records */\n      0x00\n        /* \"Contracts/EnsRegistry.sol\":5991:6004  records[node] */\n      dup1\n        /* \"Contracts/EnsRegistry.sol\":5999:6003  node */\n      dup5\n        /* \"Contracts/EnsRegistry.sol\":5991:6004  records[node] */\n      dup2\n      mstore\n      0x20\n      add\n      swap1\n      dup2\n      mstore\n      0x20\n      add\n      0x00\n      keccak256\n        /* \"Contracts/EnsRegistry.sol\":5991:6010  records[node].owner */\n      0x00\n      add\n      0x00\n        /* \"Contracts/EnsRegistry.sol\":5991:6018  records[node].owner = owner */\n      0x0100\n      exp\n      dup2\n      sload\n      dup2\n      0xffffffffffffffffffffffffffffffffffffffff\n      mul\n      not\n      and\n      swap1\n      dup4\n      0xffffffffffffffffffffffffffffffffffffffff\n      and\n      mul\n      or\n      swap1\n      sstore\n      pop\n        /* \"Contracts/EnsRegistry.sol\":5916:6025  function _setOwner(bytes32 node, address owner) internal virtual {... */\n      pop\n      pop\n      jump\t// out\n        /* \"Contracts/EnsRegistry.sol\":6031:6426  function _setResolverAndTTL(... */\n    tag_102:\n        /* \"Contracts/EnsRegistry.sol\":6168:6175  records */\n      0x00\n        /* \"Contracts/EnsRegistry.sol\":6168:6181  records[node] */\n      dup1\n        /* \"Contracts/EnsRegistry.sol\":6176:6180  node */\n      dup5\n        /* \"Contracts/EnsRegistry.sol\":6168:6181  records[node] */\n      dup2\n      mstore\n      0x20\n      add\n      swap1\n      dup2\n      mstore\n      0x20\n      add\n      0x00\n      keccak256\n        /* \"Contracts/EnsRegistry.sol\":6168:6190  records[node].resolver */\n      0x01\n      add\n      0x00\n      swap1\n      sload\n      swap1\n      0x0100\n      exp\n      swap1\n      div\n      0xffffffffffffffffffffffffffffffffffffffff\n      and\n        /* \"Contracts/EnsRegistry.sol\":6156:6190  resolver != records[node].resolver */\n      0xffffffffffffffffffffffffffffffffffffffff\n      and\n        /* \"Contracts/EnsRegistry.sol\":6156:6164  resolver */\n      dup3\n        /* \"Contracts/EnsRegistry.sol\":6156:6190  resolver != records[node].resolver */\n      0xffffffffffffffffffffffffffffffffffffffff\n      and\n      eq\n        /* \"Contracts/EnsRegistry.sol\":6152:6296  if (resolver != records[node].resolver) {... */\n      tag_112\n      jumpi\n        /* \"Contracts/EnsRegistry.sol\":6231:6239  resolver */\n      dup2\n        /* \"Contracts/EnsRegistry.sol\":6206:6213  records */\n      0x00\n        /* \"Contracts/EnsRegistry.sol\":6206:6219  records[node] */\n      dup1\n        /* \"Contracts/EnsRegistry.sol\":6214:6218  node */\n      dup6\n        /* \"Contracts/EnsRegistry.sol\":6206:6219  records[node] */\n      dup2\n      mstore\n      0x20\n      add\n      swap1\n      dup2\n      mstore\n      0x20\n      add\n      0x00\n      keccak256\n        /* \"Contracts/EnsRegistry.sol\":6206:6228  records[node].resolver */\n      0x01\n      add\n      0x00\n        /* \"Contracts/EnsRegistry.sol\":6206:6239  records[node].resolver = resolver */\n      0x0100\n      exp\n      dup2\n      sload\n      dup2\n      0xffffffffffffffffffffffffffffffffffffffff\n      mul\n      not\n      and\n      swap1\n      dup4\n      0xffffffffffffffffffffffffffffffffffffffff\n      and\n      mul\n      or\n      swap1\n      sstore\n      pop\n        /* \"Contracts/EnsRegistry.sol\":6270:6274  node */\n      dup3\n        /* \"Contracts/EnsRegistry.sol\":6258:6285  NewResolver(node, resolver) */\n      0x335721b01866dc23fbee8b6b2c7b1e14d6f05c28cd35a2c934239f94095602a0\n        /* \"Contracts/EnsRegistry.sol\":6276:6284  resolver */\n      dup4\n        /* \"Contracts/EnsRegistry.sol\":6258:6285  NewResolver(node, resolver) */\n      mload(0x40)\n      tag_113\n      swap2\n      swap1\n      tag_21\n      jump\t// in\n    tag_113:\n      mload(0x40)\n      dup1\n      swap2\n      sub\n      swap1\n      log2\n        /* \"Contracts/EnsRegistry.sol\":6152:6296  if (resolver != records[node].resolver) {... */\n    tag_112:\n        /* \"Contracts/EnsRegistry.sol\":6317:6324  records */\n      0x00\n        /* \"Contracts/EnsRegistry.sol\":6317:6330  records[node] */\n      dup1\n        /* \"Contracts/EnsRegistry.sol\":6325:6329  node */\n      dup5\n        /* \"Contracts/EnsRegistry.sol\":6317:6330  records[node] */\n      dup2\n      mstore\n      0x20\n      add\n      swap1\n      dup2\n      mstore\n      0x20\n      add\n      0x00\n      keccak256\n        /* \"Contracts/EnsRegistry.sol\":6317:6334  records[node].ttl */\n      0x01\n      add\n      0x14\n      swap1\n      sload\n      swap1\n      0x0100\n      exp\n      swap1\n      div\n      0xffffffffffffffff\n      and\n        /* \"Contracts/EnsRegistry.sol\":6310:6334  ttl != records[node].ttl */\n      0xffffffffffffffff\n      and\n        /* \"Contracts/EnsRegistry.sol\":6310:6313  ttl */\n      dup2\n        /* \"Contracts/EnsRegistry.sol\":6310:6334  ttl != records[node].ttl */\n      0xffffffffffffffff\n      and\n      eq\n        /* \"Contracts/EnsRegistry.sol\":6306:6420  if (ttl != records[node].ttl) {... */\n      tag_114\n      jumpi\n        /* \"Contracts/EnsRegistry.sol\":6370:6373  ttl */\n      dup1\n        /* \"Contracts/EnsRegistry.sol\":6350:6357  records */\n      0x00\n        /* \"Contracts/EnsRegistry.sol\":6350:6363  records[node] */\n      dup1\n        /* \"Contracts/EnsRegistry.sol\":6358:6362  node */\n      dup6\n        /* \"Contracts/EnsRegistry.sol\":6350:6363  records[node] */\n      dup2\n      mstore\n      0x20\n      add\n      swap1\n      dup2\n      mstore\n      0x20\n      add\n      0x00\n      keccak256\n        /* \"Contracts/EnsRegistry.sol\":6350:6367  records[node].ttl */\n      0x01\n      add\n      0x14\n        /* \"Contracts/EnsRegistry.sol\":6350:6373  records[node].ttl = ttl */\n      0x0100\n      exp\n      dup2\n      sload\n      dup2\n      0xffffffffffffffff\n      mul\n      not\n      and\n      swap1\n      dup4\n      0xffffffffffffffff\n      and\n      mul\n      or\n      swap1\n      sstore\n      pop\n        /* \"Contracts/EnsRegistry.sol\":6399:6403  node */\n      dup3\n        /* \"Contracts/EnsRegistry.sol\":6392:6409  NewTTL(node, ttl) */\n      0x1d4f9bbfc9cab89d66e1a1562f2233ccbf1308cb4f63de2ead5787adddb8fa68\n        /* \"Contracts/EnsRegistry.sol\":6405:6408  ttl */\n      dup3\n        /* \"Contracts/EnsRegistry.sol\":6392:6409  NewTTL(node, ttl) */\n      mload(0x40)\n      tag_115\n      swap2\n      swap1\n      tag_40\n      jump\t// in\n    tag_115:\n      mload(0x40)\n      dup1\n      swap2\n      sub\n      swap1\n      log2\n        /* \"Contracts/EnsRegistry.sol\":6306:6420  if (ttl != records[node].ttl) {... */\n    tag_114:\n        /* \"Contracts/EnsRegistry.sol\":6031:6426  function _setResolverAndTTL(... */\n      pop\n      pop\n      pop\n      jump\t// out\n        /* \"#utility.yul\":88:205   */\n    tag_117:\n        /* \"#utility.yul\":197:198   */\n      0x00\n        /* \"#utility.yul\":194:195   */\n      dup1\n        /* \"#utility.yul\":187:199   */\n      revert\n        /* \"#utility.yul\":334:411   */\n    tag_119:\n        /* \"#utility.yul\":371:378   */\n      0x00\n        /* \"#utility.yul\":400:405   */\n      dup2\n        /* \"#utility.yul\":389:405   */\n      swap1\n      pop\n        /* \"#utility.yul\":334:411   */\n      swap2\n      swap1\n      pop\n      jump\t// out\n        /* \"#utility.yul\":417:539   */\n    tag_120:\n        /* \"#utility.yul\":490:514   */\n      tag_144\n        /* \"#utility.yul\":508:513   */\n      dup2\n        /* \"#utility.yul\":490:514   */\n      tag_119\n      jump\t// in\n    tag_144:\n        /* \"#utility.yul\":483:488   */\n      dup2\n        /* \"#utility.yul\":480:515   */\n      eq\n        /* \"#utility.yul\":470:533   */\n      tag_145\n      jumpi\n        /* \"#utility.yul\":529:530   */\n      0x00\n        /* \"#utility.yul\":526:527   */\n      dup1\n        /* \"#utility.yul\":519:531   */\n      revert\n        /* \"#utility.yul\":470:533   */\n    tag_145:\n        /* \"#utility.yul\":417:539   */\n      pop\n      jump\t// out\n        /* \"#utility.yul\":545:684   */\n    tag_121:\n        /* \"#utility.yul\":591:596   */\n      0x00\n        /* \"#utility.yul\":629:635   */\n      dup2\n        /* \"#utility.yul\":616:636   */\n      calldataload\n        /* \"#utility.yul\":607:636   */\n      swap1\n      pop\n        /* \"#utility.yul\":645:678   */\n      tag_147\n        /* \"#utility.yul\":672:677   */\n      dup2\n        /* \"#utility.yul\":645:678   */\n      tag_120\n      jump\t// in\n    tag_147:\n        /* \"#utility.yul\":545:684   */\n      swap3\n      swap2\n      pop\n      pop\n      jump\t// out\n        /* \"#utility.yul\":690:1019   */\n    tag_18:\n        /* \"#utility.yul\":749:755   */\n      0x00\n        /* \"#utility.yul\":798:800   */\n      0x20\n        /* \"#utility.yul\":786:795   */\n      dup3\n        /* \"#utility.yul\":777:784   */\n      dup5\n        /* \"#utility.yul\":773:796   */\n      sub\n        /* \"#utility.yul\":769:801   */\n      slt\n        /* \"#utility.yul\":766:885   */\n      iszero\n      tag_149\n      jumpi\n        /* \"#utility.yul\":804:883   */\n      tag_150\n      tag_117\n      jump\t// in\n    tag_150:\n        /* \"#utility.yul\":766:885   */\n    tag_149:\n        /* \"#utility.yul\":924:925   */\n      0x00\n        /* \"#utility.yul\":949:1002   */\n      tag_151\n        /* \"#utility.yul\":994:1001   */\n      dup5\n        /* \"#utility.yul\":985:991   */\n      dup3\n        /* \"#utility.yul\":974:983   */\n      dup6\n        /* \"#utility.yul\":970:992   */\n      add\n        /* \"#utility.yul\":949:1002   */\n      tag_121\n      jump\t// in\n    tag_151:\n        /* \"#utility.yul\":939:1002   */\n      swap2\n      pop\n        /* \"#utility.yul\":895:1012   */\n      pop\n        /* \"#utility.yul\":690:1019   */\n      swap3\n      swap2\n      pop\n      pop\n      jump\t// out\n        /* \"#utility.yul\":1025:1151   */\n    tag_122:\n        /* \"#utility.yul\":1062:1069   */\n      0x00\n        /* \"#utility.yul\":1102:1144   */\n      0xffffffffffffffffffffffffffffffffffffffff\n        /* \"#utility.yul\":1095:1100   */\n      dup3\n        /* \"#utility.yul\":1091:1145   */\n      and\n        /* \"#utility.yul\":1080:1145   */\n      swap1\n      pop\n        /* \"#utility.yul\":1025:1151   */\n      swap2\n      swap1\n      pop\n      jump\t// out\n        /* \"#utility.yul\":1157:1253   */\n    tag_123:\n        /* \"#utility.yul\":1194:1201   */\n      0x00\n        /* \"#utility.yul\":1223:1247   */\n      tag_154\n        /* \"#utility.yul\":1241:1246   */\n      dup3\n        /* \"#utility.yul\":1223:1247   */\n      tag_122\n      jump\t// in\n    tag_154:\n        /* \"#utility.yul\":1212:1247   */\n      swap1\n      pop\n        /* \"#utility.yul\":1157:1253   */\n      swap2\n      swap1\n      pop\n      jump\t// out\n        /* \"#utility.yul\":1259:1377   */\n    tag_124:\n        /* \"#utility.yul\":1346:1370   */\n      tag_156\n        /* \"#utility.yul\":1364:1369   */\n      dup2\n        /* \"#utility.yul\":1346:1370   */\n      tag_123\n      jump\t// in\n    tag_156:\n        /* \"#utility.yul\":1341:1344   */\n      dup3\n        /* \"#utility.yul\":1334:1371   */\n      mstore\n        /* \"#utility.yul\":1259:1377   */\n      pop\n      pop\n      jump\t// out\n        /* \"#utility.yul\":1383:1605   */\n    tag_21:\n        /* \"#utility.yul\":1476:1480   */\n      0x00\n        /* \"#utility.yul\":1514:1516   */\n      0x20\n        /* \"#utility.yul\":1503:1512   */\n      dup3\n        /* \"#utility.yul\":1499:1517   */\n      add\n        /* \"#utility.yul\":1491:1517   */\n      swap1\n      pop\n        /* \"#utility.yul\":1527:1598   */\n      tag_158\n        /* \"#utility.yul\":1595:1596   */\n      0x00\n        /* \"#utility.yul\":1584:1593   */\n      dup4\n        /* \"#utility.yul\":1580:1597   */\n      add\n        /* \"#utility.yul\":1571:1577   */\n      dup5\n        /* \"#utility.yul\":1527:1598   */\n      tag_124\n      jump\t// in\n    tag_158:\n        /* \"#utility.yul\":1383:1605   */\n      swap3\n      swap2\n      pop\n      pop\n      jump\t// out\n        /* \"#utility.yul\":1611:1733   */\n    tag_125:\n        /* \"#utility.yul\":1684:1708   */\n      tag_160\n        /* \"#utility.yul\":1702:1707   */\n      dup2\n        /* \"#utility.yul\":1684:1708   */\n      tag_123\n      jump\t// in\n    tag_160:\n        /* \"#utility.yul\":1677:1682   */\n      dup2\n        /* \"#utility.yul\":1674:1709   */\n      eq\n        /* \"#utility.yul\":1664:1727   */\n      tag_161\n      jumpi\n        /* \"#utility.yul\":1723:1724   */\n      0x00\n        /* \"#utility.yul\":1720:1721   */\n      dup1\n        /* \"#utility.yul\":1713:1725   */\n      revert\n        /* \"#utility.yul\":1664:1727   */\n    tag_161:\n        /* \"#utility.yul\":1611:1733   */\n      pop\n      jump\t// out\n        /* \"#utility.yul\":1739:1878   */\n    tag_126:\n        /* \"#utility.yul\":1785:1790   */\n      0x00\n        /* \"#utility.yul\":1823:1829   */\n      dup2\n        /* \"#utility.yul\":1810:1830   */\n      calldataload\n        /* \"#utility.yul\":1801:1830   */\n      swap1\n      pop\n        /* \"#utility.yul\":1839:1872   */\n      tag_163\n        /* \"#utility.yul\":1866:1871   */\n      dup2\n        /* \"#utility.yul\":1839:1872   */\n      tag_125\n      jump\t// in\n    tag_163:\n        /* \"#utility.yul\":1739:1878   */\n      swap3\n      swap2\n      pop\n      pop\n      jump\t// out\n        /* \"#utility.yul\":1884:2503   */\n    tag_28:\n        /* \"#utility.yul\":1961:1967   */\n      0x00\n        /* \"#utility.yul\":1969:1975   */\n      dup1\n        /* \"#utility.yul\":1977:1983   */\n      0x00\n        /* \"#utility.yul\":2026:2028   */\n      0x60\n        /* \"#utility.yul\":2014:2023   */\n      dup5\n        /* \"#utility.yul\":2005:2012   */\n      dup7\n        /* \"#utility.yul\":2001:2024   */\n      sub\n        /* \"#utility.yul\":1997:2029   */\n      slt\n        /* \"#utility.yul\":1994:2113   */\n      iszero\n      tag_165\n      jumpi\n        /* \"#utility.yul\":2032:2111   */\n      tag_166\n      tag_117\n      jump\t// in\n    tag_166:\n        /* \"#utility.yul\":1994:2113   */\n    tag_165:\n        /* \"#utility.yul\":2152:2153   */\n      0x00\n        /* \"#utility.yul\":2177:2230   */\n      tag_167\n        /* \"#utility.yul\":2222:2229   */\n      dup7\n        /* \"#utility.yul\":2213:2219   */\n      dup3\n        /* \"#utility.yul\":2202:2211   */\n      dup8\n        /* \"#utility.yul\":2198:2220   */\n      add\n        /* \"#utility.yul\":2177:2230   */\n      tag_121\n      jump\t// in\n    tag_167:\n        /* \"#utility.yul\":2167:2230   */\n      swap4\n      pop\n        /* \"#utility.yul\":2123:2240   */\n      pop\n        /* \"#utility.yul\":2279:2281   */\n      0x20\n        /* \"#utility.yul\":2305:2358   */\n      tag_168\n        /* \"#utility.yul\":2350:2357   */\n      dup7\n        /* \"#utility.yul\":2341:2347   */\n      dup3\n        /* \"#utility.yul\":2330:2339   */\n      dup8\n        /* \"#utility.yul\":2326:2348   */\n      add\n        /* \"#utility.yul\":2305:2358   */\n      tag_121\n      jump\t// in\n    tag_168:\n        /* \"#utility.yul\":2295:2358   */\n      swap3\n      pop\n        /* \"#utility.yul\":2250:2368   */\n      pop\n        /* \"#utility.yul\":2407:2409   */\n      0x40\n        /* \"#utility.yul\":2433:2486   */\n      tag_169\n        /* \"#utility.yul\":2478:2485   */\n      dup7\n        /* \"#utility.yul\":2469:2475   */\n      dup3\n        /* \"#utility.yul\":2458:2467   */\n      dup8\n        /* \"#utility.yul\":2454:2476   */\n      add\n        /* \"#utility.yul\":2433:2486   */\n      tag_126\n      jump\t// in\n    tag_169:\n        /* \"#utility.yul\":2423:2486   */\n      swap2\n      pop\n        /* \"#utility.yul\":2378:2496   */\n      pop\n        /* \"#utility.yul\":1884:2503   */\n      swap3\n      pop\n      swap3\n      pop\n      swap3\n      jump\t// out\n        /* \"#utility.yul\":2509:2627   */\n    tag_127:\n        /* \"#utility.yul\":2596:2620   */\n      tag_171\n        /* \"#utility.yul\":2614:2619   */\n      dup2\n        /* \"#utility.yul\":2596:2620   */\n      tag_119\n      jump\t// in\n    tag_171:\n        /* \"#utility.yul\":2591:2594   */\n      dup3\n        /* \"#utility.yul\":2584:2621   */\n      mstore\n        /* \"#utility.yul\":2509:2627   */\n      pop\n      pop\n      jump\t// out\n        /* \"#utility.yul\":2633:2855   */\n    tag_31:\n        /* \"#utility.yul\":2726:2730   */\n      0x00\n        /* \"#utility.yul\":2764:2766   */\n      0x20\n        /* \"#utility.yul\":2753:2762   */\n      dup3\n        /* \"#utility.yul\":2749:2767   */\n      add\n        /* \"#utility.yul\":2741:2767   */\n      swap1\n      pop\n        /* \"#utility.yul\":2777:2848   */\n      tag_173\n        /* \"#utility.yul\":2845:2846   */\n      0x00\n        /* \"#utility.yul\":2834:2843   */\n      dup4\n        /* \"#utility.yul\":2830:2847   */\n      add\n        /* \"#utility.yul\":2821:2827   */\n      dup5\n        /* \"#utility.yul\":2777:2848   */\n      tag_127\n      jump\t// in\n    tag_173:\n        /* \"#utility.yul\":2633:2855   */\n      swap3\n      swap2\n      pop\n      pop\n      jump\t// out\n        /* \"#utility.yul\":2861:2962   */\n    tag_128:\n        /* \"#utility.yul\":2897:2904   */\n      0x00\n        /* \"#utility.yul\":2937:2955   */\n      0xffffffffffffffff\n        /* \"#utility.yul\":2930:2935   */\n      dup3\n        /* \"#utility.yul\":2926:2956   */\n      and\n        /* \"#utility.yul\":2915:2956   */\n      swap1\n      pop\n        /* \"#utility.yul\":2861:2962   */\n      swap2\n      swap1\n      pop\n      jump\t// out\n        /* \"#utility.yul\":2968:3088   */\n    tag_129:\n        /* \"#utility.yul\":3040:3063   */\n      tag_176\n        /* \"#utility.yul\":3057:3062   */\n      dup2\n        /* \"#utility.yul\":3040:3063   */\n      tag_128\n      jump\t// in\n    tag_176:\n        /* \"#utility.yul\":3033:3038   */\n      dup2\n        /* \"#utility.yul\":3030:3064   */\n      eq\n        /* \"#utility.yul\":3020:3082   */\n      tag_177\n      jumpi\n        /* \"#utility.yul\":3078:3079   */\n      0x00\n        /* \"#utility.yul\":3075:3076   */\n      dup1\n        /* \"#utility.yul\":3068:3080   */\n      revert\n        /* \"#utility.yul\":3020:3082   */\n    tag_177:\n        /* \"#utility.yul\":2968:3088   */\n      pop\n      jump\t// out\n        /* \"#utility.yul\":3094:3231   */\n    tag_130:\n        /* \"#utility.yul\":3139:3144   */\n      0x00\n        /* \"#utility.yul\":3177:3183   */\n      dup2\n        /* \"#utility.yul\":3164:3184   */\n      calldataload\n        /* \"#utility.yul\":3155:3184   */\n      swap1\n      pop\n        /* \"#utility.yul\":3193:3225   */\n      tag_179\n        /* \"#utility.yul\":3219:3224   */\n      dup2\n        /* \"#utility.yul\":3193:3225   */\n      tag_129\n      jump\t// in\n    tag_179:\n        /* \"#utility.yul\":3094:3231   */\n      swap3\n      swap2\n      pop\n      pop\n      jump\t// out\n        /* \"#utility.yul\":3237:3709   */\n    tag_34:\n        /* \"#utility.yul\":3304:3310   */\n      0x00\n        /* \"#utility.yul\":3312:3318   */\n      dup1\n        /* \"#utility.yul\":3361:3363   */\n      0x40\n        /* \"#utility.yul\":3349:3358   */\n      dup4\n        /* \"#utility.yul\":3340:3347   */\n      dup6\n        /* \"#utility.yul\":3336:3359   */\n      sub\n        /* \"#utility.yul\":3332:3364   */\n      slt\n        /* \"#utility.yul\":3329:3448   */\n      iszero\n      tag_181\n      jumpi\n        /* \"#utility.yul\":3367:3446   */\n      tag_182\n      tag_117\n      jump\t// in\n    tag_182:\n        /* \"#utility.yul\":3329:3448   */\n    tag_181:\n        /* \"#utility.yul\":3487:3488   */\n      0x00\n        /* \"#utility.yul\":3512:3565   */\n      tag_183\n        /* \"#utility.yul\":3557:3564   */\n      dup6\n        /* \"#utility.yul\":3548:3554   */\n      dup3\n        /* \"#utility.yul\":3537:3546   */\n      dup7\n        /* \"#utility.yul\":3533:3555   */\n      add\n        /* \"#utility.yul\":3512:3565   */\n      tag_121\n      jump\t// in\n    tag_183:\n        /* \"#utility.yul\":3502:3565   */\n      swap3\n      pop\n        /* \"#utility.yul\":3458:3575   */\n      pop\n        /* \"#utility.yul\":3614:3616   */\n      0x20\n        /* \"#utility.yul\":3640:3692   */\n      tag_184\n        /* \"#utility.yul\":3684:3691   */\n      dup6\n        /* \"#utility.yul\":3675:3681   */\n      dup3\n        /* \"#utility.yul\":3664:3673   */\n      dup7\n        /* \"#utility.yul\":3660:3682   */\n      add\n        /* \"#utility.yul\":3640:3692   */\n      tag_130\n      jump\t// in\n    tag_184:\n        /* \"#utility.yul\":3630:3692   */\n      swap2\n      pop\n        /* \"#utility.yul\":3585:3702   */\n      pop\n        /* \"#utility.yul\":3237:3709   */\n      swap3\n      pop\n      swap3\n      swap1\n      pop\n      jump\t// out\n        /* \"#utility.yul\":3715:3830   */\n    tag_131:\n        /* \"#utility.yul\":3800:3823   */\n      tag_186\n        /* \"#utility.yul\":3817:3822   */\n      dup2\n        /* \"#utility.yul\":3800:3823   */\n      tag_128\n      jump\t// in\n    tag_186:\n        /* \"#utility.yul\":3795:3798   */\n      dup3\n        /* \"#utility.yul\":3788:3824   */\n      mstore\n        /* \"#utility.yul\":3715:3830   */\n      pop\n      pop\n      jump\t// out\n        /* \"#utility.yul\":3836:4054   */\n    tag_40:\n        /* \"#utility.yul\":3927:3931   */\n      0x00\n        /* \"#utility.yul\":3965:3967   */\n      0x20\n        /* \"#utility.yul\":3954:3963   */\n      dup3\n        /* \"#utility.yul\":3950:3968   */\n      add\n        /* \"#utility.yul\":3942:3968   */\n      swap1\n      pop\n        /* \"#utility.yul\":3978:4047   */\n      tag_188\n        /* \"#utility.yul\":4044:4045   */\n      0x00\n        /* \"#utility.yul\":4033:4042   */\n      dup4\n        /* \"#utility.yul\":4029:4046   */\n      add\n        /* \"#utility.yul\":4020:4026   */\n      dup5\n        /* \"#utility.yul\":3978:4047   */\n      tag_131\n      jump\t// in\n    tag_188:\n        /* \"#utility.yul\":3836:4054   */\n      swap3\n      swap2\n      pop\n      pop\n      jump\t// out\n        /* \"#utility.yul\":4060:4534   */\n    tag_43:\n        /* \"#utility.yul\":4128:4134   */\n      0x00\n        /* \"#utility.yul\":4136:4142   */\n      dup1\n        /* \"#utility.yul\":4185:4187   */\n      0x40\n        /* \"#utility.yul\":4173:4182   */\n      dup4\n        /* \"#utility.yul\":4164:4171   */\n      dup6\n        /* \"#utility.yul\":4160:4183   */\n      sub\n        /* \"#utility.yul\":4156:4188   */\n      slt\n        /* \"#utility.yul\":4153:4272   */\n      iszero\n      tag_190\n      jumpi\n        /* \"#utility.yul\":4191:4270   */\n      tag_191\n      tag_117\n      jump\t// in\n    tag_191:\n        /* \"#utility.yul\":4153:4272   */\n    tag_190:\n        /* \"#utility.yul\":4311:4312   */\n      0x00\n        /* \"#utility.yul\":4336:4389   */\n      tag_192\n        /* \"#utility.yul\":4381:4388   */\n      dup6\n        /* \"#utility.yul\":4372:4378   */\n      dup3\n        /* \"#utility.yul\":4361:4370   */\n      dup7\n        /* \"#utility.yul\":4357:4379   */\n      add\n        /* \"#utility.yul\":4336:4389   */\n      tag_121\n      jump\t// in\n    tag_192:\n        /* \"#utility.yul\":4326:4389   */\n      swap3\n      pop\n        /* \"#utility.yul\":4282:4399   */\n      pop\n        /* \"#utility.yul\":4438:4440   */\n      0x20\n        /* \"#utility.yul\":4464:4517   */\n      tag_193\n        /* \"#utility.yul\":4509:4516   */\n      dup6\n        /* \"#utility.yul\":4500:4506   */\n      dup3\n        /* \"#utility.yul\":4489:4498   */\n      dup7\n        /* \"#utility.yul\":4485:4507   */\n      add\n        /* \"#utility.yul\":4464:4517   */\n      tag_126\n      jump\t// in\n    tag_193:\n        /* \"#utility.yul\":4454:4517   */\n      swap2\n      pop\n        /* \"#utility.yul\":4409:4527   */\n      pop\n        /* \"#utility.yul\":4060:4534   */\n      swap3\n      pop\n      swap3\n      swap1\n      pop\n      jump\t// out\n        /* \"#utility.yul\":4540:5449   */\n    tag_50:\n        /* \"#utility.yul\":4634:4640   */\n      0x00\n        /* \"#utility.yul\":4642:4648   */\n      dup1\n        /* \"#utility.yul\":4650:4656   */\n      0x00\n        /* \"#utility.yul\":4658:4664   */\n      dup1\n        /* \"#utility.yul\":4666:4672   */\n      0x00\n        /* \"#utility.yul\":4715:4718   */\n      0xa0\n        /* \"#utility.yul\":4703:4712   */\n      dup7\n        /* \"#utility.yul\":4694:4701   */\n      dup9\n        /* \"#utility.yul\":4690:4713   */\n      sub\n        /* \"#utility.yul\":4686:4719   */\n      slt\n        /* \"#utility.yul\":4683:4803   */\n      iszero\n      tag_195\n      jumpi\n        /* \"#utility.yul\":4722:4801   */\n      tag_196\n      tag_117\n      jump\t// in\n    tag_196:\n        /* \"#utility.yul\":4683:4803   */\n    tag_195:\n        /* \"#utility.yul\":4842:4843   */\n      0x00\n        /* \"#utility.yul\":4867:4920   */\n      tag_197\n        /* \"#utility.yul\":4912:4919   */\n      dup9\n        /* \"#utility.yul\":4903:4909   */\n      dup3\n        /* \"#utility.yul\":4892:4901   */\n      dup10\n        /* \"#utility.yul\":4888:4910   */\n      add\n        /* \"#utility.yul\":4867:4920   */\n      tag_121\n      jump\t// in\n    tag_197:\n        /* \"#utility.yul\":4857:4920   */\n      swap6\n      pop\n        /* \"#utility.yul\":4813:4930   */\n      pop\n        /* \"#utility.yul\":4969:4971   */\n      0x20\n        /* \"#utility.yul\":4995:5048   */\n      tag_198\n        /* \"#utility.yul\":5040:5047   */\n      dup9\n        /* \"#utility.yul\":5031:5037   */\n      dup3\n        /* \"#utility.yul\":5020:5029   */\n      dup10\n        /* \"#utility.yul\":5016:5038   */\n      add\n        /* \"#utility.yul\":4995:5048   */\n      tag_121\n      jump\t// in\n    tag_198:\n        /* \"#utility.yul\":4985:5048   */\n      swap5\n      pop\n        /* \"#utility.yul\":4940:5058   */\n      pop\n        /* \"#utility.yul\":5097:5099   */\n      0x40\n        /* \"#utility.yul\":5123:5176   */\n      tag_199\n        /* \"#utility.yul\":5168:5175   */\n      dup9\n        /* \"#utility.yul\":5159:5165   */\n      dup3\n        /* \"#utility.yul\":5148:5157   */\n      dup10\n        /* \"#utility.yul\":5144:5166   */\n      add\n        /* \"#utility.yul\":5123:5176   */\n      tag_126\n      jump\t// in\n    tag_199:\n        /* \"#utility.yul\":5113:5176   */\n      swap4\n      pop\n        /* \"#utility.yul\":5068:5186   */\n      pop\n        /* \"#utility.yul\":5225:5227   */\n      0x60\n        /* \"#utility.yul\":5251:5304   */\n      tag_200\n        /* \"#utility.yul\":5296:5303   */\n      dup9\n        /* \"#utility.yul\":5287:5293   */\n      dup3\n        /* \"#utility.yul\":5276:5285   */\n      dup10\n        /* \"#utility.yul\":5272:5294   */\n      add\n        /* \"#utility.yul\":5251:5304   */\n      tag_126\n      jump\t// in\n    tag_200:\n        /* \"#utility.yul\":5241:5304   */\n      swap3\n      pop\n        /* \"#utility.yul\":5196:5314   */\n      pop\n        /* \"#utility.yul\":5353:5356   */\n      0x80\n        /* \"#utility.yul\":5380:5432   */\n      tag_201\n        /* \"#utility.yul\":5424:5431   */\n      dup9\n        /* \"#utility.yul\":5415:5421   */\n      dup3\n        /* \"#utility.yul\":5404:5413   */\n      dup10\n        /* \"#utility.yul\":5400:5422   */\n      add\n        /* \"#utility.yul\":5380:5432   */\n      tag_130\n      jump\t// in\n    tag_201:\n        /* \"#utility.yul\":5370:5432   */\n      swap2\n      pop\n        /* \"#utility.yul\":5324:5442   */\n      pop\n        /* \"#utility.yul\":4540:5449   */\n      swap3\n      swap6\n      pop\n      swap3\n      swap6\n      swap1\n      swap4\n      pop\n      jump\t// out\n        /* \"#utility.yul\":5455:5545   */\n    tag_132:\n        /* \"#utility.yul\":5489:5496   */\n      0x00\n        /* \"#utility.yul\":5532:5537   */\n      dup2\n        /* \"#utility.yul\":5525:5538   */\n      iszero\n        /* \"#utility.yul\":5518:5539   */\n      iszero\n        /* \"#utility.yul\":5507:5539   */\n      swap1\n      pop\n        /* \"#utility.yul\":5455:5545   */\n      swap2\n      swap1\n      pop\n      jump\t// out\n        /* \"#utility.yul\":5551:5667   */\n    tag_133:\n        /* \"#utility.yul\":5621:5642   */\n      tag_204\n        /* \"#utility.yul\":5636:5641   */\n      dup2\n        /* \"#utility.yul\":5621:5642   */\n      tag_132\n      jump\t// in\n    tag_204:\n        /* \"#utility.yul\":5614:5619   */\n      dup2\n        /* \"#utility.yul\":5611:5643   */\n      eq\n        /* \"#utility.yul\":5601:5661   */\n      tag_205\n      jumpi\n        /* \"#utility.yul\":5657:5658   */\n      0x00\n        /* \"#utility.yul\":5654:5655   */\n      dup1\n        /* \"#utility.yul\":5647:5659   */\n      revert\n        /* \"#utility.yul\":5601:5661   */\n    tag_205:\n        /* \"#utility.yul\":5551:5667   */\n      pop\n      jump\t// out\n        /* \"#utility.yul\":5673:5806   */\n    tag_134:\n        /* \"#utility.yul\":5716:5721   */\n      0x00\n        /* \"#utility.yul\":5754:5760   */\n      dup2\n        /* \"#utility.yul\":5741:5761   */\n      calldataload\n        /* \"#utility.yul\":5732:5761   */\n      swap1\n      pop\n        /* \"#utility.yul\":5770:5800   */\n      tag_207\n        /* \"#utility.yul\":5794:5799   */\n      dup2\n        /* \"#utility.yul\":5770:5800   */\n      tag_133\n      jump\t// in\n    tag_207:\n        /* \"#utility.yul\":5673:5806   */\n      swap3\n      swap2\n      pop\n      pop\n      jump\t// out\n        /* \"#utility.yul\":5812:6280   */\n    tag_54:\n        /* \"#utility.yul\":5877:5883   */\n      0x00\n        /* \"#utility.yul\":5885:5891   */\n      dup1\n        /* \"#utility.yul\":5934:5936   */\n      0x40\n        /* \"#utility.yul\":5922:5931   */\n      dup4\n        /* \"#utility.yul\":5913:5920   */\n      dup6\n        /* \"#utility.yul\":5909:5932   */\n      sub\n        /* \"#utility.yul\":5905:5937   */\n      slt\n        /* \"#utility.yul\":5902:6021   */\n      iszero\n      tag_209\n      jumpi\n        /* \"#utility.yul\":5940:6019   */\n      tag_210\n      tag_117\n      jump\t// in\n    tag_210:\n        /* \"#utility.yul\":5902:6021   */\n    tag_209:\n        /* \"#utility.yul\":6060:6061   */\n      0x00\n        /* \"#utility.yul\":6085:6138   */\n      tag_211\n        /* \"#utility.yul\":6130:6137   */\n      dup6\n        /* \"#utility.yul\":6121:6127   */\n      dup3\n        /* \"#utility.yul\":6110:6119   */\n      dup7\n        /* \"#utility.yul\":6106:6128   */\n      add\n        /* \"#utility.yul\":6085:6138   */\n      tag_126\n      jump\t// in\n    tag_211:\n        /* \"#utility.yul\":6075:6138   */\n      swap3\n      pop\n        /* \"#utility.yul\":6031:6148   */\n      pop\n        /* \"#utility.yul\":6187:6189   */\n      0x20\n        /* \"#utility.yul\":6213:6263   */\n      tag_212\n        /* \"#utility.yul\":6255:6262   */\n      dup6\n        /* \"#utility.yul\":6246:6252   */\n      dup3\n        /* \"#utility.yul\":6235:6244   */\n      dup7\n        /* \"#utility.yul\":6231:6253   */\n      add\n        /* \"#utility.yul\":6213:6263   */\n      tag_134\n      jump\t// in\n    tag_212:\n        /* \"#utility.yul\":6203:6263   */\n      swap2\n      pop\n        /* \"#utility.yul\":6158:6273   */\n      pop\n        /* \"#utility.yul\":5812:6280   */\n      swap3\n      pop\n      swap3\n      swap1\n      pop\n      jump\t// out\n        /* \"#utility.yul\":6286:7049   */\n    tag_58:\n        /* \"#utility.yul\":6371:6377   */\n      0x00\n        /* \"#utility.yul\":6379:6385   */\n      dup1\n        /* \"#utility.yul\":6387:6393   */\n      0x00\n        /* \"#utility.yul\":6395:6401   */\n      dup1\n        /* \"#utility.yul\":6444:6447   */\n      0x80\n        /* \"#utility.yul\":6432:6441   */\n      dup6\n        /* \"#utility.yul\":6423:6430   */\n      dup8\n        /* \"#utility.yul\":6419:6442   */\n      sub\n        /* \"#utility.yul\":6415:6448   */\n      slt\n        /* \"#utility.yul\":6412:6532   */\n      iszero\n      tag_214\n      jumpi\n        /* \"#utility.yul\":6451:6530   */\n      tag_215\n      tag_117\n      jump\t// in\n    tag_215:\n        /* \"#utility.yul\":6412:6532   */\n    tag_214:\n        /* \"#utility.yul\":6571:6572   */\n      0x00\n        /* \"#utility.yul\":6596:6649   */\n      tag_216\n        /* \"#utility.yul\":6641:6648   */\n      dup8\n        /* \"#utility.yul\":6632:6638   */\n      dup3\n        /* \"#utility.yul\":6621:6630   */\n      dup9\n        /* \"#utility.yul\":6617:6639   */\n      add\n        /* \"#utility.yul\":6596:6649   */\n      tag_121\n      jump\t// in\n    tag_216:\n        /* \"#utility.yul\":6586:6649   */\n      swap5\n      pop\n        /* \"#utility.yul\":6542:6659   */\n      pop\n        /* \"#utility.yul\":6698:6700   */\n      0x20\n        /* \"#utility.yul\":6724:6777   */\n      tag_217\n        /* \"#utility.yul\":6769:6776   */\n      dup8\n        /* \"#utility.yul\":6760:6766   */\n      dup3\n        /* \"#utility.yul\":6749:6758   */\n      dup9\n        /* \"#utility.yul\":6745:6767   */\n      add\n        /* \"#utility.yul\":6724:6777   */\n      tag_126\n      jump\t// in\n    tag_217:\n        /* \"#utility.yul\":6714:6777   */\n      swap4\n      pop\n        /* \"#utility.yul\":6669:6787   */\n      pop\n        /* \"#utility.yul\":6826:6828   */\n      0x40\n        /* \"#utility.yul\":6852:6905   */\n      tag_218\n        /* \"#utility.yul\":6897:6904   */\n      dup8\n        /* \"#utility.yul\":6888:6894   */\n      dup3\n        /* \"#utility.yul\":6877:6886   */\n      dup9\n        /* \"#utility.yul\":6873:6895   */\n      add\n        /* \"#utility.yul\":6852:6905   */\n      tag_126\n      jump\t// in\n    tag_218:\n        /* \"#utility.yul\":6842:6905   */\n      swap3\n      pop\n        /* \"#utility.yul\":6797:6915   */\n      pop\n        /* \"#utility.yul\":6954:6956   */\n      0x60\n        /* \"#utility.yul\":6980:7032   */\n      tag_219\n        /* \"#utility.yul\":7024:7031   */\n      dup8\n        /* \"#utility.yul\":7015:7021   */\n      dup3\n        /* \"#utility.yul\":7004:7013   */\n      dup9\n        /* \"#utility.yul\":7000:7022   */\n      add\n        /* \"#utility.yul\":6980:7032   */\n      tag_130\n      jump\t// in\n    tag_219:\n        /* \"#utility.yul\":6970:7032   */\n      swap2\n      pop\n        /* \"#utility.yul\":6925:7042   */\n      pop\n        /* \"#utility.yul\":6286:7049   */\n      swap3\n      swap6\n      swap2\n      swap5\n      pop\n      swap3\n      pop\n      jump\t// out\n        /* \"#utility.yul\":7055:7529   */\n    tag_62:\n        /* \"#utility.yul\":7123:7129   */\n      0x00\n        /* \"#utility.yul\":7131:7137   */\n      dup1\n        /* \"#utility.yul\":7180:7182   */\n      0x40\n        /* \"#utility.yul\":7168:7177   */\n      dup4\n        /* \"#utility.yul\":7159:7166   */\n      dup6\n        /* \"#utility.yul\":7155:7178   */\n      sub\n        /* \"#utility.yul\":7151:7183   */\n      slt\n        /* \"#utility.yul\":7148:7267   */\n      iszero\n      tag_221\n      jumpi\n        /* \"#utility.yul\":7186:7265   */\n      tag_222\n      tag_117\n      jump\t// in\n    tag_222:\n        /* \"#utility.yul\":7148:7267   */\n    tag_221:\n        /* \"#utility.yul\":7306:7307   */\n      0x00\n        /* \"#utility.yul\":7331:7384   */\n      tag_223\n        /* \"#utility.yul\":7376:7383   */\n      dup6\n        /* \"#utility.yul\":7367:7373   */\n      dup3\n        /* \"#utility.yul\":7356:7365   */\n      dup7\n        /* \"#utility.yul\":7352:7374   */\n      add\n        /* \"#utility.yul\":7331:7384   */\n      tag_126\n      jump\t// in\n    tag_223:\n        /* \"#utility.yul\":7321:7384   */\n      swap3\n      pop\n        /* \"#utility.yul\":7277:7394   */\n      pop\n        /* \"#utility.yul\":7433:7435   */\n      0x20\n        /* \"#utility.yul\":7459:7512   */\n      tag_224\n        /* \"#utility.yul\":7504:7511   */\n      dup6\n        /* \"#utility.yul\":7495:7501   */\n      dup3\n        /* \"#utility.yul\":7484:7493   */\n      dup7\n        /* \"#utility.yul\":7480:7502   */\n      add\n        /* \"#utility.yul\":7459:7512   */\n      tag_126\n      jump\t// in\n    tag_224:\n        /* \"#utility.yul\":7449:7512   */\n      swap2\n      pop\n        /* \"#utility.yul\":7404:7522   */\n      pop\n        /* \"#utility.yul\":7055:7529   */\n      swap3\n      pop\n      swap3\n      swap1\n      pop\n      jump\t// out\n        /* \"#utility.yul\":7535:7644   */\n    tag_135:\n        /* \"#utility.yul\":7616:7637   */\n      tag_226\n        /* \"#utility.yul\":7631:7636   */\n      dup2\n        /* \"#utility.yul\":7616:7637   */\n      tag_132\n      jump\t// in\n    tag_226:\n        /* \"#utility.yul\":7611:7614   */\n      dup3\n        /* \"#utility.yul\":7604:7638   */\n      mstore\n        /* \"#utility.yul\":7535:7644   */\n      pop\n      pop\n      jump\t// out\n        /* \"#utility.yul\":7650:7860   */\n    tag_65:\n        /* \"#utility.yul\":7737:7741   */\n      0x00\n        /* \"#utility.yul\":7775:7777   */\n      0x20\n        /* \"#utility.yul\":7764:7773   */\n      dup3\n        /* \"#utility.yul\":7760:7778   */\n      add\n        /* \"#utility.yul\":7752:7778   */\n      swap1\n      pop\n        /* \"#utility.yul\":7788:7853   */\n      tag_228\n        /* \"#utility.yul\":7850:7851   */\n      0x00\n        /* \"#utility.yul\":7839:7848   */\n      dup4\n        /* \"#utility.yul\":7835:7852   */\n      add\n        /* \"#utility.yul\":7826:7832   */\n      dup5\n        /* \"#utility.yul\":7788:7853   */\n      tag_135\n      jump\t// in\n    tag_228:\n        /* \"#utility.yul\":7650:7860   */\n      swap3\n      swap2\n      pop\n      pop\n      jump\t// out\n        /* \"#utility.yul\":7866:7945   */\n    tag_136:\n        /* \"#utility.yul\":7905:7912   */\n      0x00\n        /* \"#utility.yul\":7934:7939   */\n      dup2\n        /* \"#utility.yul\":7923:7939   */\n      swap1\n      pop\n        /* \"#utility.yul\":7866:7945   */\n      swap2\n      swap1\n      pop\n      jump\t// out\n        /* \"#utility.yul\":7951:8108   */\n    tag_137:\n        /* \"#utility.yul\":8056:8101   */\n      tag_231\n        /* \"#utility.yul\":8076:8100   */\n      tag_232\n        /* \"#utility.yul\":8094:8099   */\n      dup3\n        /* \"#utility.yul\":8076:8100   */\n      tag_119\n      jump\t// in\n    tag_232:\n        /* \"#utility.yul\":8056:8101   */\n      tag_136\n      jump\t// in\n    tag_231:\n        /* \"#utility.yul\":8051:8054   */\n      dup3\n        /* \"#utility.yul\":8044:8102   */\n      mstore\n        /* \"#utility.yul\":7951:8108   */\n      pop\n      pop\n      jump\t// out\n        /* \"#utility.yul\":8114:8511   */\n    tag_78:\n        /* \"#utility.yul\":8254:8257   */\n      0x00\n        /* \"#utility.yul\":8269:8344   */\n      tag_234\n        /* \"#utility.yul\":8340:8343   */\n      dup3\n        /* \"#utility.yul\":8331:8337   */\n      dup6\n        /* \"#utility.yul\":8269:8344   */\n      tag_137\n      jump\t// in\n    tag_234:\n        /* \"#utility.yul\":8369:8371   */\n      0x20\n        /* \"#utility.yul\":8364:8367   */\n      dup3\n        /* \"#utility.yul\":8360:8372   */\n      add\n        /* \"#utility.yul\":8353:8372   */\n      swap2\n      pop\n        /* \"#utility.yul\":8382:8457   */\n      tag_235\n        /* \"#utility.yul\":8453:8456   */\n      dup3\n        /* \"#utility.yul\":8444:8450   */\n      dup5\n        /* \"#utility.yul\":8382:8457   */\n      tag_137\n      jump\t// in\n    tag_235:\n        /* \"#utility.yul\":8482:8484   */\n      0x20\n        /* \"#utility.yul\":8477:8480   */\n      dup3\n        /* \"#utility.yul\":8473:8485   */\n      add\n        /* \"#utility.yul\":8466:8485   */\n      swap2\n      pop\n        /* \"#utility.yul\":8502:8505   */\n      dup2\n        /* \"#utility.yul\":8495:8505   */\n      swap1\n      pop\n        /* \"#utility.yul\":8114:8511   */\n      swap4\n      swap3\n      pop\n      pop\n      pop\n      jump\t// out\n\n    auxdata: 0xa2646970667358221220b192cbbf65173829261d48477e3ddfd6dbb98a9c697e456f9900794b8ac233ae64736f6c634300081a0033\n}\n",
				"bytecode": {
					"linkReferences": {},
					"object": "6080604052348015600f57600080fd5b50336000808060001b815260200190815260200160002060000160006101000a81548173ffffffffffffffffffffffffffffffffffffffff021916908373ffffffffffffffffffffffffffffffffffffffff16021790555061123d806100766000396000f3fe608060405234801561001057600080fd5b50600436106100b45760003560e01c80635b0fc9c3116100715780635b0fc9c3146101b15780635ef2c7f0146101cd578063a22cb465146101e9578063cf40882314610205578063e985e9c514610221578063f79fe53814610251576100b4565b80630178b8bf146100b957806302571be3146100e957806306ab59231461011957806314ab90381461014957806316a25cbd146101655780631896f70a14610195575b600080fd5b6100d360048036038101906100ce9190610dda565b610281565b6040516100e09190610e48565b60405180910390f35b61010360048036038101906100fe9190610dda565b6102c0565b6040516101109190610e48565b60405180910390f35b610133600480360381019061012e9190610e8f565b610342565b6040516101409190610ef1565b60405180910390f35b610163600480360381019061015e9190610f4c565b6104c5565b005b61017f600480360381019061017a9190610dda565b610643565b60405161018c9190610f9b565b60405180910390f35b6101af60048036038101906101aa9190610fb6565b610676565b005b6101cb60048036038101906101c69190610fb6565b61080c565b005b6101e760048036038101906101e29190610ff6565b610958565b005b61020360048036038101906101fe91906110a9565b61097a565b005b61021f600480360381019061021a91906110e9565b610a77565b005b61023b60048036038101906102369190611150565b610a92565b604051610248919061119f565b60405180910390f35b61026b60048036038101906102669190610dda565b610b26565b604051610278919061119f565b60405180910390f35b600080600083815260200190815260200160002060010160009054906101000a900473ffffffffffffffffffffffffffffffffffffffff169050919050565b60008060008084815260200190815260200160002060000160009054906101000a900473ffffffffffffffffffffffffffffffffffffffff1690503073ffffffffffffffffffffffffffffffffffffffff168173ffffffffffffffffffffffffffffffffffffffff160361033857600091505061033d565b809150505b919050565b600083600080600083815260200190815260200160002060000160009054906101000a900473ffffffffffffffffffffffffffffffffffffffff1690503373ffffffffffffffffffffffffffffffffffffffff168173ffffffffffffffffffffffffffffffffffffffff16148061043f5750600160008273ffffffffffffffffffffffffffffffffffffffff1673ffffffffffffffffffffffffffffffffffffffff16815260200190815260200160002060003373ffffffffffffffffffffffffffffffffffffffff1673ffffffffffffffffffffffffffffffffffffffff16815260200190815260200160002060009054906101000a900460ff165b61044857600080fd5b6000868660405160200161045d9291906111db565b60405160208183030381529060405280519060200120905061047f8186610b94565b85877fce0457fe73731f824cc272376169235128c118b49d344817417c6d108d155e82876040516104b09190610e48565b60405180910390a38093505050509392505050565b81600080600083815260200190815260200160002060000160009054906101000a900473ffffffffffffffffffffffffffffffffffffffff1690503373ffffffffffffffffffffffffffffffffffffffff168173ffffffffffffffffffffffffffffffffffffffff1614806105c05750600160008273ffffffffffffffffffffffffffffffffffffffff1673ffffffffffffffffffffffffffffffffffffffff16815260200190815260200160002060003373ffffffffffffffffffffffffffffffffffffffff1673ffffffffffffffffffffffffffffffffffffffff16815260200190815260200160002060009054906101000a900460ff165b6105c957600080fd5b837f1d4f9bbfc9cab89d66e1a1562f2233ccbf1308cb4f63de2ead5787adddb8fa68846040516105f99190610f9b565b60405180910390a28260008086815260200190815260200160002060010160146101000a81548167ffffffffffffffff021916908367ffffffffffffffff16021790555050505050565b600080600083815260200190815260200160002060010160149054906101000a900467ffffffffffffffff169050919050565b81600080600083815260200190815260200160002060000160009054906101000a900473ffffffffffffffffffffffffffffffffffffffff1690503373ffffffffffffffffffffffffffffffffffffffff168173ffffffffffffffffffffffffffffffffffffffff1614806107715750600160008273ffffffffffffffffffffffffffffffffffffffff1673ffffffffffffffffffffffffffffffffffffffff16815260200190815260200160002060003373ffffffffffffffffffffffffffffffffffffffff1673ffffffffffffffffffffffffffffffffffffffff16815260200190815260200160002060009054906101000a900460ff165b61077a57600080fd5b837f335721b01866dc23fbee8b6b2c7b1e14d6f05c28cd35a2c934239f94095602a0846040516107aa9190610e48565b60405180910390a28260008086815260200190815260200160002060010160006101000a81548173ffffffffffffffffffffffffffffffffffffffff021916908373ffffffffffffffffffffffffffffffffffffffff16021790555050505050565b81600080600083815260200190815260200160002060000160009054906101000a900473ffffffffffffffffffffffffffffffffffffffff1690503373ffffffffffffffffffffffffffffffffffffffff168173ffffffffffffffffffffffffffffffffffffffff1614806109075750600160008273ffffffffffffffffffffffffffffffffffffffff1673ffffffffffffffffffffffffffffffffffffffff16815260200190815260200160002060003373ffffffffffffffffffffffffffffffffffffffff1673ffffffffffffffffffffffffffffffffffffffff16815260200190815260200160002060009054906101000a900460ff165b61091057600080fd5b61091a8484610b94565b837fd4735d920b0f87494915f556dd9b54c8f309026070caea5c737245152564d2668460405161094a9190610e48565b60405180910390a250505050565b6000610965868686610342565b9050610972818484610bec565b505050505050565b80600160003373ffffffffffffffffffffffffffffffffffffffff1673ffffffffffffffffffffffffffffffffffffffff16815260200190815260200160002060008473ffffffffffffffffffffffffffffffffffffffff1673ffffffffffffffffffffffffffffffffffffffff16815260200190815260200160002060006101000a81548160ff0219169083151502179055508173ffffffffffffffffffffffffffffffffffffffff163373ffffffffffffffffffffffffffffffffffffffff167f17307eab39ab6107e8899845ad3d59bd9653f200f220920489ca2b5937696c3183604051610a6b919061119f565b60405180910390a35050565b610a81848461080c565b610a8c848383610bec565b50505050565b6000600160008473ffffffffffffffffffffffffffffffffffffffff1673ffffffffffffffffffffffffffffffffffffffff16815260200190815260200160002060008373ffffffffffffffffffffffffffffffffffffffff1673ffffffffffffffffffffffffffffffffffffffff16815260200190815260200160002060009054906101000a900460ff16905092915050565b60008073ffffffffffffffffffffffffffffffffffffffff1660008084815260200190815260200160002060000160009054906101000a900473ffffffffffffffffffffffffffffffffffffffff1673ffffffffffffffffffffffffffffffffffffffff1614159050919050565b8060008084815260200190815260200160002060000160006101000a81548173ffffffffffffffffffffffffffffffffffffffff021916908373ffffffffffffffffffffffffffffffffffffffff1602179055505050565b60008084815260200190815260200160002060010160009054906101000a900473ffffffffffffffffffffffffffffffffffffffff1673ffffffffffffffffffffffffffffffffffffffff168273ffffffffffffffffffffffffffffffffffffffff1614610ce1578160008085815260200190815260200160002060010160006101000a81548173ffffffffffffffffffffffffffffffffffffffff021916908373ffffffffffffffffffffffffffffffffffffffff160217905550827f335721b01866dc23fbee8b6b2c7b1e14d6f05c28cd35a2c934239f94095602a083604051610cd89190610e48565b60405180910390a25b60008084815260200190815260200160002060010160149054906101000a900467ffffffffffffffff1667ffffffffffffffff168167ffffffffffffffff1614610d9a578060008085815260200190815260200160002060010160146101000a81548167ffffffffffffffff021916908367ffffffffffffffff160217905550827f1d4f9bbfc9cab89d66e1a1562f2233ccbf1308cb4f63de2ead5787adddb8fa6882604051610d919190610f9b565b60405180910390a25b505050565b600080fd5b6000819050919050565b610db781610da4565b8114610dc257600080fd5b50565b600081359050610dd481610dae565b92915050565b600060208284031215610df057610def610d9f565b5b6000610dfe84828501610dc5565b91505092915050565b600073ffffffffffffffffffffffffffffffffffffffff82169050919050565b6000610e3282610e07565b9050919050565b610e4281610e27565b82525050565b6000602082019050610e5d6000830184610e39565b92915050565b610e6c81610e27565b8114610e7757600080fd5b50565b600081359050610e8981610e63565b92915050565b600080600060608486031215610ea857610ea7610d9f565b5b6000610eb686828701610dc5565b9350506020610ec786828701610dc5565b9250506040610ed886828701610e7a565b9150509250925092565b610eeb81610da4565b82525050565b6000602082019050610f066000830184610ee2565b92915050565b600067ffffffffffffffff82169050919050565b610f2981610f0c565b8114610f3457600080fd5b50565b600081359050610f4681610f20565b92915050565b60008060408385031215610f6357610f62610d9f565b5b6000610f7185828601610dc5565b9250506020610f8285828601610f37565b9150509250929050565b610f9581610f0c565b82525050565b6000602082019050610fb06000830184610f8c565b92915050565b60008060408385031215610fcd57610fcc610d9f565b5b6000610fdb85828601610dc5565b9250506020610fec85828601610e7a565b9150509250929050565b600080600080600060a0868803121561101257611011610d9f565b5b600061102088828901610dc5565b955050602061103188828901610dc5565b945050604061104288828901610e7a565b935050606061105388828901610e7a565b925050608061106488828901610f37565b9150509295509295909350565b60008115159050919050565b61108681611071565b811461109157600080fd5b50565b6000813590506110a38161107d565b92915050565b600080604083850312156110c0576110bf610d9f565b5b60006110ce85828601610e7a565b92505060206110df85828601611094565b9150509250929050565b6000806000806080858703121561110357611102610d9f565b5b600061111187828801610dc5565b945050602061112287828801610e7a565b935050604061113387828801610e7a565b925050606061114487828801610f37565b91505092959194509250565b6000806040838503121561116757611166610d9f565b5b600061117585828601610e7a565b925050602061118685828601610e7a565b9150509250929050565b61119981611071565b82525050565b60006020820190506111b46000830184611190565b92915050565b6000819050919050565b6111d56111d082610da4565b6111ba565b82525050565b60006111e782856111c4565b6020820191506111f782846111c4565b602082019150819050939250505056fea2646970667358221220b192cbbf65173829261d48477e3ddfd6dbb98a9c697e456f9900794b8ac233ae64736f6c634300081a0033",
					"opcodes": "PUSH1 0x80 PUSH1 0x40 MSTORE CALLVALUE DUP1 ISZERO PUSH1 0xF JUMPI PUSH1 0x0 DUP1 REVERT JUMPDEST POP CALLER PUSH1 0x0 DUP1 DUP1 PUSH1 0x0 SHL DUP2 MSTORE PUSH1 0x20 ADD SWAP1 DUP2 MSTORE PUSH1 0x20 ADD PUSH1 0x0 KECCAK256 PUSH1 0x0 ADD PUSH1 0x0 PUSH2 0x100 EXP DUP2 SLOAD DUP2 PUSH20 0xFFFFFFFFFFFFFFFFFFFFFFFFFFFFFFFFFFFFFFFF MUL NOT AND SWAP1 DUP4 PUSH20 0xFFFFFFFFFFFFFFFFFFFFFFFFFFFFFFFFFFFFFFFF AND MUL OR SWAP1 SSTORE POP PUSH2 0x123D DUP1 PUSH2 0x76 PUSH1 0x0 CODECOPY PUSH1 0x0 RETURN INVALID PUSH1 0x80 PUSH1 0x40 MSTORE CALLVALUE DUP1 ISZERO PUSH2 0x10 JUMPI PUSH1 0x0 DUP1 REVERT JUMPDEST POP PUSH1 0x4 CALLDATASIZE LT PUSH2 0xB4 JUMPI PUSH1 0x0 CALLDATALOAD PUSH1 0xE0 SHR DUP1 PUSH4 0x5B0FC9C3 GT PUSH2 0x71 JUMPI DUP1 PUSH4 0x5B0FC9C3 EQ PUSH2 0x1B1 JUMPI DUP1 PUSH4 0x5EF2C7F0 EQ PUSH2 0x1CD JUMPI DUP1 PUSH4 0xA22CB465 EQ PUSH2 0x1E9 JUMPI DUP1 PUSH4 0xCF408823 EQ PUSH2 0x205 JUMPI DUP1 PUSH4 0xE985E9C5 EQ PUSH2 0x221 JUMPI DUP1 PUSH4 0xF79FE538 EQ PUSH2 0x251 JUMPI PUSH2 0xB4 JUMP JUMPDEST DUP1 PUSH4 0x178B8BF EQ PUSH2 0xB9 JUMPI DUP1 PUSH4 0x2571BE3 EQ PUSH2 0xE9 JUMPI DUP1 PUSH4 0x6AB5923 EQ PUSH2 0x119 JUMPI DUP1 PUSH4 0x14AB9038 EQ PUSH2 0x149 JUMPI DUP1 PUSH4 0x16A25CBD EQ PUSH2 0x165 JUMPI DUP1 PUSH4 0x1896F70A EQ PUSH2 0x195 JUMPI JUMPDEST PUSH1 0x0 DUP1 REVERT JUMPDEST PUSH2 0xD3 PUSH1 0x4 DUP1 CALLDATASIZE SUB DUP2 ADD SWAP1 PUSH2 0xCE SWAP2 SWAP1 PUSH2 0xDDA JUMP JUMPDEST PUSH2 0x281 JUMP JUMPDEST PUSH1 0x40 MLOAD PUSH2 0xE0 SWAP2 SWAP1 PUSH2 0xE48 JUMP JUMPDEST PUSH1 0x40 MLOAD DUP1 SWAP2 SUB SWAP1 RETURN JUMPDEST PUSH2 0x103 PUSH1 0x4 DUP1 CALLDATASIZE SUB DUP2 ADD SWAP1 PUSH2 0xFE SWAP2 SWAP1 PUSH2 0xDDA JUMP JUMPDEST PUSH2 0x2C0 JUMP JUMPDEST PUSH1 0x40 MLOAD PUSH2 0x110 SWAP2 SWAP1 PUSH2 0xE48 JUMP JUMPDEST PUSH1 0x40 MLOAD DUP1 SWAP2 SUB SWAP1 RETURN JUMPDEST PUSH2 0x133 PUSH1 0x4 DUP1 CALLDATASIZE SUB DUP2 ADD SWAP1 PUSH2 0x12E SWAP2 SWAP1 PUSH2 0xE8F JUMP JUMPDEST PUSH2 0x342 JUMP JUMPDEST PUSH1 0x40 MLOAD PUSH2 0x140 SWAP2 SWAP1 PUSH2 0xEF1 JUMP JUMPDEST PUSH1 0x40 MLOAD DUP1 SWAP2 SUB SWAP1 RETURN JUMPDEST PUSH2 0x163 PUSH1 0x4 DUP1 CALLDATASIZE SUB DUP2 ADD SWAP1 PUSH2 0x15E SWAP2 SWAP1 PUSH2 0xF4C JUMP JUMPDEST PUSH2 0x4C5 JUMP JUMPDEST STOP JUMPDEST PUSH2 0x17F PUSH1 0x4 DUP1 CALLDATASIZE SUB DUP2 ADD SWAP1 PUSH2 0x17A SWAP2 SWAP1 PUSH2 0xDDA JUMP JUMPDEST PUSH2 0x643 JUMP JUMPDEST PUSH1 0x40 MLOAD PUSH2 0x18C SWAP2 SWAP1 PUSH2 0xF9B JUMP JUMPDEST PUSH1 0x40 MLOAD DUP1 SWAP2 SUB SWAP1 RETURN JUMPDEST PUSH2 0x1AF PUSH1 0x4 DUP1 CALLDATASIZE SUB DUP2 ADD SWAP1 PUSH2 0x1AA SWAP2 SWAP1 PUSH2 0xFB6 JUMP JUMPDEST PUSH2 0x676 JUMP JUMPDEST STOP JUMPDEST PUSH2 0x1CB PUSH1 0x4 DUP1 CALLDATASIZE SUB DUP2 ADD SWAP1 PUSH2 0x1C6 SWAP2 SWAP1 PUSH2 0xFB6 JUMP JUMPDEST PUSH2 0x80C JUMP JUMPDEST STOP JUMPDEST PUSH2 0x1E7 PUSH1 0x4 DUP1 CALLDATASIZE SUB DUP2 ADD SWAP1 PUSH2 0x1E2 SWAP2 SWAP1 PUSH2 0xFF6 JUMP JUMPDEST PUSH2 0x958 JUMP JUMPDEST STOP JUMPDEST PUSH2 0x203 PUSH1 0x4 DUP1 CALLDATASIZE SUB DUP2 ADD SWAP1 PUSH2 0x1FE SWAP2 SWAP1 PUSH2 0x10A9 JUMP JUMPDEST PUSH2 0x97A JUMP JUMPDEST STOP JUMPDEST PUSH2 0x21F PUSH1 0x4 DUP1 CALLDATASIZE SUB DUP2 ADD SWAP1 PUSH2 0x21A SWAP2 SWAP1 PUSH2 0x10E9 JUMP JUMPDEST PUSH2 0xA77 JUMP JUMPDEST STOP JUMPDEST PUSH2 0x23B PUSH1 0x4 DUP1 CALLDATASIZE SUB DUP2 ADD SWAP1 PUSH2 0x236 SWAP2 SWAP1 PUSH2 0x1150 JUMP JUMPDEST PUSH2 0xA92 JUMP JUMPDEST PUSH1 0x40 MLOAD PUSH2 0x248 SWAP2 SWAP1 PUSH2 0x119F JUMP JUMPDEST PUSH1 0x40 MLOAD DUP1 SWAP2 SUB SWAP1 RETURN JUMPDEST PUSH2 0x26B PUSH1 0x4 DUP1 CALLDATASIZE SUB DUP2 ADD SWAP1 PUSH2 0x266 SWAP2 SWAP1 PUSH2 0xDDA JUMP JUMPDEST PUSH2 0xB26 JUMP JUMPDEST PUSH1 0x40 MLOAD PUSH2 0x278 SWAP2 SWAP1 PUSH2 0x119F JUMP JUMPDEST PUSH1 0x40 MLOAD DUP1 SWAP2 SUB SWAP1 RETURN JUMPDEST PUSH1 0x0 DUP1 PUSH1 0x0 DUP4 DUP2 MSTORE PUSH1 0x20 ADD SWAP1 DUP2 MSTORE PUSH1 0x20 ADD PUSH1 0x0 KECCAK256 PUSH1 0x1 ADD PUSH1 0x0 SWAP1 SLOAD SWAP1 PUSH2 0x100 EXP SWAP1 DIV PUSH20 0xFFFFFFFFFFFFFFFFFFFFFFFFFFFFFFFFFFFFFFFF AND SWAP1 POP SWAP2 SWAP1 POP JUMP JUMPDEST PUSH1 0x0 DUP1 PUSH1 0x0 DUP1 DUP5 DUP2 MSTORE PUSH1 0x20 ADD SWAP1 DUP2 MSTORE PUSH1 0x20 ADD PUSH1 0x0 KECCAK256 PUSH1 0x0 ADD PUSH1 0x0 SWAP1 SLOAD SWAP1 PUSH2 0x100 EXP SWAP1 DIV PUSH20 0xFFFFFFFFFFFFFFFFFFFFFFFFFFFFFFFFFFFFFFFF AND SWAP1 POP ADDRESS PUSH20 0xFFFFFFFFFFFFFFFFFFFFFFFFFFFFFFFFFFFFFFFF AND DUP2 PUSH20 0xFFFFFFFFFFFFFFFFFFFFFFFFFFFFFFFFFFFFFFFF AND SUB PUSH2 0x338 JUMPI PUSH1 0x0 SWAP2 POP POP PUSH2 0x33D JUMP JUMPDEST DUP1 SWAP2 POP POP JUMPDEST SWAP2 SWAP1 POP JUMP JUMPDEST PUSH1 0x0 DUP4 PUSH1 0x0 DUP1 PUSH1 0x0 DUP4 DUP2 MSTORE PUSH1 0x20 ADD SWAP1 DUP2 MSTORE PUSH1 0x20 ADD PUSH1 0x0 KECCAK256 PUSH1 0x0 ADD PUSH1 0x0 SWAP1 SLOAD SWAP1 PUSH2 0x100 EXP SWAP1 DIV PUSH20 0xFFFFFFFFFFFFFFFFFFFFFFFFFFFFFFFFFFFFFFFF AND SWAP1 POP CALLER PUSH20 0xFFFFFFFFFFFFFFFFFFFFFFFFFFFFFFFFFFFFFFFF AND DUP2 PUSH20 0xFFFFFFFFFFFFFFFFFFFFFFFFFFFFFFFFFFFFFFFF AND EQ DUP1 PUSH2 0x43F JUMPI POP PUSH1 0x1 PUSH1 0x0 DUP3 PUSH20 0xFFFFFFFFFFFFFFFFFFFFFFFFFFFFFFFFFFFFFFFF AND PUSH20 0xFFFFFFFFFFFFFFFFFFFFFFFFFFFFFFFFFFFFFFFF AND DUP2 MSTORE PUSH1 0x20 ADD SWAP1 DUP2 MSTORE PUSH1 0x20 ADD PUSH1 0x0 KECCAK256 PUSH1 0x0 CALLER PUSH20 0xFFFFFFFFFFFFFFFFFFFFFFFFFFFFFFFFFFFFFFFF AND PUSH20 0xFFFFFFFFFFFFFFFFFFFFFFFFFFFFFFFFFFFFFFFF AND DUP2 MSTORE PUSH1 0x20 ADD SWAP1 DUP2 MSTORE PUSH1 0x20 ADD PUSH1 0x0 KECCAK256 PUSH1 0x0 SWAP1 SLOAD SWAP1 PUSH2 0x100 EXP SWAP1 DIV PUSH1 0xFF AND JUMPDEST PUSH2 0x448 JUMPI PUSH1 0x0 DUP1 REVERT JUMPDEST PUSH1 0x0 DUP7 DUP7 PUSH1 0x40 MLOAD PUSH1 0x20 ADD PUSH2 0x45D SWAP3 SWAP2 SWAP1 PUSH2 0x11DB JUMP JUMPDEST PUSH1 0x40 MLOAD PUSH1 0x20 DUP2 DUP4 SUB SUB DUP2 MSTORE SWAP1 PUSH1 0x40 MSTORE DUP1 MLOAD SWAP1 PUSH1 0x20 ADD KECCAK256 SWAP1 POP PUSH2 0x47F DUP2 DUP7 PUSH2 0xB94 JUMP JUMPDEST DUP6 DUP8 PUSH32 0xCE0457FE73731F824CC272376169235128C118B49D344817417C6D108D155E82 DUP8 PUSH1 0x40 MLOAD PUSH2 0x4B0 SWAP2 SWAP1 PUSH2 0xE48 JUMP JUMPDEST PUSH1 0x40 MLOAD DUP1 SWAP2 SUB SWAP1 LOG3 DUP1 SWAP4 POP POP POP POP SWAP4 SWAP3 POP POP POP JUMP JUMPDEST DUP2 PUSH1 0x0 DUP1 PUSH1 0x0 DUP4 DUP2 MSTORE PUSH1 0x20 ADD SWAP1 DUP2 MSTORE PUSH1 0x20 ADD PUSH1 0x0 KECCAK256 PUSH1 0x0 ADD PUSH1 0x0 SWAP1 SLOAD SWAP1 PUSH2 0x100 EXP SWAP1 DIV PUSH20 0xFFFFFFFFFFFFFFFFFFFFFFFFFFFFFFFFFFFFFFFF AND SWAP1 POP CALLER PUSH20 0xFFFFFFFFFFFFFFFFFFFFFFFFFFFFFFFFFFFFFFFF AND DUP2 PUSH20 0xFFFFFFFFFFFFFFFFFFFFFFFFFFFFFFFFFFFFFFFF AND EQ DUP1 PUSH2 0x5C0 JUMPI POP PUSH1 0x1 PUSH1 0x0 DUP3 PUSH20 0xFFFFFFFFFFFFFFFFFFFFFFFFFFFFFFFFFFFFFFFF AND PUSH20 0xFFFFFFFFFFFFFFFFFFFFFFFFFFFFFFFFFFFFFFFF AND DUP2 MSTORE PUSH1 0x20 ADD SWAP1 DUP2 MSTORE PUSH1 0x20 ADD PUSH1 0x0 KECCAK256 PUSH1 0x0 CALLER PUSH20 0xFFFFFFFFFFFFFFFFFFFFFFFFFFFFFFFFFFFFFFFF AND PUSH20 0xFFFFFFFFFFFFFFFFFFFFFFFFFFFFFFFFFFFFFFFF AND DUP2 MSTORE PUSH1 0x20 ADD SWAP1 DUP2 MSTORE PUSH1 0x20 ADD PUSH1 0x0 KECCAK256 PUSH1 0x0 SWAP1 SLOAD SWAP1 PUSH2 0x100 EXP SWAP1 DIV PUSH1 0xFF AND JUMPDEST PUSH2 0x5C9 JUMPI PUSH1 0x0 DUP1 REVERT JUMPDEST DUP4 PUSH32 0x1D4F9BBFC9CAB89D66E1A1562F2233CCBF1308CB4F63DE2EAD5787ADDDB8FA68 DUP5 PUSH1 0x40 MLOAD PUSH2 0x5F9 SWAP2 SWAP1 PUSH2 0xF9B JUMP JUMPDEST PUSH1 0x40 MLOAD DUP1 SWAP2 SUB SWAP1 LOG2 DUP3 PUSH1 0x0 DUP1 DUP7 DUP2 MSTORE PUSH1 0x20 ADD SWAP1 DUP2 MSTORE PUSH1 0x20 ADD PUSH1 0x0 KECCAK256 PUSH1 0x1 ADD PUSH1 0x14 PUSH2 0x100 EXP DUP2 SLOAD DUP2 PUSH8 0xFFFFFFFFFFFFFFFF MUL NOT AND SWAP1 DUP4 PUSH8 0xFFFFFFFFFFFFFFFF AND MUL OR SWAP1 SSTORE POP POP POP POP POP JUMP JUMPDEST PUSH1 0x0 DUP1 PUSH1 0x0 DUP4 DUP2 MSTORE PUSH1 0x20 ADD SWAP1 DUP2 MSTORE PUSH1 0x20 ADD PUSH1 0x0 KECCAK256 PUSH1 0x1 ADD PUSH1 0x14 SWAP1 SLOAD SWAP1 PUSH2 0x100 EXP SWAP1 DIV PUSH8 0xFFFFFFFFFFFFFFFF AND SWAP1 POP SWAP2 SWAP1 POP JUMP JUMPDEST DUP2 PUSH1 0x0 DUP1 PUSH1 0x0 DUP4 DUP2 MSTORE PUSH1 0x20 ADD SWAP1 DUP2 MSTORE PUSH1 0x20 ADD PUSH1 0x0 KECCAK256 PUSH1 0x0 ADD PUSH1 0x0 SWAP1 SLOAD SWAP1 PUSH2 0x100 EXP SWAP1 DIV PUSH20 0xFFFFFFFFFFFFFFFFFFFFFFFFFFFFFFFFFFFFFFFF AND SWAP1 POP CALLER PUSH20 0xFFFFFFFFFFFFFFFFFFFFFFFFFFFFFFFFFFFFFFFF AND DUP2 PUSH20 0xFFFFFFFFFFFFFFFFFFFFFFFFFFFFFFFFFFFFFFFF AND EQ DUP1 PUSH2 0x771 JUMPI POP PUSH1 0x1 PUSH1 0x0 DUP3 PUSH20 0xFFFFFFFFFFFFFFFFFFFFFFFFFFFFFFFFFFFFFFFF AND PUSH20 0xFFFFFFFFFFFFFFFFFFFFFFFFFFFFFFFFFFFFFFFF AND DUP2 MSTORE PUSH1 0x20 ADD SWAP1 DUP2 MSTORE PUSH1 0x20 ADD PUSH1 0x0 KECCAK256 PUSH1 0x0 CALLER PUSH20 0xFFFFFFFFFFFFFFFFFFFFFFFFFFFFFFFFFFFFFFFF AND PUSH20 0xFFFFFFFFFFFFFFFFFFFFFFFFFFFFFFFFFFFFFFFF AND DUP2 MSTORE PUSH1 0x20 ADD SWAP1 DUP2 MSTORE PUSH1 0x20 ADD PUSH1 0x0 KECCAK256 PUSH1 0x0 SWAP1 SLOAD SWAP1 PUSH2 0x100 EXP SWAP1 DIV PUSH1 0xFF AND JUMPDEST PUSH2 0x77A JUMPI PUSH1 0x0 DUP1 REVERT JUMPDEST DUP4 PUSH32 0x335721B01866DC23FBEE8B6B2C7B1E14D6F05C28CD35A2C934239F94095602A0 DUP5 PUSH1 0x40 MLOAD PUSH2 0x7AA SWAP2 SWAP1 PUSH2 0xE48 JUMP JUMPDEST PUSH1 0x40 MLOAD DUP1 SWAP2 SUB SWAP1 LOG2 DUP3 PUSH1 0x0 DUP1 DUP7 DUP2 MSTORE PUSH1 0x20 ADD SWAP1 DUP2 MSTORE PUSH1 0x20 ADD PUSH1 0x0 KECCAK256 PUSH1 0x1 ADD PUSH1 0x0 PUSH2 0x100 EXP DUP2 SLOAD DUP2 PUSH20 0xFFFFFFFFFFFFFFFFFFFFFFFFFFFFFFFFFFFFFFFF MUL NOT AND SWAP1 DUP4 PUSH20 0xFFFFFFFFFFFFFFFFFFFFFFFFFFFFFFFFFFFFFFFF AND MUL OR SWAP1 SSTORE POP POP POP POP POP JUMP JUMPDEST DUP2 PUSH1 0x0 DUP1 PUSH1 0x0 DUP4 DUP2 MSTORE PUSH1 0x20 ADD SWAP1 DUP2 MSTORE PUSH1 0x20 ADD PUSH1 0x0 KECCAK256 PUSH1 0x0 ADD PUSH1 0x0 SWAP1 SLOAD SWAP1 PUSH2 0x100 EXP SWAP1 DIV PUSH20 0xFFFFFFFFFFFFFFFFFFFFFFFFFFFFFFFFFFFFFFFF AND SWAP1 POP CALLER PUSH20 0xFFFFFFFFFFFFFFFFFFFFFFFFFFFFFFFFFFFFFFFF AND DUP2 PUSH20 0xFFFFFFFFFFFFFFFFFFFFFFFFFFFFFFFFFFFFFFFF AND EQ DUP1 PUSH2 0x907 JUMPI POP PUSH1 0x1 PUSH1 0x0 DUP3 PUSH20 0xFFFFFFFFFFFFFFFFFFFFFFFFFFFFFFFFFFFFFFFF AND PUSH20 0xFFFFFFFFFFFFFFFFFFFFFFFFFFFFFFFFFFFFFFFF AND DUP2 MSTORE PUSH1 0x20 ADD SWAP1 DUP2 MSTORE PUSH1 0x20 ADD PUSH1 0x0 KECCAK256 PUSH1 0x0 CALLER PUSH20 0xFFFFFFFFFFFFFFFFFFFFFFFFFFFFFFFFFFFFFFFF AND PUSH20 0xFFFFFFFFFFFFFFFFFFFFFFFFFFFFFFFFFFFFFFFF AND DUP2 MSTORE PUSH1 0x20 ADD SWAP1 DUP2 MSTORE PUSH1 0x20 ADD PUSH1 0x0 KECCAK256 PUSH1 0x0 SWAP1 SLOAD SWAP1 PUSH2 0x100 EXP SWAP1 DIV PUSH1 0xFF AND JUMPDEST PUSH2 0x910 JUMPI PUSH1 0x0 DUP1 REVERT JUMPDEST PUSH2 0x91A DUP5 DUP5 PUSH2 0xB94 JUMP JUMPDEST DUP4 PUSH32 0xD4735D920B0F87494915F556DD9B54C8F309026070CAEA5C737245152564D266 DUP5 PUSH1 0x40 MLOAD PUSH2 0x94A SWAP2 SWAP1 PUSH2 0xE48 JUMP JUMPDEST PUSH1 0x40 MLOAD DUP1 SWAP2 SUB SWAP1 LOG2 POP POP POP POP JUMP JUMPDEST PUSH1 0x0 PUSH2 0x965 DUP7 DUP7 DUP7 PUSH2 0x342 JUMP JUMPDEST SWAP1 POP PUSH2 0x972 DUP2 DUP5 DUP5 PUSH2 0xBEC JUMP JUMPDEST POP POP POP POP POP POP JUMP JUMPDEST DUP1 PUSH1 0x1 PUSH1 0x0 CALLER PUSH20 0xFFFFFFFFFFFFFFFFFFFFFFFFFFFFFFFFFFFFFFFF AND PUSH20 0xFFFFFFFFFFFFFFFFFFFFFFFFFFFFFFFFFFFFFFFF AND DUP2 MSTORE PUSH1 0x20 ADD SWAP1 DUP2 MSTORE PUSH1 0x20 ADD PUSH1 0x0 KECCAK256 PUSH1 0x0 DUP5 PUSH20 0xFFFFFFFFFFFFFFFFFFFFFFFFFFFFFFFFFFFFFFFF AND PUSH20 0xFFFFFFFFFFFFFFFFFFFFFFFFFFFFFFFFFFFFFFFF AND DUP2 MSTORE PUSH1 0x20 ADD SWAP1 DUP2 MSTORE PUSH1 0x20 ADD PUSH1 0x0 KECCAK256 PUSH1 0x0 PUSH2 0x100 EXP DUP2 SLOAD DUP2 PUSH1 0xFF MUL NOT AND SWAP1 DUP4 ISZERO ISZERO MUL OR SWAP1 SSTORE POP DUP2 PUSH20 0xFFFFFFFFFFFFFFFFFFFFFFFFFFFFFFFFFFFFFFFF AND CALLER PUSH20 0xFFFFFFFFFFFFFFFFFFFFFFFFFFFFFFFFFFFFFFFF AND PUSH32 0x17307EAB39AB6107E8899845AD3D59BD9653F200F220920489CA2B5937696C31 DUP4 PUSH1 0x40 MLOAD PUSH2 0xA6B SWAP2 SWAP1 PUSH2 0x119F JUMP JUMPDEST PUSH1 0x40 MLOAD DUP1 SWAP2 SUB SWAP1 LOG3 POP POP JUMP JUMPDEST PUSH2 0xA81 DUP5 DUP5 PUSH2 0x80C JUMP JUMPDEST PUSH2 0xA8C DUP5 DUP4 DUP4 PUSH2 0xBEC JUMP JUMPDEST POP POP POP POP JUMP JUMPDEST PUSH1 0x0 PUSH1 0x1 PUSH1 0x0 DUP5 PUSH20 0xFFFFFFFFFFFFFFFFFFFFFFFFFFFFFFFFFFFFFFFF AND PUSH20 0xFFFFFFFFFFFFFFFFFFFFFFFFFFFFFFFFFFFFFFFF AND DUP2 MSTORE PUSH1 0x20 ADD SWAP1 DUP2 MSTORE PUSH1 0x20 ADD PUSH1 0x0 KECCAK256 PUSH1 0x0 DUP4 PUSH20 0xFFFFFFFFFFFFFFFFFFFFFFFFFFFFFFFFFFFFFFFF AND PUSH20 0xFFFFFFFFFFFFFFFFFFFFFFFFFFFFFFFFFFFFFFFF AND DUP2 MSTORE PUSH1 0x20 ADD SWAP1 DUP2 MSTORE PUSH1 0x20 ADD PUSH1 0x0 KECCAK256 PUSH1 0x0 SWAP1 SLOAD SWAP1 PUSH2 0x100 EXP SWAP1 DIV PUSH1 0xFF AND SWAP1 POP SWAP3 SWAP2 POP POP JUMP JUMPDEST PUSH1 0x0 DUP1 PUSH20 0xFFFFFFFFFFFFFFFFFFFFFFFFFFFFFFFFFFFFFFFF AND PUSH1 0x0 DUP1 DUP5 DUP2 MSTORE PUSH1 0x20 ADD SWAP1 DUP2 MSTORE PUSH1 0x20 ADD PUSH1 0x0 KECCAK256 PUSH1 0x0 ADD PUSH1 0x0 SWAP1 SLOAD SWAP1 PUSH2 0x100 EXP SWAP1 DIV PUSH20 0xFFFFFFFFFFFFFFFFFFFFFFFFFFFFFFFFFFFFFFFF AND PUSH20 0xFFFFFFFFFFFFFFFFFFFFFFFFFFFFFFFFFFFFFFFF AND EQ ISZERO SWAP1 POP SWAP2 SWAP1 POP JUMP JUMPDEST DUP1 PUSH1 0x0 DUP1 DUP5 DUP2 MSTORE PUSH1 0x20 ADD SWAP1 DUP2 MSTORE PUSH1 0x20 ADD PUSH1 0x0 KECCAK256 PUSH1 0x0 ADD PUSH1 0x0 PUSH2 0x100 EXP DUP2 SLOAD DUP2 PUSH20 0xFFFFFFFFFFFFFFFFFFFFFFFFFFFFFFFFFFFFFFFF MUL NOT AND SWAP1 DUP4 PUSH20 0xFFFFFFFFFFFFFFFFFFFFFFFFFFFFFFFFFFFFFFFF AND MUL OR SWAP1 SSTORE POP POP POP JUMP JUMPDEST PUSH1 0x0 DUP1 DUP5 DUP2 MSTORE PUSH1 0x20 ADD SWAP1 DUP2 MSTORE PUSH1 0x20 ADD PUSH1 0x0 KECCAK256 PUSH1 0x1 ADD PUSH1 0x0 SWAP1 SLOAD SWAP1 PUSH2 0x100 EXP SWAP1 DIV PUSH20 0xFFFFFFFFFFFFFFFFFFFFFFFFFFFFFFFFFFFFFFFF AND PUSH20 0xFFFFFFFFFFFFFFFFFFFFFFFFFFFFFFFFFFFFFFFF AND DUP3 PUSH20 0xFFFFFFFFFFFFFFFFFFFFFFFFFFFFFFFFFFFFFFFF AND EQ PUSH2 0xCE1 JUMPI DUP2 PUSH1 0x0 DUP1 DUP6 DUP2 MSTORE PUSH1 0x20 ADD SWAP1 DUP2 MSTORE PUSH1 0x20 ADD PUSH1 0x0 KECCAK256 PUSH1 0x1 ADD PUSH1 0x0 PUSH2 0x100 EXP DUP2 SLOAD DUP2 PUSH20 0xFFFFFFFFFFFFFFFFFFFFFFFFFFFFFFFFFFFFFFFF MUL NOT AND SWAP1 DUP4 PUSH20 0xFFFFFFFFFFFFFFFFFFFFFFFFFFFFFFFFFFFFFFFF AND MUL OR SWAP1 SSTORE POP DUP3 PUSH32 0x335721B01866DC23FBEE8B6B2C7B1E14D6F05C28CD35A2C934239F94095602A0 DUP4 PUSH1 0x40 MLOAD PUSH2 0xCD8 SWAP2 SWAP1 PUSH2 0xE48 JUMP JUMPDEST PUSH1 0x40 MLOAD DUP1 SWAP2 SUB SWAP1 LOG2 JUMPDEST PUSH1 0x0 DUP1 DUP5 DUP2 MSTORE PUSH1 0x20 ADD SWAP1 DUP2 MSTORE PUSH1 0x20 ADD PUSH1 0x0 KECCAK256 PUSH1 0x1 ADD PUSH1 0x14 SWAP1 SLOAD SWAP1 PUSH2 0x100 EXP SWAP1 DIV PUSH8 0xFFFFFFFFFFFFFFFF AND PUSH8 0xFFFFFFFFFFFFFFFF AND DUP2 PUSH8 0xFFFFFFFFFFFFFFFF AND EQ PUSH2 0xD9A JUMPI DUP1 PUSH1 0x0 DUP1 DUP6 DUP2 MSTORE PUSH1 0x20 ADD SWAP1 DUP2 MSTORE PUSH1 0x20 ADD PUSH1 0x0 KECCAK256 PUSH1 0x1 ADD PUSH1 0x14 PUSH2 0x100 EXP DUP2 SLOAD DUP2 PUSH8 0xFFFFFFFFFFFFFFFF MUL NOT AND SWAP1 DUP4 PUSH8 0xFFFFFFFFFFFFFFFF AND MUL OR SWAP1 SSTORE POP DUP3 PUSH32 0x1D4F9BBFC9CAB89D66E1A1562F2233CCBF1308CB4F63DE2EAD5787ADDDB8FA68 DUP3 PUSH1 0x40 MLOAD PUSH2 0xD91 SWAP2 SWAP1 PUSH2 0xF9B JUMP JUMPDEST PUSH1 0x40 MLOAD DUP1 SWAP2 SUB SWAP1 LOG2 JUMPDEST POP POP POP JUMP JUMPDEST PUSH1 0x0 DUP1 REVERT JUMPDEST PUSH1 0x0 DUP2 SWAP1 POP SWAP2 SWAP1 POP JUMP JUMPDEST PUSH2 0xDB7 DUP2 PUSH2 0xDA4 JUMP JUMPDEST DUP2 EQ PUSH2 0xDC2 JUMPI PUSH1 0x0 DUP1 REVERT JUMPDEST POP JUMP JUMPDEST PUSH1 0x0 DUP2 CALLDATALOAD SWAP1 POP PUSH2 0xDD4 DUP2 PUSH2 0xDAE JUMP JUMPDEST SWAP3 SWAP2 POP POP JUMP JUMPDEST PUSH1 0x0 PUSH1 0x20 DUP3 DUP5 SUB SLT ISZERO PUSH2 0xDF0 JUMPI PUSH2 0xDEF PUSH2 0xD9F JUMP JUMPDEST JUMPDEST PUSH1 0x0 PUSH2 0xDFE DUP5 DUP3 DUP6 ADD PUSH2 0xDC5 JUMP JUMPDEST SWAP2 POP POP SWAP3 SWAP2 POP POP JUMP JUMPDEST PUSH1 0x0 PUSH20 0xFFFFFFFFFFFFFFFFFFFFFFFFFFFFFFFFFFFFFFFF DUP3 AND SWAP1 POP SWAP2 SWAP1 POP JUMP JUMPDEST PUSH1 0x0 PUSH2 0xE32 DUP3 PUSH2 0xE07 JUMP JUMPDEST SWAP1 POP SWAP2 SWAP1 POP JUMP JUMPDEST PUSH2 0xE42 DUP2 PUSH2 0xE27 JUMP JUMPDEST DUP3 MSTORE POP POP JUMP JUMPDEST PUSH1 0x0 PUSH1 0x20 DUP3 ADD SWAP1 POP PUSH2 0xE5D PUSH1 0x0 DUP4 ADD DUP5 PUSH2 0xE39 JUMP JUMPDEST SWAP3 SWAP2 POP POP JUMP JUMPDEST PUSH2 0xE6C DUP2 PUSH2 0xE27 JUMP JUMPDEST DUP2 EQ PUSH2 0xE77 JUMPI PUSH1 0x0 DUP1 REVERT JUMPDEST POP JUMP JUMPDEST PUSH1 0x0 DUP2 CALLDATALOAD SWAP1 POP PUSH2 0xE89 DUP2 PUSH2 0xE63 JUMP JUMPDEST SWAP3 SWAP2 POP POP JUMP JUMPDEST PUSH1 0x0 DUP1 PUSH1 0x0 PUSH1 0x60 DUP5 DUP7 SUB SLT ISZERO PUSH2 0xEA8 JUMPI PUSH2 0xEA7 PUSH2 0xD9F JUMP JUMPDEST JUMPDEST PUSH1 0x0 PUSH2 0xEB6 DUP7 DUP3 DUP8 ADD PUSH2 0xDC5 JUMP JUMPDEST SWAP4 POP POP PUSH1 0x20 PUSH2 0xEC7 DUP7 DUP3 DUP8 ADD PUSH2 0xDC5 JUMP JUMPDEST SWAP3 POP POP PUSH1 0x40 PUSH2 0xED8 DUP7 DUP3 DUP8 ADD PUSH2 0xE7A JUMP JUMPDEST SWAP2 POP POP SWAP3 POP SWAP3 POP SWAP3 JUMP JUMPDEST PUSH2 0xEEB DUP2 PUSH2 0xDA4 JUMP JUMPDEST DUP3 MSTORE POP POP JUMP JUMPDEST PUSH1 0x0 PUSH1 0x20 DUP3 ADD SWAP1 POP PUSH2 0xF06 PUSH1 0x0 DUP4 ADD DUP5 PUSH2 0xEE2 JUMP JUMPDEST SWAP3 SWAP2 POP POP JUMP JUMPDEST PUSH1 0x0 PUSH8 0xFFFFFFFFFFFFFFFF DUP3 AND SWAP1 POP SWAP2 SWAP1 POP JUMP JUMPDEST PUSH2 0xF29 DUP2 PUSH2 0xF0C JUMP JUMPDEST DUP2 EQ PUSH2 0xF34 JUMPI PUSH1 0x0 DUP1 REVERT JUMPDEST POP JUMP JUMPDEST PUSH1 0x0 DUP2 CALLDATALOAD SWAP1 POP PUSH2 0xF46 DUP2 PUSH2 0xF20 JUMP JUMPDEST SWAP3 SWAP2 POP POP JUMP JUMPDEST PUSH1 0x0 DUP1 PUSH1 0x40 DUP4 DUP6 SUB SLT ISZERO PUSH2 0xF63 JUMPI PUSH2 0xF62 PUSH2 0xD9F JUMP JUMPDEST JUMPDEST PUSH1 0x0 PUSH2 0xF71 DUP6 DUP3 DUP7 ADD PUSH2 0xDC5 JUMP JUMPDEST SWAP3 POP POP PUSH1 0x20 PUSH2 0xF82 DUP6 DUP3 DUP7 ADD PUSH2 0xF37 JUMP JUMPDEST SWAP2 POP POP SWAP3 POP SWAP3 SWAP1 POP JUMP JUMPDEST PUSH2 0xF95 DUP2 PUSH2 0xF0C JUMP JUMPDEST DUP3 MSTORE POP POP JUMP JUMPDEST PUSH1 0x0 PUSH1 0x20 DUP3 ADD SWAP1 POP PUSH2 0xFB0 PUSH1 0x0 DUP4 ADD DUP5 PUSH2 0xF8C JUMP JUMPDEST SWAP3 SWAP2 POP POP JUMP JUMPDEST PUSH1 0x0 DUP1 PUSH1 0x40 DUP4 DUP6 SUB SLT ISZERO PUSH2 0xFCD JUMPI PUSH2 0xFCC PUSH2 0xD9F JUMP JUMPDEST JUMPDEST PUSH1 0x0 PUSH2 0xFDB DUP6 DUP3 DUP7 ADD PUSH2 0xDC5 JUMP JUMPDEST SWAP3 POP POP PUSH1 0x20 PUSH2 0xFEC DUP6 DUP3 DUP7 ADD PUSH2 0xE7A JUMP JUMPDEST SWAP2 POP POP SWAP3 POP SWAP3 SWAP1 POP JUMP JUMPDEST PUSH1 0x0 DUP1 PUSH1 0x0 DUP1 PUSH1 0x0 PUSH1 0xA0 DUP7 DUP9 SUB SLT ISZERO PUSH2 0x1012 JUMPI PUSH2 0x1011 PUSH2 0xD9F JUMP JUMPDEST JUMPDEST PUSH1 0x0 PUSH2 0x1020 DUP9 DUP3 DUP10 ADD PUSH2 0xDC5 JUMP JUMPDEST SWAP6 POP POP PUSH1 0x20 PUSH2 0x1031 DUP9 DUP3 DUP10 ADD PUSH2 0xDC5 JUMP JUMPDEST SWAP5 POP POP PUSH1 0x40 PUSH2 0x1042 DUP9 DUP3 DUP10 ADD PUSH2 0xE7A JUMP JUMPDEST SWAP4 POP POP PUSH1 0x60 PUSH2 0x1053 DUP9 DUP3 DUP10 ADD PUSH2 0xE7A JUMP JUMPDEST SWAP3 POP POP PUSH1 0x80 PUSH2 0x1064 DUP9 DUP3 DUP10 ADD PUSH2 0xF37 JUMP JUMPDEST SWAP2 POP POP SWAP3 SWAP6 POP SWAP3 SWAP6 SWAP1 SWAP4 POP JUMP JUMPDEST PUSH1 0x0 DUP2 ISZERO ISZERO SWAP1 POP SWAP2 SWAP1 POP JUMP JUMPDEST PUSH2 0x1086 DUP2 PUSH2 0x1071 JUMP JUMPDEST DUP2 EQ PUSH2 0x1091 JUMPI PUSH1 0x0 DUP1 REVERT JUMPDEST POP JUMP JUMPDEST PUSH1 0x0 DUP2 CALLDATALOAD SWAP1 POP PUSH2 0x10A3 DUP2 PUSH2 0x107D JUMP JUMPDEST SWAP3 SWAP2 POP POP JUMP JUMPDEST PUSH1 0x0 DUP1 PUSH1 0x40 DUP4 DUP6 SUB SLT ISZERO PUSH2 0x10C0 JUMPI PUSH2 0x10BF PUSH2 0xD9F JUMP JUMPDEST JUMPDEST PUSH1 0x0 PUSH2 0x10CE DUP6 DUP3 DUP7 ADD PUSH2 0xE7A JUMP JUMPDEST SWAP3 POP POP PUSH1 0x20 PUSH2 0x10DF DUP6 DUP3 DUP7 ADD PUSH2 0x1094 JUMP JUMPDEST SWAP2 POP POP SWAP3 POP SWAP3 SWAP1 POP JUMP JUMPDEST PUSH1 0x0 DUP1 PUSH1 0x0 DUP1 PUSH1 0x80 DUP6 DUP8 SUB SLT ISZERO PUSH2 0x1103 JUMPI PUSH2 0x1102 PUSH2 0xD9F JUMP JUMPDEST JUMPDEST PUSH1 0x0 PUSH2 0x1111 DUP8 DUP3 DUP9 ADD PUSH2 0xDC5 JUMP JUMPDEST SWAP5 POP POP PUSH1 0x20 PUSH2 0x1122 DUP8 DUP3 DUP9 ADD PUSH2 0xE7A JUMP JUMPDEST SWAP4 POP POP PUSH1 0x40 PUSH2 0x1133 DUP8 DUP3 DUP9 ADD PUSH2 0xE7A JUMP JUMPDEST SWAP3 POP POP PUSH1 0x60 PUSH2 0x1144 DUP8 DUP3 DUP9 ADD PUSH2 0xF37 JUMP JUMPDEST SWAP2 POP POP SWAP3 SWAP6 SWAP2 SWAP5 POP SWAP3 POP JUMP JUMPDEST PUSH1 0x0 DUP1 PUSH1 0x40 DUP4 DUP6 SUB SLT ISZERO PUSH2 0x1167 JUMPI PUSH2 0x1166 PUSH2 0xD9F JUMP JUMPDEST JUMPDEST PUSH1 0x0 PUSH2 0x1175 DUP6 DUP3 DUP7 ADD PUSH2 0xE7A JUMP JUMPDEST SWAP3 POP POP PUSH1 0x20 PUSH2 0x1186 DUP6 DUP3 DUP7 ADD PUSH2 0xE7A JUMP JUMPDEST SWAP2 POP POP SWAP3 POP SWAP3 SWAP1 POP JUMP JUMPDEST PUSH2 0x1199 DUP2 PUSH2 0x1071 JUMP JUMPDEST DUP3 MSTORE POP POP JUMP JUMPDEST PUSH1 0x0 PUSH1 0x20 DUP3 ADD SWAP1 POP PUSH2 0x11B4 PUSH1 0x0 DUP4 ADD DUP5 PUSH2 0x1190 JUMP JUMPDEST SWAP3 SWAP2 POP POP JUMP JUMPDEST PUSH1 0x0 DUP2 SWAP1 POP SWAP2 SWAP1 POP JUMP JUMPDEST PUSH2 0x11D5 PUSH2 0x11D0 DUP3 PUSH2 0xDA4 JUMP JUMPDEST PUSH2 0x11BA JUMP JUMPDEST DUP3 MSTORE POP POP JUMP JUMPDEST PUSH1 0x0 PUSH2 0x11E7 DUP3 DUP6 PUSH2 0x11C4 JUMP JUMPDEST PUSH1 0x20 DUP3 ADD SWAP2 POP PUSH2 0x11F7 DUP3 DUP5 PUSH2 0x11C4 JUMP JUMPDEST PUSH1 0x20 DUP3 ADD SWAP2 POP DUP2 SWAP1 POP SWAP4 SWAP3 POP POP POP JUMP INVALID LOG2 PUSH5 0x6970667358 0x22 SLT KECCAK256 0xB1 SWAP3 0xCB 0xBF PUSH6 0x173829261D48 SELFBALANCE PUSH31 0x3DDFD6DBB98A9C697E456F9900794B8AC233AE64736F6C634300081A003300 "
				},
				"gasEstimates": {
					"creation": {
						"codeDepositCost": "933800",
						"executionCost": "25324",
						"totalCost": "959124"
					},
					"external": {
						"isApprovedForAll(address,address)": "infinite",
						"owner(bytes32)": "2952",
						"recordExists(bytes32)": "2959",
						"resolver(bytes32)": "2872",
						"setApprovalForAll(address,bool)": "infinite",
						"setOwner(bytes32,address)": "infinite",
						"setRecord(bytes32,address,address,uint64)": "infinite",
						"setResolver(bytes32,address)": "infinite",
						"setSubnodeOwner(bytes32,bytes32,address)": "infinite",
						"setSubnodeRecord(bytes32,bytes32,address,address,uint64)": "infinite",
						"setTTL(bytes32,uint64)": "infinite",
						"ttl(bytes32)": "2967"
					},
					"internal": {
						"_setOwner(bytes32,address)": "24370",
						"_setResolverAndTTL(bytes32,address,uint64)": "infinite"
					}
				},
				"methodIdentifiers": {
					"isApprovedForAll(address,address)": "e985e9c5",
					"owner(bytes32)": "02571be3",
					"recordExists(bytes32)": "f79fe538",
					"resolver(bytes32)": "0178b8bf",
					"setApprovalForAll(address,bool)": "a22cb465",
					"setOwner(bytes32,address)": "5b0fc9c3",
					"setRecord(bytes32,address,address,uint64)": "cf408823",
					"setResolver(bytes32,address)": "1896f70a",
					"setSubnodeOwner(bytes32,bytes32,address)": "06ab5923",
					"setSubnodeRecord(bytes32,bytes32,address,address,uint64)": "5ef2c7f0",
					"setTTL(bytes32,uint64)": "14ab9038",
					"ttl(bytes32)": "16a25cbd"
				}
			},
			"storageLayout": {
				"storage": [
					{
						"astId": 154,
						"contract": "Contracts/EnsRegistry.sol:ENSRegistry",
						"label": "records",
						"offset": 0,
						"slot": "0",
						"type": "t_mapping(t_bytes32,t_struct(Record)149_storage)"
					},
					{
						"astId": 160,
						"contract": "Contracts/EnsRegistry.sol:ENSRegistry",
						"label": "operators",
						"offset": 0,
						"slot": "1",
						"type": "t_mapping(t_address,t_mapping(t_address,t_bool))"
					}
				],
				"types": {
					"t_address": {
						"encoding": "inplace",
						"label": "address",
						"numberOfBytes": "20"
					},
					"t_bool": {
						"encoding": "inplace",
						"label": "bool",
						"numberOfBytes": "1"
					},
					"t_bytes32": {
						"encoding": "inplace",
						"label": "bytes32",
						"numberOfBytes": "32"
					},
					"t_mapping(t_address,t_bool)": {
						"encoding": "mapping",
						"key": "t_address",
						"label": "mapping(address => bool)",
						"numberOfBytes": "32",
						"value": "t_bool"
					},
					"t_mapping(t_address,t_mapping(t_address,t_bool))": {
						"encoding": "mapping",
						"key": "t_address",
						"label": "mapping(address => mapping(address => bool))",
						"numberOfBytes": "32",
						"value": "t_mapping(t_address,t_bool)"
					},
					"t_mapping(t_bytes32,t_struct(Record)149_storage)": {
						"encoding": "mapping",
						"key": "t_bytes32",
						"label": "mapping(bytes32 => struct ENSRegistry.Record)",
						"numberOfBytes": "32",
						"value": "t_struct(Record)149_storage"
					},
					"t_struct(Record)149_storage": {
						"encoding": "inplace",
						"label": "struct ENSRegistry.Record",
						"members": [
							{
								"astId": 144,
								"contract": "Contracts/EnsRegistry.sol:ENSRegistry",
								"label": "owner",
								"offset": 0,
								"slot": "0",
								"type": "t_address"
							},
							{
								"astId": 146,
								"contract": "Contracts/EnsRegistry.sol:ENSRegistry",
								"label": "resolver",
								"offset": 0,
								"slot": "1",
								"type": "t_address"
							},
							{
								"astId": 148,
								"contract": "Contracts/EnsRegistry.sol:ENSRegistry",
								"label": "ttl",
								"offset": 20,
								"slot": "1",
								"type": "t_uint64"
							}
						],
						"numberOfBytes": "64"
					},
					"t_uint64": {
						"encoding": "inplace",
						"label": "uint64",
						"numberOfBytes": "8"
					}
				}
			},
			"userdoc": {
				"kind": "user",
				"methods": {},
				"notice": "The ENS registry contract.",
				"version": 1
			}
		}
	}
}